{
  "_format": "hh-sol-artifact-1",
  "contractName": "MixinDidStorage",
  "sourceName": "contracts/MixinDidStorage.sol",
  "abi": [
    {
      "inputs": [
        {
          "internalType": "string",
          "name": "",
          "type": "string"
        }
      ],
      "name": "data",
      "outputs": [
        {
          "internalType": "uint256",
          "name": "size",
          "type": "uint256"
        }
      ],
      "stateMutability": "view",
      "type": "function"
    },
    {
      "inputs": [
        {
          "internalType": "string",
          "name": "",
          "type": "string"
        }
      ],
      "name": "didStatus",
      "outputs": [
        {
          "internalType": "bool",
          "name": "deactivated",
          "type": "bool"
        },
        {
          "internalType": "uint256",
          "name": "authListLen",
          "type": "uint256"
        }
      ],
      "stateMutability": "view",
      "type": "function"
    }
  ],
  "bytecode": "0x608060405234801561001057600080fd5b50610236806100206000396000f3fe608060405234801561001057600080fd5b50600436106100365760003560e01c806304f6748c1461003b578063af4e1238146100f3575b600080fd5b6100e16004803603602081101561005157600080fd5b81019060208101813564010000000081111561006c57600080fd5b82018360208201111561007e57600080fd5b803590602001918460018302840111640100000000831117156100a057600080fd5b91908080601f0160208091040260200160405190810160405280939291908181526020018383808284376000920191909152509295506101b4945050505050565b60408051918252519081900360200190f35b6101996004803603602081101561010957600080fd5b81019060208101813564010000000081111561012457600080fd5b82018360208201111561013657600080fd5b8035906020019184600183028401116401000000008311171561015857600080fd5b91908080601f0160208091040260200160405190810160405280939291908181526020018383808284376000920191909152509295506101d4945050505050565b60408051921515835260208301919091528051918290030190f35b805160208183018101805160008252928201919093012091526002015481565b805160208183018101805160018083529383019290940191909120929052815491015460ff909116908256fea2646970667358221220ca09845ec80ab95ffd4b30d1a49c073aed210cbb9ae27ce2d0296bbc8f417e2664736f6c634300060c0033",
  "linkReferences": {},
  "deployedLinkReferences": {}
}