{
  "_format": "hh-sol-artifact-1",
  "contractName": "BytesUtils",
  "sourceName": "contracts/BytesUtils.sol",
  "abi": [
    {
      "inputs": [
        {
          "internalType": "string",
          "name": "s",
          "type": "string"
        }
      ],
      "name": "fromHex",
      "outputs": [
        {
          "internalType": "bytes",
          "name": "",
          "type": "bytes"
        }
      ],
      "stateMutability": "pure",
      "type": "function"
    },
    {
      "inputs": [
        {
          "internalType": "uint8",
          "name": "c",
          "type": "uint8"
        }
      ],
      "name": "fromHexChar",
      "outputs": [
        {
          "internalType": "uint8",
          "name": "",
          "type": "uint8"
        }
      ],
      "stateMutability": "pure",
      "type": "function"
    },
    {
      "inputs": [
        {
          "internalType": "string",
          "name": "str",
          "type": "string"
        }
      ],
      "name": "toLower",
      "outputs": [
        {
          "internalType": "string",
          "name": "",
          "type": "string"
        }
      ],
      "stateMutability": "pure",
      "type": "function"
    }
  ],
  "bytecode": "0x610535610026600b82828239805160001a60731461001957fe5b30600052607381538281f3fe730000000000000000000000000000000000000000301460806040526004361061004b5760003560e01c80632ecb20d3146100505780638e7e34d7146100865780639416b423146101a1575b600080fd5b6100706004803603602081101561006657600080fd5b503560ff16610247565b6040805160ff9092168252519081900360200190f35b61012c6004803603602081101561009c57600080fd5b8101906020810181356401000000008111156100b757600080fd5b8201836020820111156100c957600080fd5b803590602001918460018302840111640100000000831117156100eb57600080fd5b91908080601f016020809104026020016040519081016040528093929190818152602001838380828437600092019190915250929550610316945050505050565b6040805160208082528351818301528351919283929083019185019080838360005b8381101561016657818101518382015260200161014e565b50505050905090810190601f1680156101935780820380516001836020036101000a031916815260200191505b509250505060405180910390f35b61012c600480360360208110156101b757600080fd5b8101906020810181356401000000008111156101d257600080fd5b8201836020820111156101e457600080fd5b8035906020019184600183028401116401000000008311171561020657600080fd5b91908080601f016020809104026020016040519081016040528093929190818152602001838380828437600092019190915250929550610400945050505050565b6000600360fc1b60f883901b6001600160f81b0319161080159061027d5750603960f81b60f883901b6001600160f81b03191611155b1561028d5750602f198101610311565b606160f81b60f883901b6001600160f81b031916108015906102c15750603360f91b60f883901b6001600160f81b03191611155b156102d157506056198101610311565b604160f81b60f883901b6001600160f81b031916108015906103055750602360f91b60f883901b6001600160f81b03191611155b1561004b575060361981015b919050565b805160609082906001161561032a57600080fd5b6060600282518161033757fe5b0467ffffffffffffffff8111801561034e57600080fd5b506040519080825280601f01601f191660200182016040528015610379576020820181803683370190505b50905060005b600283518161038a57fe5b048110156103f8576103b48382600202600101815181106103a757fe5b016020015160f81c610247565b6103c68483600202815181106103a757fe5b6010020160f81b8282815181106103d957fe5b60200101906001600160f81b031916908160001a90535060010161037f565b509392505050565b6060808290506060815167ffffffffffffffff8111801561042057600080fd5b506040519080825280601f01601f19166020018201604052801561044b576020820181803683370190505b50905060005b82518110156103f857600083828151811061046857fe5b016020015160f81c9050604181108015906104875750605a8160ff1611155b156104bb578060200160f81b83838151811061049f57fe5b60200101906001600160f81b031916908160001a9053506104f6565b8382815181106104c757fe5b602001015160f81c60f81b8383815181106104de57fe5b60200101906001600160f81b031916908160001a9053505b5060010161045156fea2646970667358221220d83b6868ae3a824ee65c9eefc5c7eb53a32b51f86f1f2a519564700209cfa9b164736f6c634300060c0033",
  "linkReferences": {},
  "deployedLinkReferences": {}
}