{
  "address": "0x91695a2B145c1e15b1e51b52d555aD0d763275fD",
  "abi": [
    {
      "inputs": [
        {
          "internalType": "address",
          "name": "_target",
          "type": "address"
        },
        {
          "internalType": "address",
          "name": "admin",
          "type": "address"
        }
      ],
      "stateMutability": "nonpayable",
      "type": "constructor"
    },
    {
      "inputs": [],
      "name": "AccessControlBadConfirmation",
      "type": "error"
    },
    {
      "inputs": [
        {
          "internalType": "address",
          "name": "account",
          "type": "address"
        },
        {
          "internalType": "bytes32",
          "name": "neededRole",
          "type": "bytes32"
        }
      ],
      "name": "AccessControlUnauthorizedAccount",
      "type": "error"
    },
    {
      "inputs": [
        {
          "internalType": "address",
          "name": "account",
          "type": "address"
        }
      ],
      "name": "AddressInsufficientBalance",
      "type": "error"
    },
    {
      "inputs": [],
      "name": "FailedInnerCall",
      "type": "error"
    },
    {
      "anonymous": false,
      "inputs": [
        {
          "indexed": true,
          "internalType": "address",
          "name": "user",
          "type": "address"
        },
        {
          "indexed": false,
          "internalType": "uint256",
          "name": "newCredibility",
          "type": "uint256"
        }
      ],
      "name": "CredibilityUpdated",
      "type": "event"
    },
    {
      "anonymous": false,
      "inputs": [
        {
          "indexed": true,
          "internalType": "address",
          "name": "from",
          "type": "address"
        },
        {
          "indexed": true,
          "internalType": "address",
          "name": "recipient",
          "type": "address"
        },
        {
          "indexed": false,
          "internalType": "uint256",
          "name": "value",
          "type": "uint256"
        },
        {
          "indexed": false,
          "internalType": "uint256",
          "name": "credibilityAdded",
          "type": "uint256"
        }
      ],
      "name": "Deposit",
      "type": "event"
    },
    {
      "anonymous": false,
      "inputs": [
        {
          "indexed": true,
          "internalType": "bytes32",
          "name": "role",
          "type": "bytes32"
        },
        {
          "indexed": true,
          "internalType": "bytes32",
          "name": "previousAdminRole",
          "type": "bytes32"
        },
        {
          "indexed": true,
          "internalType": "bytes32",
          "name": "newAdminRole",
          "type": "bytes32"
        }
      ],
      "name": "RoleAdminChanged",
      "type": "event"
    },
    {
      "anonymous": false,
      "inputs": [
        {
          "indexed": true,
          "internalType": "bytes32",
          "name": "role",
          "type": "bytes32"
        },
        {
          "indexed": true,
          "internalType": "address",
          "name": "account",
          "type": "address"
        },
        {
          "indexed": true,
          "internalType": "address",
          "name": "sender",
          "type": "address"
        }
      ],
      "name": "RoleGranted",
      "type": "event"
    },
    {
      "anonymous": false,
      "inputs": [
        {
          "indexed": true,
          "internalType": "bytes32",
          "name": "role",
          "type": "bytes32"
        },
        {
          "indexed": true,
          "internalType": "address",
          "name": "account",
          "type": "address"
        },
        {
          "indexed": true,
          "internalType": "address",
          "name": "sender",
          "type": "address"
        }
      ],
      "name": "RoleRevoked",
      "type": "event"
    },
    {
      "anonymous": false,
      "inputs": [
        {
          "indexed": true,
          "internalType": "address",
          "name": "_from",
          "type": "address"
        },
        {
          "indexed": true,
          "internalType": "address",
          "name": "_to",
          "type": "address"
        },
        {
          "indexed": false,
          "internalType": "uint256",
          "name": "_value",
          "type": "uint256"
        }
      ],
      "name": "withdrawal",
      "type": "event"
    },
    {
      "inputs": [],
      "name": "CREDIBILITY_RATE",
      "outputs": [
        {
          "internalType": "uint256",
          "name": "",
          "type": "uint256"
        }
      ],
      "stateMutability": "view",
      "type": "function"
    },
    {
      "inputs": [],
      "name": "DEFAULT_ADMIN_ROLE",
      "outputs": [
        {
          "internalType": "bytes32",
          "name": "",
          "type": "bytes32"
        }
      ],
      "stateMutability": "view",
      "type": "function"
    },
    {
      "inputs": [],
      "name": "MEMBER",
      "outputs": [
        {
          "internalType": "bytes32",
          "name": "",
          "type": "bytes32"
        }
      ],
      "stateMutability": "view",
      "type": "function"
    },
    {
      "inputs": [
        {
          "internalType": "address",
          "name": "recipient",
          "type": "address"
        }
      ],
      "name": "addStake",
      "outputs": [],
      "stateMutability": "payable",
      "type": "function"
    },
    {
      "inputs": [
        {
          "internalType": "address",
          "name": "newCollator",
          "type": "address"
        }
      ],
      "name": "change_target",
      "outputs": [],
      "stateMutability": "nonpayable",
      "type": "function"
    },
    {
      "inputs": [],
      "name": "check_free_balance",
      "outputs": [
        {
          "internalType": "uint256",
          "name": "",
          "type": "uint256"
        }
      ],
      "stateMutability": "view",
      "type": "function"
    },
    {
      "inputs": [
        {
          "internalType": "address",
          "name": "",
          "type": "address"
        }
      ],
      "name": "credibilityPoints",
      "outputs": [
        {
          "internalType": "uint256",
          "name": "",
          "type": "uint256"
        }
      ],
      "stateMutability": "view",
      "type": "function"
    },
    {
      "inputs": [],
      "name": "currentState",
      "outputs": [
        {
          "internalType": "enum LunaCred.daoState",
          "name": "",
          "type": "uint8"
        }
      ],
      "stateMutability": "view",
      "type": "function"
    },
    {
      "inputs": [
        {
          "internalType": "address",
          "name": "member",
          "type": "address"
        }
      ],
      "name": "getCredibilityPoints",
      "outputs": [
        {
          "internalType": "uint256",
          "name": "",
          "type": "uint256"
        }
      ],
      "stateMutability": "view",
      "type": "function"
    },
    {
      "inputs": [
        {
          "internalType": "bytes32",
          "name": "role",
          "type": "bytes32"
        }
      ],
      "name": "getRoleAdmin",
      "outputs": [
        {
          "internalType": "bytes32",
          "name": "",
          "type": "bytes32"
        }
      ],
      "stateMutability": "view",
      "type": "function"
    },
    {
      "inputs": [
        {
          "internalType": "bytes32",
          "name": "role",
          "type": "bytes32"
        },
        {
          "internalType": "address",
          "name": "account",
          "type": "address"
        }
      ],
      "name": "grantRole",
      "outputs": [],
      "stateMutability": "nonpayable",
      "type": "function"
    },
    {
      "inputs": [
        {
          "internalType": "address",
          "name": "newAdmin",
          "type": "address"
        }
      ],
      "name": "grant_admin",
      "outputs": [],
      "stateMutability": "nonpayable",
      "type": "function"
    },
    {
      "inputs": [
        {
          "internalType": "address",
          "name": "newMember",
          "type": "address"
        }
      ],
      "name": "grant_member",
      "outputs": [],
      "stateMutability": "nonpayable",
      "type": "function"
    },
    {
      "inputs": [
        {
          "internalType": "bytes32",
          "name": "role",
          "type": "bytes32"
        },
        {
          "internalType": "address",
          "name": "account",
          "type": "address"
        }
      ],
      "name": "hasRole",
      "outputs": [
        {
          "internalType": "bool",
          "name": "",
          "type": "bool"
        }
      ],
      "stateMutability": "view",
      "type": "function"
    },
    {
      "inputs": [
        {
          "internalType": "address",
          "name": "",
          "type": "address"
        }
      ],
      "name": "memberStakes",
      "outputs": [
        {
          "internalType": "uint256",
          "name": "",
          "type": "uint256"
        }
      ],
      "stateMutability": "view",
      "type": "function"
    },
    {
      "inputs": [],
      "name": "minDelegationStk",
      "outputs": [
        {
          "internalType": "uint256",
          "name": "",
          "type": "uint256"
        }
      ],
      "stateMutability": "view",
      "type": "function"
    },
    {
      "inputs": [
        {
          "internalType": "address payable",
          "name": "exMember",
          "type": "address"
        }
      ],
      "name": "remove_member",
      "outputs": [],
      "stateMutability": "nonpayable",
      "type": "function"
    },
    {
      "inputs": [
        {
          "internalType": "bytes32",
          "name": "role",
          "type": "bytes32"
        },
        {
          "internalType": "address",
          "name": "callerConfirmation",
          "type": "address"
        }
      ],
      "name": "renounceRole",
      "outputs": [],
      "stateMutability": "nonpayable",
      "type": "function"
    },
    {
      "inputs": [],
      "name": "reset_dao",
      "outputs": [],
      "stateMutability": "nonpayable",
      "type": "function"
    },
    {
      "inputs": [
        {
          "internalType": "bytes32",
          "name": "role",
          "type": "bytes32"
        },
        {
          "internalType": "address",
          "name": "account",
          "type": "address"
        }
      ],
      "name": "revokeRole",
      "outputs": [],
      "stateMutability": "nonpayable",
      "type": "function"
    },
    {
      "inputs": [],
      "name": "schedule_revoke",
      "outputs": [],
      "stateMutability": "nonpayable",
      "type": "function"
    },
    {
      "inputs": [
        {
          "internalType": "address",
          "name": "",
          "type": "address"
        },
        {
          "internalType": "address",
          "name": "",
          "type": "address"
        }
      ],
      "name": "stakedOnBehalfOf",
      "outputs": [
        {
          "internalType": "uint256",
          "name": "",
          "type": "uint256"
        }
      ],
      "stateMutability": "view",
      "type": "function"
    },
    {
      "inputs": [],
      "name": "staking",
      "outputs": [
        {
          "internalType": "contract ParachainStaking",
          "name": "",
          "type": "address"
        }
      ],
      "stateMutability": "view",
      "type": "function"
    },
    {
      "inputs": [],
      "name": "stakingPrecompileAddress",
      "outputs": [
        {
          "internalType": "address",
          "name": "",
          "type": "address"
        }
      ],
      "stateMutability": "view",
      "type": "function"
    },
    {
      "inputs": [
        {
          "internalType": "bytes4",
          "name": "interfaceId",
          "type": "bytes4"
        }
      ],
      "name": "supportsInterface",
      "outputs": [
        {
          "internalType": "bool",
          "name": "",
          "type": "bool"
        }
      ],
      "stateMutability": "view",
      "type": "function"
    },
    {
      "inputs": [],
      "name": "target",
      "outputs": [
        {
          "internalType": "address",
          "name": "",
          "type": "address"
        }
      ],
      "stateMutability": "view",
      "type": "function"
    },
    {
      "inputs": [],
      "name": "totalStake",
      "outputs": [
        {
          "internalType": "uint256",
          "name": "",
          "type": "uint256"
        }
      ],
      "stateMutability": "view",
      "type": "function"
    },
    {
      "inputs": [
        {
          "internalType": "address payable",
          "name": "account",
          "type": "address"
        }
      ],
      "name": "withdraw",
      "outputs": [],
      "stateMutability": "nonpayable",
      "type": "function"
    }
  ],
  "transactionHash": "0xa101dee1790654f2fd28bd42290c35f33dcb8a970d19d53c81b5ab92324ff771",
  "args": [
    "0xd34fedcEfBaaCbd74bD3d0bB80b3a67e6B2dEfb7",
    "0xAfAeC3e0c839019Cf3be55e7e7500F0edF6A833d"
  ],
  "numDeployments": 2,
  "solcInputHash": "ee1c6fac7c37fc3c71663f11f344ef95",
  "bytecode": "0x60806040523480156200001157600080fd5b50604051620018f3380380620018f3833981016040819052620000349162000178565b600780546001600160a01b0384166001600160a01b031991821617909155600680549091166108001790556200006c600082620000ac565b50620000997fffa60083152bd11704a80cc8c7a409dad8aa74288b454a3ba0e94c0abc7cf16882620000ac565b50506001805460ff1916905550620001b0565b6000828152602081815260408083206001600160a01b038516845290915281205460ff1662000151576000838152602081815260408083206001600160a01b03861684529091529020805460ff19166001179055620001083390565b6001600160a01b0316826001600160a01b0316847f2f8788117e7eff1d82e926ec794901d17c78024a50270940304540a733656f0d60405160405180910390a450600162000155565b5060005b92915050565b80516001600160a01b03811681146200017357600080fd5b919050565b600080604083850312156200018c57600080fd5b62000197836200015b565b9150620001a7602084016200015b565b90509250929050565b61173380620001c06000396000f3fe6080604052600436106101b75760003560e01c8063760520b4116100ec578063a85fdc401161008a578063d21d7b3111610064578063d21d7b3114610513578063d4b8399214610528578063d547741f14610548578063e1147b481461056857600080fd5b8063a85fdc40146104a6578063c54c90d5146104bb578063c7eb35ff146104f357600080fd5b80638e63560b116100c65780638e63560b1461042f57806391d148541461045c578063a217fddf1461047c578063a45e6aa41461049157600080fd5b8063760520b4146103c3578063823cb4aa146103e35780638b0e9f3f1461041957600080fd5b806324cdf45811610159578063485eb85c11610133578063485eb85c1461033a5780634cf088d91461035657806351cff8d91461038e5780636aa56cbd146103ae57600080fd5b806324cdf458146102cd5780632f2ff15d146102fa57806336568abe1461031a57600080fd5b80630ddf758e116101955780630ddf758e1461023a578063107679041461025a5780631c681a421461026d578063248a9ca31461029d57600080fd5b806301ffc9a7146101bc57806308f496dd146101f15780630c3f6acf14610213575b600080fd5b3480156101c857600080fd5b506101dc6101d73660046114c0565b61057e565b60405190151581526020015b60405180910390f35b3480156101fd57600080fd5b5061021161020c3660046114ff565b6105b5565b005b34801561021f57600080fd5b5060015461022d9060ff1681565b6040516101e89190611532565b34801561024657600080fd5b506102116102553660046114ff565b610600565b6102116102683660046114ff565b610627565b34801561027957600080fd5b5061028f6000805160206116de83398151915281565b6040519081526020016101e8565b3480156102a957600080fd5b5061028f6102b836600461155a565b60009081526020819052604090206001015490565b3480156102d957600080fd5b5061028f6102e83660046114ff565b60026020526000908152604090205481565b34801561030657600080fd5b50610211610315366004611573565b610aa4565b34801561032657600080fd5b50610211610335366004611573565b610acf565b34801561034657600080fd5b5061028f670de0b6b3a764000081565b34801561036257600080fd5b50600654610376906001600160a01b031681565b6040516001600160a01b0390911681526020016101e8565b34801561039a57600080fd5b506102116103a93660046114ff565b610b02565b3480156103ba57600080fd5b50610211610e67565b3480156103cf57600080fd5b506102116103de3660046114ff565b610f64565b3480156103ef57600080fd5b5061028f6103fe3660046114ff565b6001600160a01b031660009081526003602052604090205490565b34801561042557600080fd5b5061028f60055481565b34801561043b57600080fd5b5061028f61044a3660046114ff565b60036020526000908152604090205481565b34801561046857600080fd5b506101dc610477366004611573565b610f87565b34801561048857600080fd5b5061028f600081565b34801561049d57600080fd5b50610211610fb0565b3480156104b257600080fd5b5061028f601e81565b3480156104c757600080fd5b5061028f6104d63660046115a3565b600460209081526000928352604080842090915290825290205481565b3480156104ff57600080fd5b5061021161050e3660046114ff565b610fce565b34801561051f57600080fd5b5061028f611097565b34801561053457600080fd5b50600754610376906001600160a01b031681565b34801561055457600080fd5b50610211610563366004611573565b6110b8565b34801561057457600080fd5b5061037661080081565b60006001600160e01b03198216637965db0b60e01b14806105af57506301ffc9a760e01b6001600160e01b03198316145b92915050565b60006105c0816110dd565b6000805160206116de8339815191526105d8816110dd565b6105e3600084610aa4565b6105fb6000805160206116de83398151915284610aa4565b505050565b600061060b816110dd565b6106236000805160206116de83398151915283610aa4565b5050565b6000805160206116de83398151915261063f816110dd565b6106576000805160206116de83398151915283610f87565b6106a85760405162461bcd60e51b815260206004820152601e60248201527f526563697069656e74206d75737420626520612044414f206d656d626572000060448201526064015b60405180910390fd5b6001805460ff1660038111156106c0576106c061151c565b036107e957600654604051637ec55a4160e11b81523060048201526001600160a01b039091169063fd8ab48290602401602060405180830381865afa15801561070d573d6000803e3d6000fd5b505050506040513d601f19601f8201168201806040525081019061073191906115d1565b61077d5760405162461bcd60e51b815260206004820152601f60248201527f44414f20697320696e20616e20696e636f6e73697374656e7420737461746500604482015260640161069f565b600654600754604051630465135b60e01b81526001600160a01b039182166004820152346024820152911690630465135b90604401600060405180830381600087803b1580156107cc57600080fd5b505af11580156107e0573d6000803e3d6000fd5b505050506109cc565b600060015460ff1660038111156108025761080261151c565b0361098457670de0b6b3a7640000471061097f57600654600754604051632ec087eb60e01b81526001600160a01b0391821660048201819052919092169163829f5ee3919047908490632ec087eb90602401602060405180830381865afa158015610871573d6000803e3d6000fd5b505050506040513d601f19601f8201168201806040525081019061089591906115f3565b60065460405163033f641160e11b81523060048201526001600160a01b039091169063067ec82290602401602060405180830381865afa1580156108dd573d6000803e3d6000fd5b505050506040513d601f19601f820116820180604052508101906109019190611619565b6040516001600160e01b031960e087901b1681526001600160a01b039094166004850152602484019290925263ffffffff1660448301526064820152608401600060405180830381600087803b15801561095a57600080fd5b505af115801561096e573d6000803e3d6000fd5b50506001805460ff19168117905550505b6109cc565b60405162461bcd60e51b815260206004820152601f60248201527f44414f206973206e6f7420616363657074696e67206e6577207374616b657300604482015260640161069f565b336000908152600260205260409020546109e690346110ea565b33600090815260026020526040902055600554610a0390346110ea565b6005556000610a1e6064610a1834601e611108565b9061113e565b6001600160a01b038416600090815260036020526040902054909150610a4490826110ea565b6001600160a01b038416600081815260036020908152604091829020939093558051348152928301849052909133917fdcbc1c05240f31ff3ad067ef1ee35ce4997762752e3a095284754544f4c709d791015b60405180910390a3505050565b600082815260208190526040902060010154610abf816110dd565b610ac98383611151565b50505050565b6001600160a01b0381163314610af85760405163334bd91960e11b815260040160405180910390fd5b6105fb82826111e3565b6000805160206116de833981519152610b1a816110dd565b6001805460ff166003811115610b3257610b3261151c565b03610b865760405162461bcd60e51b815260206004820152603060248201526000805160206116be83398151915260448201526f30ba32903a37903bb4ba34323930bb9760811b606482015260840161069f565b600260015460ff166003811115610b9f57610b9f61151c565b03610c12576000610bae61124e565b905080610c105760405162461bcd60e51b815260206004820152602a60248201527f5363686564756c65207265766f6b652064656c6179206973206e6f742066696e60448201526934b9b432b2103cb2ba1760b11b606482015260840161069f565b505b600360015460ff166003811115610c2b57610c2b61151c565b1480610c4d5750600060015460ff166003811115610c4b57610c4b61151c565b145b1561062357600654604051637ec55a4160e11b81523060048201526001600160a01b039091169063fd8ab48290602401602060405180830381865afa158015610c9a573d6000803e3d6000fd5b505050506040513d601f19601f82011682018060405250810190610cbe91906115d1565b15610d175760405162461bcd60e51b8152602060048201526024808201527f5468652044414f20697320696e20616e20696e636f6e73697374656e7420737460448201526330ba329760e11b606482015260840161069f565b600554600003610d625760405162461bcd60e51b815260206004820152601660248201527521b0b73737ba103234bb34b23290313c903d32b9379760511b604482015260640161069f565b600554336000908152600260205260408120549091610d8691610a18904790611108565b905080610d91611097565b1015610def5760405162461bcd60e51b815260206004820152602760248201527f4e6f7420656e6f75676820667265652062616c616e636520666f722077697468604482015266323930bbb0b61760c91b606482015260840161069f565b610df983826113d4565b33600090815260026020526040902054600554610e159161146b565b6005553360008181526002602052604080822091909155516001600160a01b03851691907e29c0b4d760ad1c766c10bcd447eb6426e49a6f1aab829f0611fc7476f1c29390610a979085815260200190565b6000610e72816110dd565b6001805460ff166003811115610e8a57610e8a61151c565b14610eeb5760405162461bcd60e51b815260206004820152603960248201526000805160206116be83398151915260448201527f61746520746f207363686564756c652061207265766f6b652e00000000000000606482015260840161069f565b6006546007546040516306871d0360e21b81526001600160a01b039182166004820152911690631a1c740c90602401600060405180830381600087803b158015610f3457600080fd5b505af1158015610f48573d6000803e3d6000fd5b5050600180546002935090915060ff191681835b021790555050565b6000610f6f816110dd565b6106236000805160206116de833981519152836110b8565b6000918252602082815260408084206001600160a01b0393909316845291905290205460ff1690565b6000610fbb816110dd565b600180546000919060ff19168183610f5c565b6000610fd9816110dd565b600360015460ff166003811115610ff257610ff261151c565b14806110145750600060015460ff1660038111156110125761101261151c565b145b6110745760405162461bcd60e51b815260206004820152603d60248201526000805160206116be83398151915260448201527f61746520746f206368616e6765207374616b696e67207461726765742e000000606482015260840161069f565b50600780546001600160a01b0319166001600160a01b0392909216919091179055565b60006000805160206116de8339815191526110b1816110dd565b4791505090565b6000828152602081905260409020600101546110d3816110dd565b610ac983836111e3565b6110e78133611487565b50565b60006110f68284611648565b9050828110156105af576105af61165b565b60008260000361111a575060006105af565b6111248284611671565b9050816111318483611688565b146105af576105af61165b565b600061114a8284611688565b9392505050565b600061115d8383610f87565b6111db576000838152602081815260408083206001600160a01b03861684529091529020805460ff191660011790556111933390565b6001600160a01b0316826001600160a01b0316847f2f8788117e7eff1d82e926ec794901d17c78024a50270940304540a733656f0d60405160405180910390a45060016105af565b5060006105af565b60006111ef8383610f87565b156111db576000838152602081815260408083206001600160a01b0386168085529252808320805460ff1916905551339286917ff6391f5c32d9c69d2a47ea670b442974b53935d1edc7fd64eb21e047a839171b9190a45060016105af565b60006000805160206116de833981519152611268816110dd565b600260015460ff1660038111156112815761128161151c565b146112e25760405162461bcd60e51b815260206004820152603860248201526000805160206116be83398151915260448201527f61746520746f20657865637574652061207265766f6b652e0000000000000000606482015260840161069f565b6006546007546040516374c6455f60e11b81523060048201526001600160a01b03918216602482015291169063e98c8abe90604401600060405180830381600087803b15801561133157600080fd5b505af1158015611345573d6000803e3d6000fd5b5050600654604051637ec55a4160e11b81523060048201526001600160a01b03909116925063fd8ab4829150602401602060405180830381865afa158015611391573d6000803e3d6000fd5b505050506040513d601f19601f820116820180604052508101906113b591906115d1565b156113c257600091505090565b50506001805460ff1916600317815590565b804710156113f75760405163cd78605960e01b815230600482015260240161069f565b6000826001600160a01b03168260405160006040518083038185875af1925050503d8060008114611444576040519150601f19603f3d011682016040523d82523d6000602084013e611449565b606091505b50509050806105fb57604051630a12f52160e11b815260040160405180910390fd5b60008282111561147d5761147d61165b565b61114a82846116aa565b6114918282610f87565b6106235760405163e2517d3f60e01b81526001600160a01b03821660048201526024810183905260440161069f565b6000602082840312156114d257600080fd5b81356001600160e01b03198116811461114a57600080fd5b6001600160a01b03811681146110e757600080fd5b60006020828403121561151157600080fd5b813561114a816114ea565b634e487b7160e01b600052602160045260246000fd5b602081016004831061155457634e487b7160e01b600052602160045260246000fd5b91905290565b60006020828403121561156c57600080fd5b5035919050565b6000806040838503121561158657600080fd5b823591506020830135611598816114ea565b809150509250929050565b600080604083850312156115b657600080fd5b82356115c1816114ea565b91506020830135611598816114ea565b6000602082840312156115e357600080fd5b8151801515811461114a57600080fd5b60006020828403121561160557600080fd5b815163ffffffff8116811461114a57600080fd5b60006020828403121561162b57600080fd5b5051919050565b634e487b7160e01b600052601160045260246000fd5b808201808211156105af576105af611632565b634e487b7160e01b600052600160045260246000fd5b80820281158282048414176105af576105af611632565b6000826116a557634e487b7160e01b600052601260045260246000fd5b500490565b818103818111156105af576105af61163256fe5468652044414f206973206e6f7420696e2074686520636f7272656374207374ffa60083152bd11704a80cc8c7a409dad8aa74288b454a3ba0e94c0abc7cf168a2646970667358221220ea776f10a632c1cb849f5c938f05da7c2dd6798966a9cfccf96ee1c8a231140c64736f6c63430008140033",
  "devdoc": {
    "errors": {
      "AccessControlBadConfirmation()": [
        {
          "details": "The caller of a function is not the expected one. NOTE: Don't confuse with {AccessControlUnauthorizedAccount}."
        }
      ],
      "AccessControlUnauthorizedAccount(address,bytes32)": [
        {
          "details": "The `account` is missing a role."
        }
      ],
      "AddressInsufficientBalance(address)": [
        {
          "details": "The ETH balance of the account is not enough to perform the operation."
        }
      ],
      "FailedInnerCall()": [
        {
          "details": "A call to an address target failed. The target may have reverted."
        }
      ]
    },
    "events": {
      "RoleAdminChanged(bytes32,bytes32,bytes32)": {
        "details": "Emitted when `newAdminRole` is set as ``role``'s admin role, replacing `previousAdminRole` `DEFAULT_ADMIN_ROLE` is the starting admin for all roles, despite {RoleAdminChanged} not being emitted signaling this."
      },
      "RoleGranted(bytes32,address,address)": {
        "details": "Emitted when `account` is granted `role`. `sender` is the account that originated the contract call, an admin role bearer except when using {AccessControl-_setupRole}."
      },
      "RoleRevoked(bytes32,address,address)": {
        "details": "Emitted when `account` is revoked `role`. `sender` is the account that originated the contract call:   - if using `revokeRole`, it is the admin role bearer   - if using `renounceRole`, it is the role bearer (i.e. `account`)"
      }
    },
    "kind": "dev",
    "methods": {
      "getRoleAdmin(bytes32)": {
        "details": "Returns the admin role that controls `role`. See {grantRole} and {revokeRole}. To change a role's admin, use {_setRoleAdmin}."
      },
      "grantRole(bytes32,address)": {
        "details": "Grants `role` to `account`. If `account` had not been already granted `role`, emits a {RoleGranted} event. Requirements: - the caller must have ``role``'s admin role. May emit a {RoleGranted} event."
      },
      "hasRole(bytes32,address)": {
        "details": "Returns `true` if `account` has been granted `role`."
      },
      "renounceRole(bytes32,address)": {
        "details": "Revokes `role` from the calling account. Roles are often managed via {grantRole} and {revokeRole}: this function's purpose is to provide a mechanism for accounts to lose their privileges if they are compromised (such as when a trusted device is misplaced). If the calling account had been revoked `role`, emits a {RoleRevoked} event. Requirements: - the caller must be `callerConfirmation`. May emit a {RoleRevoked} event."
      },
      "revokeRole(bytes32,address)": {
        "details": "Revokes `role` from `account`. If `account` had been granted `role`, emits a {RoleRevoked} event. Requirements: - the caller must have ``role``'s admin role. May emit a {RoleRevoked} event."
      },
      "supportsInterface(bytes4)": {
        "details": "See {IERC165-supportsInterface}."
      }
    },
    "version": 1
  },
  "userdoc": {
    "kind": "user",
    "methods": {},
    "version": 1
  },
  "storageLayout": {
    "storage": [
      {
        "astId": 26,
        "contract": "contracts/LunaCred.sol:LunaCred",
        "label": "_roles",
        "offset": 0,
        "slot": "0",
        "type": "t_mapping(t_bytes32,t_struct(RoleData)21_storage)"
      },
      {
        "astId": 721,
        "contract": "contracts/LunaCred.sol:LunaCred",
        "label": "currentState",
        "offset": 0,
        "slot": "1",
        "type": "t_enum(daoState)718"
      },
      {
        "astId": 725,
        "contract": "contracts/LunaCred.sol:LunaCred",
        "label": "memberStakes",
        "offset": 0,
        "slot": "2",
        "type": "t_mapping(t_address,t_uint256)"
      },
      {
        "astId": 729,
        "contract": "contracts/LunaCred.sol:LunaCred",
        "label": "credibilityPoints",
        "offset": 0,
        "slot": "3",
        "type": "t_mapping(t_address,t_uint256)"
      },
      {
        "astId": 735,
        "contract": "contracts/LunaCred.sol:LunaCred",
        "label": "stakedOnBehalfOf",
        "offset": 0,
        "slot": "4",
        "type": "t_mapping(t_address,t_mapping(t_address,t_uint256))"
      },
      {
        "astId": 737,
        "contract": "contracts/LunaCred.sol:LunaCred",
        "label": "totalStake",
        "offset": 0,
        "slot": "5",
        "type": "t_uint256"
      },
      {
        "astId": 740,
        "contract": "contracts/LunaCred.sol:LunaCred",
        "label": "staking",
        "offset": 0,
        "slot": "6",
        "type": "t_contract(ParachainStaking)1669"
      },
      {
        "astId": 751,
        "contract": "contracts/LunaCred.sol:LunaCred",
        "label": "target",
        "offset": 0,
        "slot": "7",
        "type": "t_address"
      }
    ],
    "types": {
      "t_address": {
        "encoding": "inplace",
        "label": "address",
        "numberOfBytes": "20"
      },
      "t_bool": {
        "encoding": "inplace",
        "label": "bool",
        "numberOfBytes": "1"
      },
      "t_bytes32": {
        "encoding": "inplace",
        "label": "bytes32",
        "numberOfBytes": "32"
      },
      "t_contract(ParachainStaking)1669": {
        "encoding": "inplace",
        "label": "contract ParachainStaking",
        "numberOfBytes": "20"
      },
      "t_enum(daoState)718": {
        "encoding": "inplace",
        "label": "enum LunaCred.daoState",
        "numberOfBytes": "1"
      },
      "t_mapping(t_address,t_bool)": {
        "encoding": "mapping",
        "key": "t_address",
        "label": "mapping(address => bool)",
        "numberOfBytes": "32",
        "value": "t_bool"
      },
      "t_mapping(t_address,t_mapping(t_address,t_uint256))": {
        "encoding": "mapping",
        "key": "t_address",
        "label": "mapping(address => mapping(address => uint256))",
        "numberOfBytes": "32",
        "value": "t_mapping(t_address,t_uint256)"
      },
      "t_mapping(t_address,t_uint256)": {
        "encoding": "mapping",
        "key": "t_address",
        "label": "mapping(address => uint256)",
        "numberOfBytes": "32",
        "value": "t_uint256"
      },
      "t_mapping(t_bytes32,t_struct(RoleData)21_storage)": {
        "encoding": "mapping",
        "key": "t_bytes32",
        "label": "mapping(bytes32 => struct AccessControl.RoleData)",
        "numberOfBytes": "32",
        "value": "t_struct(RoleData)21_storage"
      },
      "t_struct(RoleData)21_storage": {
        "encoding": "inplace",
        "label": "struct AccessControl.RoleData",
        "members": [
          {
            "astId": 18,
            "contract": "contracts/LunaCred.sol:LunaCred",
            "label": "hasRole",
            "offset": 0,
            "slot": "0",
            "type": "t_mapping(t_address,t_bool)"
          },
          {
            "astId": 20,
            "contract": "contracts/LunaCred.sol:LunaCred",
            "label": "adminRole",
            "offset": 0,
            "slot": "1",
            "type": "t_bytes32"
          }
        ],
        "numberOfBytes": "64"
      },
      "t_uint256": {
        "encoding": "inplace",
        "label": "uint256",
        "numberOfBytes": "32"
      }
    }
  }
}