{
  "_format": "hh-sol-artifact-1",
  "contractName": "OATContract",
  "sourceName": "contracts/OATContract.sol",
  "abi": [
    {
      "inputs": [
        {
          "internalType": "string",
          "name": "name_",
          "type": "string"
        },
        {
          "internalType": "string",
          "name": "symbol_",
          "type": "string"
        }
      ],
      "stateMutability": "nonpayable",
      "type": "constructor"
    },
    {
      "inputs": [],
      "name": "BannedTransfer",
      "type": "error"
    },
    {
      "inputs": [
        {
          "internalType": "address",
          "name": "sender",
          "type": "address"
        },
        {
          "internalType": "uint256",
          "name": "tokenId",
          "type": "uint256"
        },
        {
          "internalType": "address",
          "name": "owner",
          "type": "address"
        }
      ],
      "name": "ERC721IncorrectOwner",
      "type": "error"
    },
    {
      "inputs": [
        {
          "internalType": "address",
          "name": "operator",
          "type": "address"
        },
        {
          "internalType": "uint256",
          "name": "tokenId",
          "type": "uint256"
        }
      ],
      "name": "ERC721InsufficientApproval",
      "type": "error"
    },
    {
      "inputs": [
        {
          "internalType": "address",
          "name": "approver",
          "type": "address"
        }
      ],
      "name": "ERC721InvalidApprover",
      "type": "error"
    },
    {
      "inputs": [
        {
          "internalType": "address",
          "name": "operator",
          "type": "address"
        }
      ],
      "name": "ERC721InvalidOperator",
      "type": "error"
    },
    {
      "inputs": [
        {
          "internalType": "address",
          "name": "owner",
          "type": "address"
        }
      ],
      "name": "ERC721InvalidOwner",
      "type": "error"
    },
    {
      "inputs": [
        {
          "internalType": "address",
          "name": "receiver",
          "type": "address"
        }
      ],
      "name": "ERC721InvalidReceiver",
      "type": "error"
    },
    {
      "inputs": [
        {
          "internalType": "address",
          "name": "sender",
          "type": "address"
        }
      ],
      "name": "ERC721InvalidSender",
      "type": "error"
    },
    {
      "inputs": [
        {
          "internalType": "uint256",
          "name": "tokenId",
          "type": "uint256"
        }
      ],
      "name": "ERC721NonexistentToken",
      "type": "error"
    },
    {
      "inputs": [
        {
          "internalType": "address",
          "name": "owner",
          "type": "address"
        }
      ],
      "name": "OwnableInvalidOwner",
      "type": "error"
    },
    {
      "inputs": [
        {
          "internalType": "address",
          "name": "account",
          "type": "address"
        }
      ],
      "name": "OwnableUnauthorizedAccount",
      "type": "error"
    },
    {
      "anonymous": false,
      "inputs": [
        {
          "indexed": true,
          "internalType": "address",
          "name": "owner",
          "type": "address"
        },
        {
          "indexed": true,
          "internalType": "address",
          "name": "approved",
          "type": "address"
        },
        {
          "indexed": true,
          "internalType": "uint256",
          "name": "tokenId",
          "type": "uint256"
        }
      ],
      "name": "Approval",
      "type": "event"
    },
    {
      "anonymous": false,
      "inputs": [
        {
          "indexed": true,
          "internalType": "address",
          "name": "owner",
          "type": "address"
        },
        {
          "indexed": true,
          "internalType": "address",
          "name": "operator",
          "type": "address"
        },
        {
          "indexed": false,
          "internalType": "bool",
          "name": "approved",
          "type": "bool"
        }
      ],
      "name": "ApprovalForAll",
      "type": "event"
    },
    {
      "anonymous": false,
      "inputs": [
        {
          "indexed": true,
          "internalType": "address",
          "name": "previousOwner",
          "type": "address"
        },
        {
          "indexed": true,
          "internalType": "address",
          "name": "newOwner",
          "type": "address"
        }
      ],
      "name": "OwnershipTransferred",
      "type": "event"
    },
    {
      "anonymous": false,
      "inputs": [
        {
          "indexed": true,
          "internalType": "address",
          "name": "from",
          "type": "address"
        },
        {
          "indexed": true,
          "internalType": "address",
          "name": "to",
          "type": "address"
        },
        {
          "indexed": true,
          "internalType": "uint256",
          "name": "tokenId",
          "type": "uint256"
        }
      ],
      "name": "Transfer",
      "type": "event"
    },
    {
      "inputs": [
        {
          "internalType": "address",
          "name": "",
          "type": "address"
        },
        {
          "internalType": "uint256",
          "name": "",
          "type": "uint256"
        }
      ],
      "name": "HoldingList",
      "outputs": [
        {
          "internalType": "uint256",
          "name": "",
          "type": "uint256"
        }
      ],
      "stateMutability": "view",
      "type": "function"
    },
    {
      "inputs": [
        {
          "internalType": "uint256",
          "name": "",
          "type": "uint256"
        }
      ],
      "name": "OAT",
      "outputs": [
        {
          "internalType": "string",
          "name": "name",
          "type": "string"
        },
        {
          "internalType": "uint128",
          "name": "score",
          "type": "uint128"
        },
        {
          "internalType": "string",
          "name": "description",
          "type": "string"
        },
        {
          "internalType": "enum OATContract.OATTYPE",
          "name": "oatType",
          "type": "uint8"
        }
      ],
      "stateMutability": "view",
      "type": "function"
    },
    {
      "inputs": [
        {
          "internalType": "address",
          "name": "to",
          "type": "address"
        },
        {
          "internalType": "uint256",
          "name": "tokenId",
          "type": "uint256"
        }
      ],
      "name": "approve",
      "outputs": [],
      "stateMutability": "nonpayable",
      "type": "function"
    },
    {
      "inputs": [
        {
          "internalType": "address",
          "name": "owner",
          "type": "address"
        }
      ],
      "name": "balanceOf",
      "outputs": [
        {
          "internalType": "uint256",
          "name": "",
          "type": "uint256"
        }
      ],
      "stateMutability": "view",
      "type": "function"
    },
    {
      "inputs": [
        {
          "internalType": "uint256",
          "name": "tokenId",
          "type": "uint256"
        }
      ],
      "name": "getApproved",
      "outputs": [
        {
          "internalType": "address",
          "name": "",
          "type": "address"
        }
      ],
      "stateMutability": "view",
      "type": "function"
    },
    {
      "inputs": [
        {
          "internalType": "uint256",
          "name": "_tokenId",
          "type": "uint256"
        }
      ],
      "name": "getScore",
      "outputs": [
        {
          "internalType": "uint128",
          "name": "",
          "type": "uint128"
        }
      ],
      "stateMutability": "nonpayable",
      "type": "function"
    },
    {
      "inputs": [
        {
          "internalType": "address",
          "name": "owner",
          "type": "address"
        },
        {
          "internalType": "address",
          "name": "operator",
          "type": "address"
        }
      ],
      "name": "isApprovedForAll",
      "outputs": [
        {
          "internalType": "bool",
          "name": "",
          "type": "bool"
        }
      ],
      "stateMutability": "view",
      "type": "function"
    },
    {
      "inputs": [
        {
          "internalType": "address",
          "name": "to",
          "type": "address"
        },
        {
          "internalType": "string",
          "name": "name",
          "type": "string"
        },
        {
          "internalType": "uint128",
          "name": "score",
          "type": "uint128"
        },
        {
          "internalType": "string",
          "name": "description",
          "type": "string"
        },
        {
          "internalType": "enum OATContract.OATTYPE",
          "name": "oattype",
          "type": "uint8"
        }
      ],
      "name": "mintOAT",
      "outputs": [],
      "stateMutability": "nonpayable",
      "type": "function"
    },
    {
      "inputs": [],
      "name": "name",
      "outputs": [
        {
          "internalType": "string",
          "name": "",
          "type": "string"
        }
      ],
      "stateMutability": "view",
      "type": "function"
    },
    {
      "inputs": [],
      "name": "owner",
      "outputs": [
        {
          "internalType": "address",
          "name": "",
          "type": "address"
        }
      ],
      "stateMutability": "view",
      "type": "function"
    },
    {
      "inputs": [
        {
          "internalType": "uint256",
          "name": "tokenId",
          "type": "uint256"
        }
      ],
      "name": "ownerOf",
      "outputs": [
        {
          "internalType": "address",
          "name": "",
          "type": "address"
        }
      ],
      "stateMutability": "view",
      "type": "function"
    },
    {
      "inputs": [],
      "name": "renounceOwnership",
      "outputs": [],
      "stateMutability": "nonpayable",
      "type": "function"
    },
    {
      "inputs": [
        {
          "internalType": "address",
          "name": "from",
          "type": "address"
        },
        {
          "internalType": "address",
          "name": "to",
          "type": "address"
        },
        {
          "internalType": "uint256",
          "name": "tokenId",
          "type": "uint256"
        }
      ],
      "name": "safeTransferFrom",
      "outputs": [],
      "stateMutability": "nonpayable",
      "type": "function"
    },
    {
      "inputs": [
        {
          "internalType": "address",
          "name": "from",
          "type": "address"
        },
        {
          "internalType": "address",
          "name": "to",
          "type": "address"
        },
        {
          "internalType": "uint256",
          "name": "tokenId",
          "type": "uint256"
        },
        {
          "internalType": "bytes",
          "name": "data",
          "type": "bytes"
        }
      ],
      "name": "safeTransferFrom",
      "outputs": [],
      "stateMutability": "nonpayable",
      "type": "function"
    },
    {
      "inputs": [
        {
          "internalType": "address",
          "name": "operator",
          "type": "address"
        },
        {
          "internalType": "bool",
          "name": "approved",
          "type": "bool"
        }
      ],
      "name": "setApprovalForAll",
      "outputs": [],
      "stateMutability": "nonpayable",
      "type": "function"
    },
    {
      "inputs": [
        {
          "internalType": "bytes4",
          "name": "interfaceId",
          "type": "bytes4"
        }
      ],
      "name": "supportsInterface",
      "outputs": [
        {
          "internalType": "bool",
          "name": "",
          "type": "bool"
        }
      ],
      "stateMutability": "view",
      "type": "function"
    },
    {
      "inputs": [],
      "name": "symbol",
      "outputs": [
        {
          "internalType": "string",
          "name": "",
          "type": "string"
        }
      ],
      "stateMutability": "view",
      "type": "function"
    },
    {
      "inputs": [
        {
          "internalType": "uint256",
          "name": "tokenId",
          "type": "uint256"
        }
      ],
      "name": "tokenURI",
      "outputs": [
        {
          "internalType": "string",
          "name": "",
          "type": "string"
        }
      ],
      "stateMutability": "view",
      "type": "function"
    },
    {
      "inputs": [
        {
          "internalType": "address",
          "name": "from",
          "type": "address"
        },
        {
          "internalType": "address",
          "name": "to",
          "type": "address"
        },
        {
          "internalType": "uint256",
          "name": "tokenId",
          "type": "uint256"
        }
      ],
      "name": "transferFrom",
      "outputs": [],
      "stateMutability": "nonpayable",
      "type": "function"
    },
    {
      "inputs": [
        {
          "internalType": "address",
          "name": "newOwner",
          "type": "address"
        }
      ],
      "name": "transferOwnership",
      "outputs": [],
      "stateMutability": "nonpayable",
      "type": "function"
    }
  ],
  "bytecode": "0x60806040523480156200001157600080fd5b506040516200323038038062003230833981810160405281019062000037919062000348565b33828281600090816200004b919062000618565b5080600190816200005d919062000618565b505050600073ffffffffffffffffffffffffffffffffffffffff168173ffffffffffffffffffffffffffffffffffffffff1603620000d55760006040517f1e4fbdf7000000000000000000000000000000000000000000000000000000008152600401620000cc919062000744565b60405180910390fd5b620000e681620000ef60201b60201c565b50505062000761565b6000600660009054906101000a900473ffffffffffffffffffffffffffffffffffffffff16905081600660006101000a81548173ffffffffffffffffffffffffffffffffffffffff021916908373ffffffffffffffffffffffffffffffffffffffff1602179055508173ffffffffffffffffffffffffffffffffffffffff168173ffffffffffffffffffffffffffffffffffffffff167f8be0079c531659141344cd1fd0a4f28419497f9722a3daafe3b4186f6b6457e060405160405180910390a35050565b6000604051905090565b600080fd5b600080fd5b600080fd5b600080fd5b6000601f19601f8301169050919050565b7f4e487b7100000000000000000000000000000000000000000000000000000000600052604160045260246000fd5b6200021e82620001d3565b810181811067ffffffffffffffff8211171562000240576200023f620001e4565b5b80604052505050565b600062000255620001b5565b905062000263828262000213565b919050565b600067ffffffffffffffff821115620002865762000285620001e4565b5b6200029182620001d3565b9050602081019050919050565b60005b83811015620002be578082015181840152602081019050620002a1565b60008484015250505050565b6000620002e1620002db8462000268565b62000249565b9050828152602081018484840111156200030057620002ff620001ce565b5b6200030d8482856200029e565b509392505050565b600082601f8301126200032d576200032c620001c9565b5b81516200033f848260208601620002ca565b91505092915050565b60008060408385031215620003625762000361620001bf565b5b600083015167ffffffffffffffff811115620003835762000382620001c4565b5b620003918582860162000315565b925050602083015167ffffffffffffffff811115620003b557620003b4620001c4565b5b620003c38582860162000315565b9150509250929050565b600081519050919050565b7f4e487b7100000000000000000000000000000000000000000000000000000000600052602260045260246000fd5b600060028204905060018216806200042057607f821691505b602082108103620004365762000435620003d8565b5b50919050565b60008190508160005260206000209050919050565b60006020601f8301049050919050565b600082821b905092915050565b600060088302620004a07fffffffffffffffffffffffffffffffffffffffffffffffffffffffffffffffff8262000461565b620004ac868362000461565b95508019841693508086168417925050509392505050565b6000819050919050565b6000819050919050565b6000620004f9620004f3620004ed84620004c4565b620004ce565b620004c4565b9050919050565b6000819050919050565b6200051583620004d8565b6200052d620005248262000500565b8484546200046e565b825550505050565b600090565b6200054462000535565b620005518184846200050a565b505050565b5b8181101562000579576200056d6000826200053a565b60018101905062000557565b5050565b601f821115620005c85762000592816200043c565b6200059d8462000451565b81016020851015620005ad578190505b620005c5620005bc8562000451565b83018262000556565b50505b505050565b600082821c905092915050565b6000620005ed60001984600802620005cd565b1980831691505092915050565b6000620006088383620005da565b9150826002028217905092915050565b6200062382620003cd565b67ffffffffffffffff8111156200063f576200063e620001e4565b5b6200064b825462000407565b620006588282856200057d565b600060209050601f8311600181146200069057600084156200067b578287015190505b620006878582620005fa565b865550620006f7565b601f198416620006a0866200043c565b60005b82811015620006ca57848901518255600182019150602085019450602081019050620006a3565b86831015620006ea5784890151620006e6601f891682620005da565b8355505b6001600288020188555050505b505050505050565b600073ffffffffffffffffffffffffffffffffffffffff82169050919050565b60006200072c82620006ff565b9050919050565b6200073e816200071f565b82525050565b60006020820190506200075b600083018462000733565b92915050565b612abf80620007716000396000f3fe608060405234801561001057600080fd5b506004361061012c5760003560e01c8063715018a6116100ad578063a592226a11610071578063a592226a14610344578063b88d4fde14610374578063c87b56dd14610390578063e985e9c5146103c0578063f2fde38b146103f05761012c565b8063715018a6146102af5780638da5cb5b146102b957806395d89b41146102d7578063a22cb465146102f5578063a3ead6c4146103115761012c565b806323b872dd116100f457806323b872dd146101fb57806342842e0e146102175780635b78414c146102335780636352211e1461024f57806370a082311461027f5761012c565b806301ffc9a71461013157806306fdde0314610161578063081812fc1461017f578063095ea7b3146101af5780630e1af57b146101cb575b600080fd5b61014b60048036038101906101469190611e55565b61040c565b6040516101589190611e9d565b60405180910390f35b6101696104ee565b6040516101769190611f48565b60405180910390f35b61019960048036038101906101949190611fa0565b610580565b6040516101a6919061200e565b60405180910390f35b6101c960048036038101906101c49190612055565b61059c565b005b6101e560048036038101906101e09190611fa0565b6105b2565b6040516101f291906120c0565b60405180910390f35b610215600480360381019061021091906120db565b6105ee565b005b610231600480360381019061022c91906120db565b610620565b005b61024d600480360381019061024891906122b4565b610640565b005b61026960048036038101906102649190611fa0565b610ce2565b604051610276919061200e565b60405180910390f35b61029960048036038101906102949190612367565b610cf4565b6040516102a691906123a3565b60405180910390f35b6102b7610dae565b005b6102c1610dc2565b6040516102ce919061200e565b60405180910390f35b6102df610dec565b6040516102ec9190611f48565b60405180910390f35b61030f600480360381019061030a91906123ea565b610e7e565b005b61032b60048036038101906103269190611fa0565b610e94565b60405161033b94939291906124a1565b60405180910390f35b61035e60048036038101906103599190612055565b610ffd565b60405161036b91906123a3565b60405180910390f35b61038e60048036038101906103899190612595565b611025565b005b6103aa60048036038101906103a59190611fa0565b611057565b6040516103b79190611f48565b60405180910390f35b6103da60048036038101906103d59190612618565b6110c0565b6040516103e79190611e9d565b60405180910390f35b61040a60048036038101906104059190612367565b611154565b005b60007f80ac58cd000000000000000000000000000000000000000000000000000000007bffffffffffffffffffffffffffffffffffffffffffffffffffffffff1916827bffffffffffffffffffffffffffffffffffffffffffffffffffffffff191614806104d757507f5b5e139f000000000000000000000000000000000000000000000000000000007bffffffffffffffffffffffffffffffffffffffffffffffffffffffff1916827bffffffffffffffffffffffffffffffffffffffffffffffffffffffff1916145b806104e757506104e6826111da565b5b9050919050565b6060600080546104fd90612687565b80601f016020809104026020016040519081016040528092919081815260200182805461052990612687565b80156105765780601f1061054b57610100808354040283529160200191610576565b820191906000526020600020905b81548152906001019060200180831161055957829003601f168201915b5050505050905090565b600061058b82611244565b50610595826112cc565b9050919050565b6105ae82826105a9611309565b611311565b5050565b60006007600083815260200190815260200160002060010160009054906101000a90046fffffffffffffffffffffffffffffffff169050919050565b6040517fd61b695500000000000000000000000000000000000000000000000000000000815260040160405180910390fd5b61063b83838360405180602001604052806000815250611025565b505050565b610648610dc2565b73ffffffffffffffffffffffffffffffffffffffff163373ffffffffffffffffffffffffffffffffffffffff16146106b5576040517f08c379a00000000000000000000000000000000000000000000000000000000081526004016106ac90612704565b60405180910390fd5b600073ffffffffffffffffffffffffffffffffffffffff168573ffffffffffffffffffffffffffffffffffffffff16036107275760006040517f64a0ae9200000000000000000000000000000000000000000000000000000000815260040161071e919061200e565b60405180910390fd5b6000600281111561073b5761073a61242a565b5b81600281111561074e5761074d61242a565b5b0361080557826fffffffffffffffffffffffffffffffff1660076000600860008973ffffffffffffffffffffffffffffffffffffffff1673ffffffffffffffffffffffffffffffffffffffff1681526020019081526020016000206000600381106107bc576107bb612724565b5b0154815260200190815260200160002060010160009054906101000a90046fffffffffffffffffffffffffffffffff166fffffffffffffffffffffffffffffffff160315610cdb575b600160028111156108195761081861242a565b5b81600281111561082c5761082b61242a565b5b036108e357826fffffffffffffffffffffffffffffffff1660076000600860008973ffffffffffffffffffffffffffffffffffffffff1673ffffffffffffffffffffffffffffffffffffffff16815260200190815260200160002060016003811061089a57610899612724565b5b0154815260200190815260200160002060010160009054906101000a90046fffffffffffffffffffffffffffffffff166fffffffffffffffffffffffffffffffff160315610cdb575b6002808111156108f6576108f561242a565b5b8160028111156109095761090861242a565b5b036109c057826fffffffffffffffffffffffffffffffff1660076000600860008973ffffffffffffffffffffffffffffffffffffffff1673ffffffffffffffffffffffffffffffffffffffff16815260200190815260200160002060026003811061097757610976612724565b5b0154815260200190815260200160002060010160009054906101000a90046fffffffffffffffffffffffffffffffff166fffffffffffffffffffffffffffffffff160315610cdb575b60006109ca611323565b905060006109da87836000611354565b9050600073ffffffffffffffffffffffffffffffffffffffff168173ffffffffffffffffffffffffffffffffffffffff1614610a4e5760006040517f73c6ac6e000000000000000000000000000000000000000000000000000000008152600401610a45919061200e565b60405180910390fd5b60006040518060800160405280888152602001876fffffffffffffffffffffffffffffffff168152602001868152602001856002811115610a9257610a9161242a565b5b815250905080600760008581526020019081526020016000206000820151816000019081610ac091906128ff565b5060208201518160010160006101000a8154816fffffffffffffffffffffffffffffffff02191690836fffffffffffffffffffffffffffffffff1602179055506040820151816002019081610b1591906128ff565b5060608201518160030160006101000a81548160ff02191690836002811115610b4157610b4061242a565b5b021790555090505060006002811115610b5d57610b5c61242a565b5b846002811115610b7057610b6f61242a565b5b03610bce5782600860008a73ffffffffffffffffffffffffffffffffffffffff1673ffffffffffffffffffffffffffffffffffffffff168152602001908152602001600020600060038110610bc857610bc7612724565b5b01819055505b60016002811115610be257610be161242a565b5b846002811115610bf557610bf461242a565b5b03610c535782600860008a73ffffffffffffffffffffffffffffffffffffffff1673ffffffffffffffffffffffffffffffffffffffff168152602001908152602001600020600160038110610c4d57610c4c612724565b5b01819055505b600280811115610c6657610c6561242a565b5b846002811115610c7957610c7861242a565b5b03610cd75782600860008a73ffffffffffffffffffffffffffffffffffffffff1673ffffffffffffffffffffffffffffffffffffffff168152602001908152602001600020600260038110610cd157610cd0612724565b5b01819055505b5050505b5050505050565b6000610ced82611244565b9050919050565b60008073ffffffffffffffffffffffffffffffffffffffff168273ffffffffffffffffffffffffffffffffffffffff1603610d675760006040517f89c62b64000000000000000000000000000000000000000000000000000000008152600401610d5e919061200e565b60405180910390fd5b600360008373ffffffffffffffffffffffffffffffffffffffff1673ffffffffffffffffffffffffffffffffffffffff168152602001908152602001600020549050919050565b610db661156e565b610dc060006115f5565b565b6000600660009054906101000a900473ffffffffffffffffffffffffffffffffffffffff16905090565b606060018054610dfb90612687565b80601f0160208091040260200160405190810160405280929190818152602001828054610e2790612687565b8015610e745780601f10610e4957610100808354040283529160200191610e74565b820191906000526020600020905b815481529060010190602001808311610e5757829003601f168201915b5050505050905090565b610e90610e89611309565b83836116bb565b5050565b6007602052806000526040600020600091509050806000018054610eb790612687565b80601f0160208091040260200160405190810160405280929190818152602001828054610ee390612687565b8015610f305780601f10610f0557610100808354040283529160200191610f30565b820191906000526020600020905b815481529060010190602001808311610f1357829003601f168201915b5050505050908060010160009054906101000a90046fffffffffffffffffffffffffffffffff1690806002018054610f6790612687565b80601f0160208091040260200160405190810160405280929190818152602001828054610f9390612687565b8015610fe05780601f10610fb557610100808354040283529160200191610fe0565b820191906000526020600020905b815481529060010190602001808311610fc357829003601f168201915b5050505050908060030160009054906101000a900460ff16905084565b6008602052816000526040600020816003811061101957600080fd5b01600091509150505481565b6040517fd61b695500000000000000000000000000000000000000000000000000000000815260040160405180910390fd5b606061106282611244565b50600061106d61182a565b9050600081511161108d57604051806020016040528060008152506110b8565b8061109784611841565b6040516020016110a8929190612a0d565b6040516020818303038152906040525b915050919050565b6000600560008473ffffffffffffffffffffffffffffffffffffffff1673ffffffffffffffffffffffffffffffffffffffff16815260200190815260200160002060008373ffffffffffffffffffffffffffffffffffffffff1673ffffffffffffffffffffffffffffffffffffffff16815260200190815260200160002060009054906101000a900460ff16905092915050565b61115c61156e565b600073ffffffffffffffffffffffffffffffffffffffff168173ffffffffffffffffffffffffffffffffffffffff16036111ce5760006040517f1e4fbdf70000000000000000000000000000000000000000000000000000000081526004016111c5919061200e565b60405180910390fd5b6111d7816115f5565b50565b60007f01ffc9a7000000000000000000000000000000000000000000000000000000007bffffffffffffffffffffffffffffffffffffffffffffffffffffffff1916827bffffffffffffffffffffffffffffffffffffffffffffffffffffffff1916149050919050565b6000806112508361190f565b9050600073ffffffffffffffffffffffffffffffffffffffff168173ffffffffffffffffffffffffffffffffffffffff16036112c357826040517f7e2732890000000000000000000000000000000000000000000000000000000081526004016112ba91906123a3565b60405180910390fd5b80915050919050565b60006004600083815260200190815260200160002060009054906101000a900473ffffffffffffffffffffffffffffffffffffffff169050919050565b600033905090565b61131e838383600161194c565b505050565b60004260405160200161133691906123a3565b6040516020818303038152906040528051906020012060001c905090565b6000806113608461190f565b9050600073ffffffffffffffffffffffffffffffffffffffff168373ffffffffffffffffffffffffffffffffffffffff16146113a2576113a1818486611b11565b5b600073ffffffffffffffffffffffffffffffffffffffff168173ffffffffffffffffffffffffffffffffffffffff1614611433576113e460008560008061194c565b6001600360008373ffffffffffffffffffffffffffffffffffffffff1673ffffffffffffffffffffffffffffffffffffffff168152602001908152602001600020600082825403925050819055505b600073ffffffffffffffffffffffffffffffffffffffff168573ffffffffffffffffffffffffffffffffffffffff16146114b6576001600360008773ffffffffffffffffffffffffffffffffffffffff1673ffffffffffffffffffffffffffffffffffffffff168152602001908152602001600020600082825401925050819055505b846002600086815260200190815260200160002060006101000a81548173ffffffffffffffffffffffffffffffffffffffff021916908373ffffffffffffffffffffffffffffffffffffffff160217905550838573ffffffffffffffffffffffffffffffffffffffff168273ffffffffffffffffffffffffffffffffffffffff167fddf252ad1be2c89b69c2b068fc378daa952ba7f163c4a11628f55a4df523b3ef60405160405180910390a4809150509392505050565b611576611309565b73ffffffffffffffffffffffffffffffffffffffff16611594610dc2565b73ffffffffffffffffffffffffffffffffffffffff16146115f3576115b7611309565b6040517f118cdaa70000000000000000000000000000000000000000000000000000000081526004016115ea919061200e565b60405180910390fd5b565b6000600660009054906101000a900473ffffffffffffffffffffffffffffffffffffffff16905081600660006101000a81548173ffffffffffffffffffffffffffffffffffffffff021916908373ffffffffffffffffffffffffffffffffffffffff1602179055508173ffffffffffffffffffffffffffffffffffffffff168173ffffffffffffffffffffffffffffffffffffffff167f8be0079c531659141344cd1fd0a4f28419497f9722a3daafe3b4186f6b6457e060405160405180910390a35050565b600073ffffffffffffffffffffffffffffffffffffffff168273ffffffffffffffffffffffffffffffffffffffff160361172c57816040517f5b08ba18000000000000000000000000000000000000000000000000000000008152600401611723919061200e565b60405180910390fd5b80600560008573ffffffffffffffffffffffffffffffffffffffff1673ffffffffffffffffffffffffffffffffffffffff16815260200190815260200160002060008473ffffffffffffffffffffffffffffffffffffffff1673ffffffffffffffffffffffffffffffffffffffff16815260200190815260200160002060006101000a81548160ff0219169083151502179055508173ffffffffffffffffffffffffffffffffffffffff168373ffffffffffffffffffffffffffffffffffffffff167f17307eab39ab6107e8899845ad3d59bd9653f200f220920489ca2b5937696c318360405161181d9190611e9d565b60405180910390a3505050565b606060405180602001604052806000815250905090565b60606000600161185084611bd5565b01905060008167ffffffffffffffff81111561186f5761186e612138565b5b6040519080825280601f01601f1916602001820160405280156118a15781602001600182028036833780820191505090505b509050600082602001820190505b600115611904578080600190039150507f3031323334353637383961626364656600000000000000000000000000000000600a86061a8153600a85816118f8576118f7612a31565b5b049450600085036118af575b819350505050919050565b60006002600083815260200190815260200160002060009054906101000a900473ffffffffffffffffffffffffffffffffffffffff169050919050565b80806119855750600073ffffffffffffffffffffffffffffffffffffffff168273ffffffffffffffffffffffffffffffffffffffff1614155b15611ab957600061199584611244565b9050600073ffffffffffffffffffffffffffffffffffffffff168373ffffffffffffffffffffffffffffffffffffffff1614158015611a0057508273ffffffffffffffffffffffffffffffffffffffff168173ffffffffffffffffffffffffffffffffffffffff1614155b8015611a135750611a1181846110c0565b155b15611a5557826040517fa9fbf51f000000000000000000000000000000000000000000000000000000008152600401611a4c919061200e565b60405180910390fd5b8115611ab757838573ffffffffffffffffffffffffffffffffffffffff168273ffffffffffffffffffffffffffffffffffffffff167f8c5be1e5ebec7d5bd14f71427d1e84f3dd0314c0f7b2291e5b200ac8c7c3b92560405160405180910390a45b505b836004600085815260200190815260200160002060006101000a81548173ffffffffffffffffffffffffffffffffffffffff021916908373ffffffffffffffffffffffffffffffffffffffff16021790555050505050565b611b1c838383611d28565b611bd057600073ffffffffffffffffffffffffffffffffffffffff168373ffffffffffffffffffffffffffffffffffffffff1603611b9157806040517f7e273289000000000000000000000000000000000000000000000000000000008152600401611b8891906123a3565b60405180910390fd5b81816040517f177e802f000000000000000000000000000000000000000000000000000000008152600401611bc7929190612a60565b60405180910390fd5b505050565b600080600090507a184f03e93ff9f4daa797ed6e38ed64bf6a1f0100000000000000008310611c33577a184f03e93ff9f4daa797ed6e38ed64bf6a1f0100000000000000008381611c2957611c28612a31565b5b0492506040810190505b6d04ee2d6d415b85acef81000000008310611c70576d04ee2d6d415b85acef81000000008381611c6657611c65612a31565b5b0492506020810190505b662386f26fc100008310611c9f57662386f26fc100008381611c9557611c94612a31565b5b0492506010810190505b6305f5e1008310611cc8576305f5e1008381611cbe57611cbd612a31565b5b0492506008810190505b6127108310611ced576127108381611ce357611ce2612a31565b5b0492506004810190505b60648310611d105760648381611d0657611d05612a31565b5b0492506002810190505b600a8310611d1f576001810190505b80915050919050565b60008073ffffffffffffffffffffffffffffffffffffffff168373ffffffffffffffffffffffffffffffffffffffff1614158015611de057508273ffffffffffffffffffffffffffffffffffffffff168473ffffffffffffffffffffffffffffffffffffffff161480611da15750611da084846110c0565b5b80611ddf57508273ffffffffffffffffffffffffffffffffffffffff16611dc7836112cc565b73ffffffffffffffffffffffffffffffffffffffff16145b5b90509392505050565b6000604051905090565b600080fd5b600080fd5b60007fffffffff0000000000000000000000000000000000000000000000000000000082169050919050565b611e3281611dfd565b8114611e3d57600080fd5b50565b600081359050611e4f81611e29565b92915050565b600060208284031215611e6b57611e6a611df3565b5b6000611e7984828501611e40565b91505092915050565b60008115159050919050565b611e9781611e82565b82525050565b6000602082019050611eb26000830184611e8e565b92915050565b600081519050919050565b600082825260208201905092915050565b60005b83811015611ef2578082015181840152602081019050611ed7565b60008484015250505050565b6000601f19601f8301169050919050565b6000611f1a82611eb8565b611f248185611ec3565b9350611f34818560208601611ed4565b611f3d81611efe565b840191505092915050565b60006020820190508181036000830152611f628184611f0f565b905092915050565b6000819050919050565b611f7d81611f6a565b8114611f8857600080fd5b50565b600081359050611f9a81611f74565b92915050565b600060208284031215611fb657611fb5611df3565b5b6000611fc484828501611f8b565b91505092915050565b600073ffffffffffffffffffffffffffffffffffffffff82169050919050565b6000611ff882611fcd565b9050919050565b61200881611fed565b82525050565b60006020820190506120236000830184611fff565b92915050565b61203281611fed565b811461203d57600080fd5b50565b60008135905061204f81612029565b92915050565b6000806040838503121561206c5761206b611df3565b5b600061207a85828601612040565b925050602061208b85828601611f8b565b9150509250929050565b60006fffffffffffffffffffffffffffffffff82169050919050565b6120ba81612095565b82525050565b60006020820190506120d560008301846120b1565b92915050565b6000806000606084860312156120f4576120f3611df3565b5b600061210286828701612040565b935050602061211386828701612040565b925050604061212486828701611f8b565b9150509250925092565b600080fd5b600080fd5b7f4e487b7100000000000000000000000000000000000000000000000000000000600052604160045260246000fd5b61217082611efe565b810181811067ffffffffffffffff8211171561218f5761218e612138565b5b80604052505050565b60006121a2611de9565b90506121ae8282612167565b919050565b600067ffffffffffffffff8211156121ce576121cd612138565b5b6121d782611efe565b9050602081019050919050565b82818337600083830152505050565b6000612206612201846121b3565b612198565b90508281526020810184848401111561222257612221612133565b5b61222d8482856121e4565b509392505050565b600082601f83011261224a5761224961212e565b5b813561225a8482602086016121f3565b91505092915050565b61226c81612095565b811461227757600080fd5b50565b60008135905061228981612263565b92915050565b6003811061229c57600080fd5b50565b6000813590506122ae8161228f565b92915050565b600080600080600060a086880312156122d0576122cf611df3565b5b60006122de88828901612040565b955050602086013567ffffffffffffffff8111156122ff576122fe611df8565b5b61230b88828901612235565b945050604061231c8882890161227a565b935050606086013567ffffffffffffffff81111561233d5761233c611df8565b5b61234988828901612235565b925050608061235a8882890161229f565b9150509295509295909350565b60006020828403121561237d5761237c611df3565b5b600061238b84828501612040565b91505092915050565b61239d81611f6a565b82525050565b60006020820190506123b86000830184612394565b92915050565b6123c781611e82565b81146123d257600080fd5b50565b6000813590506123e4816123be565b92915050565b6000806040838503121561240157612400611df3565b5b600061240f85828601612040565b9250506020612420858286016123d5565b9150509250929050565b7f4e487b7100000000000000000000000000000000000000000000000000000000600052602160045260246000fd5b6003811061246a5761246961242a565b5b50565b600081905061247b82612459565b919050565b600061248b8261246d565b9050919050565b61249b81612480565b82525050565b600060808201905081810360008301526124bb8187611f0f565b90506124ca60208301866120b1565b81810360408301526124dc8185611f0f565b90506124eb6060830184612492565b95945050505050565b600067ffffffffffffffff82111561250f5761250e612138565b5b61251882611efe565b9050602081019050919050565b6000612538612533846124f4565b612198565b90508281526020810184848401111561255457612553612133565b5b61255f8482856121e4565b509392505050565b600082601f83011261257c5761257b61212e565b5b813561258c848260208601612525565b91505092915050565b600080600080608085870312156125af576125ae611df3565b5b60006125bd87828801612040565b94505060206125ce87828801612040565b93505060406125df87828801611f8b565b925050606085013567ffffffffffffffff811115612600576125ff611df8565b5b61260c87828801612567565b91505092959194509250565b6000806040838503121561262f5761262e611df3565b5b600061263d85828601612040565b925050602061264e85828601612040565b9150509250929050565b7f4e487b7100000000000000000000000000000000000000000000000000000000600052602260045260246000fd5b6000600282049050600182168061269f57607f821691505b6020821081036126b2576126b1612658565b5b50919050565b7f4e6f74206f776e65720000000000000000000000000000000000000000000000600082015250565b60006126ee600983611ec3565b91506126f9826126b8565b602082019050919050565b6000602082019050818103600083015261271d816126e1565b9050919050565b7f4e487b7100000000000000000000000000000000000000000000000000000000600052603260045260246000fd5b60008190508160005260206000209050919050565b60006020601f8301049050919050565b600082821b905092915050565b6000600883026127b57fffffffffffffffffffffffffffffffffffffffffffffffffffffffffffffffff82612778565b6127bf8683612778565b95508019841693508086168417925050509392505050565b6000819050919050565b60006127fc6127f76127f284611f6a565b6127d7565b611f6a565b9050919050565b6000819050919050565b612816836127e1565b61282a61282282612803565b848454612785565b825550505050565b600090565b61283f612832565b61284a81848461280d565b505050565b5b8181101561286e57612863600082612837565b600181019050612850565b5050565b601f8211156128b35761288481612753565b61288d84612768565b8101602085101561289c578190505b6128b06128a885612768565b83018261284f565b50505b505050565b600082821c905092915050565b60006128d6600019846008026128b8565b1980831691505092915050565b60006128ef83836128c5565b9150826002028217905092915050565b61290882611eb8565b67ffffffffffffffff81111561292157612920612138565b5b61292b8254612687565b612936828285612872565b600060209050601f8311600181146129695760008415612957578287015190505b61296185826128e3565b8655506129c9565b601f19841661297786612753565b60005b8281101561299f5784890151825560018201915060208501945060208101905061297a565b868310156129bc57848901516129b8601f8916826128c5565b8355505b6001600288020188555050505b505050505050565b600081905092915050565b60006129e782611eb8565b6129f181856129d1565b9350612a01818560208601611ed4565b80840191505092915050565b6000612a1982856129dc565b9150612a2582846129dc565b91508190509392505050565b7f4e487b7100000000000000000000000000000000000000000000000000000000600052601260045260246000fd5b6000604082019050612a756000830185611fff565b612a826020830184612394565b939250505056fea264697066735822122022ccc89d54b162c780818d0c7ea86a3611ab717757ec11493fd42838c5fd064864736f6c63430008180033",
  "linkReferences": {},
  "deployedLinkReferences": {}
}