{
  "_format": "hh-sol-artifact-1",
  "contractName": "DidUtils",
  "sourceName": "contracts/DidUtils.sol",
  "abi": [
    {
      "inputs": [
        {
          "internalType": "bytes",
          "name": "did",
          "type": "bytes"
        }
      ],
      "name": "parseAddrFromDID",
      "outputs": [
        {
          "internalType": "address",
          "name": "",
          "type": "address"
        }
      ],
      "stateMutability": "pure",
      "type": "function"
    },
    {
      "inputs": [
        {
          "internalType": "bytes",
          "name": "pubKey",
          "type": "bytes"
        }
      ],
      "name": "pubKeyToAddr",
      "outputs": [
        {
          "internalType": "address",
          "name": "",
          "type": "address"
        }
      ],
      "stateMutability": "pure",
      "type": "function"
    },
    {
      "inputs": [
        {
          "internalType": "string",
          "name": "did",
          "type": "string"
        }
      ],
      "name": "verifyDIDFormat",
      "outputs": [
        {
          "internalType": "bool",
          "name": "",
          "type": "bool"
        }
      ],
      "stateMutability": "pure",
      "type": "function"
    }
  ],
  "bytecode": "0x6105db610026600b82828239805160001a60731461001957fe5b30600052607381538281f3fe730000000000000000000000000000000000000000301460806040526004361061004b5760003560e01c80636619b7ec14610050578063c6b8e1a214610079578063f92511321461008c575b600080fd5b61006361005e3660046103f0565b6100ac565b6040516100709190610495565b60405180910390f35b6100636100873660046103f0565b6100b9565b61009f61009a3660046103f0565b610173565b60405161007091906104a9565b805160208201205b919050565b6000806009905060606100d0848384875103610285565b9050606073__$ad5f1105ae2e107008b91fdda17d716fb8$__638e7e34d7836040518263ffffffff1660e01b815260040161010b91906104b4565b60006040518083038186803b15801561012357600080fd5b505af4158015610137573d6000803e3d6000fd5b505050506040513d6000823e601f3d908101601f1916820160405261015f919081019061042b565b905061016a81610305565b95945050505050565b8051600090829060311461018b5760009150506100b4565b6060604051806040016040528060098152602001683234b21d32ba34379d60b91b81525090506101c76101c18360008451610285565b82610339565b6101d6576000925050506100b4565b60606101e88383518451865103610285565b9050606073__$ad5f1105ae2e107008b91fdda17d716fb8$__638e7e34d7836040518263ffffffff1660e01b815260040161022391906104b4565b60006040518083038186803b15801561023b57600080fd5b505af415801561024f573d6000803e3d6000fd5b505050506040513d6000823e601f3d908101601f19168201604052610277919081019061042b565b516014149695505050505050565b60608183018451101561029757600080fd5b6060821580156102b2576040519150602082016040526102fc565b6040519150601f8416801560200281840101858101878315602002848b0101015b818310156102eb5780518352602092830192016102d3565b5050858452601f01601f1916604052505b50949350505050565b600081516014146103315760405162461bcd60e51b8152600401610328906104e7565b60405180910390fd5b506014015190565b8151815160009160019181148083146103555760009250610393565b600160208701838101602088015b60028483851001141561038e5780518351146103825760009650600093505b60209283019201610363565b505050505b5090949350505050565b600082601f8301126103ad578081fd5b81356103c06103bb82610551565b61052a565b91508082528360208285010111156103d757600080fd5b8060208401602084013760009082016020015292915050565b600060208284031215610401578081fd5b813567ffffffffffffffff811115610417578182fd5b6104238482850161039d565b949350505050565b60006020828403121561043c578081fd5b815167ffffffffffffffff811115610452578182fd5b8201601f81018413610462578182fd5b80516104706103bb82610551565b818152856020838501011115610484578384fd5b61016a826020830160208601610575565b6001600160a01b0391909116815260200190565b901515815260200190565b60006020825282518060208401526104d3816040850160208701610575565b601f01601f19169190910160400192915050565b60208082526023908201527f6279746573206c656e67746820646f6573206e6f74206d61746368206164647260408201526265737360e81b606082015260800190565b60405181810167ffffffffffffffff8111828210171561054957600080fd5b604052919050565b600067ffffffffffffffff821115610567578081fd5b50601f01601f191660200190565b60005b83811015610590578181015183820152602001610578565b8381111561059f576000848401525b5050505056fea26469706673582212204ced5f415dde4ba20ade71d74a2c0b1b21925a5b7d1f7f2f3d2be75734dc877564736f6c634300060c0033",
  "linkReferences": {
    "contracts/BytesUtils.sol": {
      "BytesUtils": [
        {
          "length": 20,
          "start": 252
        },
        {
          "length": 20,
          "start": 532
        }
      ]
    }
  },
  "deployedLinkReferences": {
    "contracts/BytesUtils.sol": {
      "BytesUtils": [
        {
          "length": 20,
          "start": 214
        },
        {
          "length": 20,
          "start": 494
        }
      ]
    }
  }
}