{"contracts/PolkaGift.sol":{"PolkaGift":{"abi":[{"inputs":[{"internalType":"string","name":"","type":"string"}],"name":"AllEventEndTime","outputs":[{"internalType":"bool","name":"","type":"bool"}],"stateMutability":"view","type":"function"},{"inputs":[{"internalType":"string","name":"BidId","type":"string"}],"name":"BidURI","outputs":[{"internalType":"string","name":"","type":"string"}],"stateMutability":"view","type":"function"},{"inputs":[{"internalType":"uint256","name":"","type":"uint256"}],"name":"TokenHighestBidders","outputs":[{"internalType":"string","name":"token_id","type":"string"},{"internalType":"string","name":"event_id","type":"string"},{"internalType":"address","name":"wallet","type":"address"},{"internalType":"string","name":"price","type":"string"}],"stateMutability":"view","type":"function"},{"inputs":[],"name":"_EventTokenSearchIds","outputs":[{"internalType":"uint256","name":"","type":"uint256"}],"stateMutability":"view","type":"function"},{"inputs":[{"internalType":"string","name":"","type":"string"},{"internalType":"uint256","name":"","type":"uint256"}],"name":"_SearchedStore","outputs":[{"internalType":"string","name":"","type":"string"}],"stateMutability":"view","type":"function"},{"inputs":[{"internalType":"string","name":"_tokenId","type":"string"}],"name":"_getSearchedTokenURI","outputs":[{"internalType":"string","name":"","type":"string"}],"stateMutability":"view","type":"function"},{"inputs":[{"internalType":"string","name":"bidId","type":"string"},{"internalType":"string","name":"_bidURI","type":"string"}],"name":"_setBidURI","outputs":[],"stateMutability":"nonpayable","type":"function"},{"inputs":[{"internalType":"string","name":"_eventId","type":"string"},{"internalType":"string","name":"_raised","type":"string"}],"name":"_setEventRaised","outputs":[],"stateMutability":"nonpayable","type":"function"},{"inputs":[{"internalType":"string","name":"eventId","type":"string"},{"internalType":"string","name":"_eventWallet","type":"string"},{"internalType":"string","name":"_eventURI","type":"string"}],"name":"_setEventURI","outputs":[],"stateMutability":"nonpayable","type":"function"},{"inputs":[{"internalType":"uint256","name":"TokenBidId","type":"uint256"},{"internalType":"string","name":"TokenId","type":"string"},{"internalType":"string","name":"_BidURI","type":"string"}],"name":"_setTokenBid","outputs":[],"stateMutability":"nonpayable","type":"function"},{"inputs":[{"internalType":"uint256","name":"EventTokenId","type":"uint256"},{"internalType":"string","name":"EventId","type":"string"},{"internalType":"string","name":"_tokenURI","type":"string"}],"name":"_setTokenEvent","outputs":[],"stateMutability":"nonpayable","type":"function"},{"inputs":[{"internalType":"string","name":"token_id","type":"string"},{"internalType":"string","name":"event_id","type":"string"},{"internalType":"address","name":"wallet","type":"address"},{"internalType":"string","name":"price","type":"string"}],"name":"_setTokenHighestBid","outputs":[],"stateMutability":"nonpayable","type":"function"},{"inputs":[{"internalType":"string","name":"tokenId","type":"string"},{"internalType":"string","name":"_tokenURI","type":"string"}],"name":"_setTokenURI","outputs":[],"stateMutability":"nonpayable","type":"function"},{"inputs":[{"internalType":"address","name":"_claimer","type":"address"},{"internalType":"string","name":"_tokenURI","type":"string"},{"internalType":"string","name":"_eventid","type":"string"}],"name":"claimToken","outputs":[{"internalType":"uint256","name":"","type":"uint256"}],"stateMutability":"nonpayable","type":"function"},{"inputs":[{"internalType":"string","name":"_tokenId","type":"string"},{"internalType":"string","name":"_bidURI","type":"string"},{"internalType":"string","name":"_eventid","type":"string"},{"internalType":"string","name":"_raised","type":"string"},{"internalType":"string","name":"_bid_price","type":"string"}],"name":"createBid","outputs":[],"stateMutability":"nonpayable","type":"function"},{"inputs":[{"internalType":"string","name":"_eventWallet","type":"string"},{"internalType":"string","name":"_eventURI","type":"string"},{"internalType":"uint256","name":"endtime","type":"uint256"}],"name":"createEvent","outputs":[{"internalType":"uint256","name":"","type":"uint256"}],"stateMutability":"nonpayable","type":"function"},{"inputs":[{"internalType":"string","name":"eventID","type":"string"}],"name":"distribute_event","outputs":[],"stateMutability":"nonpayable","type":"function"},{"inputs":[{"internalType":"string","name":"eventId","type":"string"}],"name":"eventURI","outputs":[{"internalType":"string[2]","name":"","type":"string[2]"}],"stateMutability":"view","type":"function"},{"inputs":[{"internalType":"string","name":"_bidURI","type":"string"}],"name":"getBidIdByUri","outputs":[{"internalType":"uint256","name":"","type":"uint256"}],"stateMutability":"view","type":"function"},{"inputs":[{"internalType":"string","name":"TokenID","type":"string"}],"name":"getBidsSearchToken","outputs":[{"internalType":"string[]","name":"","type":"string[]"}],"stateMutability":"view","type":"function"},{"inputs":[{"internalType":"string","name":"_eventURI","type":"string"}],"name":"getEventIdByURI","outputs":[{"internalType":"uint256","name":"","type":"uint256"}],"stateMutability":"view","type":"function"},{"inputs":[{"internalType":"string","name":"_eventId","type":"string"}],"name":"getEventRaised","outputs":[{"internalType":"string","name":"","type":"string"}],"stateMutability":"view","type":"function"},{"inputs":[{"internalType":"string","name":"EventId","type":"string"},{"internalType":"string","name":"_tokenURI","type":"string"}],"name":"getGetEventsTokenID","outputs":[{"internalType":"uint256","name":"","type":"uint256"}],"stateMutability":"view","type":"function"},{"inputs":[{"internalType":"string","name":"Wallet","type":"string"}],"name":"getSearchEventbyWallet","outputs":[{"internalType":"string[]","name":"","type":"string[]"}],"stateMutability":"view","type":"function"},{"inputs":[{"internalType":"string","name":"token_id","type":"string"}],"name":"getTokenHighestBid","outputs":[{"internalType":"string","name":"","type":"string"}],"stateMutability":"view","type":"function"},{"inputs":[{"internalType":"string","name":"TokenID","type":"string"}],"name":"getTotalBid","outputs":[{"internalType":"string[]","name":"","type":"string[]"}],"stateMutability":"view","type":"function"},{"inputs":[{"internalType":"string","name":"_tokenURI","type":"string"}],"name":"gettokenIdByUri","outputs":[{"internalType":"uint256","name":"","type":"uint256"}],"stateMutability":"view","type":"function"},{"inputs":[{"internalType":"string","name":"EventID","type":"string"}],"name":"gettokenSearchEventTotal","outputs":[{"internalType":"string[]","name":"","type":"string[]"}],"stateMutability":"view","type":"function"},{"inputs":[{"internalType":"string","name":"_str","type":"string"}],"name":"strToUint","outputs":[{"internalType":"uint256","name":"res","type":"uint256"}],"stateMutability":"pure","type":"function"},{"inputs":[{"internalType":"string","name":"tokenId","type":"string"}],"name":"tokenURI","outputs":[{"internalType":"string","name":"","type":"string"}],"stateMutability":"view","type":"function"},{"inputs":[],"name":"totalEvent","outputs":[{"internalType":"uint256","name":"","type":"uint256"}],"stateMutability":"view","type":"function"},{"inputs":[],"name":"totalSupply","outputs":[{"internalType":"uint256","name":"","type":"uint256"}],"stateMutability":"view","type":"function"}],"devdoc":{"kind":"dev","methods":{},"version":1},"evm":{"bytecode":{"linkReferences":{},"object":"608060405234801561001057600080fd5b5061352c806100206000396000f3fe608060405234801561001057600080fd5b50600436106101f05760003560e01c806370881e721161010f578063bfee6f8e116100a2578063d45fc51611610071578063d45fc51614610676578063df6b96c7146106a6578063eacb4a74146106c2578063f7e34095146106f2576101f0565b8063bfee6f8e146105de578063c5ef3ec5146105fa578063ce65e7481461062a578063d0fb869914610646576101f0565b80638c2715b7116100de5780638c2715b714610532578063932a196b14610562578063a42a665c14610592578063b91e924f146105c2576101f0565b806370881e7214610495578063783db260146104c85780637ab4ab6e146104f85780637eadfa6a14610514576101f0565b80633358f45b116101875780635555fe17116101565780635555fe17146103d55780635f08c6b5146104055780636beee9d7146104355780636ebb4d8714610465576101f0565b80633358f45b1461033d5780634cf12d261461036d5780635457bbf91461039d578063545fa9ec146103b9576101f0565b8063282e5e81116101c3578063282e5e81146102915780632a0d0373146102ad5780632bde1581146102dd578063304b16db1461030d576101f0565b8063144cbca6146101f557806318160ddd146102135780631e65e1171461023157806325c11f7414610261575b600080fd5b6101fd61070e565b60405161020a91906122fb565b60405180910390f35b61021b610714565b60405161022891906122fb565b60405180910390f35b61024b60048036038101906102469190612470565b61071d565b60405161025891906125fa565b60405180910390f35b61027b60048036038101906102769190612470565b6109d5565b60405161028891906125fa565b60405180910390f35b6102ab60048036038101906102a6919061261c565b610b5a565b005b6102c760048036038101906102c29190612470565b610b8a565b6040516102d491906125fa565b60405180910390f35b6102f760048036038101906102f291906126f2565b610d0f565b60405161030491906122fb565b60405180910390f35b61032760048036038101906103229190612470565b610d8c565b60405161033491906122fb565b60405180910390f35b61035760048036038101906103529190612470565b610e40565b6040516103649190612798565b60405180910390f35b61038760048036038101906103829190612470565b610e76565b60405161039491906127fd565b60405180910390f35b6103b760048036038101906103b2919061284b565b610f26565b005b6103d360048036038101906103ce9190612470565b610f82565b005b6103ef60048036038101906103ea91906128d6565b610fbc565b6040516103fc91906122fb565b60405180910390f35b61041f600480360381019061041a9190612470565b611091565b60405161042c91906127fd565b60405180910390f35b61044f600480360381019061044a9190612470565b611141565b60405161045c91906127fd565b60405180910390f35b61047f600480360381019061047a9190612470565b6111eb565b60405161048c9190612a03565b60405180910390f35b6104af60048036038101906104aa9190612a25565b6112d6565b6040516104bf9493929190612a61565b60405180910390f35b6104e260048036038101906104dd919061261c565b6114be565b6040516104ef91906122fb565b60405180910390f35b610512600480360381019061050d919061261c565b61156d565b005b61051c61159d565b60405161052991906122fb565b60405180910390f35b61054c60048036038101906105479190612abb565b6115a7565b60405161055991906127fd565b60405180910390f35b61057c60048036038101906105779190612470565b61166d565b60405161058991906122fb565b60405180910390f35b6105ac60048036038101906105a79190612470565b61170d565b6040516105b991906127fd565b60405180910390f35b6105dc60048036038101906105d7919061284b565b6117bd565b005b6105f860048036038101906105f39190612b17565b611819565b005b610614600480360381019061060f9190612470565b611860565b60405161062191906122fb565b60405180910390f35b610644600480360381019061063f9190612bbe565b611973565b005b610660600480360381019061065b9190612470565b611ba5565b60405161066d91906125fa565b60405180910390f35b610690600480360381019061068b9190612470565b611d2a565b60405161069d91906122fb565b60405180910390f35b6106c060048036038101906106bb919061261c565b611dca565b005b6106dc60048036038101906106d79190612470565b611dfa565b6040516106e991906127fd565b60405180910390f35b61070c60048036038101906107079190612c79565b611ebe565b005b60065481565b60008054905090565b606060008060005b6002548110156107cc578480519060200120600e61074283611fcd565b6040516020016107529190612de2565b60405160208183030381529060405260405161076e9190612e08565b908152602001604051809103902060006002811061078f5761078e612e1f565b5b0160405161079d9190612f51565b6040518091039020036107b95782806107b590612f97565b9350505b80806107c490612f97565b915050610725565b5060008267ffffffffffffffff8111156107e9576107e8612345565b5b60405190808252806020026020018201604052801561081c57816020015b60608152602001906001900390816108075790505b50905060005b6002548110156109c9578580519060200120600e61083f83611fcd565b60405160200161084f9190612de2565b60405160208183030381529060405260405161086b9190612e08565b908152602001604051809103902060006002811061088c5761088b612e1f565b5b0160405161089a9190612f51565b6040518091039020036109b657600e6108b282611fcd565b6040516020016108c29190612de2565b6040516020818303038152906040526040516108de9190612e08565b90815260200160405180910390206001600281106108ff576108fe612e1f565b5b01805461090b90612e7d565b80601f016020809104026020016040519081016040528092919081815260200182805461093790612e7d565b80156109845780601f1061095957610100808354040283529160200191610984565b820191906000526020600020905b81548152906001019060200180831161096757829003601f168201915b505050505082848151811061099c5761099b612e1f565b5b602002602001018190525082806109b290612f97565b9350505b80806109c190612f97565b915050610822565b50809350505050919050565b60606000600a67ffffffffffffffff8111156109f4576109f3612345565b5b604051908082528060200260200182016040528015610a2757816020015b6060815260200190600190039081610a125790505b5090506000805b600454811015610b4f57848051906020012060096000838152602001908152602001600020600001604051610a639190612f51565b604051809103902003610b3c57600960008281526020019081526020016000206001018054610a9190612e7d565b80601f0160208091040260200160405190810160405280929190818152602001828054610abd90612e7d565b8015610b0a5780601f10610adf57610100808354040283529160200191610b0a565b820191906000526020600020905b815481529060010190602001808311610aed57829003601f168201915b5050505050838381518110610b2257610b21612e1f565b5b60200260200101819052508180610b3890612f97565b9250505b8080610b4790612f97565b915050610a2e565b508192505050919050565b80600f83604051610b6b9190612e08565b90815260200160405180910390209081610b85919061318b565b505050565b60606000600a67ffffffffffffffff811115610ba957610ba8612345565b5b604051908082528060200260200182016040528015610bdc57816020015b6060815260200190600190039081610bc75790505b5090506000805b600454811015610d0457848051906020012060096000838152602001908152602001600020600001604051610c189190612f51565b604051809103902003610cf157600960008281526020019081526020016000206001018054610c4690612e7d565b80601f0160208091040260200160405190810160405280929190818152602001828054610c7290612e7d565b8015610cbf5780601f10610c9457610100808354040283529160200191610cbf565b820191906000526020600020905b815481529060010190602001808311610ca257829003601f168201915b5050505050838381518110610cd757610cd6612e1f565b5b60200260200101819052508180610ced90612f97565b9250505b8080610cfc90612f97565b915050610be3565b508192505050919050565b6000610d44610d1f600054611fcd565b604051602001610d2f9190612de2565b6040516020818303038152906040528461156d565b610d5160035483856117bd565b600080815480929190610d6390612f97565b919050555060036000815480929190610d7b90612f97565b919050555060005490509392505050565b600080600090505b600254811015610e35578280519060200120600e610db183611fcd565b604051602001610dc19190612de2565b604051602081830303815290604052604051610ddd9190612e08565b9081526020016040518091039020600160028110610dfe57610dfd612e1f565b5b01604051610e0c9190612f51565b604051809103902003610e225780915050610e3b565b8080610e2d90612f97565b915050610d94565b50600090505b919050565b6007818051602081018201805184825260208301602085012081835280955050505050506000915054906101000a900460ff1681565b6060600d82604051610e889190612e08565b90815260200160405180910390208054610ea190612e7d565b80601f0160208091040260200160405190810160405280929190818152602001828054610ecd90612e7d565b8015610f1a5780601f10610eef57610100808354040283529160200191610f1a565b820191906000526020600020905b815481529060010190602001808311610efd57829003601f168201915b50505050509050919050565b604051806040016040528083815260200182815250600960008581526020019081526020016000206000820151816000019081610f63919061318b565b506020820151816001019081610f79919061318b565b50905050505050565b6001600782604051610f949190612e08565b908152602001604051809103902060006101000a81548160ff02191690831515021790555050565b600080610fca600254611fcd565b604051602001610fda9190612de2565b6040516020818303038152906040529050610ff6818686611819565b611035816040518060400160405280600181526020017f3000000000000000000000000000000000000000000000000000000000000000815250610b5a565b60006007826040516110479190612e08565b908152602001604051809103902060006101000a81548160ff0219169083151502179055506002600081548092919061107f90612f97565b91905055506002549150509392505050565b6060600c826040516110a39190612e08565b908152602001604051809103902080546110bc90612e7d565b80601f01602080910402602001604051908101604052809291908181526020018280546110e890612e7d565b80156111355780601f1061110a57610100808354040283529160200191611135565b820191906000526020600020905b81548152906001019060200180831161111857829003601f168201915b50505050509050919050565b606060005b6005548110156111ac578280519060200120600a600083815260200190815260200160002060000160405161117b9190612f51565b6040518091039020036111995761119181611fcd565b9150506111e6565b80806111a490612f97565b915050611146565b506040518060400160405280600281526020017f2d3100000000000000000000000000000000000000000000000000000000000081525090505b919050565b6111f36121ee565b600e826040516112039190612e08565b9081526020016040518091039020600280602002604051908101604052809291906000905b828210156112cb57838201805461123e90612e7d565b80601f016020809104026020016040519081016040528092919081815260200182805461126a90612e7d565b80156112b75780601f1061128c576101008083540402835291602001916112b7565b820191906000526020600020905b81548152906001019060200180831161129a57829003601f168201915b505050505081526020019060010190611228565b505050509050919050565b600a6020528060005260406000206000915090508060000180546112f990612e7d565b80601f016020809104026020016040519081016040528092919081815260200182805461132590612e7d565b80156113725780601f1061134757610100808354040283529160200191611372565b820191906000526020600020905b81548152906001019060200180831161135557829003601f168201915b50505050509080600101805461138790612e7d565b80601f01602080910402602001604051908101604052809291908181526020018280546113b390612e7d565b80156114005780601f106113d557610100808354040283529160200191611400565b820191906000526020600020905b8154815290600101906020018083116113e357829003601f168201915b5050505050908060020160009054906101000a900473ffffffffffffffffffffffffffffffffffffffff169080600301805461143b90612e7d565b80601f016020809104026020016040519081016040528092919081815260200182805461146790612e7d565b80156114b45780601f10611489576101008083540402835291602001916114b4565b820191906000526020600020905b81548152906001019060200180831161149757829003601f168201915b5050505050905084565b600080600090505b600354811015611561578380519060200120600860008381526020019081526020016000206000016040516114fb9190612f51565b604051809103902014801561154057508280519060200120600860008381526020019081526020016000206001016040516115369190612f51565b6040518091039020145b1561154e5780915050611567565b808061155990612f97565b9150506114c6565b50600090505b92915050565b80600d8360405161157e9190612e08565b90815260200160405180910390209081611598919061318b565b505050565b6000600254905090565b600b8280516020810182018051848252602083016020850120818352809550505050505081600281106115d957600080fd5b016000915091505080546115ec90612e7d565b80601f016020809104026020016040519081016040528092919081815260200182805461161890612e7d565b80156116655780601f1061163a57610100808354040283529160200191611665565b820191906000526020600020905b81548152906001019060200180831161164857829003601f168201915b505050505081565b600080600090505b600054811015611702578280519060200120600d61169283611fcd565b6040516020016116a29190612de2565b6040516020818303038152906040526040516116be9190612e08565b90815260200160405180910390206040516116d99190612f51565b6040518091039020036116ef5780915050611708565b80806116fa90612f97565b915050611675565b50600090505b919050565b6060600f8260405161171f9190612e08565b9081526020016040518091039020805461173890612e7d565b80601f016020809104026020016040519081016040528092919081815260200182805461176490612e7d565b80156117b15780601f10611786576101008083540402835291602001916117b1565b820191906000526020600020905b81548152906001019060200180831161179457829003601f168201915b50505050509050919050565b6040518060400160405280838152602001828152506008600085815260200190815260200160002060008201518160000190816117fa919061318b565b506020820151816001019081611810919061318b565b50905050505050565b604051806040016040528083815260200182815250600e8460405161183e9190612e08565b908152602001604051809103902090600261185a929190612215565b50505050565b600080600090505b825181101561196c576000603084838151811061188857611887612e1f565b5b602001015160f81c60f81b60f81c6118a0919061326a565b60ff1610806118de5750600960308483815181106118c1576118c0612e1f565b5b602001015160f81c60f81b60f81c6118d9919061326a565b60ff16115b156118ed57600091505061196e565b60018184516118fc919061329f565b611906919061329f565b600a6119129190613406565b603084838151811061192757611926612e1f565b5b602001015160f81c60f81b60f81c61193f919061326a565b60ff1661194c9190613451565b826119579190613493565b9150808061196490612f97565b915050611868565b505b919050565b600061197e85611141565b90506040518060400160405280600281526020017f2d3100000000000000000000000000000000000000000000000000000000000081525080519060200120818051906020012014611aad5760405180608001604052808681526020018581526020018473ffffffffffffffffffffffffffffffffffffffff16815260200183815250600a6000611a0e84611860565b81526020019081526020016000206000820151816000019081611a31919061318b565b506020820151816001019081611a47919061318b565b5060408201518160020160006101000a81548173ffffffffffffffffffffffffffffffffffffffff021916908373ffffffffffffffffffffffffffffffffffffffff1602179055506060820151816003019081611aa4919061318b565b50905050611b9e565b60405180608001604052808681526020018581526020018473ffffffffffffffffffffffffffffffffffffffff16815260200183815250600a600060055481526020019081526020016000206000820151816000019081611b0e919061318b565b506020820151816001019081611b24919061318b565b5060408201518160020160006101000a81548173ffffffffffffffffffffffffffffffffffffffff021916908373ffffffffffffffffffffffffffffffffffffffff1602179055506060820151816003019081611b81919061318b565b5090505060056000815480929190611b9890612f97565b91905055505b5050505050565b60606000600a67ffffffffffffffff811115611bc457611bc3612345565b5b604051908082528060200260200182016040528015611bf757816020015b6060815260200190600190039081611be25790505b5090506000805b600354811015611d1f57848051906020012060086000838152602001908152602001600020600001604051611c339190612f51565b604051809103902003611d0c57600860008281526020019081526020016000206001018054611c6190612e7d565b80601f0160208091040260200160405190810160405280929190818152602001828054611c8d90612e7d565b8015611cda5780601f10611caf57610100808354040283529160200191611cda565b820191906000526020600020905b815481529060010190602001808311611cbd57829003601f168201915b5050505050838381518110611cf257611cf1612e1f565b5b60200260200101819052508180611d0890612f97565b9250505b8080611d1790612f97565b915050611bfe565b508192505050919050565b600080600090505b600154811015611dbf578280519060200120600c611d4f83611fcd565b604051602001611d5f9190612de2565b604051602081830303815290604052604051611d7b9190612e08565b9081526020016040518091039020604051611d969190612f51565b604051809103902003611dac5780915050611dc5565b8080611db790612f97565b915050611d32565b50600090505b919050565b80600c83604051611ddb9190612e08565b90815260200160405180910390209081611df5919061318b565b505050565b6060600b82604051611e0c9190612e08565b9081526020016040518091039020600060028110611e2d57611e2c612e1f565b5b018054611e3990612e7d565b80601f0160208091040260200160405190810160405280929190818152602001828054611e6590612e7d565b8015611eb25780601f10611e8757610100808354040283529160200191611eb2565b820191906000526020600020905b815481529060010190602001808311611e9557829003601f168201915b50505050509050919050565b6000611f7084600d88604051611ed49190612e08565b90815260200160405180910390208054611eed90612e7d565b80601f0160208091040260200160405190810160405280929190818152602001828054611f1990612e7d565b8015611f665780601f10611f3b57610100808354040283529160200191611f66565b820191906000526020600020905b815481529060010190602001808311611f4957829003601f168201915b50505050506114be565b9050611f7e86853385611973565b611f888484610b5a565b611f956004548787610f26565b60046000815480929190611fa890612f97565b919050555060016000815480929190611fc090612f97565b9190505550505050505050565b606060006001611fdc8461209b565b01905060008167ffffffffffffffff811115611ffb57611ffa612345565b5b6040519080825280601f01601f19166020018201604052801561202d5781602001600182028036833780820191505090505b509050600082602001820190505b600115612090578080600190039150507f3031323334353637383961626364656600000000000000000000000000000000600a86061a8153600a8581612084576120836134c7565b5b0494506000850361203b575b819350505050919050565b600080600090507a184f03e93ff9f4daa797ed6e38ed64bf6a1f01000000000000000083106120f9577a184f03e93ff9f4daa797ed6e38ed64bf6a1f01000000000000000083816120ef576120ee6134c7565b5b0492506040810190505b6d04ee2d6d415b85acef81000000008310612136576d04ee2d6d415b85acef8100000000838161212c5761212b6134c7565b5b0492506020810190505b662386f26fc10000831061216557662386f26fc10000838161215b5761215a6134c7565b5b0492506010810190505b6305f5e100831061218e576305f5e1008381612184576121836134c7565b5b0492506008810190505b61271083106121b35761271083816121a9576121a86134c7565b5b0492506004810190505b606483106121d657606483816121cc576121cb6134c7565b5b0492506002810190505b600a83106121e5576001810190505b80915050919050565b60405180604001604052806002905b60608152602001906001900390816121fd5790505090565b8260028101928215612250579160200282015b8281111561224f57825182908161223f919061318b565b5091602001919060010190612228565b5b50905061225d9190612261565b5090565b5b8082111561228157600081816122789190612285565b50600101612262565b5090565b50805461229190612e7d565b6000825580601f106122a357506122c2565b601f0160209004906000526020600020908101906122c191906122c5565b5b50565b5b808211156122de5760008160009055506001016122c6565b5090565b6000819050919050565b6122f5816122e2565b82525050565b600060208201905061231060008301846122ec565b92915050565b6000604051905090565b600080fd5b600080fd5b600080fd5b600080fd5b6000601f19601f8301169050919050565b7f4e487b7100000000000000000000000000000000000000000000000000000000600052604160045260246000fd5b61237d82612334565b810181811067ffffffffffffffff8211171561239c5761239b612345565b5b80604052505050565b60006123af612316565b90506123bb8282612374565b919050565b600067ffffffffffffffff8211156123db576123da612345565b5b6123e482612334565b9050602081019050919050565b82818337600083830152505050565b600061241361240e846123c0565b6123a5565b90508281526020810184848401111561242f5761242e61232f565b5b61243a8482856123f1565b509392505050565b600082601f8301126124575761245661232a565b5b8135612467848260208601612400565b91505092915050565b60006020828403121561248657612485612320565b5b600082013567ffffffffffffffff8111156124a4576124a3612325565b5b6124b084828501612442565b91505092915050565b600081519050919050565b600082825260208201905092915050565b6000819050602082019050919050565b600081519050919050565b600082825260208201905092915050565b60005b8381101561251f578082015181840152602081019050612504565b60008484015250505050565b6000612536826124e5565b61254081856124f0565b9350612550818560208601612501565b61255981612334565b840191505092915050565b6000612570838361252b565b905092915050565b6000602082019050919050565b6000612590826124b9565b61259a81856124c4565b9350836020820285016125ac856124d5565b8060005b858110156125e857848403895281516125c98582612564565b94506125d483612578565b925060208a019950506001810190506125b0565b50829750879550505050505092915050565b600060208201905081810360008301526126148184612585565b905092915050565b6000806040838503121561263357612632612320565b5b600083013567ffffffffffffffff81111561265157612650612325565b5b61265d85828601612442565b925050602083013567ffffffffffffffff81111561267e5761267d612325565b5b61268a85828601612442565b9150509250929050565b600073ffffffffffffffffffffffffffffffffffffffff82169050919050565b60006126bf82612694565b9050919050565b6126cf816126b4565b81146126da57600080fd5b50565b6000813590506126ec816126c6565b92915050565b60008060006060848603121561270b5761270a612320565b5b6000612719868287016126dd565b935050602084013567ffffffffffffffff81111561273a57612739612325565b5b61274686828701612442565b925050604084013567ffffffffffffffff81111561276757612766612325565b5b61277386828701612442565b9150509250925092565b60008115159050919050565b6127928161277d565b82525050565b60006020820190506127ad6000830184612789565b92915050565b600082825260208201905092915050565b60006127cf826124e5565b6127d981856127b3565b93506127e9818560208601612501565b6127f281612334565b840191505092915050565b6000602082019050818103600083015261281781846127c4565b905092915050565b612828816122e2565b811461283357600080fd5b50565b6000813590506128458161281f565b92915050565b60008060006060848603121561286457612863612320565b5b600061287286828701612836565b935050602084013567ffffffffffffffff81111561289357612892612325565b5b61289f86828701612442565b925050604084013567ffffffffffffffff8111156128c0576128bf612325565b5b6128cc86828701612442565b9150509250925092565b6000806000606084860312156128ef576128ee612320565b5b600084013567ffffffffffffffff81111561290d5761290c612325565b5b61291986828701612442565b935050602084013567ffffffffffffffff81111561293a57612939612325565b5b61294686828701612442565b925050604061295786828701612836565b9150509250925092565b600060029050919050565b600081905092915050565b6000819050919050565b6000602082019050919050565b600061299982612961565b6129a3818561296c565b9350836020820285016129b585612977565b8060005b858110156129f157848403895281516129d28582612564565b94506129dd83612981565b925060208a019950506001810190506129b9565b50829750879550505050505092915050565b60006020820190508181036000830152612a1d818461298e565b905092915050565b600060208284031215612a3b57612a3a612320565b5b6000612a4984828501612836565b91505092915050565b612a5b816126b4565b82525050565b60006080820190508181036000830152612a7b81876127c4565b90508181036020830152612a8f81866127c4565b9050612a9e6040830185612a52565b8181036060830152612ab081846127c4565b905095945050505050565b60008060408385031215612ad257612ad1612320565b5b600083013567ffffffffffffffff811115612af057612aef612325565b5b612afc85828601612442565b9250506020612b0d85828601612836565b9150509250929050565b600080600060608486031215612b3057612b2f612320565b5b600084013567ffffffffffffffff811115612b4e57612b4d612325565b5b612b5a86828701612442565b935050602084013567ffffffffffffffff811115612b7b57612b7a612325565b5b612b8786828701612442565b925050604084013567ffffffffffffffff811115612ba857612ba7612325565b5b612bb486828701612442565b9150509250925092565b60008060008060808587031215612bd857612bd7612320565b5b600085013567ffffffffffffffff811115612bf657612bf5612325565b5b612c0287828801612442565b945050602085013567ffffffffffffffff811115612c2357612c22612325565b5b612c2f87828801612442565b9350506040612c40878288016126dd565b925050606085013567ffffffffffffffff811115612c6157612c60612325565b5b612c6d87828801612442565b91505092959194509250565b600080600080600060a08688031215612c9557612c94612320565b5b600086013567ffffffffffffffff811115612cb357612cb2612325565b5b612cbf88828901612442565b955050602086013567ffffffffffffffff811115612ce057612cdf612325565b5b612cec88828901612442565b945050604086013567ffffffffffffffff811115612d0d57612d0c612325565b5b612d1988828901612442565b935050606086013567ffffffffffffffff811115612d3a57612d39612325565b5b612d4688828901612442565b925050608086013567ffffffffffffffff811115612d6757612d66612325565b5b612d7388828901612442565b9150509295509295909350565b7f6d5f000000000000000000000000000000000000000000000000000000000000815250565b600081905092915050565b6000612dbc826124e5565b612dc68185612da6565b9350612dd6818560208601612501565b80840191505092915050565b6000612ded82612d80565b600282019150612dfd8284612db1565b915081905092915050565b6000612e148284612db1565b915081905092915050565b7f4e487b7100000000000000000000000000000000000000000000000000000000600052603260045260246000fd5b7f4e487b7100000000000000000000000000000000000000000000000000000000600052602260045260246000fd5b60006002820490506001821680612e9557607f821691505b602082108103612ea857612ea7612e4e565b5b50919050565b600081905092915050565b60008190508160005260206000209050919050565b60008154612edb81612e7d565b612ee58186612eae565b94506001821660008114612f005760018114612f1557612f48565b60ff1983168652811515820286019350612f48565b612f1e85612eb9565b60005b83811015612f4057815481890152600182019150602081019050612f21565b838801955050505b50505092915050565b6000612f5d8284612ece565b915081905092915050565b7f4e487b7100000000000000000000000000000000000000000000000000000000600052601160045260246000fd5b6000612fa2826122e2565b91507fffffffffffffffffffffffffffffffffffffffffffffffffffffffffffffffff8203612fd457612fd3612f68565b5b600182019050919050565b60008190508160005260206000209050919050565b60006020601f8301049050919050565b600082821b905092915050565b6000600883026130417fffffffffffffffffffffffffffffffffffffffffffffffffffffffffffffffff82613004565b61304b8683613004565b95508019841693508086168417925050509392505050565b6000819050919050565b600061308861308361307e846122e2565b613063565b6122e2565b9050919050565b6000819050919050565b6130a28361306d565b6130b66130ae8261308f565b848454613011565b825550505050565b600090565b6130cb6130be565b6130d6818484613099565b505050565b5b818110156130fa576130ef6000826130c3565b6001810190506130dc565b5050565b601f82111561313f5761311081612fdf565b61311984612ff4565b81016020851015613128578190505b61313c61313485612ff4565b8301826130db565b50505b505050565b600082821c905092915050565b600061316260001984600802613144565b1980831691505092915050565b600061317b8383613151565b9150826002028217905092915050565b613194826124e5565b67ffffffffffffffff8111156131ad576131ac612345565b5b6131b78254612e7d565b6131c28282856130fe565b600060209050601f8311600181146131f557600084156131e3578287015190505b6131ed858261316f565b865550613255565b601f19841661320386612fdf565b60005b8281101561322b57848901518255600182019150602085019450602081019050613206565b868310156132485784890151613244601f891682613151565b8355505b6001600288020188555050505b505050505050565b600060ff82169050919050565b60006132758261325d565b91506132808361325d565b9250828203905060ff81111561329957613298612f68565b5b92915050565b60006132aa826122e2565b91506132b5836122e2565b92508282039050818111156132cd576132cc612f68565b5b92915050565b60008160011c9050919050565b6000808291508390505b600185111561332a5780860481111561330657613305612f68565b5b60018516156133155780820291505b8081029050613323856132d3565b94506132ea565b94509492505050565b60008261334357600190506133ff565b8161335157600090506133ff565b81600181146133675760028114613371576133a0565b60019150506133ff565b60ff84111561338357613382612f68565b5b8360020a91508482111561339a57613399612f68565b5b506133ff565b5060208310610133831016604e8410600b84101617156133d55782820a9050838111156133d0576133cf612f68565b5b6133ff565b6133e284848460016132e0565b925090508184048111156133f9576133f8612f68565b5b81810290505b9392505050565b6000613411826122e2565b915061341c836122e2565b92506134497fffffffffffffffffffffffffffffffffffffffffffffffffffffffffffffffff8484613333565b905092915050565b600061345c826122e2565b9150613467836122e2565b9250828202613475816122e2565b9150828204841483151761348c5761348b612f68565b5b5092915050565b600061349e826122e2565b91506134a9836122e2565b92508282019050808211156134c1576134c0612f68565b5b92915050565b7f4e487b7100000000000000000000000000000000000000000000000000000000600052601260045260246000fdfea2646970667358221220449cdc079e5cde619269038b64f9ef031827eac756e1b33fa63e4205514e557764736f6c63430008110033","opcodes":"PUSH1 0x80 PUSH1 0x40 MSTORE CALLVALUE DUP1 ISZERO PUSH2 0x10 JUMPI PUSH1 0x0 DUP1 REVERT JUMPDEST POP PUSH2 0x352C DUP1 PUSH2 0x20 PUSH1 0x0 CODECOPY PUSH1 0x0 RETURN INVALID PUSH1 0x80 PUSH1 0x40 MSTORE CALLVALUE DUP1 ISZERO PUSH2 0x10 JUMPI PUSH1 0x0 DUP1 REVERT JUMPDEST POP PUSH1 0x4 CALLDATASIZE LT PUSH2 0x1F0 JUMPI PUSH1 0x0 CALLDATALOAD PUSH1 0xE0 SHR DUP1 PUSH4 0x70881E72 GT PUSH2 0x10F JUMPI DUP1 PUSH4 0xBFEE6F8E GT PUSH2 0xA2 JUMPI DUP1 PUSH4 0xD45FC516 GT PUSH2 0x71 JUMPI DUP1 PUSH4 0xD45FC516 EQ PUSH2 0x676 JUMPI DUP1 PUSH4 0xDF6B96C7 EQ PUSH2 0x6A6 JUMPI DUP1 PUSH4 0xEACB4A74 EQ PUSH2 0x6C2 JUMPI DUP1 PUSH4 0xF7E34095 EQ PUSH2 0x6F2 JUMPI PUSH2 0x1F0 JUMP JUMPDEST DUP1 PUSH4 0xBFEE6F8E EQ PUSH2 0x5DE JUMPI DUP1 PUSH4 0xC5EF3EC5 EQ PUSH2 0x5FA JUMPI DUP1 PUSH4 0xCE65E748 EQ PUSH2 0x62A JUMPI DUP1 PUSH4 0xD0FB8699 EQ PUSH2 0x646 JUMPI PUSH2 0x1F0 JUMP JUMPDEST DUP1 PUSH4 0x8C2715B7 GT PUSH2 0xDE JUMPI DUP1 PUSH4 0x8C2715B7 EQ PUSH2 0x532 JUMPI DUP1 PUSH4 0x932A196B EQ PUSH2 0x562 JUMPI DUP1 PUSH4 0xA42A665C EQ PUSH2 0x592 JUMPI DUP1 PUSH4 0xB91E924F EQ PUSH2 0x5C2 JUMPI PUSH2 0x1F0 JUMP JUMPDEST DUP1 PUSH4 0x70881E72 EQ PUSH2 0x495 JUMPI DUP1 PUSH4 0x783DB260 EQ PUSH2 0x4C8 JUMPI DUP1 PUSH4 0x7AB4AB6E EQ PUSH2 0x4F8 JUMPI DUP1 PUSH4 0x7EADFA6A EQ PUSH2 0x514 JUMPI PUSH2 0x1F0 JUMP JUMPDEST DUP1 PUSH4 0x3358F45B GT PUSH2 0x187 JUMPI DUP1 PUSH4 0x5555FE17 GT PUSH2 0x156 JUMPI DUP1 PUSH4 0x5555FE17 EQ PUSH2 0x3D5 JUMPI DUP1 PUSH4 0x5F08C6B5 EQ PUSH2 0x405 JUMPI DUP1 PUSH4 0x6BEEE9D7 EQ PUSH2 0x435 JUMPI DUP1 PUSH4 0x6EBB4D87 EQ PUSH2 0x465 JUMPI PUSH2 0x1F0 JUMP JUMPDEST DUP1 PUSH4 0x3358F45B EQ PUSH2 0x33D JUMPI DUP1 PUSH4 0x4CF12D26 EQ PUSH2 0x36D JUMPI DUP1 PUSH4 0x5457BBF9 EQ PUSH2 0x39D JUMPI DUP1 PUSH4 0x545FA9EC EQ PUSH2 0x3B9 JUMPI PUSH2 0x1F0 JUMP JUMPDEST DUP1 PUSH4 0x282E5E81 GT PUSH2 0x1C3 JUMPI DUP1 PUSH4 0x282E5E81 EQ PUSH2 0x291 JUMPI DUP1 PUSH4 0x2A0D0373 EQ PUSH2 0x2AD JUMPI DUP1 PUSH4 0x2BDE1581 EQ PUSH2 0x2DD JUMPI DUP1 PUSH4 0x304B16DB EQ PUSH2 0x30D JUMPI PUSH2 0x1F0 JUMP JUMPDEST DUP1 PUSH4 0x144CBCA6 EQ PUSH2 0x1F5 JUMPI DUP1 PUSH4 0x18160DDD EQ PUSH2 0x213 JUMPI DUP1 PUSH4 0x1E65E117 EQ PUSH2 0x231 JUMPI DUP1 PUSH4 0x25C11F74 EQ PUSH2 0x261 JUMPI JUMPDEST PUSH1 0x0 DUP1 REVERT JUMPDEST PUSH2 0x1FD PUSH2 0x70E JUMP JUMPDEST PUSH1 0x40 MLOAD PUSH2 0x20A SWAP2 SWAP1 PUSH2 0x22FB JUMP JUMPDEST PUSH1 0x40 MLOAD DUP1 SWAP2 SUB SWAP1 RETURN JUMPDEST PUSH2 0x21B PUSH2 0x714 JUMP JUMPDEST PUSH1 0x40 MLOAD PUSH2 0x228 SWAP2 SWAP1 PUSH2 0x22FB JUMP JUMPDEST PUSH1 0x40 MLOAD DUP1 SWAP2 SUB SWAP1 RETURN JUMPDEST PUSH2 0x24B PUSH1 0x4 DUP1 CALLDATASIZE SUB DUP2 ADD SWAP1 PUSH2 0x246 SWAP2 SWAP1 PUSH2 0x2470 JUMP JUMPDEST PUSH2 0x71D JUMP JUMPDEST PUSH1 0x40 MLOAD PUSH2 0x258 SWAP2 SWAP1 PUSH2 0x25FA JUMP JUMPDEST PUSH1 0x40 MLOAD DUP1 SWAP2 SUB SWAP1 RETURN JUMPDEST PUSH2 0x27B PUSH1 0x4 DUP1 CALLDATASIZE SUB DUP2 ADD SWAP1 PUSH2 0x276 SWAP2 SWAP1 PUSH2 0x2470 JUMP JUMPDEST PUSH2 0x9D5 JUMP JUMPDEST PUSH1 0x40 MLOAD PUSH2 0x288 SWAP2 SWAP1 PUSH2 0x25FA JUMP JUMPDEST PUSH1 0x40 MLOAD DUP1 SWAP2 SUB SWAP1 RETURN JUMPDEST PUSH2 0x2AB PUSH1 0x4 DUP1 CALLDATASIZE SUB DUP2 ADD SWAP1 PUSH2 0x2A6 SWAP2 SWAP1 PUSH2 0x261C JUMP JUMPDEST PUSH2 0xB5A JUMP JUMPDEST STOP JUMPDEST PUSH2 0x2C7 PUSH1 0x4 DUP1 CALLDATASIZE SUB DUP2 ADD SWAP1 PUSH2 0x2C2 SWAP2 SWAP1 PUSH2 0x2470 JUMP JUMPDEST PUSH2 0xB8A JUMP JUMPDEST PUSH1 0x40 MLOAD PUSH2 0x2D4 SWAP2 SWAP1 PUSH2 0x25FA JUMP JUMPDEST PUSH1 0x40 MLOAD DUP1 SWAP2 SUB SWAP1 RETURN JUMPDEST PUSH2 0x2F7 PUSH1 0x4 DUP1 CALLDATASIZE SUB DUP2 ADD SWAP1 PUSH2 0x2F2 SWAP2 SWAP1 PUSH2 0x26F2 JUMP JUMPDEST PUSH2 0xD0F JUMP JUMPDEST PUSH1 0x40 MLOAD PUSH2 0x304 SWAP2 SWAP1 PUSH2 0x22FB JUMP JUMPDEST PUSH1 0x40 MLOAD DUP1 SWAP2 SUB SWAP1 RETURN JUMPDEST PUSH2 0x327 PUSH1 0x4 DUP1 CALLDATASIZE SUB DUP2 ADD SWAP1 PUSH2 0x322 SWAP2 SWAP1 PUSH2 0x2470 JUMP JUMPDEST PUSH2 0xD8C JUMP JUMPDEST PUSH1 0x40 MLOAD PUSH2 0x334 SWAP2 SWAP1 PUSH2 0x22FB JUMP JUMPDEST PUSH1 0x40 MLOAD DUP1 SWAP2 SUB SWAP1 RETURN JUMPDEST PUSH2 0x357 PUSH1 0x4 DUP1 CALLDATASIZE SUB DUP2 ADD SWAP1 PUSH2 0x352 SWAP2 SWAP1 PUSH2 0x2470 JUMP JUMPDEST PUSH2 0xE40 JUMP JUMPDEST PUSH1 0x40 MLOAD PUSH2 0x364 SWAP2 SWAP1 PUSH2 0x2798 JUMP JUMPDEST PUSH1 0x40 MLOAD DUP1 SWAP2 SUB SWAP1 RETURN JUMPDEST PUSH2 0x387 PUSH1 0x4 DUP1 CALLDATASIZE SUB DUP2 ADD SWAP1 PUSH2 0x382 SWAP2 SWAP1 PUSH2 0x2470 JUMP JUMPDEST PUSH2 0xE76 JUMP JUMPDEST PUSH1 0x40 MLOAD PUSH2 0x394 SWAP2 SWAP1 PUSH2 0x27FD JUMP JUMPDEST PUSH1 0x40 MLOAD DUP1 SWAP2 SUB SWAP1 RETURN JUMPDEST PUSH2 0x3B7 PUSH1 0x4 DUP1 CALLDATASIZE SUB DUP2 ADD SWAP1 PUSH2 0x3B2 SWAP2 SWAP1 PUSH2 0x284B JUMP JUMPDEST PUSH2 0xF26 JUMP JUMPDEST STOP JUMPDEST PUSH2 0x3D3 PUSH1 0x4 DUP1 CALLDATASIZE SUB DUP2 ADD SWAP1 PUSH2 0x3CE SWAP2 SWAP1 PUSH2 0x2470 JUMP JUMPDEST PUSH2 0xF82 JUMP JUMPDEST STOP JUMPDEST PUSH2 0x3EF PUSH1 0x4 DUP1 CALLDATASIZE SUB DUP2 ADD SWAP1 PUSH2 0x3EA SWAP2 SWAP1 PUSH2 0x28D6 JUMP JUMPDEST PUSH2 0xFBC JUMP JUMPDEST PUSH1 0x40 MLOAD PUSH2 0x3FC SWAP2 SWAP1 PUSH2 0x22FB JUMP JUMPDEST PUSH1 0x40 MLOAD DUP1 SWAP2 SUB SWAP1 RETURN JUMPDEST PUSH2 0x41F PUSH1 0x4 DUP1 CALLDATASIZE SUB DUP2 ADD SWAP1 PUSH2 0x41A SWAP2 SWAP1 PUSH2 0x2470 JUMP JUMPDEST PUSH2 0x1091 JUMP JUMPDEST PUSH1 0x40 MLOAD PUSH2 0x42C SWAP2 SWAP1 PUSH2 0x27FD JUMP JUMPDEST PUSH1 0x40 MLOAD DUP1 SWAP2 SUB SWAP1 RETURN JUMPDEST PUSH2 0x44F PUSH1 0x4 DUP1 CALLDATASIZE SUB DUP2 ADD SWAP1 PUSH2 0x44A SWAP2 SWAP1 PUSH2 0x2470 JUMP JUMPDEST PUSH2 0x1141 JUMP JUMPDEST PUSH1 0x40 MLOAD PUSH2 0x45C SWAP2 SWAP1 PUSH2 0x27FD JUMP JUMPDEST PUSH1 0x40 MLOAD DUP1 SWAP2 SUB SWAP1 RETURN JUMPDEST PUSH2 0x47F PUSH1 0x4 DUP1 CALLDATASIZE SUB DUP2 ADD SWAP1 PUSH2 0x47A SWAP2 SWAP1 PUSH2 0x2470 JUMP JUMPDEST PUSH2 0x11EB JUMP JUMPDEST PUSH1 0x40 MLOAD PUSH2 0x48C SWAP2 SWAP1 PUSH2 0x2A03 JUMP JUMPDEST PUSH1 0x40 MLOAD DUP1 SWAP2 SUB SWAP1 RETURN JUMPDEST PUSH2 0x4AF PUSH1 0x4 DUP1 CALLDATASIZE SUB DUP2 ADD SWAP1 PUSH2 0x4AA SWAP2 SWAP1 PUSH2 0x2A25 JUMP JUMPDEST PUSH2 0x12D6 JUMP JUMPDEST PUSH1 0x40 MLOAD PUSH2 0x4BF SWAP5 SWAP4 SWAP3 SWAP2 SWAP1 PUSH2 0x2A61 JUMP JUMPDEST PUSH1 0x40 MLOAD DUP1 SWAP2 SUB SWAP1 RETURN JUMPDEST PUSH2 0x4E2 PUSH1 0x4 DUP1 CALLDATASIZE SUB DUP2 ADD SWAP1 PUSH2 0x4DD SWAP2 SWAP1 PUSH2 0x261C JUMP JUMPDEST PUSH2 0x14BE JUMP JUMPDEST PUSH1 0x40 MLOAD PUSH2 0x4EF SWAP2 SWAP1 PUSH2 0x22FB JUMP JUMPDEST PUSH1 0x40 MLOAD DUP1 SWAP2 SUB SWAP1 RETURN JUMPDEST PUSH2 0x512 PUSH1 0x4 DUP1 CALLDATASIZE SUB DUP2 ADD SWAP1 PUSH2 0x50D SWAP2 SWAP1 PUSH2 0x261C JUMP JUMPDEST PUSH2 0x156D JUMP JUMPDEST STOP JUMPDEST PUSH2 0x51C PUSH2 0x159D JUMP JUMPDEST PUSH1 0x40 MLOAD PUSH2 0x529 SWAP2 SWAP1 PUSH2 0x22FB JUMP JUMPDEST PUSH1 0x40 MLOAD DUP1 SWAP2 SUB SWAP1 RETURN JUMPDEST PUSH2 0x54C PUSH1 0x4 DUP1 CALLDATASIZE SUB DUP2 ADD SWAP1 PUSH2 0x547 SWAP2 SWAP1 PUSH2 0x2ABB JUMP JUMPDEST PUSH2 0x15A7 JUMP JUMPDEST PUSH1 0x40 MLOAD PUSH2 0x559 SWAP2 SWAP1 PUSH2 0x27FD JUMP JUMPDEST PUSH1 0x40 MLOAD DUP1 SWAP2 SUB SWAP1 RETURN JUMPDEST PUSH2 0x57C PUSH1 0x4 DUP1 CALLDATASIZE SUB DUP2 ADD SWAP1 PUSH2 0x577 SWAP2 SWAP1 PUSH2 0x2470 JUMP JUMPDEST PUSH2 0x166D JUMP JUMPDEST PUSH1 0x40 MLOAD PUSH2 0x589 SWAP2 SWAP1 PUSH2 0x22FB JUMP JUMPDEST PUSH1 0x40 MLOAD DUP1 SWAP2 SUB SWAP1 RETURN JUMPDEST PUSH2 0x5AC PUSH1 0x4 DUP1 CALLDATASIZE SUB DUP2 ADD SWAP1 PUSH2 0x5A7 SWAP2 SWAP1 PUSH2 0x2470 JUMP JUMPDEST PUSH2 0x170D JUMP JUMPDEST PUSH1 0x40 MLOAD PUSH2 0x5B9 SWAP2 SWAP1 PUSH2 0x27FD JUMP JUMPDEST PUSH1 0x40 MLOAD DUP1 SWAP2 SUB SWAP1 RETURN JUMPDEST PUSH2 0x5DC PUSH1 0x4 DUP1 CALLDATASIZE SUB DUP2 ADD SWAP1 PUSH2 0x5D7 SWAP2 SWAP1 PUSH2 0x284B JUMP JUMPDEST PUSH2 0x17BD JUMP JUMPDEST STOP JUMPDEST PUSH2 0x5F8 PUSH1 0x4 DUP1 CALLDATASIZE SUB DUP2 ADD SWAP1 PUSH2 0x5F3 SWAP2 SWAP1 PUSH2 0x2B17 JUMP JUMPDEST PUSH2 0x1819 JUMP JUMPDEST STOP JUMPDEST PUSH2 0x614 PUSH1 0x4 DUP1 CALLDATASIZE SUB DUP2 ADD SWAP1 PUSH2 0x60F SWAP2 SWAP1 PUSH2 0x2470 JUMP JUMPDEST PUSH2 0x1860 JUMP JUMPDEST PUSH1 0x40 MLOAD PUSH2 0x621 SWAP2 SWAP1 PUSH2 0x22FB JUMP JUMPDEST PUSH1 0x40 MLOAD DUP1 SWAP2 SUB SWAP1 RETURN JUMPDEST PUSH2 0x644 PUSH1 0x4 DUP1 CALLDATASIZE SUB DUP2 ADD SWAP1 PUSH2 0x63F SWAP2 SWAP1 PUSH2 0x2BBE JUMP JUMPDEST PUSH2 0x1973 JUMP JUMPDEST STOP JUMPDEST PUSH2 0x660 PUSH1 0x4 DUP1 CALLDATASIZE SUB DUP2 ADD SWAP1 PUSH2 0x65B SWAP2 SWAP1 PUSH2 0x2470 JUMP JUMPDEST PUSH2 0x1BA5 JUMP JUMPDEST PUSH1 0x40 MLOAD PUSH2 0x66D SWAP2 SWAP1 PUSH2 0x25FA JUMP JUMPDEST PUSH1 0x40 MLOAD DUP1 SWAP2 SUB SWAP1 RETURN JUMPDEST PUSH2 0x690 PUSH1 0x4 DUP1 CALLDATASIZE SUB DUP2 ADD SWAP1 PUSH2 0x68B SWAP2 SWAP1 PUSH2 0x2470 JUMP JUMPDEST PUSH2 0x1D2A JUMP JUMPDEST PUSH1 0x40 MLOAD PUSH2 0x69D SWAP2 SWAP1 PUSH2 0x22FB JUMP JUMPDEST PUSH1 0x40 MLOAD DUP1 SWAP2 SUB SWAP1 RETURN JUMPDEST PUSH2 0x6C0 PUSH1 0x4 DUP1 CALLDATASIZE SUB DUP2 ADD SWAP1 PUSH2 0x6BB SWAP2 SWAP1 PUSH2 0x261C JUMP JUMPDEST PUSH2 0x1DCA JUMP JUMPDEST STOP JUMPDEST PUSH2 0x6DC PUSH1 0x4 DUP1 CALLDATASIZE SUB DUP2 ADD SWAP1 PUSH2 0x6D7 SWAP2 SWAP1 PUSH2 0x2470 JUMP JUMPDEST PUSH2 0x1DFA JUMP JUMPDEST PUSH1 0x40 MLOAD PUSH2 0x6E9 SWAP2 SWAP1 PUSH2 0x27FD JUMP JUMPDEST PUSH1 0x40 MLOAD DUP1 SWAP2 SUB SWAP1 RETURN JUMPDEST PUSH2 0x70C PUSH1 0x4 DUP1 CALLDATASIZE SUB DUP2 ADD SWAP1 PUSH2 0x707 SWAP2 SWAP1 PUSH2 0x2C79 JUMP JUMPDEST PUSH2 0x1EBE JUMP JUMPDEST STOP JUMPDEST PUSH1 0x6 SLOAD DUP2 JUMP JUMPDEST PUSH1 0x0 DUP1 SLOAD SWAP1 POP SWAP1 JUMP JUMPDEST PUSH1 0x60 PUSH1 0x0 DUP1 PUSH1 0x0 JUMPDEST PUSH1 0x2 SLOAD DUP2 LT ISZERO PUSH2 0x7CC JUMPI DUP5 DUP1 MLOAD SWAP1 PUSH1 0x20 ADD KECCAK256 PUSH1 0xE PUSH2 0x742 DUP4 PUSH2 0x1FCD JUMP JUMPDEST PUSH1 0x40 MLOAD PUSH1 0x20 ADD PUSH2 0x752 SWAP2 SWAP1 PUSH2 0x2DE2 JUMP JUMPDEST PUSH1 0x40 MLOAD PUSH1 0x20 DUP2 DUP4 SUB SUB DUP2 MSTORE SWAP1 PUSH1 0x40 MSTORE PUSH1 0x40 MLOAD PUSH2 0x76E SWAP2 SWAP1 PUSH2 0x2E08 JUMP JUMPDEST SWAP1 DUP2 MSTORE PUSH1 0x20 ADD PUSH1 0x40 MLOAD DUP1 SWAP2 SUB SWAP1 KECCAK256 PUSH1 0x0 PUSH1 0x2 DUP2 LT PUSH2 0x78F JUMPI PUSH2 0x78E PUSH2 0x2E1F JUMP JUMPDEST JUMPDEST ADD PUSH1 0x40 MLOAD PUSH2 0x79D SWAP2 SWAP1 PUSH2 0x2F51 JUMP JUMPDEST PUSH1 0x40 MLOAD DUP1 SWAP2 SUB SWAP1 KECCAK256 SUB PUSH2 0x7B9 JUMPI DUP3 DUP1 PUSH2 0x7B5 SWAP1 PUSH2 0x2F97 JUMP JUMPDEST SWAP4 POP POP JUMPDEST DUP1 DUP1 PUSH2 0x7C4 SWAP1 PUSH2 0x2F97 JUMP JUMPDEST SWAP2 POP POP PUSH2 0x725 JUMP JUMPDEST POP PUSH1 0x0 DUP3 PUSH8 0xFFFFFFFFFFFFFFFF DUP2 GT ISZERO PUSH2 0x7E9 JUMPI PUSH2 0x7E8 PUSH2 0x2345 JUMP JUMPDEST JUMPDEST PUSH1 0x40 MLOAD SWAP1 DUP1 DUP3 MSTORE DUP1 PUSH1 0x20 MUL PUSH1 0x20 ADD DUP3 ADD PUSH1 0x40 MSTORE DUP1 ISZERO PUSH2 0x81C JUMPI DUP2 PUSH1 0x20 ADD JUMPDEST PUSH1 0x60 DUP2 MSTORE PUSH1 0x20 ADD SWAP1 PUSH1 0x1 SWAP1 SUB SWAP1 DUP2 PUSH2 0x807 JUMPI SWAP1 POP JUMPDEST POP SWAP1 POP PUSH1 0x0 JUMPDEST PUSH1 0x2 SLOAD DUP2 LT ISZERO PUSH2 0x9C9 JUMPI DUP6 DUP1 MLOAD SWAP1 PUSH1 0x20 ADD KECCAK256 PUSH1 0xE PUSH2 0x83F DUP4 PUSH2 0x1FCD JUMP JUMPDEST PUSH1 0x40 MLOAD PUSH1 0x20 ADD PUSH2 0x84F SWAP2 SWAP1 PUSH2 0x2DE2 JUMP JUMPDEST PUSH1 0x40 MLOAD PUSH1 0x20 DUP2 DUP4 SUB SUB DUP2 MSTORE SWAP1 PUSH1 0x40 MSTORE PUSH1 0x40 MLOAD PUSH2 0x86B SWAP2 SWAP1 PUSH2 0x2E08 JUMP JUMPDEST SWAP1 DUP2 MSTORE PUSH1 0x20 ADD PUSH1 0x40 MLOAD DUP1 SWAP2 SUB SWAP1 KECCAK256 PUSH1 0x0 PUSH1 0x2 DUP2 LT PUSH2 0x88C JUMPI PUSH2 0x88B PUSH2 0x2E1F JUMP JUMPDEST JUMPDEST ADD PUSH1 0x40 MLOAD PUSH2 0x89A SWAP2 SWAP1 PUSH2 0x2F51 JUMP JUMPDEST PUSH1 0x40 MLOAD DUP1 SWAP2 SUB SWAP1 KECCAK256 SUB PUSH2 0x9B6 JUMPI PUSH1 0xE PUSH2 0x8B2 DUP3 PUSH2 0x1FCD JUMP JUMPDEST PUSH1 0x40 MLOAD PUSH1 0x20 ADD PUSH2 0x8C2 SWAP2 SWAP1 PUSH2 0x2DE2 JUMP JUMPDEST PUSH1 0x40 MLOAD PUSH1 0x20 DUP2 DUP4 SUB SUB DUP2 MSTORE SWAP1 PUSH1 0x40 MSTORE PUSH1 0x40 MLOAD PUSH2 0x8DE SWAP2 SWAP1 PUSH2 0x2E08 JUMP JUMPDEST SWAP1 DUP2 MSTORE PUSH1 0x20 ADD PUSH1 0x40 MLOAD DUP1 SWAP2 SUB SWAP1 KECCAK256 PUSH1 0x1 PUSH1 0x2 DUP2 LT PUSH2 0x8FF JUMPI PUSH2 0x8FE PUSH2 0x2E1F JUMP JUMPDEST JUMPDEST ADD DUP1 SLOAD PUSH2 0x90B SWAP1 PUSH2 0x2E7D JUMP JUMPDEST DUP1 PUSH1 0x1F ADD PUSH1 0x20 DUP1 SWAP2 DIV MUL PUSH1 0x20 ADD PUSH1 0x40 MLOAD SWAP1 DUP2 ADD PUSH1 0x40 MSTORE DUP1 SWAP3 SWAP2 SWAP1 DUP2 DUP2 MSTORE PUSH1 0x20 ADD DUP3 DUP1 SLOAD PUSH2 0x937 SWAP1 PUSH2 0x2E7D JUMP JUMPDEST DUP1 ISZERO PUSH2 0x984 JUMPI DUP1 PUSH1 0x1F LT PUSH2 0x959 JUMPI PUSH2 0x100 DUP1 DUP4 SLOAD DIV MUL DUP4 MSTORE SWAP2 PUSH1 0x20 ADD SWAP2 PUSH2 0x984 JUMP JUMPDEST DUP3 ADD SWAP2 SWAP1 PUSH1 0x0 MSTORE PUSH1 0x20 PUSH1 0x0 KECCAK256 SWAP1 JUMPDEST DUP2 SLOAD DUP2 MSTORE SWAP1 PUSH1 0x1 ADD SWAP1 PUSH1 0x20 ADD DUP1 DUP4 GT PUSH2 0x967 JUMPI DUP3 SWAP1 SUB PUSH1 0x1F AND DUP3 ADD SWAP2 JUMPDEST POP POP POP POP POP DUP3 DUP5 DUP2 MLOAD DUP2 LT PUSH2 0x99C JUMPI PUSH2 0x99B PUSH2 0x2E1F JUMP JUMPDEST JUMPDEST PUSH1 0x20 MUL PUSH1 0x20 ADD ADD DUP2 SWAP1 MSTORE POP DUP3 DUP1 PUSH2 0x9B2 SWAP1 PUSH2 0x2F97 JUMP JUMPDEST SWAP4 POP POP JUMPDEST DUP1 DUP1 PUSH2 0x9C1 SWAP1 PUSH2 0x2F97 JUMP JUMPDEST SWAP2 POP POP PUSH2 0x822 JUMP JUMPDEST POP DUP1 SWAP4 POP POP POP POP SWAP2 SWAP1 POP JUMP JUMPDEST PUSH1 0x60 PUSH1 0x0 PUSH1 0xA PUSH8 0xFFFFFFFFFFFFFFFF DUP2 GT ISZERO PUSH2 0x9F4 JUMPI PUSH2 0x9F3 PUSH2 0x2345 JUMP JUMPDEST JUMPDEST PUSH1 0x40 MLOAD SWAP1 DUP1 DUP3 MSTORE DUP1 PUSH1 0x20 MUL PUSH1 0x20 ADD DUP3 ADD PUSH1 0x40 MSTORE DUP1 ISZERO PUSH2 0xA27 JUMPI DUP2 PUSH1 0x20 ADD JUMPDEST PUSH1 0x60 DUP2 MSTORE PUSH1 0x20 ADD SWAP1 PUSH1 0x1 SWAP1 SUB SWAP1 DUP2 PUSH2 0xA12 JUMPI SWAP1 POP JUMPDEST POP SWAP1 POP PUSH1 0x0 DUP1 JUMPDEST PUSH1 0x4 SLOAD DUP2 LT ISZERO PUSH2 0xB4F JUMPI DUP5 DUP1 MLOAD SWAP1 PUSH1 0x20 ADD KECCAK256 PUSH1 0x9 PUSH1 0x0 DUP4 DUP2 MSTORE PUSH1 0x20 ADD SWAP1 DUP2 MSTORE PUSH1 0x20 ADD PUSH1 0x0 KECCAK256 PUSH1 0x0 ADD PUSH1 0x40 MLOAD PUSH2 0xA63 SWAP2 SWAP1 PUSH2 0x2F51 JUMP JUMPDEST PUSH1 0x40 MLOAD DUP1 SWAP2 SUB SWAP1 KECCAK256 SUB PUSH2 0xB3C JUMPI PUSH1 0x9 PUSH1 0x0 DUP3 DUP2 MSTORE PUSH1 0x20 ADD SWAP1 DUP2 MSTORE PUSH1 0x20 ADD PUSH1 0x0 KECCAK256 PUSH1 0x1 ADD DUP1 SLOAD PUSH2 0xA91 SWAP1 PUSH2 0x2E7D JUMP JUMPDEST DUP1 PUSH1 0x1F ADD PUSH1 0x20 DUP1 SWAP2 DIV MUL PUSH1 0x20 ADD PUSH1 0x40 MLOAD SWAP1 DUP2 ADD PUSH1 0x40 MSTORE DUP1 SWAP3 SWAP2 SWAP1 DUP2 DUP2 MSTORE PUSH1 0x20 ADD DUP3 DUP1 SLOAD PUSH2 0xABD SWAP1 PUSH2 0x2E7D JUMP JUMPDEST DUP1 ISZERO PUSH2 0xB0A JUMPI DUP1 PUSH1 0x1F LT PUSH2 0xADF JUMPI PUSH2 0x100 DUP1 DUP4 SLOAD DIV MUL DUP4 MSTORE SWAP2 PUSH1 0x20 ADD SWAP2 PUSH2 0xB0A JUMP JUMPDEST DUP3 ADD SWAP2 SWAP1 PUSH1 0x0 MSTORE PUSH1 0x20 PUSH1 0x0 KECCAK256 SWAP1 JUMPDEST DUP2 SLOAD DUP2 MSTORE SWAP1 PUSH1 0x1 ADD SWAP1 PUSH1 0x20 ADD DUP1 DUP4 GT PUSH2 0xAED JUMPI DUP3 SWAP1 SUB PUSH1 0x1F AND DUP3 ADD SWAP2 JUMPDEST POP POP POP POP POP DUP4 DUP4 DUP2 MLOAD DUP2 LT PUSH2 0xB22 JUMPI PUSH2 0xB21 PUSH2 0x2E1F JUMP JUMPDEST JUMPDEST PUSH1 0x20 MUL PUSH1 0x20 ADD ADD DUP2 SWAP1 MSTORE POP DUP2 DUP1 PUSH2 0xB38 SWAP1 PUSH2 0x2F97 JUMP JUMPDEST SWAP3 POP POP JUMPDEST DUP1 DUP1 PUSH2 0xB47 SWAP1 PUSH2 0x2F97 JUMP JUMPDEST SWAP2 POP POP PUSH2 0xA2E JUMP JUMPDEST POP DUP2 SWAP3 POP POP POP SWAP2 SWAP1 POP JUMP JUMPDEST DUP1 PUSH1 0xF DUP4 PUSH1 0x40 MLOAD PUSH2 0xB6B SWAP2 SWAP1 PUSH2 0x2E08 JUMP JUMPDEST SWAP1 DUP2 MSTORE PUSH1 0x20 ADD PUSH1 0x40 MLOAD DUP1 SWAP2 SUB SWAP1 KECCAK256 SWAP1 DUP2 PUSH2 0xB85 SWAP2 SWAP1 PUSH2 0x318B JUMP JUMPDEST POP POP POP JUMP JUMPDEST PUSH1 0x60 PUSH1 0x0 PUSH1 0xA PUSH8 0xFFFFFFFFFFFFFFFF DUP2 GT ISZERO PUSH2 0xBA9 JUMPI PUSH2 0xBA8 PUSH2 0x2345 JUMP JUMPDEST JUMPDEST PUSH1 0x40 MLOAD SWAP1 DUP1 DUP3 MSTORE DUP1 PUSH1 0x20 MUL PUSH1 0x20 ADD DUP3 ADD PUSH1 0x40 MSTORE DUP1 ISZERO PUSH2 0xBDC JUMPI DUP2 PUSH1 0x20 ADD JUMPDEST PUSH1 0x60 DUP2 MSTORE PUSH1 0x20 ADD SWAP1 PUSH1 0x1 SWAP1 SUB SWAP1 DUP2 PUSH2 0xBC7 JUMPI SWAP1 POP JUMPDEST POP SWAP1 POP PUSH1 0x0 DUP1 JUMPDEST PUSH1 0x4 SLOAD DUP2 LT ISZERO PUSH2 0xD04 JUMPI DUP5 DUP1 MLOAD SWAP1 PUSH1 0x20 ADD KECCAK256 PUSH1 0x9 PUSH1 0x0 DUP4 DUP2 MSTORE PUSH1 0x20 ADD SWAP1 DUP2 MSTORE PUSH1 0x20 ADD PUSH1 0x0 KECCAK256 PUSH1 0x0 ADD PUSH1 0x40 MLOAD PUSH2 0xC18 SWAP2 SWAP1 PUSH2 0x2F51 JUMP JUMPDEST PUSH1 0x40 MLOAD DUP1 SWAP2 SUB SWAP1 KECCAK256 SUB PUSH2 0xCF1 JUMPI PUSH1 0x9 PUSH1 0x0 DUP3 DUP2 MSTORE PUSH1 0x20 ADD SWAP1 DUP2 MSTORE PUSH1 0x20 ADD PUSH1 0x0 KECCAK256 PUSH1 0x1 ADD DUP1 SLOAD PUSH2 0xC46 SWAP1 PUSH2 0x2E7D JUMP JUMPDEST DUP1 PUSH1 0x1F ADD PUSH1 0x20 DUP1 SWAP2 DIV MUL PUSH1 0x20 ADD PUSH1 0x40 MLOAD SWAP1 DUP2 ADD PUSH1 0x40 MSTORE DUP1 SWAP3 SWAP2 SWAP1 DUP2 DUP2 MSTORE PUSH1 0x20 ADD DUP3 DUP1 SLOAD PUSH2 0xC72 SWAP1 PUSH2 0x2E7D JUMP JUMPDEST DUP1 ISZERO PUSH2 0xCBF JUMPI DUP1 PUSH1 0x1F LT PUSH2 0xC94 JUMPI PUSH2 0x100 DUP1 DUP4 SLOAD DIV MUL DUP4 MSTORE SWAP2 PUSH1 0x20 ADD SWAP2 PUSH2 0xCBF JUMP JUMPDEST DUP3 ADD SWAP2 SWAP1 PUSH1 0x0 MSTORE PUSH1 0x20 PUSH1 0x0 KECCAK256 SWAP1 JUMPDEST DUP2 SLOAD DUP2 MSTORE SWAP1 PUSH1 0x1 ADD SWAP1 PUSH1 0x20 ADD DUP1 DUP4 GT PUSH2 0xCA2 JUMPI DUP3 SWAP1 SUB PUSH1 0x1F AND DUP3 ADD SWAP2 JUMPDEST POP POP POP POP POP DUP4 DUP4 DUP2 MLOAD DUP2 LT PUSH2 0xCD7 JUMPI PUSH2 0xCD6 PUSH2 0x2E1F JUMP JUMPDEST JUMPDEST PUSH1 0x20 MUL PUSH1 0x20 ADD ADD DUP2 SWAP1 MSTORE POP DUP2 DUP1 PUSH2 0xCED SWAP1 PUSH2 0x2F97 JUMP JUMPDEST SWAP3 POP POP JUMPDEST DUP1 DUP1 PUSH2 0xCFC SWAP1 PUSH2 0x2F97 JUMP JUMPDEST SWAP2 POP POP PUSH2 0xBE3 JUMP JUMPDEST POP DUP2 SWAP3 POP POP POP SWAP2 SWAP1 POP JUMP JUMPDEST PUSH1 0x0 PUSH2 0xD44 PUSH2 0xD1F PUSH1 0x0 SLOAD PUSH2 0x1FCD JUMP JUMPDEST PUSH1 0x40 MLOAD PUSH1 0x20 ADD PUSH2 0xD2F SWAP2 SWAP1 PUSH2 0x2DE2 JUMP JUMPDEST PUSH1 0x40 MLOAD PUSH1 0x20 DUP2 DUP4 SUB SUB DUP2 MSTORE SWAP1 PUSH1 0x40 MSTORE DUP5 PUSH2 0x156D JUMP JUMPDEST PUSH2 0xD51 PUSH1 0x3 SLOAD DUP4 DUP6 PUSH2 0x17BD JUMP JUMPDEST PUSH1 0x0 DUP1 DUP2 SLOAD DUP1 SWAP3 SWAP2 SWAP1 PUSH2 0xD63 SWAP1 PUSH2 0x2F97 JUMP JUMPDEST SWAP2 SWAP1 POP SSTORE POP PUSH1 0x3 PUSH1 0x0 DUP2 SLOAD DUP1 SWAP3 SWAP2 SWAP1 PUSH2 0xD7B SWAP1 PUSH2 0x2F97 JUMP JUMPDEST SWAP2 SWAP1 POP SSTORE POP PUSH1 0x0 SLOAD SWAP1 POP SWAP4 SWAP3 POP POP POP JUMP JUMPDEST PUSH1 0x0 DUP1 PUSH1 0x0 SWAP1 POP JUMPDEST PUSH1 0x2 SLOAD DUP2 LT ISZERO PUSH2 0xE35 JUMPI DUP3 DUP1 MLOAD SWAP1 PUSH1 0x20 ADD KECCAK256 PUSH1 0xE PUSH2 0xDB1 DUP4 PUSH2 0x1FCD JUMP JUMPDEST PUSH1 0x40 MLOAD PUSH1 0x20 ADD PUSH2 0xDC1 SWAP2 SWAP1 PUSH2 0x2DE2 JUMP JUMPDEST PUSH1 0x40 MLOAD PUSH1 0x20 DUP2 DUP4 SUB SUB DUP2 MSTORE SWAP1 PUSH1 0x40 MSTORE PUSH1 0x40 MLOAD PUSH2 0xDDD SWAP2 SWAP1 PUSH2 0x2E08 JUMP JUMPDEST SWAP1 DUP2 MSTORE PUSH1 0x20 ADD PUSH1 0x40 MLOAD DUP1 SWAP2 SUB SWAP1 KECCAK256 PUSH1 0x1 PUSH1 0x2 DUP2 LT PUSH2 0xDFE JUMPI PUSH2 0xDFD PUSH2 0x2E1F JUMP JUMPDEST JUMPDEST ADD PUSH1 0x40 MLOAD PUSH2 0xE0C SWAP2 SWAP1 PUSH2 0x2F51 JUMP JUMPDEST PUSH1 0x40 MLOAD DUP1 SWAP2 SUB SWAP1 KECCAK256 SUB PUSH2 0xE22 JUMPI DUP1 SWAP2 POP POP PUSH2 0xE3B JUMP JUMPDEST DUP1 DUP1 PUSH2 0xE2D SWAP1 PUSH2 0x2F97 JUMP JUMPDEST SWAP2 POP POP PUSH2 0xD94 JUMP JUMPDEST POP PUSH1 0x0 SWAP1 POP JUMPDEST SWAP2 SWAP1 POP JUMP JUMPDEST PUSH1 0x7 DUP2 DUP1 MLOAD PUSH1 0x20 DUP2 ADD DUP3 ADD DUP1 MLOAD DUP5 DUP3 MSTORE PUSH1 0x20 DUP4 ADD PUSH1 0x20 DUP6 ADD KECCAK256 DUP2 DUP4 MSTORE DUP1 SWAP6 POP POP POP POP POP POP PUSH1 0x0 SWAP2 POP SLOAD SWAP1 PUSH2 0x100 EXP SWAP1 DIV PUSH1 0xFF AND DUP2 JUMP JUMPDEST PUSH1 0x60 PUSH1 0xD DUP3 PUSH1 0x40 MLOAD PUSH2 0xE88 SWAP2 SWAP1 PUSH2 0x2E08 JUMP JUMPDEST SWAP1 DUP2 MSTORE PUSH1 0x20 ADD PUSH1 0x40 MLOAD DUP1 SWAP2 SUB SWAP1 KECCAK256 DUP1 SLOAD PUSH2 0xEA1 SWAP1 PUSH2 0x2E7D JUMP JUMPDEST DUP1 PUSH1 0x1F ADD PUSH1 0x20 DUP1 SWAP2 DIV MUL PUSH1 0x20 ADD PUSH1 0x40 MLOAD SWAP1 DUP2 ADD PUSH1 0x40 MSTORE DUP1 SWAP3 SWAP2 SWAP1 DUP2 DUP2 MSTORE PUSH1 0x20 ADD DUP3 DUP1 SLOAD PUSH2 0xECD SWAP1 PUSH2 0x2E7D JUMP JUMPDEST DUP1 ISZERO PUSH2 0xF1A JUMPI DUP1 PUSH1 0x1F LT PUSH2 0xEEF JUMPI PUSH2 0x100 DUP1 DUP4 SLOAD DIV MUL DUP4 MSTORE SWAP2 PUSH1 0x20 ADD SWAP2 PUSH2 0xF1A JUMP JUMPDEST DUP3 ADD SWAP2 SWAP1 PUSH1 0x0 MSTORE PUSH1 0x20 PUSH1 0x0 KECCAK256 SWAP1 JUMPDEST DUP2 SLOAD DUP2 MSTORE SWAP1 PUSH1 0x1 ADD SWAP1 PUSH1 0x20 ADD DUP1 DUP4 GT PUSH2 0xEFD JUMPI DUP3 SWAP1 SUB PUSH1 0x1F AND DUP3 ADD SWAP2 JUMPDEST POP POP POP POP POP SWAP1 POP SWAP2 SWAP1 POP JUMP JUMPDEST PUSH1 0x40 MLOAD DUP1 PUSH1 0x40 ADD PUSH1 0x40 MSTORE DUP1 DUP4 DUP2 MSTORE PUSH1 0x20 ADD DUP3 DUP2 MSTORE POP PUSH1 0x9 PUSH1 0x0 DUP6 DUP2 MSTORE PUSH1 0x20 ADD SWAP1 DUP2 MSTORE PUSH1 0x20 ADD PUSH1 0x0 KECCAK256 PUSH1 0x0 DUP3 ADD MLOAD DUP2 PUSH1 0x0 ADD SWAP1 DUP2 PUSH2 0xF63 SWAP2 SWAP1 PUSH2 0x318B JUMP JUMPDEST POP PUSH1 0x20 DUP3 ADD MLOAD DUP2 PUSH1 0x1 ADD SWAP1 DUP2 PUSH2 0xF79 SWAP2 SWAP1 PUSH2 0x318B JUMP JUMPDEST POP SWAP1 POP POP POP POP POP JUMP JUMPDEST PUSH1 0x1 PUSH1 0x7 DUP3 PUSH1 0x40 MLOAD PUSH2 0xF94 SWAP2 SWAP1 PUSH2 0x2E08 JUMP JUMPDEST SWAP1 DUP2 MSTORE PUSH1 0x20 ADD PUSH1 0x40 MLOAD DUP1 SWAP2 SUB SWAP1 KECCAK256 PUSH1 0x0 PUSH2 0x100 EXP DUP2 SLOAD DUP2 PUSH1 0xFF MUL NOT AND SWAP1 DUP4 ISZERO ISZERO MUL OR SWAP1 SSTORE POP POP JUMP JUMPDEST PUSH1 0x0 DUP1 PUSH2 0xFCA PUSH1 0x2 SLOAD PUSH2 0x1FCD JUMP JUMPDEST PUSH1 0x40 MLOAD PUSH1 0x20 ADD PUSH2 0xFDA SWAP2 SWAP1 PUSH2 0x2DE2 JUMP JUMPDEST PUSH1 0x40 MLOAD PUSH1 0x20 DUP2 DUP4 SUB SUB DUP2 MSTORE SWAP1 PUSH1 0x40 MSTORE SWAP1 POP PUSH2 0xFF6 DUP2 DUP7 DUP7 PUSH2 0x1819 JUMP JUMPDEST PUSH2 0x1035 DUP2 PUSH1 0x40 MLOAD DUP1 PUSH1 0x40 ADD PUSH1 0x40 MSTORE DUP1 PUSH1 0x1 DUP2 MSTORE PUSH1 0x20 ADD PUSH32 0x3000000000000000000000000000000000000000000000000000000000000000 DUP2 MSTORE POP PUSH2 0xB5A JUMP JUMPDEST PUSH1 0x0 PUSH1 0x7 DUP3 PUSH1 0x40 MLOAD PUSH2 0x1047 SWAP2 SWAP1 PUSH2 0x2E08 JUMP JUMPDEST SWAP1 DUP2 MSTORE PUSH1 0x20 ADD PUSH1 0x40 MLOAD DUP1 SWAP2 SUB SWAP1 KECCAK256 PUSH1 0x0 PUSH2 0x100 EXP DUP2 SLOAD DUP2 PUSH1 0xFF MUL NOT AND SWAP1 DUP4 ISZERO ISZERO MUL OR SWAP1 SSTORE POP PUSH1 0x2 PUSH1 0x0 DUP2 SLOAD DUP1 SWAP3 SWAP2 SWAP1 PUSH2 0x107F SWAP1 PUSH2 0x2F97 JUMP JUMPDEST SWAP2 SWAP1 POP SSTORE POP PUSH1 0x2 SLOAD SWAP2 POP POP SWAP4 SWAP3 POP POP POP JUMP JUMPDEST PUSH1 0x60 PUSH1 0xC DUP3 PUSH1 0x40 MLOAD PUSH2 0x10A3 SWAP2 SWAP1 PUSH2 0x2E08 JUMP JUMPDEST SWAP1 DUP2 MSTORE PUSH1 0x20 ADD PUSH1 0x40 MLOAD DUP1 SWAP2 SUB SWAP1 KECCAK256 DUP1 SLOAD PUSH2 0x10BC SWAP1 PUSH2 0x2E7D JUMP JUMPDEST DUP1 PUSH1 0x1F ADD PUSH1 0x20 DUP1 SWAP2 DIV MUL PUSH1 0x20 ADD PUSH1 0x40 MLOAD SWAP1 DUP2 ADD PUSH1 0x40 MSTORE DUP1 SWAP3 SWAP2 SWAP1 DUP2 DUP2 MSTORE PUSH1 0x20 ADD DUP3 DUP1 SLOAD PUSH2 0x10E8 SWAP1 PUSH2 0x2E7D JUMP JUMPDEST DUP1 ISZERO PUSH2 0x1135 JUMPI DUP1 PUSH1 0x1F LT PUSH2 0x110A JUMPI PUSH2 0x100 DUP1 DUP4 SLOAD DIV MUL DUP4 MSTORE SWAP2 PUSH1 0x20 ADD SWAP2 PUSH2 0x1135 JUMP JUMPDEST DUP3 ADD SWAP2 SWAP1 PUSH1 0x0 MSTORE PUSH1 0x20 PUSH1 0x0 KECCAK256 SWAP1 JUMPDEST DUP2 SLOAD DUP2 MSTORE SWAP1 PUSH1 0x1 ADD SWAP1 PUSH1 0x20 ADD DUP1 DUP4 GT PUSH2 0x1118 JUMPI DUP3 SWAP1 SUB PUSH1 0x1F AND DUP3 ADD SWAP2 JUMPDEST POP POP POP POP POP SWAP1 POP SWAP2 SWAP1 POP JUMP JUMPDEST PUSH1 0x60 PUSH1 0x0 JUMPDEST PUSH1 0x5 SLOAD DUP2 LT ISZERO PUSH2 0x11AC JUMPI DUP3 DUP1 MLOAD SWAP1 PUSH1 0x20 ADD KECCAK256 PUSH1 0xA PUSH1 0x0 DUP4 DUP2 MSTORE PUSH1 0x20 ADD SWAP1 DUP2 MSTORE PUSH1 0x20 ADD PUSH1 0x0 KECCAK256 PUSH1 0x0 ADD PUSH1 0x40 MLOAD PUSH2 0x117B SWAP2 SWAP1 PUSH2 0x2F51 JUMP JUMPDEST PUSH1 0x40 MLOAD DUP1 SWAP2 SUB SWAP1 KECCAK256 SUB PUSH2 0x1199 JUMPI PUSH2 0x1191 DUP2 PUSH2 0x1FCD JUMP JUMPDEST SWAP2 POP POP PUSH2 0x11E6 JUMP JUMPDEST DUP1 DUP1 PUSH2 0x11A4 SWAP1 PUSH2 0x2F97 JUMP JUMPDEST SWAP2 POP POP PUSH2 0x1146 JUMP JUMPDEST POP PUSH1 0x40 MLOAD DUP1 PUSH1 0x40 ADD PUSH1 0x40 MSTORE DUP1 PUSH1 0x2 DUP2 MSTORE PUSH1 0x20 ADD PUSH32 0x2D31000000000000000000000000000000000000000000000000000000000000 DUP2 MSTORE POP SWAP1 POP JUMPDEST SWAP2 SWAP1 POP JUMP JUMPDEST PUSH2 0x11F3 PUSH2 0x21EE JUMP JUMPDEST PUSH1 0xE DUP3 PUSH1 0x40 MLOAD PUSH2 0x1203 SWAP2 SWAP1 PUSH2 0x2E08 JUMP JUMPDEST SWAP1 DUP2 MSTORE PUSH1 0x20 ADD PUSH1 0x40 MLOAD DUP1 SWAP2 SUB SWAP1 KECCAK256 PUSH1 0x2 DUP1 PUSH1 0x20 MUL PUSH1 0x40 MLOAD SWAP1 DUP2 ADD PUSH1 0x40 MSTORE DUP1 SWAP3 SWAP2 SWAP1 PUSH1 0x0 SWAP1 JUMPDEST DUP3 DUP3 LT ISZERO PUSH2 0x12CB JUMPI DUP4 DUP3 ADD DUP1 SLOAD PUSH2 0x123E SWAP1 PUSH2 0x2E7D JUMP JUMPDEST DUP1 PUSH1 0x1F ADD PUSH1 0x20 DUP1 SWAP2 DIV MUL PUSH1 0x20 ADD PUSH1 0x40 MLOAD SWAP1 DUP2 ADD PUSH1 0x40 MSTORE DUP1 SWAP3 SWAP2 SWAP1 DUP2 DUP2 MSTORE PUSH1 0x20 ADD DUP3 DUP1 SLOAD PUSH2 0x126A SWAP1 PUSH2 0x2E7D JUMP JUMPDEST DUP1 ISZERO PUSH2 0x12B7 JUMPI DUP1 PUSH1 0x1F LT PUSH2 0x128C JUMPI PUSH2 0x100 DUP1 DUP4 SLOAD DIV MUL DUP4 MSTORE SWAP2 PUSH1 0x20 ADD SWAP2 PUSH2 0x12B7 JUMP JUMPDEST DUP3 ADD SWAP2 SWAP1 PUSH1 0x0 MSTORE PUSH1 0x20 PUSH1 0x0 KECCAK256 SWAP1 JUMPDEST DUP2 SLOAD DUP2 MSTORE SWAP1 PUSH1 0x1 ADD SWAP1 PUSH1 0x20 ADD DUP1 DUP4 GT PUSH2 0x129A JUMPI DUP3 SWAP1 SUB PUSH1 0x1F AND DUP3 ADD SWAP2 JUMPDEST POP POP POP POP POP DUP2 MSTORE PUSH1 0x20 ADD SWAP1 PUSH1 0x1 ADD SWAP1 PUSH2 0x1228 JUMP JUMPDEST POP POP POP POP SWAP1 POP SWAP2 SWAP1 POP JUMP JUMPDEST PUSH1 0xA PUSH1 0x20 MSTORE DUP1 PUSH1 0x0 MSTORE PUSH1 0x40 PUSH1 0x0 KECCAK256 PUSH1 0x0 SWAP2 POP SWAP1 POP DUP1 PUSH1 0x0 ADD DUP1 SLOAD PUSH2 0x12F9 SWAP1 PUSH2 0x2E7D JUMP JUMPDEST DUP1 PUSH1 0x1F ADD PUSH1 0x20 DUP1 SWAP2 DIV MUL PUSH1 0x20 ADD PUSH1 0x40 MLOAD SWAP1 DUP2 ADD PUSH1 0x40 MSTORE DUP1 SWAP3 SWAP2 SWAP1 DUP2 DUP2 MSTORE PUSH1 0x20 ADD DUP3 DUP1 SLOAD PUSH2 0x1325 SWAP1 PUSH2 0x2E7D JUMP JUMPDEST DUP1 ISZERO PUSH2 0x1372 JUMPI DUP1 PUSH1 0x1F LT PUSH2 0x1347 JUMPI PUSH2 0x100 DUP1 DUP4 SLOAD DIV MUL DUP4 MSTORE SWAP2 PUSH1 0x20 ADD SWAP2 PUSH2 0x1372 JUMP JUMPDEST DUP3 ADD SWAP2 SWAP1 PUSH1 0x0 MSTORE PUSH1 0x20 PUSH1 0x0 KECCAK256 SWAP1 JUMPDEST DUP2 SLOAD DUP2 MSTORE SWAP1 PUSH1 0x1 ADD SWAP1 PUSH1 0x20 ADD DUP1 DUP4 GT PUSH2 0x1355 JUMPI DUP3 SWAP1 SUB PUSH1 0x1F AND DUP3 ADD SWAP2 JUMPDEST POP POP POP POP POP SWAP1 DUP1 PUSH1 0x1 ADD DUP1 SLOAD PUSH2 0x1387 SWAP1 PUSH2 0x2E7D JUMP JUMPDEST DUP1 PUSH1 0x1F ADD PUSH1 0x20 DUP1 SWAP2 DIV MUL PUSH1 0x20 ADD PUSH1 0x40 MLOAD SWAP1 DUP2 ADD PUSH1 0x40 MSTORE DUP1 SWAP3 SWAP2 SWAP1 DUP2 DUP2 MSTORE PUSH1 0x20 ADD DUP3 DUP1 SLOAD PUSH2 0x13B3 SWAP1 PUSH2 0x2E7D JUMP JUMPDEST DUP1 ISZERO PUSH2 0x1400 JUMPI DUP1 PUSH1 0x1F LT PUSH2 0x13D5 JUMPI PUSH2 0x100 DUP1 DUP4 SLOAD DIV MUL DUP4 MSTORE SWAP2 PUSH1 0x20 ADD SWAP2 PUSH2 0x1400 JUMP JUMPDEST DUP3 ADD SWAP2 SWAP1 PUSH1 0x0 MSTORE PUSH1 0x20 PUSH1 0x0 KECCAK256 SWAP1 JUMPDEST DUP2 SLOAD DUP2 MSTORE SWAP1 PUSH1 0x1 ADD SWAP1 PUSH1 0x20 ADD DUP1 DUP4 GT PUSH2 0x13E3 JUMPI DUP3 SWAP1 SUB PUSH1 0x1F AND DUP3 ADD SWAP2 JUMPDEST POP POP POP POP POP SWAP1 DUP1 PUSH1 0x2 ADD PUSH1 0x0 SWAP1 SLOAD SWAP1 PUSH2 0x100 EXP SWAP1 DIV PUSH20 0xFFFFFFFFFFFFFFFFFFFFFFFFFFFFFFFFFFFFFFFF AND SWAP1 DUP1 PUSH1 0x3 ADD DUP1 SLOAD PUSH2 0x143B SWAP1 PUSH2 0x2E7D JUMP JUMPDEST DUP1 PUSH1 0x1F ADD PUSH1 0x20 DUP1 SWAP2 DIV MUL PUSH1 0x20 ADD PUSH1 0x40 MLOAD SWAP1 DUP2 ADD PUSH1 0x40 MSTORE DUP1 SWAP3 SWAP2 SWAP1 DUP2 DUP2 MSTORE PUSH1 0x20 ADD DUP3 DUP1 SLOAD PUSH2 0x1467 SWAP1 PUSH2 0x2E7D JUMP JUMPDEST DUP1 ISZERO PUSH2 0x14B4 JUMPI DUP1 PUSH1 0x1F LT PUSH2 0x1489 JUMPI PUSH2 0x100 DUP1 DUP4 SLOAD DIV MUL DUP4 MSTORE SWAP2 PUSH1 0x20 ADD SWAP2 PUSH2 0x14B4 JUMP JUMPDEST DUP3 ADD SWAP2 SWAP1 PUSH1 0x0 MSTORE PUSH1 0x20 PUSH1 0x0 KECCAK256 SWAP1 JUMPDEST DUP2 SLOAD DUP2 MSTORE SWAP1 PUSH1 0x1 ADD SWAP1 PUSH1 0x20 ADD DUP1 DUP4 GT PUSH2 0x1497 JUMPI DUP3 SWAP1 SUB PUSH1 0x1F AND DUP3 ADD SWAP2 JUMPDEST POP POP POP POP POP SWAP1 POP DUP5 JUMP JUMPDEST PUSH1 0x0 DUP1 PUSH1 0x0 SWAP1 POP JUMPDEST PUSH1 0x3 SLOAD DUP2 LT ISZERO PUSH2 0x1561 JUMPI DUP4 DUP1 MLOAD SWAP1 PUSH1 0x20 ADD KECCAK256 PUSH1 0x8 PUSH1 0x0 DUP4 DUP2 MSTORE PUSH1 0x20 ADD SWAP1 DUP2 MSTORE PUSH1 0x20 ADD PUSH1 0x0 KECCAK256 PUSH1 0x0 ADD PUSH1 0x40 MLOAD PUSH2 0x14FB SWAP2 SWAP1 PUSH2 0x2F51 JUMP JUMPDEST PUSH1 0x40 MLOAD DUP1 SWAP2 SUB SWAP1 KECCAK256 EQ DUP1 ISZERO PUSH2 0x1540 JUMPI POP DUP3 DUP1 MLOAD SWAP1 PUSH1 0x20 ADD KECCAK256 PUSH1 0x8 PUSH1 0x0 DUP4 DUP2 MSTORE PUSH1 0x20 ADD SWAP1 DUP2 MSTORE PUSH1 0x20 ADD PUSH1 0x0 KECCAK256 PUSH1 0x1 ADD PUSH1 0x40 MLOAD PUSH2 0x1536 SWAP2 SWAP1 PUSH2 0x2F51 JUMP JUMPDEST PUSH1 0x40 MLOAD DUP1 SWAP2 SUB SWAP1 KECCAK256 EQ JUMPDEST ISZERO PUSH2 0x154E JUMPI DUP1 SWAP2 POP POP PUSH2 0x1567 JUMP JUMPDEST DUP1 DUP1 PUSH2 0x1559 SWAP1 PUSH2 0x2F97 JUMP JUMPDEST SWAP2 POP POP PUSH2 0x14C6 JUMP JUMPDEST POP PUSH1 0x0 SWAP1 POP JUMPDEST SWAP3 SWAP2 POP POP JUMP JUMPDEST DUP1 PUSH1 0xD DUP4 PUSH1 0x40 MLOAD PUSH2 0x157E SWAP2 SWAP1 PUSH2 0x2E08 JUMP JUMPDEST SWAP1 DUP2 MSTORE PUSH1 0x20 ADD PUSH1 0x40 MLOAD DUP1 SWAP2 SUB SWAP1 KECCAK256 SWAP1 DUP2 PUSH2 0x1598 SWAP2 SWAP1 PUSH2 0x318B JUMP JUMPDEST POP POP POP JUMP JUMPDEST PUSH1 0x0 PUSH1 0x2 SLOAD SWAP1 POP SWAP1 JUMP JUMPDEST PUSH1 0xB DUP3 DUP1 MLOAD PUSH1 0x20 DUP2 ADD DUP3 ADD DUP1 MLOAD DUP5 DUP3 MSTORE PUSH1 0x20 DUP4 ADD PUSH1 0x20 DUP6 ADD KECCAK256 DUP2 DUP4 MSTORE DUP1 SWAP6 POP POP POP POP POP POP DUP2 PUSH1 0x2 DUP2 LT PUSH2 0x15D9 JUMPI PUSH1 0x0 DUP1 REVERT JUMPDEST ADD PUSH1 0x0 SWAP2 POP SWAP2 POP POP DUP1 SLOAD PUSH2 0x15EC SWAP1 PUSH2 0x2E7D JUMP JUMPDEST DUP1 PUSH1 0x1F ADD PUSH1 0x20 DUP1 SWAP2 DIV MUL PUSH1 0x20 ADD PUSH1 0x40 MLOAD SWAP1 DUP2 ADD PUSH1 0x40 MSTORE DUP1 SWAP3 SWAP2 SWAP1 DUP2 DUP2 MSTORE PUSH1 0x20 ADD DUP3 DUP1 SLOAD PUSH2 0x1618 SWAP1 PUSH2 0x2E7D JUMP JUMPDEST DUP1 ISZERO PUSH2 0x1665 JUMPI DUP1 PUSH1 0x1F LT PUSH2 0x163A JUMPI PUSH2 0x100 DUP1 DUP4 SLOAD DIV MUL DUP4 MSTORE SWAP2 PUSH1 0x20 ADD SWAP2 PUSH2 0x1665 JUMP JUMPDEST DUP3 ADD SWAP2 SWAP1 PUSH1 0x0 MSTORE PUSH1 0x20 PUSH1 0x0 KECCAK256 SWAP1 JUMPDEST DUP2 SLOAD DUP2 MSTORE SWAP1 PUSH1 0x1 ADD SWAP1 PUSH1 0x20 ADD DUP1 DUP4 GT PUSH2 0x1648 JUMPI DUP3 SWAP1 SUB PUSH1 0x1F AND DUP3 ADD SWAP2 JUMPDEST POP POP POP POP POP DUP2 JUMP JUMPDEST PUSH1 0x0 DUP1 PUSH1 0x0 SWAP1 POP JUMPDEST PUSH1 0x0 SLOAD DUP2 LT ISZERO PUSH2 0x1702 JUMPI DUP3 DUP1 MLOAD SWAP1 PUSH1 0x20 ADD KECCAK256 PUSH1 0xD PUSH2 0x1692 DUP4 PUSH2 0x1FCD JUMP JUMPDEST PUSH1 0x40 MLOAD PUSH1 0x20 ADD PUSH2 0x16A2 SWAP2 SWAP1 PUSH2 0x2DE2 JUMP JUMPDEST PUSH1 0x40 MLOAD PUSH1 0x20 DUP2 DUP4 SUB SUB DUP2 MSTORE SWAP1 PUSH1 0x40 MSTORE PUSH1 0x40 MLOAD PUSH2 0x16BE SWAP2 SWAP1 PUSH2 0x2E08 JUMP JUMPDEST SWAP1 DUP2 MSTORE PUSH1 0x20 ADD PUSH1 0x40 MLOAD DUP1 SWAP2 SUB SWAP1 KECCAK256 PUSH1 0x40 MLOAD PUSH2 0x16D9 SWAP2 SWAP1 PUSH2 0x2F51 JUMP JUMPDEST PUSH1 0x40 MLOAD DUP1 SWAP2 SUB SWAP1 KECCAK256 SUB PUSH2 0x16EF JUMPI DUP1 SWAP2 POP POP PUSH2 0x1708 JUMP JUMPDEST DUP1 DUP1 PUSH2 0x16FA SWAP1 PUSH2 0x2F97 JUMP JUMPDEST SWAP2 POP POP PUSH2 0x1675 JUMP JUMPDEST POP PUSH1 0x0 SWAP1 POP JUMPDEST SWAP2 SWAP1 POP JUMP JUMPDEST PUSH1 0x60 PUSH1 0xF DUP3 PUSH1 0x40 MLOAD PUSH2 0x171F SWAP2 SWAP1 PUSH2 0x2E08 JUMP JUMPDEST SWAP1 DUP2 MSTORE PUSH1 0x20 ADD PUSH1 0x40 MLOAD DUP1 SWAP2 SUB SWAP1 KECCAK256 DUP1 SLOAD PUSH2 0x1738 SWAP1 PUSH2 0x2E7D JUMP JUMPDEST DUP1 PUSH1 0x1F ADD PUSH1 0x20 DUP1 SWAP2 DIV MUL PUSH1 0x20 ADD PUSH1 0x40 MLOAD SWAP1 DUP2 ADD PUSH1 0x40 MSTORE DUP1 SWAP3 SWAP2 SWAP1 DUP2 DUP2 MSTORE PUSH1 0x20 ADD DUP3 DUP1 SLOAD PUSH2 0x1764 SWAP1 PUSH2 0x2E7D JUMP JUMPDEST DUP1 ISZERO PUSH2 0x17B1 JUMPI DUP1 PUSH1 0x1F LT PUSH2 0x1786 JUMPI PUSH2 0x100 DUP1 DUP4 SLOAD DIV MUL DUP4 MSTORE SWAP2 PUSH1 0x20 ADD SWAP2 PUSH2 0x17B1 JUMP JUMPDEST DUP3 ADD SWAP2 SWAP1 PUSH1 0x0 MSTORE PUSH1 0x20 PUSH1 0x0 KECCAK256 SWAP1 JUMPDEST DUP2 SLOAD DUP2 MSTORE SWAP1 PUSH1 0x1 ADD SWAP1 PUSH1 0x20 ADD DUP1 DUP4 GT PUSH2 0x1794 JUMPI DUP3 SWAP1 SUB PUSH1 0x1F AND DUP3 ADD SWAP2 JUMPDEST POP POP POP POP POP SWAP1 POP SWAP2 SWAP1 POP JUMP JUMPDEST PUSH1 0x40 MLOAD DUP1 PUSH1 0x40 ADD PUSH1 0x40 MSTORE DUP1 DUP4 DUP2 MSTORE PUSH1 0x20 ADD DUP3 DUP2 MSTORE POP PUSH1 0x8 PUSH1 0x0 DUP6 DUP2 MSTORE PUSH1 0x20 ADD SWAP1 DUP2 MSTORE PUSH1 0x20 ADD PUSH1 0x0 KECCAK256 PUSH1 0x0 DUP3 ADD MLOAD DUP2 PUSH1 0x0 ADD SWAP1 DUP2 PUSH2 0x17FA SWAP2 SWAP1 PUSH2 0x318B JUMP JUMPDEST POP PUSH1 0x20 DUP3 ADD MLOAD DUP2 PUSH1 0x1 ADD SWAP1 DUP2 PUSH2 0x1810 SWAP2 SWAP1 PUSH2 0x318B JUMP JUMPDEST POP SWAP1 POP POP POP POP POP JUMP JUMPDEST PUSH1 0x40 MLOAD DUP1 PUSH1 0x40 ADD PUSH1 0x40 MSTORE DUP1 DUP4 DUP2 MSTORE PUSH1 0x20 ADD DUP3 DUP2 MSTORE POP PUSH1 0xE DUP5 PUSH1 0x40 MLOAD PUSH2 0x183E SWAP2 SWAP1 PUSH2 0x2E08 JUMP JUMPDEST SWAP1 DUP2 MSTORE PUSH1 0x20 ADD PUSH1 0x40 MLOAD DUP1 SWAP2 SUB SWAP1 KECCAK256 SWAP1 PUSH1 0x2 PUSH2 0x185A SWAP3 SWAP2 SWAP1 PUSH2 0x2215 JUMP JUMPDEST POP POP POP POP JUMP JUMPDEST PUSH1 0x0 DUP1 PUSH1 0x0 SWAP1 POP JUMPDEST DUP3 MLOAD DUP2 LT ISZERO PUSH2 0x196C JUMPI PUSH1 0x0 PUSH1 0x30 DUP5 DUP4 DUP2 MLOAD DUP2 LT PUSH2 0x1888 JUMPI PUSH2 0x1887 PUSH2 0x2E1F JUMP JUMPDEST JUMPDEST PUSH1 0x20 ADD ADD MLOAD PUSH1 0xF8 SHR PUSH1 0xF8 SHL PUSH1 0xF8 SHR PUSH2 0x18A0 SWAP2 SWAP1 PUSH2 0x326A JUMP JUMPDEST PUSH1 0xFF AND LT DUP1 PUSH2 0x18DE JUMPI POP PUSH1 0x9 PUSH1 0x30 DUP5 DUP4 DUP2 MLOAD DUP2 LT PUSH2 0x18C1 JUMPI PUSH2 0x18C0 PUSH2 0x2E1F JUMP JUMPDEST JUMPDEST PUSH1 0x20 ADD ADD MLOAD PUSH1 0xF8 SHR PUSH1 0xF8 SHL PUSH1 0xF8 SHR PUSH2 0x18D9 SWAP2 SWAP1 PUSH2 0x326A JUMP JUMPDEST PUSH1 0xFF AND GT JUMPDEST ISZERO PUSH2 0x18ED JUMPI PUSH1 0x0 SWAP2 POP POP PUSH2 0x196E JUMP JUMPDEST PUSH1 0x1 DUP2 DUP5 MLOAD PUSH2 0x18FC SWAP2 SWAP1 PUSH2 0x329F JUMP JUMPDEST PUSH2 0x1906 SWAP2 SWAP1 PUSH2 0x329F JUMP JUMPDEST PUSH1 0xA PUSH2 0x1912 SWAP2 SWAP1 PUSH2 0x3406 JUMP JUMPDEST PUSH1 0x30 DUP5 DUP4 DUP2 MLOAD DUP2 LT PUSH2 0x1927 JUMPI PUSH2 0x1926 PUSH2 0x2E1F JUMP JUMPDEST JUMPDEST PUSH1 0x20 ADD ADD MLOAD PUSH1 0xF8 SHR PUSH1 0xF8 SHL PUSH1 0xF8 SHR PUSH2 0x193F SWAP2 SWAP1 PUSH2 0x326A JUMP JUMPDEST PUSH1 0xFF AND PUSH2 0x194C SWAP2 SWAP1 PUSH2 0x3451 JUMP JUMPDEST DUP3 PUSH2 0x1957 SWAP2 SWAP1 PUSH2 0x3493 JUMP JUMPDEST SWAP2 POP DUP1 DUP1 PUSH2 0x1964 SWAP1 PUSH2 0x2F97 JUMP JUMPDEST SWAP2 POP POP PUSH2 0x1868 JUMP JUMPDEST POP JUMPDEST SWAP2 SWAP1 POP JUMP JUMPDEST PUSH1 0x0 PUSH2 0x197E DUP6 PUSH2 0x1141 JUMP JUMPDEST SWAP1 POP PUSH1 0x40 MLOAD DUP1 PUSH1 0x40 ADD PUSH1 0x40 MSTORE DUP1 PUSH1 0x2 DUP2 MSTORE PUSH1 0x20 ADD PUSH32 0x2D31000000000000000000000000000000000000000000000000000000000000 DUP2 MSTORE POP DUP1 MLOAD SWAP1 PUSH1 0x20 ADD KECCAK256 DUP2 DUP1 MLOAD SWAP1 PUSH1 0x20 ADD KECCAK256 EQ PUSH2 0x1AAD JUMPI PUSH1 0x40 MLOAD DUP1 PUSH1 0x80 ADD PUSH1 0x40 MSTORE DUP1 DUP7 DUP2 MSTORE PUSH1 0x20 ADD DUP6 DUP2 MSTORE PUSH1 0x20 ADD DUP5 PUSH20 0xFFFFFFFFFFFFFFFFFFFFFFFFFFFFFFFFFFFFFFFF AND DUP2 MSTORE PUSH1 0x20 ADD DUP4 DUP2 MSTORE POP PUSH1 0xA PUSH1 0x0 PUSH2 0x1A0E DUP5 PUSH2 0x1860 JUMP JUMPDEST DUP2 MSTORE PUSH1 0x20 ADD SWAP1 DUP2 MSTORE PUSH1 0x20 ADD PUSH1 0x0 KECCAK256 PUSH1 0x0 DUP3 ADD MLOAD DUP2 PUSH1 0x0 ADD SWAP1 DUP2 PUSH2 0x1A31 SWAP2 SWAP1 PUSH2 0x318B JUMP JUMPDEST POP PUSH1 0x20 DUP3 ADD MLOAD DUP2 PUSH1 0x1 ADD SWAP1 DUP2 PUSH2 0x1A47 SWAP2 SWAP1 PUSH2 0x318B JUMP JUMPDEST POP PUSH1 0x40 DUP3 ADD MLOAD DUP2 PUSH1 0x2 ADD PUSH1 0x0 PUSH2 0x100 EXP DUP2 SLOAD DUP2 PUSH20 0xFFFFFFFFFFFFFFFFFFFFFFFFFFFFFFFFFFFFFFFF MUL NOT AND SWAP1 DUP4 PUSH20 0xFFFFFFFFFFFFFFFFFFFFFFFFFFFFFFFFFFFFFFFF AND MUL OR SWAP1 SSTORE POP PUSH1 0x60 DUP3 ADD MLOAD DUP2 PUSH1 0x3 ADD SWAP1 DUP2 PUSH2 0x1AA4 SWAP2 SWAP1 PUSH2 0x318B JUMP JUMPDEST POP SWAP1 POP POP PUSH2 0x1B9E JUMP JUMPDEST PUSH1 0x40 MLOAD DUP1 PUSH1 0x80 ADD PUSH1 0x40 MSTORE DUP1 DUP7 DUP2 MSTORE PUSH1 0x20 ADD DUP6 DUP2 MSTORE PUSH1 0x20 ADD DUP5 PUSH20 0xFFFFFFFFFFFFFFFFFFFFFFFFFFFFFFFFFFFFFFFF AND DUP2 MSTORE PUSH1 0x20 ADD DUP4 DUP2 MSTORE POP PUSH1 0xA PUSH1 0x0 PUSH1 0x5 SLOAD DUP2 MSTORE PUSH1 0x20 ADD SWAP1 DUP2 MSTORE PUSH1 0x20 ADD PUSH1 0x0 KECCAK256 PUSH1 0x0 DUP3 ADD MLOAD DUP2 PUSH1 0x0 ADD SWAP1 DUP2 PUSH2 0x1B0E SWAP2 SWAP1 PUSH2 0x318B JUMP JUMPDEST POP PUSH1 0x20 DUP3 ADD MLOAD DUP2 PUSH1 0x1 ADD SWAP1 DUP2 PUSH2 0x1B24 SWAP2 SWAP1 PUSH2 0x318B JUMP JUMPDEST POP PUSH1 0x40 DUP3 ADD MLOAD DUP2 PUSH1 0x2 ADD PUSH1 0x0 PUSH2 0x100 EXP DUP2 SLOAD DUP2 PUSH20 0xFFFFFFFFFFFFFFFFFFFFFFFFFFFFFFFFFFFFFFFF MUL NOT AND SWAP1 DUP4 PUSH20 0xFFFFFFFFFFFFFFFFFFFFFFFFFFFFFFFFFFFFFFFF AND MUL OR SWAP1 SSTORE POP PUSH1 0x60 DUP3 ADD MLOAD DUP2 PUSH1 0x3 ADD SWAP1 DUP2 PUSH2 0x1B81 SWAP2 SWAP1 PUSH2 0x318B JUMP JUMPDEST POP SWAP1 POP POP PUSH1 0x5 PUSH1 0x0 DUP2 SLOAD DUP1 SWAP3 SWAP2 SWAP1 PUSH2 0x1B98 SWAP1 PUSH2 0x2F97 JUMP JUMPDEST SWAP2 SWAP1 POP SSTORE POP JUMPDEST POP POP POP POP POP JUMP JUMPDEST PUSH1 0x60 PUSH1 0x0 PUSH1 0xA PUSH8 0xFFFFFFFFFFFFFFFF DUP2 GT ISZERO PUSH2 0x1BC4 JUMPI PUSH2 0x1BC3 PUSH2 0x2345 JUMP JUMPDEST JUMPDEST PUSH1 0x40 MLOAD SWAP1 DUP1 DUP3 MSTORE DUP1 PUSH1 0x20 MUL PUSH1 0x20 ADD DUP3 ADD PUSH1 0x40 MSTORE DUP1 ISZERO PUSH2 0x1BF7 JUMPI DUP2 PUSH1 0x20 ADD JUMPDEST PUSH1 0x60 DUP2 MSTORE PUSH1 0x20 ADD SWAP1 PUSH1 0x1 SWAP1 SUB SWAP1 DUP2 PUSH2 0x1BE2 JUMPI SWAP1 POP JUMPDEST POP SWAP1 POP PUSH1 0x0 DUP1 JUMPDEST PUSH1 0x3 SLOAD DUP2 LT ISZERO PUSH2 0x1D1F JUMPI DUP5 DUP1 MLOAD SWAP1 PUSH1 0x20 ADD KECCAK256 PUSH1 0x8 PUSH1 0x0 DUP4 DUP2 MSTORE PUSH1 0x20 ADD SWAP1 DUP2 MSTORE PUSH1 0x20 ADD PUSH1 0x0 KECCAK256 PUSH1 0x0 ADD PUSH1 0x40 MLOAD PUSH2 0x1C33 SWAP2 SWAP1 PUSH2 0x2F51 JUMP JUMPDEST PUSH1 0x40 MLOAD DUP1 SWAP2 SUB SWAP1 KECCAK256 SUB PUSH2 0x1D0C JUMPI PUSH1 0x8 PUSH1 0x0 DUP3 DUP2 MSTORE PUSH1 0x20 ADD SWAP1 DUP2 MSTORE PUSH1 0x20 ADD PUSH1 0x0 KECCAK256 PUSH1 0x1 ADD DUP1 SLOAD PUSH2 0x1C61 SWAP1 PUSH2 0x2E7D JUMP JUMPDEST DUP1 PUSH1 0x1F ADD PUSH1 0x20 DUP1 SWAP2 DIV MUL PUSH1 0x20 ADD PUSH1 0x40 MLOAD SWAP1 DUP2 ADD PUSH1 0x40 MSTORE DUP1 SWAP3 SWAP2 SWAP1 DUP2 DUP2 MSTORE PUSH1 0x20 ADD DUP3 DUP1 SLOAD PUSH2 0x1C8D SWAP1 PUSH2 0x2E7D JUMP JUMPDEST DUP1 ISZERO PUSH2 0x1CDA JUMPI DUP1 PUSH1 0x1F LT PUSH2 0x1CAF JUMPI PUSH2 0x100 DUP1 DUP4 SLOAD DIV MUL DUP4 MSTORE SWAP2 PUSH1 0x20 ADD SWAP2 PUSH2 0x1CDA JUMP JUMPDEST DUP3 ADD SWAP2 SWAP1 PUSH1 0x0 MSTORE PUSH1 0x20 PUSH1 0x0 KECCAK256 SWAP1 JUMPDEST DUP2 SLOAD DUP2 MSTORE SWAP1 PUSH1 0x1 ADD SWAP1 PUSH1 0x20 ADD DUP1 DUP4 GT PUSH2 0x1CBD JUMPI DUP3 SWAP1 SUB PUSH1 0x1F AND DUP3 ADD SWAP2 JUMPDEST POP POP POP POP POP DUP4 DUP4 DUP2 MLOAD DUP2 LT PUSH2 0x1CF2 JUMPI PUSH2 0x1CF1 PUSH2 0x2E1F JUMP JUMPDEST JUMPDEST PUSH1 0x20 MUL PUSH1 0x20 ADD ADD DUP2 SWAP1 MSTORE POP DUP2 DUP1 PUSH2 0x1D08 SWAP1 PUSH2 0x2F97 JUMP JUMPDEST SWAP3 POP POP JUMPDEST DUP1 DUP1 PUSH2 0x1D17 SWAP1 PUSH2 0x2F97 JUMP JUMPDEST SWAP2 POP POP PUSH2 0x1BFE JUMP JUMPDEST POP DUP2 SWAP3 POP POP POP SWAP2 SWAP1 POP JUMP JUMPDEST PUSH1 0x0 DUP1 PUSH1 0x0 SWAP1 POP JUMPDEST PUSH1 0x1 SLOAD DUP2 LT ISZERO PUSH2 0x1DBF JUMPI DUP3 DUP1 MLOAD SWAP1 PUSH1 0x20 ADD KECCAK256 PUSH1 0xC PUSH2 0x1D4F DUP4 PUSH2 0x1FCD JUMP JUMPDEST PUSH1 0x40 MLOAD PUSH1 0x20 ADD PUSH2 0x1D5F SWAP2 SWAP1 PUSH2 0x2DE2 JUMP JUMPDEST PUSH1 0x40 MLOAD PUSH1 0x20 DUP2 DUP4 SUB SUB DUP2 MSTORE SWAP1 PUSH1 0x40 MSTORE PUSH1 0x40 MLOAD PUSH2 0x1D7B SWAP2 SWAP1 PUSH2 0x2E08 JUMP JUMPDEST SWAP1 DUP2 MSTORE PUSH1 0x20 ADD PUSH1 0x40 MLOAD DUP1 SWAP2 SUB SWAP1 KECCAK256 PUSH1 0x40 MLOAD PUSH2 0x1D96 SWAP2 SWAP1 PUSH2 0x2F51 JUMP JUMPDEST PUSH1 0x40 MLOAD DUP1 SWAP2 SUB SWAP1 KECCAK256 SUB PUSH2 0x1DAC JUMPI DUP1 SWAP2 POP POP PUSH2 0x1DC5 JUMP JUMPDEST DUP1 DUP1 PUSH2 0x1DB7 SWAP1 PUSH2 0x2F97 JUMP JUMPDEST SWAP2 POP POP PUSH2 0x1D32 JUMP JUMPDEST POP PUSH1 0x0 SWAP1 POP JUMPDEST SWAP2 SWAP1 POP JUMP JUMPDEST DUP1 PUSH1 0xC DUP4 PUSH1 0x40 MLOAD PUSH2 0x1DDB SWAP2 SWAP1 PUSH2 0x2E08 JUMP JUMPDEST SWAP1 DUP2 MSTORE PUSH1 0x20 ADD PUSH1 0x40 MLOAD DUP1 SWAP2 SUB SWAP1 KECCAK256 SWAP1 DUP2 PUSH2 0x1DF5 SWAP2 SWAP1 PUSH2 0x318B JUMP JUMPDEST POP POP POP JUMP JUMPDEST PUSH1 0x60 PUSH1 0xB DUP3 PUSH1 0x40 MLOAD PUSH2 0x1E0C SWAP2 SWAP1 PUSH2 0x2E08 JUMP JUMPDEST SWAP1 DUP2 MSTORE PUSH1 0x20 ADD PUSH1 0x40 MLOAD DUP1 SWAP2 SUB SWAP1 KECCAK256 PUSH1 0x0 PUSH1 0x2 DUP2 LT PUSH2 0x1E2D JUMPI PUSH2 0x1E2C PUSH2 0x2E1F JUMP JUMPDEST JUMPDEST ADD DUP1 SLOAD PUSH2 0x1E39 SWAP1 PUSH2 0x2E7D JUMP JUMPDEST DUP1 PUSH1 0x1F ADD PUSH1 0x20 DUP1 SWAP2 DIV MUL PUSH1 0x20 ADD PUSH1 0x40 MLOAD SWAP1 DUP2 ADD PUSH1 0x40 MSTORE DUP1 SWAP3 SWAP2 SWAP1 DUP2 DUP2 MSTORE PUSH1 0x20 ADD DUP3 DUP1 SLOAD PUSH2 0x1E65 SWAP1 PUSH2 0x2E7D JUMP JUMPDEST DUP1 ISZERO PUSH2 0x1EB2 JUMPI DUP1 PUSH1 0x1F LT PUSH2 0x1E87 JUMPI PUSH2 0x100 DUP1 DUP4 SLOAD DIV MUL DUP4 MSTORE SWAP2 PUSH1 0x20 ADD SWAP2 PUSH2 0x1EB2 JUMP JUMPDEST DUP3 ADD SWAP2 SWAP1 PUSH1 0x0 MSTORE PUSH1 0x20 PUSH1 0x0 KECCAK256 SWAP1 JUMPDEST DUP2 SLOAD DUP2 MSTORE SWAP1 PUSH1 0x1 ADD SWAP1 PUSH1 0x20 ADD DUP1 DUP4 GT PUSH2 0x1E95 JUMPI DUP3 SWAP1 SUB PUSH1 0x1F AND DUP3 ADD SWAP2 JUMPDEST POP POP POP POP POP SWAP1 POP SWAP2 SWAP1 POP JUMP JUMPDEST PUSH1 0x0 PUSH2 0x1F70 DUP5 PUSH1 0xD DUP9 PUSH1 0x40 MLOAD PUSH2 0x1ED4 SWAP2 SWAP1 PUSH2 0x2E08 JUMP JUMPDEST SWAP1 DUP2 MSTORE PUSH1 0x20 ADD PUSH1 0x40 MLOAD DUP1 SWAP2 SUB SWAP1 KECCAK256 DUP1 SLOAD PUSH2 0x1EED SWAP1 PUSH2 0x2E7D JUMP JUMPDEST DUP1 PUSH1 0x1F ADD PUSH1 0x20 DUP1 SWAP2 DIV MUL PUSH1 0x20 ADD PUSH1 0x40 MLOAD SWAP1 DUP2 ADD PUSH1 0x40 MSTORE DUP1 SWAP3 SWAP2 SWAP1 DUP2 DUP2 MSTORE PUSH1 0x20 ADD DUP3 DUP1 SLOAD PUSH2 0x1F19 SWAP1 PUSH2 0x2E7D JUMP JUMPDEST DUP1 ISZERO PUSH2 0x1F66 JUMPI DUP1 PUSH1 0x1F LT PUSH2 0x1F3B JUMPI PUSH2 0x100 DUP1 DUP4 SLOAD DIV MUL DUP4 MSTORE SWAP2 PUSH1 0x20 ADD SWAP2 PUSH2 0x1F66 JUMP JUMPDEST DUP3 ADD SWAP2 SWAP1 PUSH1 0x0 MSTORE PUSH1 0x20 PUSH1 0x0 KECCAK256 SWAP1 JUMPDEST DUP2 SLOAD DUP2 MSTORE SWAP1 PUSH1 0x1 ADD SWAP1 PUSH1 0x20 ADD DUP1 DUP4 GT PUSH2 0x1F49 JUMPI DUP3 SWAP1 SUB PUSH1 0x1F AND DUP3 ADD SWAP2 JUMPDEST POP POP POP POP POP PUSH2 0x14BE JUMP JUMPDEST SWAP1 POP PUSH2 0x1F7E DUP7 DUP6 CALLER DUP6 PUSH2 0x1973 JUMP JUMPDEST PUSH2 0x1F88 DUP5 DUP5 PUSH2 0xB5A JUMP JUMPDEST PUSH2 0x1F95 PUSH1 0x4 SLOAD DUP8 DUP8 PUSH2 0xF26 JUMP JUMPDEST PUSH1 0x4 PUSH1 0x0 DUP2 SLOAD DUP1 SWAP3 SWAP2 SWAP1 PUSH2 0x1FA8 SWAP1 PUSH2 0x2F97 JUMP JUMPDEST SWAP2 SWAP1 POP SSTORE POP PUSH1 0x1 PUSH1 0x0 DUP2 SLOAD DUP1 SWAP3 SWAP2 SWAP1 PUSH2 0x1FC0 SWAP1 PUSH2 0x2F97 JUMP JUMPDEST SWAP2 SWAP1 POP SSTORE POP POP POP POP POP POP POP JUMP JUMPDEST PUSH1 0x60 PUSH1 0x0 PUSH1 0x1 PUSH2 0x1FDC DUP5 PUSH2 0x209B JUMP JUMPDEST ADD SWAP1 POP PUSH1 0x0 DUP2 PUSH8 0xFFFFFFFFFFFFFFFF DUP2 GT ISZERO PUSH2 0x1FFB JUMPI PUSH2 0x1FFA PUSH2 0x2345 JUMP JUMPDEST JUMPDEST PUSH1 0x40 MLOAD SWAP1 DUP1 DUP3 MSTORE DUP1 PUSH1 0x1F ADD PUSH1 0x1F NOT AND PUSH1 0x20 ADD DUP3 ADD PUSH1 0x40 MSTORE DUP1 ISZERO PUSH2 0x202D JUMPI DUP2 PUSH1 0x20 ADD PUSH1 0x1 DUP3 MUL DUP1 CALLDATASIZE DUP4 CALLDATACOPY DUP1 DUP3 ADD SWAP2 POP POP SWAP1 POP JUMPDEST POP SWAP1 POP PUSH1 0x0 DUP3 PUSH1 0x20 ADD DUP3 ADD SWAP1 POP JUMPDEST PUSH1 0x1 ISZERO PUSH2 0x2090 JUMPI DUP1 DUP1 PUSH1 0x1 SWAP1 SUB SWAP2 POP POP PUSH32 0x3031323334353637383961626364656600000000000000000000000000000000 PUSH1 0xA DUP7 MOD BYTE DUP2 MSTORE8 PUSH1 0xA DUP6 DUP2 PUSH2 0x2084 JUMPI PUSH2 0x2083 PUSH2 0x34C7 JUMP JUMPDEST JUMPDEST DIV SWAP5 POP PUSH1 0x0 DUP6 SUB PUSH2 0x203B JUMPI JUMPDEST DUP2 SWAP4 POP POP POP POP SWAP2 SWAP1 POP JUMP JUMPDEST PUSH1 0x0 DUP1 PUSH1 0x0 SWAP1 POP PUSH27 0x184F03E93FF9F4DAA797ED6E38ED64BF6A1F010000000000000000 DUP4 LT PUSH2 0x20F9 JUMPI PUSH27 0x184F03E93FF9F4DAA797ED6E38ED64BF6A1F010000000000000000 DUP4 DUP2 PUSH2 0x20EF JUMPI PUSH2 0x20EE PUSH2 0x34C7 JUMP JUMPDEST JUMPDEST DIV SWAP3 POP PUSH1 0x40 DUP2 ADD SWAP1 POP JUMPDEST PUSH14 0x4EE2D6D415B85ACEF8100000000 DUP4 LT PUSH2 0x2136 JUMPI PUSH14 0x4EE2D6D415B85ACEF8100000000 DUP4 DUP2 PUSH2 0x212C JUMPI PUSH2 0x212B PUSH2 0x34C7 JUMP JUMPDEST JUMPDEST DIV SWAP3 POP PUSH1 0x20 DUP2 ADD SWAP1 POP JUMPDEST PUSH7 0x2386F26FC10000 DUP4 LT PUSH2 0x2165 JUMPI PUSH7 0x2386F26FC10000 DUP4 DUP2 PUSH2 0x215B JUMPI PUSH2 0x215A PUSH2 0x34C7 JUMP JUMPDEST JUMPDEST DIV SWAP3 POP PUSH1 0x10 DUP2 ADD SWAP1 POP JUMPDEST PUSH4 0x5F5E100 DUP4 LT PUSH2 0x218E JUMPI PUSH4 0x5F5E100 DUP4 DUP2 PUSH2 0x2184 JUMPI PUSH2 0x2183 PUSH2 0x34C7 JUMP JUMPDEST JUMPDEST DIV SWAP3 POP PUSH1 0x8 DUP2 ADD SWAP1 POP JUMPDEST PUSH2 0x2710 DUP4 LT PUSH2 0x21B3 JUMPI PUSH2 0x2710 DUP4 DUP2 PUSH2 0x21A9 JUMPI PUSH2 0x21A8 PUSH2 0x34C7 JUMP JUMPDEST JUMPDEST DIV SWAP3 POP PUSH1 0x4 DUP2 ADD SWAP1 POP JUMPDEST PUSH1 0x64 DUP4 LT PUSH2 0x21D6 JUMPI PUSH1 0x64 DUP4 DUP2 PUSH2 0x21CC JUMPI PUSH2 0x21CB PUSH2 0x34C7 JUMP JUMPDEST JUMPDEST DIV SWAP3 POP PUSH1 0x2 DUP2 ADD SWAP1 POP JUMPDEST PUSH1 0xA DUP4 LT PUSH2 0x21E5 JUMPI PUSH1 0x1 DUP2 ADD SWAP1 POP JUMPDEST DUP1 SWAP2 POP POP SWAP2 SWAP1 POP JUMP JUMPDEST PUSH1 0x40 MLOAD DUP1 PUSH1 0x40 ADD PUSH1 0x40 MSTORE DUP1 PUSH1 0x2 SWAP1 JUMPDEST PUSH1 0x60 DUP2 MSTORE PUSH1 0x20 ADD SWAP1 PUSH1 0x1 SWAP1 SUB SWAP1 DUP2 PUSH2 0x21FD JUMPI SWAP1 POP POP SWAP1 JUMP JUMPDEST DUP3 PUSH1 0x2 DUP2 ADD SWAP3 DUP3 ISZERO PUSH2 0x2250 JUMPI SWAP2 PUSH1 0x20 MUL DUP3 ADD JUMPDEST DUP3 DUP2 GT ISZERO PUSH2 0x224F JUMPI DUP3 MLOAD DUP3 SWAP1 DUP2 PUSH2 0x223F SWAP2 SWAP1 PUSH2 0x318B JUMP JUMPDEST POP SWAP2 PUSH1 0x20 ADD SWAP2 SWAP1 PUSH1 0x1 ADD SWAP1 PUSH2 0x2228 JUMP JUMPDEST JUMPDEST POP SWAP1 POP PUSH2 0x225D SWAP2 SWAP1 PUSH2 0x2261 JUMP JUMPDEST POP SWAP1 JUMP JUMPDEST JUMPDEST DUP1 DUP3 GT ISZERO PUSH2 0x2281 JUMPI PUSH1 0x0 DUP2 DUP2 PUSH2 0x2278 SWAP2 SWAP1 PUSH2 0x2285 JUMP JUMPDEST POP PUSH1 0x1 ADD PUSH2 0x2262 JUMP JUMPDEST POP SWAP1 JUMP JUMPDEST POP DUP1 SLOAD PUSH2 0x2291 SWAP1 PUSH2 0x2E7D JUMP JUMPDEST PUSH1 0x0 DUP3 SSTORE DUP1 PUSH1 0x1F LT PUSH2 0x22A3 JUMPI POP PUSH2 0x22C2 JUMP JUMPDEST PUSH1 0x1F ADD PUSH1 0x20 SWAP1 DIV SWAP1 PUSH1 0x0 MSTORE PUSH1 0x20 PUSH1 0x0 KECCAK256 SWAP1 DUP2 ADD SWAP1 PUSH2 0x22C1 SWAP2 SWAP1 PUSH2 0x22C5 JUMP JUMPDEST JUMPDEST POP JUMP JUMPDEST JUMPDEST DUP1 DUP3 GT ISZERO PUSH2 0x22DE JUMPI PUSH1 0x0 DUP2 PUSH1 0x0 SWAP1 SSTORE POP PUSH1 0x1 ADD PUSH2 0x22C6 JUMP JUMPDEST POP SWAP1 JUMP JUMPDEST PUSH1 0x0 DUP2 SWAP1 POP SWAP2 SWAP1 POP JUMP JUMPDEST PUSH2 0x22F5 DUP2 PUSH2 0x22E2 JUMP JUMPDEST DUP3 MSTORE POP POP JUMP JUMPDEST PUSH1 0x0 PUSH1 0x20 DUP3 ADD SWAP1 POP PUSH2 0x2310 PUSH1 0x0 DUP4 ADD DUP5 PUSH2 0x22EC JUMP JUMPDEST SWAP3 SWAP2 POP POP JUMP JUMPDEST PUSH1 0x0 PUSH1 0x40 MLOAD SWAP1 POP SWAP1 JUMP JUMPDEST PUSH1 0x0 DUP1 REVERT JUMPDEST PUSH1 0x0 DUP1 REVERT JUMPDEST PUSH1 0x0 DUP1 REVERT JUMPDEST PUSH1 0x0 DUP1 REVERT JUMPDEST PUSH1 0x0 PUSH1 0x1F NOT PUSH1 0x1F DUP4 ADD AND SWAP1 POP SWAP2 SWAP1 POP JUMP JUMPDEST PUSH32 0x4E487B7100000000000000000000000000000000000000000000000000000000 PUSH1 0x0 MSTORE PUSH1 0x41 PUSH1 0x4 MSTORE PUSH1 0x24 PUSH1 0x0 REVERT JUMPDEST PUSH2 0x237D DUP3 PUSH2 0x2334 JUMP JUMPDEST DUP2 ADD DUP2 DUP2 LT PUSH8 0xFFFFFFFFFFFFFFFF DUP3 GT OR ISZERO PUSH2 0x239C JUMPI PUSH2 0x239B PUSH2 0x2345 JUMP JUMPDEST JUMPDEST DUP1 PUSH1 0x40 MSTORE POP POP POP JUMP JUMPDEST PUSH1 0x0 PUSH2 0x23AF PUSH2 0x2316 JUMP JUMPDEST SWAP1 POP PUSH2 0x23BB DUP3 DUP3 PUSH2 0x2374 JUMP JUMPDEST SWAP2 SWAP1 POP JUMP JUMPDEST PUSH1 0x0 PUSH8 0xFFFFFFFFFFFFFFFF DUP3 GT ISZERO PUSH2 0x23DB JUMPI PUSH2 0x23DA PUSH2 0x2345 JUMP JUMPDEST JUMPDEST PUSH2 0x23E4 DUP3 PUSH2 0x2334 JUMP JUMPDEST SWAP1 POP PUSH1 0x20 DUP2 ADD SWAP1 POP SWAP2 SWAP1 POP JUMP JUMPDEST DUP3 DUP2 DUP4 CALLDATACOPY PUSH1 0x0 DUP4 DUP4 ADD MSTORE POP POP POP JUMP JUMPDEST PUSH1 0x0 PUSH2 0x2413 PUSH2 0x240E DUP5 PUSH2 0x23C0 JUMP JUMPDEST PUSH2 0x23A5 JUMP JUMPDEST SWAP1 POP DUP3 DUP2 MSTORE PUSH1 0x20 DUP2 ADD DUP5 DUP5 DUP5 ADD GT ISZERO PUSH2 0x242F JUMPI PUSH2 0x242E PUSH2 0x232F JUMP JUMPDEST JUMPDEST PUSH2 0x243A DUP5 DUP3 DUP6 PUSH2 0x23F1 JUMP JUMPDEST POP SWAP4 SWAP3 POP POP POP JUMP JUMPDEST PUSH1 0x0 DUP3 PUSH1 0x1F DUP4 ADD SLT PUSH2 0x2457 JUMPI PUSH2 0x2456 PUSH2 0x232A JUMP JUMPDEST JUMPDEST DUP2 CALLDATALOAD PUSH2 0x2467 DUP5 DUP3 PUSH1 0x20 DUP7 ADD PUSH2 0x2400 JUMP JUMPDEST SWAP2 POP POP SWAP3 SWAP2 POP POP JUMP JUMPDEST PUSH1 0x0 PUSH1 0x20 DUP3 DUP5 SUB SLT ISZERO PUSH2 0x2486 JUMPI PUSH2 0x2485 PUSH2 0x2320 JUMP JUMPDEST JUMPDEST PUSH1 0x0 DUP3 ADD CALLDATALOAD PUSH8 0xFFFFFFFFFFFFFFFF DUP2 GT ISZERO PUSH2 0x24A4 JUMPI PUSH2 0x24A3 PUSH2 0x2325 JUMP JUMPDEST JUMPDEST PUSH2 0x24B0 DUP5 DUP3 DUP6 ADD PUSH2 0x2442 JUMP JUMPDEST SWAP2 POP POP SWAP3 SWAP2 POP POP JUMP JUMPDEST PUSH1 0x0 DUP2 MLOAD SWAP1 POP SWAP2 SWAP1 POP JUMP JUMPDEST PUSH1 0x0 DUP3 DUP3 MSTORE PUSH1 0x20 DUP3 ADD SWAP1 POP SWAP3 SWAP2 POP POP JUMP JUMPDEST PUSH1 0x0 DUP2 SWAP1 POP PUSH1 0x20 DUP3 ADD SWAP1 POP SWAP2 SWAP1 POP JUMP JUMPDEST PUSH1 0x0 DUP2 MLOAD SWAP1 POP SWAP2 SWAP1 POP JUMP JUMPDEST PUSH1 0x0 DUP3 DUP3 MSTORE PUSH1 0x20 DUP3 ADD SWAP1 POP SWAP3 SWAP2 POP POP JUMP JUMPDEST PUSH1 0x0 JUMPDEST DUP4 DUP2 LT ISZERO PUSH2 0x251F JUMPI DUP1 DUP3 ADD MLOAD DUP2 DUP5 ADD MSTORE PUSH1 0x20 DUP2 ADD SWAP1 POP PUSH2 0x2504 JUMP JUMPDEST PUSH1 0x0 DUP5 DUP5 ADD MSTORE POP POP POP POP JUMP JUMPDEST PUSH1 0x0 PUSH2 0x2536 DUP3 PUSH2 0x24E5 JUMP JUMPDEST PUSH2 0x2540 DUP2 DUP6 PUSH2 0x24F0 JUMP JUMPDEST SWAP4 POP PUSH2 0x2550 DUP2 DUP6 PUSH1 0x20 DUP7 ADD PUSH2 0x2501 JUMP JUMPDEST PUSH2 0x2559 DUP2 PUSH2 0x2334 JUMP JUMPDEST DUP5 ADD SWAP2 POP POP SWAP3 SWAP2 POP POP JUMP JUMPDEST PUSH1 0x0 PUSH2 0x2570 DUP4 DUP4 PUSH2 0x252B JUMP JUMPDEST SWAP1 POP SWAP3 SWAP2 POP POP JUMP JUMPDEST PUSH1 0x0 PUSH1 0x20 DUP3 ADD SWAP1 POP SWAP2 SWAP1 POP JUMP JUMPDEST PUSH1 0x0 PUSH2 0x2590 DUP3 PUSH2 0x24B9 JUMP JUMPDEST PUSH2 0x259A DUP2 DUP6 PUSH2 0x24C4 JUMP JUMPDEST SWAP4 POP DUP4 PUSH1 0x20 DUP3 MUL DUP6 ADD PUSH2 0x25AC DUP6 PUSH2 0x24D5 JUMP JUMPDEST DUP1 PUSH1 0x0 JUMPDEST DUP6 DUP2 LT ISZERO PUSH2 0x25E8 JUMPI DUP5 DUP5 SUB DUP10 MSTORE DUP2 MLOAD PUSH2 0x25C9 DUP6 DUP3 PUSH2 0x2564 JUMP JUMPDEST SWAP5 POP PUSH2 0x25D4 DUP4 PUSH2 0x2578 JUMP JUMPDEST SWAP3 POP PUSH1 0x20 DUP11 ADD SWAP10 POP POP PUSH1 0x1 DUP2 ADD SWAP1 POP PUSH2 0x25B0 JUMP JUMPDEST POP DUP3 SWAP8 POP DUP8 SWAP6 POP POP POP POP POP POP SWAP3 SWAP2 POP POP JUMP JUMPDEST PUSH1 0x0 PUSH1 0x20 DUP3 ADD SWAP1 POP DUP2 DUP2 SUB PUSH1 0x0 DUP4 ADD MSTORE PUSH2 0x2614 DUP2 DUP5 PUSH2 0x2585 JUMP JUMPDEST SWAP1 POP SWAP3 SWAP2 POP POP JUMP JUMPDEST PUSH1 0x0 DUP1 PUSH1 0x40 DUP4 DUP6 SUB SLT ISZERO PUSH2 0x2633 JUMPI PUSH2 0x2632 PUSH2 0x2320 JUMP JUMPDEST JUMPDEST PUSH1 0x0 DUP4 ADD CALLDATALOAD PUSH8 0xFFFFFFFFFFFFFFFF DUP2 GT ISZERO PUSH2 0x2651 JUMPI PUSH2 0x2650 PUSH2 0x2325 JUMP JUMPDEST JUMPDEST PUSH2 0x265D DUP6 DUP3 DUP7 ADD PUSH2 0x2442 JUMP JUMPDEST SWAP3 POP POP PUSH1 0x20 DUP4 ADD CALLDATALOAD PUSH8 0xFFFFFFFFFFFFFFFF DUP2 GT ISZERO PUSH2 0x267E JUMPI PUSH2 0x267D PUSH2 0x2325 JUMP JUMPDEST JUMPDEST PUSH2 0x268A DUP6 DUP3 DUP7 ADD PUSH2 0x2442 JUMP JUMPDEST SWAP2 POP POP SWAP3 POP SWAP3 SWAP1 POP JUMP JUMPDEST PUSH1 0x0 PUSH20 0xFFFFFFFFFFFFFFFFFFFFFFFFFFFFFFFFFFFFFFFF DUP3 AND SWAP1 POP SWAP2 SWAP1 POP JUMP JUMPDEST PUSH1 0x0 PUSH2 0x26BF DUP3 PUSH2 0x2694 JUMP JUMPDEST SWAP1 POP SWAP2 SWAP1 POP JUMP JUMPDEST PUSH2 0x26CF DUP2 PUSH2 0x26B4 JUMP JUMPDEST DUP2 EQ PUSH2 0x26DA JUMPI PUSH1 0x0 DUP1 REVERT JUMPDEST POP JUMP JUMPDEST PUSH1 0x0 DUP2 CALLDATALOAD SWAP1 POP PUSH2 0x26EC DUP2 PUSH2 0x26C6 JUMP JUMPDEST SWAP3 SWAP2 POP POP JUMP JUMPDEST PUSH1 0x0 DUP1 PUSH1 0x0 PUSH1 0x60 DUP5 DUP7 SUB SLT ISZERO PUSH2 0x270B JUMPI PUSH2 0x270A PUSH2 0x2320 JUMP JUMPDEST JUMPDEST PUSH1 0x0 PUSH2 0x2719 DUP7 DUP3 DUP8 ADD PUSH2 0x26DD JUMP JUMPDEST SWAP4 POP POP PUSH1 0x20 DUP5 ADD CALLDATALOAD PUSH8 0xFFFFFFFFFFFFFFFF DUP2 GT ISZERO PUSH2 0x273A JUMPI PUSH2 0x2739 PUSH2 0x2325 JUMP JUMPDEST JUMPDEST PUSH2 0x2746 DUP7 DUP3 DUP8 ADD PUSH2 0x2442 JUMP JUMPDEST SWAP3 POP POP PUSH1 0x40 DUP5 ADD CALLDATALOAD PUSH8 0xFFFFFFFFFFFFFFFF DUP2 GT ISZERO PUSH2 0x2767 JUMPI PUSH2 0x2766 PUSH2 0x2325 JUMP JUMPDEST JUMPDEST PUSH2 0x2773 DUP7 DUP3 DUP8 ADD PUSH2 0x2442 JUMP JUMPDEST SWAP2 POP POP SWAP3 POP SWAP3 POP SWAP3 JUMP JUMPDEST PUSH1 0x0 DUP2 ISZERO ISZERO SWAP1 POP SWAP2 SWAP1 POP JUMP JUMPDEST PUSH2 0x2792 DUP2 PUSH2 0x277D JUMP JUMPDEST DUP3 MSTORE POP POP JUMP JUMPDEST PUSH1 0x0 PUSH1 0x20 DUP3 ADD SWAP1 POP PUSH2 0x27AD PUSH1 0x0 DUP4 ADD DUP5 PUSH2 0x2789 JUMP JUMPDEST SWAP3 SWAP2 POP POP JUMP JUMPDEST PUSH1 0x0 DUP3 DUP3 MSTORE PUSH1 0x20 DUP3 ADD SWAP1 POP SWAP3 SWAP2 POP POP JUMP JUMPDEST PUSH1 0x0 PUSH2 0x27CF DUP3 PUSH2 0x24E5 JUMP JUMPDEST PUSH2 0x27D9 DUP2 DUP6 PUSH2 0x27B3 JUMP JUMPDEST SWAP4 POP PUSH2 0x27E9 DUP2 DUP6 PUSH1 0x20 DUP7 ADD PUSH2 0x2501 JUMP JUMPDEST PUSH2 0x27F2 DUP2 PUSH2 0x2334 JUMP JUMPDEST DUP5 ADD SWAP2 POP POP SWAP3 SWAP2 POP POP JUMP JUMPDEST PUSH1 0x0 PUSH1 0x20 DUP3 ADD SWAP1 POP DUP2 DUP2 SUB PUSH1 0x0 DUP4 ADD MSTORE PUSH2 0x2817 DUP2 DUP5 PUSH2 0x27C4 JUMP JUMPDEST SWAP1 POP SWAP3 SWAP2 POP POP JUMP JUMPDEST PUSH2 0x2828 DUP2 PUSH2 0x22E2 JUMP JUMPDEST DUP2 EQ PUSH2 0x2833 JUMPI PUSH1 0x0 DUP1 REVERT JUMPDEST POP JUMP JUMPDEST PUSH1 0x0 DUP2 CALLDATALOAD SWAP1 POP PUSH2 0x2845 DUP2 PUSH2 0x281F JUMP JUMPDEST SWAP3 SWAP2 POP POP JUMP JUMPDEST PUSH1 0x0 DUP1 PUSH1 0x0 PUSH1 0x60 DUP5 DUP7 SUB SLT ISZERO PUSH2 0x2864 JUMPI PUSH2 0x2863 PUSH2 0x2320 JUMP JUMPDEST JUMPDEST PUSH1 0x0 PUSH2 0x2872 DUP7 DUP3 DUP8 ADD PUSH2 0x2836 JUMP JUMPDEST SWAP4 POP POP PUSH1 0x20 DUP5 ADD CALLDATALOAD PUSH8 0xFFFFFFFFFFFFFFFF DUP2 GT ISZERO PUSH2 0x2893 JUMPI PUSH2 0x2892 PUSH2 0x2325 JUMP JUMPDEST JUMPDEST PUSH2 0x289F DUP7 DUP3 DUP8 ADD PUSH2 0x2442 JUMP JUMPDEST SWAP3 POP POP PUSH1 0x40 DUP5 ADD CALLDATALOAD PUSH8 0xFFFFFFFFFFFFFFFF DUP2 GT ISZERO PUSH2 0x28C0 JUMPI PUSH2 0x28BF PUSH2 0x2325 JUMP JUMPDEST JUMPDEST PUSH2 0x28CC DUP7 DUP3 DUP8 ADD PUSH2 0x2442 JUMP JUMPDEST SWAP2 POP POP SWAP3 POP SWAP3 POP SWAP3 JUMP JUMPDEST PUSH1 0x0 DUP1 PUSH1 0x0 PUSH1 0x60 DUP5 DUP7 SUB SLT ISZERO PUSH2 0x28EF JUMPI PUSH2 0x28EE PUSH2 0x2320 JUMP JUMPDEST JUMPDEST PUSH1 0x0 DUP5 ADD CALLDATALOAD PUSH8 0xFFFFFFFFFFFFFFFF DUP2 GT ISZERO PUSH2 0x290D JUMPI PUSH2 0x290C PUSH2 0x2325 JUMP JUMPDEST JUMPDEST PUSH2 0x2919 DUP7 DUP3 DUP8 ADD PUSH2 0x2442 JUMP JUMPDEST SWAP4 POP POP PUSH1 0x20 DUP5 ADD CALLDATALOAD PUSH8 0xFFFFFFFFFFFFFFFF DUP2 GT ISZERO PUSH2 0x293A JUMPI PUSH2 0x2939 PUSH2 0x2325 JUMP JUMPDEST JUMPDEST PUSH2 0x2946 DUP7 DUP3 DUP8 ADD PUSH2 0x2442 JUMP JUMPDEST SWAP3 POP POP PUSH1 0x40 PUSH2 0x2957 DUP7 DUP3 DUP8 ADD PUSH2 0x2836 JUMP JUMPDEST SWAP2 POP POP SWAP3 POP SWAP3 POP SWAP3 JUMP JUMPDEST PUSH1 0x0 PUSH1 0x2 SWAP1 POP SWAP2 SWAP1 POP JUMP JUMPDEST PUSH1 0x0 DUP2 SWAP1 POP SWAP3 SWAP2 POP POP JUMP JUMPDEST PUSH1 0x0 DUP2 SWAP1 POP SWAP2 SWAP1 POP JUMP JUMPDEST PUSH1 0x0 PUSH1 0x20 DUP3 ADD SWAP1 POP SWAP2 SWAP1 POP JUMP JUMPDEST PUSH1 0x0 PUSH2 0x2999 DUP3 PUSH2 0x2961 JUMP JUMPDEST PUSH2 0x29A3 DUP2 DUP6 PUSH2 0x296C JUMP JUMPDEST SWAP4 POP DUP4 PUSH1 0x20 DUP3 MUL DUP6 ADD PUSH2 0x29B5 DUP6 PUSH2 0x2977 JUMP JUMPDEST DUP1 PUSH1 0x0 JUMPDEST DUP6 DUP2 LT ISZERO PUSH2 0x29F1 JUMPI DUP5 DUP5 SUB DUP10 MSTORE DUP2 MLOAD PUSH2 0x29D2 DUP6 DUP3 PUSH2 0x2564 JUMP JUMPDEST SWAP5 POP PUSH2 0x29DD DUP4 PUSH2 0x2981 JUMP JUMPDEST SWAP3 POP PUSH1 0x20 DUP11 ADD SWAP10 POP POP PUSH1 0x1 DUP2 ADD SWAP1 POP PUSH2 0x29B9 JUMP JUMPDEST POP DUP3 SWAP8 POP DUP8 SWAP6 POP POP POP POP POP POP SWAP3 SWAP2 POP POP JUMP JUMPDEST PUSH1 0x0 PUSH1 0x20 DUP3 ADD SWAP1 POP DUP2 DUP2 SUB PUSH1 0x0 DUP4 ADD MSTORE PUSH2 0x2A1D DUP2 DUP5 PUSH2 0x298E JUMP JUMPDEST SWAP1 POP SWAP3 SWAP2 POP POP JUMP JUMPDEST PUSH1 0x0 PUSH1 0x20 DUP3 DUP5 SUB SLT ISZERO PUSH2 0x2A3B JUMPI PUSH2 0x2A3A PUSH2 0x2320 JUMP JUMPDEST JUMPDEST PUSH1 0x0 PUSH2 0x2A49 DUP5 DUP3 DUP6 ADD PUSH2 0x2836 JUMP JUMPDEST SWAP2 POP POP SWAP3 SWAP2 POP POP JUMP JUMPDEST PUSH2 0x2A5B DUP2 PUSH2 0x26B4 JUMP JUMPDEST DUP3 MSTORE POP POP JUMP JUMPDEST PUSH1 0x0 PUSH1 0x80 DUP3 ADD SWAP1 POP DUP2 DUP2 SUB PUSH1 0x0 DUP4 ADD MSTORE PUSH2 0x2A7B DUP2 DUP8 PUSH2 0x27C4 JUMP JUMPDEST SWAP1 POP DUP2 DUP2 SUB PUSH1 0x20 DUP4 ADD MSTORE PUSH2 0x2A8F DUP2 DUP7 PUSH2 0x27C4 JUMP JUMPDEST SWAP1 POP PUSH2 0x2A9E PUSH1 0x40 DUP4 ADD DUP6 PUSH2 0x2A52 JUMP JUMPDEST DUP2 DUP2 SUB PUSH1 0x60 DUP4 ADD MSTORE PUSH2 0x2AB0 DUP2 DUP5 PUSH2 0x27C4 JUMP JUMPDEST SWAP1 POP SWAP6 SWAP5 POP POP POP POP POP JUMP JUMPDEST PUSH1 0x0 DUP1 PUSH1 0x40 DUP4 DUP6 SUB SLT ISZERO PUSH2 0x2AD2 JUMPI PUSH2 0x2AD1 PUSH2 0x2320 JUMP JUMPDEST JUMPDEST PUSH1 0x0 DUP4 ADD CALLDATALOAD PUSH8 0xFFFFFFFFFFFFFFFF DUP2 GT ISZERO PUSH2 0x2AF0 JUMPI PUSH2 0x2AEF PUSH2 0x2325 JUMP JUMPDEST JUMPDEST PUSH2 0x2AFC DUP6 DUP3 DUP7 ADD PUSH2 0x2442 JUMP JUMPDEST SWAP3 POP POP PUSH1 0x20 PUSH2 0x2B0D DUP6 DUP3 DUP7 ADD PUSH2 0x2836 JUMP JUMPDEST SWAP2 POP POP SWAP3 POP SWAP3 SWAP1 POP JUMP JUMPDEST PUSH1 0x0 DUP1 PUSH1 0x0 PUSH1 0x60 DUP5 DUP7 SUB SLT ISZERO PUSH2 0x2B30 JUMPI PUSH2 0x2B2F PUSH2 0x2320 JUMP JUMPDEST JUMPDEST PUSH1 0x0 DUP5 ADD CALLDATALOAD PUSH8 0xFFFFFFFFFFFFFFFF DUP2 GT ISZERO PUSH2 0x2B4E JUMPI PUSH2 0x2B4D PUSH2 0x2325 JUMP JUMPDEST JUMPDEST PUSH2 0x2B5A DUP7 DUP3 DUP8 ADD PUSH2 0x2442 JUMP JUMPDEST SWAP4 POP POP PUSH1 0x20 DUP5 ADD CALLDATALOAD PUSH8 0xFFFFFFFFFFFFFFFF DUP2 GT ISZERO PUSH2 0x2B7B JUMPI PUSH2 0x2B7A PUSH2 0x2325 JUMP JUMPDEST JUMPDEST PUSH2 0x2B87 DUP7 DUP3 DUP8 ADD PUSH2 0x2442 JUMP JUMPDEST SWAP3 POP POP PUSH1 0x40 DUP5 ADD CALLDATALOAD PUSH8 0xFFFFFFFFFFFFFFFF DUP2 GT ISZERO PUSH2 0x2BA8 JUMPI PUSH2 0x2BA7 PUSH2 0x2325 JUMP JUMPDEST JUMPDEST PUSH2 0x2BB4 DUP7 DUP3 DUP8 ADD PUSH2 0x2442 JUMP JUMPDEST SWAP2 POP POP SWAP3 POP SWAP3 POP SWAP3 JUMP JUMPDEST PUSH1 0x0 DUP1 PUSH1 0x0 DUP1 PUSH1 0x80 DUP6 DUP8 SUB SLT ISZERO PUSH2 0x2BD8 JUMPI PUSH2 0x2BD7 PUSH2 0x2320 JUMP JUMPDEST JUMPDEST PUSH1 0x0 DUP6 ADD CALLDATALOAD PUSH8 0xFFFFFFFFFFFFFFFF DUP2 GT ISZERO PUSH2 0x2BF6 JUMPI PUSH2 0x2BF5 PUSH2 0x2325 JUMP JUMPDEST JUMPDEST PUSH2 0x2C02 DUP8 DUP3 DUP9 ADD PUSH2 0x2442 JUMP JUMPDEST SWAP5 POP POP PUSH1 0x20 DUP6 ADD CALLDATALOAD PUSH8 0xFFFFFFFFFFFFFFFF DUP2 GT ISZERO PUSH2 0x2C23 JUMPI PUSH2 0x2C22 PUSH2 0x2325 JUMP JUMPDEST JUMPDEST PUSH2 0x2C2F DUP8 DUP3 DUP9 ADD PUSH2 0x2442 JUMP JUMPDEST SWAP4 POP POP PUSH1 0x40 PUSH2 0x2C40 DUP8 DUP3 DUP9 ADD PUSH2 0x26DD JUMP JUMPDEST SWAP3 POP POP PUSH1 0x60 DUP6 ADD CALLDATALOAD PUSH8 0xFFFFFFFFFFFFFFFF DUP2 GT ISZERO PUSH2 0x2C61 JUMPI PUSH2 0x2C60 PUSH2 0x2325 JUMP JUMPDEST JUMPDEST PUSH2 0x2C6D DUP8 DUP3 DUP9 ADD PUSH2 0x2442 JUMP JUMPDEST SWAP2 POP POP SWAP3 SWAP6 SWAP2 SWAP5 POP SWAP3 POP JUMP JUMPDEST PUSH1 0x0 DUP1 PUSH1 0x0 DUP1 PUSH1 0x0 PUSH1 0xA0 DUP7 DUP9 SUB SLT ISZERO PUSH2 0x2C95 JUMPI PUSH2 0x2C94 PUSH2 0x2320 JUMP JUMPDEST JUMPDEST PUSH1 0x0 DUP7 ADD CALLDATALOAD PUSH8 0xFFFFFFFFFFFFFFFF DUP2 GT ISZERO PUSH2 0x2CB3 JUMPI PUSH2 0x2CB2 PUSH2 0x2325 JUMP JUMPDEST JUMPDEST PUSH2 0x2CBF DUP9 DUP3 DUP10 ADD PUSH2 0x2442 JUMP JUMPDEST SWAP6 POP POP PUSH1 0x20 DUP7 ADD CALLDATALOAD PUSH8 0xFFFFFFFFFFFFFFFF DUP2 GT ISZERO PUSH2 0x2CE0 JUMPI PUSH2 0x2CDF PUSH2 0x2325 JUMP JUMPDEST JUMPDEST PUSH2 0x2CEC DUP9 DUP3 DUP10 ADD PUSH2 0x2442 JUMP JUMPDEST SWAP5 POP POP PUSH1 0x40 DUP7 ADD CALLDATALOAD PUSH8 0xFFFFFFFFFFFFFFFF DUP2 GT ISZERO PUSH2 0x2D0D JUMPI PUSH2 0x2D0C PUSH2 0x2325 JUMP JUMPDEST JUMPDEST PUSH2 0x2D19 DUP9 DUP3 DUP10 ADD PUSH2 0x2442 JUMP JUMPDEST SWAP4 POP POP PUSH1 0x60 DUP7 ADD CALLDATALOAD PUSH8 0xFFFFFFFFFFFFFFFF DUP2 GT ISZERO PUSH2 0x2D3A JUMPI PUSH2 0x2D39 PUSH2 0x2325 JUMP JUMPDEST JUMPDEST PUSH2 0x2D46 DUP9 DUP3 DUP10 ADD PUSH2 0x2442 JUMP JUMPDEST SWAP3 POP POP PUSH1 0x80 DUP7 ADD CALLDATALOAD PUSH8 0xFFFFFFFFFFFFFFFF DUP2 GT ISZERO PUSH2 0x2D67 JUMPI PUSH2 0x2D66 PUSH2 0x2325 JUMP JUMPDEST JUMPDEST PUSH2 0x2D73 DUP9 DUP3 DUP10 ADD PUSH2 0x2442 JUMP JUMPDEST SWAP2 POP POP SWAP3 SWAP6 POP SWAP3 SWAP6 SWAP1 SWAP4 POP JUMP JUMPDEST PUSH32 0x6D5F000000000000000000000000000000000000000000000000000000000000 DUP2 MSTORE POP JUMP JUMPDEST PUSH1 0x0 DUP2 SWAP1 POP SWAP3 SWAP2 POP POP JUMP JUMPDEST PUSH1 0x0 PUSH2 0x2DBC DUP3 PUSH2 0x24E5 JUMP JUMPDEST PUSH2 0x2DC6 DUP2 DUP6 PUSH2 0x2DA6 JUMP JUMPDEST SWAP4 POP PUSH2 0x2DD6 DUP2 DUP6 PUSH1 0x20 DUP7 ADD PUSH2 0x2501 JUMP JUMPDEST DUP1 DUP5 ADD SWAP2 POP POP SWAP3 SWAP2 POP POP JUMP JUMPDEST PUSH1 0x0 PUSH2 0x2DED DUP3 PUSH2 0x2D80 JUMP JUMPDEST PUSH1 0x2 DUP3 ADD SWAP2 POP PUSH2 0x2DFD DUP3 DUP5 PUSH2 0x2DB1 JUMP JUMPDEST SWAP2 POP DUP2 SWAP1 POP SWAP3 SWAP2 POP POP JUMP JUMPDEST PUSH1 0x0 PUSH2 0x2E14 DUP3 DUP5 PUSH2 0x2DB1 JUMP JUMPDEST SWAP2 POP DUP2 SWAP1 POP SWAP3 SWAP2 POP POP JUMP JUMPDEST PUSH32 0x4E487B7100000000000000000000000000000000000000000000000000000000 PUSH1 0x0 MSTORE PUSH1 0x32 PUSH1 0x4 MSTORE PUSH1 0x24 PUSH1 0x0 REVERT JUMPDEST PUSH32 0x4E487B7100000000000000000000000000000000000000000000000000000000 PUSH1 0x0 MSTORE PUSH1 0x22 PUSH1 0x4 MSTORE PUSH1 0x24 PUSH1 0x0 REVERT JUMPDEST PUSH1 0x0 PUSH1 0x2 DUP3 DIV SWAP1 POP PUSH1 0x1 DUP3 AND DUP1 PUSH2 0x2E95 JUMPI PUSH1 0x7F DUP3 AND SWAP2 POP JUMPDEST PUSH1 0x20 DUP3 LT DUP2 SUB PUSH2 0x2EA8 JUMPI PUSH2 0x2EA7 PUSH2 0x2E4E JUMP JUMPDEST JUMPDEST POP SWAP2 SWAP1 POP JUMP JUMPDEST PUSH1 0x0 DUP2 SWAP1 POP SWAP3 SWAP2 POP POP JUMP JUMPDEST PUSH1 0x0 DUP2 SWAP1 POP DUP2 PUSH1 0x0 MSTORE PUSH1 0x20 PUSH1 0x0 KECCAK256 SWAP1 POP SWAP2 SWAP1 POP JUMP JUMPDEST PUSH1 0x0 DUP2 SLOAD PUSH2 0x2EDB DUP2 PUSH2 0x2E7D JUMP JUMPDEST PUSH2 0x2EE5 DUP2 DUP7 PUSH2 0x2EAE JUMP JUMPDEST SWAP5 POP PUSH1 0x1 DUP3 AND PUSH1 0x0 DUP2 EQ PUSH2 0x2F00 JUMPI PUSH1 0x1 DUP2 EQ PUSH2 0x2F15 JUMPI PUSH2 0x2F48 JUMP JUMPDEST PUSH1 0xFF NOT DUP4 AND DUP7 MSTORE DUP2 ISZERO ISZERO DUP3 MUL DUP7 ADD SWAP4 POP PUSH2 0x2F48 JUMP JUMPDEST PUSH2 0x2F1E DUP6 PUSH2 0x2EB9 JUMP JUMPDEST PUSH1 0x0 JUMPDEST DUP4 DUP2 LT ISZERO PUSH2 0x2F40 JUMPI DUP2 SLOAD DUP2 DUP10 ADD MSTORE PUSH1 0x1 DUP3 ADD SWAP2 POP PUSH1 0x20 DUP2 ADD SWAP1 POP PUSH2 0x2F21 JUMP JUMPDEST DUP4 DUP9 ADD SWAP6 POP POP POP JUMPDEST POP POP POP SWAP3 SWAP2 POP POP JUMP JUMPDEST PUSH1 0x0 PUSH2 0x2F5D DUP3 DUP5 PUSH2 0x2ECE JUMP JUMPDEST SWAP2 POP DUP2 SWAP1 POP SWAP3 SWAP2 POP POP JUMP JUMPDEST PUSH32 0x4E487B7100000000000000000000000000000000000000000000000000000000 PUSH1 0x0 MSTORE PUSH1 0x11 PUSH1 0x4 MSTORE PUSH1 0x24 PUSH1 0x0 REVERT JUMPDEST PUSH1 0x0 PUSH2 0x2FA2 DUP3 PUSH2 0x22E2 JUMP JUMPDEST SWAP2 POP PUSH32 0xFFFFFFFFFFFFFFFFFFFFFFFFFFFFFFFFFFFFFFFFFFFFFFFFFFFFFFFFFFFFFFFF DUP3 SUB PUSH2 0x2FD4 JUMPI PUSH2 0x2FD3 PUSH2 0x2F68 JUMP JUMPDEST JUMPDEST PUSH1 0x1 DUP3 ADD SWAP1 POP SWAP2 SWAP1 POP JUMP JUMPDEST PUSH1 0x0 DUP2 SWAP1 POP DUP2 PUSH1 0x0 MSTORE PUSH1 0x20 PUSH1 0x0 KECCAK256 SWAP1 POP SWAP2 SWAP1 POP JUMP JUMPDEST PUSH1 0x0 PUSH1 0x20 PUSH1 0x1F DUP4 ADD DIV SWAP1 POP SWAP2 SWAP1 POP JUMP JUMPDEST PUSH1 0x0 DUP3 DUP3 SHL SWAP1 POP SWAP3 SWAP2 POP POP JUMP JUMPDEST PUSH1 0x0 PUSH1 0x8 DUP4 MUL PUSH2 0x3041 PUSH32 0xFFFFFFFFFFFFFFFFFFFFFFFFFFFFFFFFFFFFFFFFFFFFFFFFFFFFFFFFFFFFFFFF DUP3 PUSH2 0x3004 JUMP JUMPDEST PUSH2 0x304B DUP7 DUP4 PUSH2 0x3004 JUMP JUMPDEST SWAP6 POP DUP1 NOT DUP5 AND SWAP4 POP DUP1 DUP7 AND DUP5 OR SWAP3 POP POP POP SWAP4 SWAP3 POP POP POP JUMP JUMPDEST PUSH1 0x0 DUP2 SWAP1 POP SWAP2 SWAP1 POP JUMP JUMPDEST PUSH1 0x0 PUSH2 0x3088 PUSH2 0x3083 PUSH2 0x307E DUP5 PUSH2 0x22E2 JUMP JUMPDEST PUSH2 0x3063 JUMP JUMPDEST PUSH2 0x22E2 JUMP JUMPDEST SWAP1 POP SWAP2 SWAP1 POP JUMP JUMPDEST PUSH1 0x0 DUP2 SWAP1 POP SWAP2 SWAP1 POP JUMP JUMPDEST PUSH2 0x30A2 DUP4 PUSH2 0x306D JUMP JUMPDEST PUSH2 0x30B6 PUSH2 0x30AE DUP3 PUSH2 0x308F JUMP JUMPDEST DUP5 DUP5 SLOAD PUSH2 0x3011 JUMP JUMPDEST DUP3 SSTORE POP POP POP POP JUMP JUMPDEST PUSH1 0x0 SWAP1 JUMP JUMPDEST PUSH2 0x30CB PUSH2 0x30BE JUMP JUMPDEST PUSH2 0x30D6 DUP2 DUP5 DUP5 PUSH2 0x3099 JUMP JUMPDEST POP POP POP JUMP JUMPDEST JUMPDEST DUP2 DUP2 LT ISZERO PUSH2 0x30FA JUMPI PUSH2 0x30EF PUSH1 0x0 DUP3 PUSH2 0x30C3 JUMP JUMPDEST PUSH1 0x1 DUP2 ADD SWAP1 POP PUSH2 0x30DC JUMP JUMPDEST POP POP JUMP JUMPDEST PUSH1 0x1F DUP3 GT ISZERO PUSH2 0x313F JUMPI PUSH2 0x3110 DUP2 PUSH2 0x2FDF JUMP JUMPDEST PUSH2 0x3119 DUP5 PUSH2 0x2FF4 JUMP JUMPDEST DUP2 ADD PUSH1 0x20 DUP6 LT ISZERO PUSH2 0x3128 JUMPI DUP2 SWAP1 POP JUMPDEST PUSH2 0x313C PUSH2 0x3134 DUP6 PUSH2 0x2FF4 JUMP JUMPDEST DUP4 ADD DUP3 PUSH2 0x30DB JUMP JUMPDEST POP POP JUMPDEST POP POP POP JUMP JUMPDEST PUSH1 0x0 DUP3 DUP3 SHR SWAP1 POP SWAP3 SWAP2 POP POP JUMP JUMPDEST PUSH1 0x0 PUSH2 0x3162 PUSH1 0x0 NOT DUP5 PUSH1 0x8 MUL PUSH2 0x3144 JUMP JUMPDEST NOT DUP1 DUP4 AND SWAP2 POP POP SWAP3 SWAP2 POP POP JUMP JUMPDEST PUSH1 0x0 PUSH2 0x317B DUP4 DUP4 PUSH2 0x3151 JUMP JUMPDEST SWAP2 POP DUP3 PUSH1 0x2 MUL DUP3 OR SWAP1 POP SWAP3 SWAP2 POP POP JUMP JUMPDEST PUSH2 0x3194 DUP3 PUSH2 0x24E5 JUMP JUMPDEST PUSH8 0xFFFFFFFFFFFFFFFF DUP2 GT ISZERO PUSH2 0x31AD JUMPI PUSH2 0x31AC PUSH2 0x2345 JUMP JUMPDEST JUMPDEST PUSH2 0x31B7 DUP3 SLOAD PUSH2 0x2E7D JUMP JUMPDEST PUSH2 0x31C2 DUP3 DUP3 DUP6 PUSH2 0x30FE JUMP JUMPDEST PUSH1 0x0 PUSH1 0x20 SWAP1 POP PUSH1 0x1F DUP4 GT PUSH1 0x1 DUP2 EQ PUSH2 0x31F5 JUMPI PUSH1 0x0 DUP5 ISZERO PUSH2 0x31E3 JUMPI DUP3 DUP8 ADD MLOAD SWAP1 POP JUMPDEST PUSH2 0x31ED DUP6 DUP3 PUSH2 0x316F JUMP JUMPDEST DUP7 SSTORE POP PUSH2 0x3255 JUMP JUMPDEST PUSH1 0x1F NOT DUP5 AND PUSH2 0x3203 DUP7 PUSH2 0x2FDF JUMP JUMPDEST PUSH1 0x0 JUMPDEST DUP3 DUP2 LT ISZERO PUSH2 0x322B JUMPI DUP5 DUP10 ADD MLOAD DUP3 SSTORE PUSH1 0x1 DUP3 ADD SWAP2 POP PUSH1 0x20 DUP6 ADD SWAP5 POP PUSH1 0x20 DUP2 ADD SWAP1 POP PUSH2 0x3206 JUMP JUMPDEST DUP7 DUP4 LT ISZERO PUSH2 0x3248 JUMPI DUP5 DUP10 ADD MLOAD PUSH2 0x3244 PUSH1 0x1F DUP10 AND DUP3 PUSH2 0x3151 JUMP JUMPDEST DUP4 SSTORE POP JUMPDEST PUSH1 0x1 PUSH1 0x2 DUP9 MUL ADD DUP9 SSTORE POP POP POP JUMPDEST POP POP POP POP POP POP JUMP JUMPDEST PUSH1 0x0 PUSH1 0xFF DUP3 AND SWAP1 POP SWAP2 SWAP1 POP JUMP JUMPDEST PUSH1 0x0 PUSH2 0x3275 DUP3 PUSH2 0x325D JUMP JUMPDEST SWAP2 POP PUSH2 0x3280 DUP4 PUSH2 0x325D JUMP JUMPDEST SWAP3 POP DUP3 DUP3 SUB SWAP1 POP PUSH1 0xFF DUP2 GT ISZERO PUSH2 0x3299 JUMPI PUSH2 0x3298 PUSH2 0x2F68 JUMP JUMPDEST JUMPDEST SWAP3 SWAP2 POP POP JUMP JUMPDEST PUSH1 0x0 PUSH2 0x32AA DUP3 PUSH2 0x22E2 JUMP JUMPDEST SWAP2 POP PUSH2 0x32B5 DUP4 PUSH2 0x22E2 JUMP JUMPDEST SWAP3 POP DUP3 DUP3 SUB SWAP1 POP DUP2 DUP2 GT ISZERO PUSH2 0x32CD JUMPI PUSH2 0x32CC PUSH2 0x2F68 JUMP JUMPDEST JUMPDEST SWAP3 SWAP2 POP POP JUMP JUMPDEST PUSH1 0x0 DUP2 PUSH1 0x1 SHR SWAP1 POP SWAP2 SWAP1 POP JUMP JUMPDEST PUSH1 0x0 DUP1 DUP3 SWAP2 POP DUP4 SWAP1 POP JUMPDEST PUSH1 0x1 DUP6 GT ISZERO PUSH2 0x332A JUMPI DUP1 DUP7 DIV DUP2 GT ISZERO PUSH2 0x3306 JUMPI PUSH2 0x3305 PUSH2 0x2F68 JUMP JUMPDEST JUMPDEST PUSH1 0x1 DUP6 AND ISZERO PUSH2 0x3315 JUMPI DUP1 DUP3 MUL SWAP2 POP JUMPDEST DUP1 DUP2 MUL SWAP1 POP PUSH2 0x3323 DUP6 PUSH2 0x32D3 JUMP JUMPDEST SWAP5 POP PUSH2 0x32EA JUMP JUMPDEST SWAP5 POP SWAP5 SWAP3 POP POP POP JUMP JUMPDEST PUSH1 0x0 DUP3 PUSH2 0x3343 JUMPI PUSH1 0x1 SWAP1 POP PUSH2 0x33FF JUMP JUMPDEST DUP2 PUSH2 0x3351 JUMPI PUSH1 0x0 SWAP1 POP PUSH2 0x33FF JUMP JUMPDEST DUP2 PUSH1 0x1 DUP2 EQ PUSH2 0x3367 JUMPI PUSH1 0x2 DUP2 EQ PUSH2 0x3371 JUMPI PUSH2 0x33A0 JUMP JUMPDEST PUSH1 0x1 SWAP2 POP POP PUSH2 0x33FF JUMP JUMPDEST PUSH1 0xFF DUP5 GT ISZERO PUSH2 0x3383 JUMPI PUSH2 0x3382 PUSH2 0x2F68 JUMP JUMPDEST JUMPDEST DUP4 PUSH1 0x2 EXP SWAP2 POP DUP5 DUP3 GT ISZERO PUSH2 0x339A JUMPI PUSH2 0x3399 PUSH2 0x2F68 JUMP JUMPDEST JUMPDEST POP PUSH2 0x33FF JUMP JUMPDEST POP PUSH1 0x20 DUP4 LT PUSH2 0x133 DUP4 LT AND PUSH1 0x4E DUP5 LT PUSH1 0xB DUP5 LT AND OR ISZERO PUSH2 0x33D5 JUMPI DUP3 DUP3 EXP SWAP1 POP DUP4 DUP2 GT ISZERO PUSH2 0x33D0 JUMPI PUSH2 0x33CF PUSH2 0x2F68 JUMP JUMPDEST JUMPDEST PUSH2 0x33FF JUMP JUMPDEST PUSH2 0x33E2 DUP5 DUP5 DUP5 PUSH1 0x1 PUSH2 0x32E0 JUMP JUMPDEST SWAP3 POP SWAP1 POP DUP2 DUP5 DIV DUP2 GT ISZERO PUSH2 0x33F9 JUMPI PUSH2 0x33F8 PUSH2 0x2F68 JUMP JUMPDEST JUMPDEST DUP2 DUP2 MUL SWAP1 POP JUMPDEST SWAP4 SWAP3 POP POP POP JUMP JUMPDEST PUSH1 0x0 PUSH2 0x3411 DUP3 PUSH2 0x22E2 JUMP JUMPDEST SWAP2 POP PUSH2 0x341C DUP4 PUSH2 0x22E2 JUMP JUMPDEST SWAP3 POP PUSH2 0x3449 PUSH32 0xFFFFFFFFFFFFFFFFFFFFFFFFFFFFFFFFFFFFFFFFFFFFFFFFFFFFFFFFFFFFFFFF DUP5 DUP5 PUSH2 0x3333 JUMP JUMPDEST SWAP1 POP SWAP3 SWAP2 POP POP JUMP JUMPDEST PUSH1 0x0 PUSH2 0x345C DUP3 PUSH2 0x22E2 JUMP JUMPDEST SWAP2 POP PUSH2 0x3467 DUP4 PUSH2 0x22E2 JUMP JUMPDEST SWAP3 POP DUP3 DUP3 MUL PUSH2 0x3475 DUP2 PUSH2 0x22E2 JUMP JUMPDEST SWAP2 POP DUP3 DUP3 DIV DUP5 EQ DUP4 ISZERO OR PUSH2 0x348C JUMPI PUSH2 0x348B PUSH2 0x2F68 JUMP JUMPDEST JUMPDEST POP SWAP3 SWAP2 POP POP JUMP JUMPDEST PUSH1 0x0 PUSH2 0x349E DUP3 PUSH2 0x22E2 JUMP JUMPDEST SWAP2 POP PUSH2 0x34A9 DUP4 PUSH2 0x22E2 JUMP JUMPDEST SWAP3 POP DUP3 DUP3 ADD SWAP1 POP DUP1 DUP3 GT ISZERO PUSH2 0x34C1 JUMPI PUSH2 0x34C0 PUSH2 0x2F68 JUMP JUMPDEST JUMPDEST SWAP3 SWAP2 POP POP JUMP JUMPDEST PUSH32 0x4E487B7100000000000000000000000000000000000000000000000000000000 PUSH1 0x0 MSTORE PUSH1 0x12 PUSH1 0x4 MSTORE PUSH1 0x24 PUSH1 0x0 REVERT INVALID LOG2 PUSH5 0x6970667358 0x22 SLT KECCAK256 DIFFICULTY SWAP13 0xDC SMOD SWAP15 0x5C 0xDE PUSH2 0x9269 SUB DUP12 PUSH5 0xF9EF031827 0xEA 0xC7 JUMP 0xE1 0xB3 EXTCODEHASH 0xA6 RETURNDATACOPY TIMESTAMP SDIV MLOAD 0x4E SSTORE PUSH24 0x64736F6C6343000811003300000000000000000000000000 "},"gasEstimates":{"creation":{"codeDepositCost":"2722400","executionCost":"2961","totalCost":"2725361"},"external":{"AllEventEndTime(string)":"infinite","BidURI(string)":"infinite","TokenHighestBidders(uint256)":"infinite","_EventTokenSearchIds()":"2476","_SearchedStore(string,uint256)":"infinite","_getSearchedTokenURI(string)":"infinite","_setBidURI(string,string)":"infinite","_setEventRaised(string,string)":"infinite","_setEventURI(string,string,string)":"infinite","_setTokenBid(uint256,string,string)":"infinite","_setTokenEvent(uint256,string,string)":"infinite","_setTokenHighestBid(string,string,address,string)":"infinite","_setTokenURI(string,string)":"infinite","claimToken(address,string,string)":"infinite","createBid(string,string,string,string,string)":"infinite","createEvent(string,string,uint256)":"infinite","distribute_event(string)":"infinite","eventURI(string)":"infinite","getBidIdByUri(string)":"infinite","getBidsSearchToken(string)":"infinite","getEventIdByURI(string)":"infinite","getEventRaised(string)":"infinite","getGetEventsTokenID(string,string)":"infinite","getSearchEventbyWallet(string)":"infinite","getTokenHighestBid(string)":"infinite","getTotalBid(string)":"infinite","gettokenIdByUri(string)":"infinite","gettokenSearchEventTotal(string)":"infinite","strToUint(string)":"infinite","tokenURI(string)":"infinite","totalEvent()":"2549","totalSupply()":"2506"}},"methodIdentifiers":{"AllEventEndTime(string)":"3358f45b","BidURI(string)":"5f08c6b5","TokenHighestBidders(uint256)":"70881e72","_EventTokenSearchIds()":"144cbca6","_SearchedStore(string,uint256)":"8c2715b7","_getSearchedTokenURI(string)":"eacb4a74","_setBidURI(string,string)":"df6b96c7","_setEventRaised(string,string)":"282e5e81","_setEventURI(string,string,string)":"bfee6f8e","_setTokenBid(uint256,string,string)":"5457bbf9","_setTokenEvent(uint256,string,string)":"b91e924f","_setTokenHighestBid(string,string,address,string)":"ce65e748","_setTokenURI(string,string)":"7ab4ab6e","claimToken(address,string,string)":"2bde1581","createBid(string,string,string,string,string)":"f7e34095","createEvent(string,string,uint256)":"5555fe17","distribute_event(string)":"545fa9ec","eventURI(string)":"6ebb4d87","getBidIdByUri(string)":"d45fc516","getBidsSearchToken(string)":"25c11f74","getEventIdByURI(string)":"304b16db","getEventRaised(string)":"a42a665c","getGetEventsTokenID(string,string)":"783db260","getSearchEventbyWallet(string)":"1e65e117","getTokenHighestBid(string)":"6beee9d7","getTotalBid(string)":"2a0d0373","gettokenIdByUri(string)":"932a196b","gettokenSearchEventTotal(string)":"d0fb8699","strToUint(string)":"c5ef3ec5","tokenURI(string)":"4cf12d26","totalEvent()":"7eadfa6a","totalSupply()":"18160ddd"}},"storageLayout":{"storage":[{"astId":1231,"contract":"contracts/PolkaGift.sol:PolkaGift","label":"_tokenIds","offset":0,"slot":"0","type":"t_uint256"},{"astId":1233,"contract":"contracts/PolkaGift.sol:PolkaGift","label":"_bidIds","offset":0,"slot":"1","type":"t_uint256"},{"astId":1235,"contract":"contracts/PolkaGift.sol:PolkaGift","label":"_eventIds","offset":0,"slot":"2","type":"t_uint256"},{"astId":1237,"contract":"contracts/PolkaGift.sol:PolkaGift","label":"_EventTokenIds","offset":0,"slot":"3","type":"t_uint256"},{"astId":1239,"contract":"contracts/PolkaGift.sol:PolkaGift","label":"_TokenBidIds","offset":0,"slot":"4","type":"t_uint256"},{"astId":1241,"contract":"contracts/PolkaGift.sol:PolkaGift","label":"_TokenHighestBidIds","offset":0,"slot":"5","type":"t_uint256"},{"astId":1243,"contract":"contracts/PolkaGift.sol:PolkaGift","label":"_EventTokenSearchIds","offset":0,"slot":"6","type":"t_uint256"},{"astId":1247,"contract":"contracts/PolkaGift.sol:PolkaGift","label":"AllEventEndTime","offset":0,"slot":"7","type":"t_mapping(t_string_memory_ptr,t_bool)"},{"astId":1252,"contract":"contracts/PolkaGift.sol:PolkaGift","label":"AllEventTokens","offset":0,"slot":"8","type":"t_mapping(t_uint256,t_struct(event_token_struct)1222_storage)"},{"astId":1257,"contract":"contracts/PolkaGift.sol:PolkaGift","label":"AllTokensBids","offset":0,"slot":"9","type":"t_mapping(t_uint256,t_struct(token_bid_struct)1229_storage)"},{"astId":1262,"contract":"contracts/PolkaGift.sol:PolkaGift","label":"TokenHighestBidders","offset":0,"slot":"10","type":"t_mapping(t_uint256,t_struct(highest_bidder_struct)1215_storage)"},{"astId":1268,"contract":"contracts/PolkaGift.sol:PolkaGift","label":"_SearchedStore","offset":0,"slot":"11","type":"t_mapping(t_string_memory_ptr,t_array(t_string_storage)2_storage)"},{"astId":1272,"contract":"contracts/PolkaGift.sol:PolkaGift","label":"_bidURIs","offset":0,"slot":"12","type":"t_mapping(t_string_memory_ptr,t_string_storage)"},{"astId":1276,"contract":"contracts/PolkaGift.sol:PolkaGift","label":"_tokenURIs","offset":0,"slot":"13","type":"t_mapping(t_string_memory_ptr,t_string_storage)"},{"astId":1282,"contract":"contracts/PolkaGift.sol:PolkaGift","label":"_eventURIs","offset":0,"slot":"14","type":"t_mapping(t_string_memory_ptr,t_array(t_string_storage)2_storage)"},{"astId":1286,"contract":"contracts/PolkaGift.sol:PolkaGift","label":"_eventRaised","offset":0,"slot":"15","type":"t_mapping(t_string_memory_ptr,t_string_storage)"}],"types":{"t_address":{"encoding":"inplace","label":"address","numberOfBytes":"20"},"t_array(t_string_storage)2_storage":{"base":"t_string_storage","encoding":"inplace","label":"string[2]","numberOfBytes":"64"},"t_bool":{"encoding":"inplace","label":"bool","numberOfBytes":"1"},"t_mapping(t_string_memory_ptr,t_array(t_string_storage)2_storage)":{"encoding":"mapping","key":"t_string_memory_ptr","label":"mapping(string => string[2])","numberOfBytes":"32","value":"t_array(t_string_storage)2_storage"},"t_mapping(t_string_memory_ptr,t_bool)":{"encoding":"mapping","key":"t_string_memory_ptr","label":"mapping(string => bool)","numberOfBytes":"32","value":"t_bool"},"t_mapping(t_string_memory_ptr,t_string_storage)":{"encoding":"mapping","key":"t_string_memory_ptr","label":"mapping(string => string)","numberOfBytes":"32","value":"t_string_storage"},"t_mapping(t_uint256,t_struct(event_token_struct)1222_storage)":{"encoding":"mapping","key":"t_uint256","label":"mapping(uint256 => struct PolkaGift.event_token_struct)","numberOfBytes":"32","value":"t_struct(event_token_struct)1222_storage"},"t_mapping(t_uint256,t_struct(highest_bidder_struct)1215_storage)":{"encoding":"mapping","key":"t_uint256","label":"mapping(uint256 => struct PolkaGift.highest_bidder_struct)","numberOfBytes":"32","value":"t_struct(highest_bidder_struct)1215_storage"},"t_mapping(t_uint256,t_struct(token_bid_struct)1229_storage)":{"encoding":"mapping","key":"t_uint256","label":"mapping(uint256 => struct PolkaGift.token_bid_struct)","numberOfBytes":"32","value":"t_struct(token_bid_struct)1229_storage"},"t_string_memory_ptr":{"encoding":"bytes","label":"string","numberOfBytes":"32"},"t_string_storage":{"encoding":"bytes","label":"string","numberOfBytes":"32"},"t_struct(event_token_struct)1222_storage":{"encoding":"inplace","label":"struct PolkaGift.event_token_struct","members":[{"astId":1218,"contract":"contracts/PolkaGift.sol:PolkaGift","label":"event_id","offset":0,"slot":"0","type":"t_string_storage"},{"astId":1221,"contract":"contracts/PolkaGift.sol:PolkaGift","label":"token_uri","offset":0,"slot":"1","type":"t_string_storage"}],"numberOfBytes":"64"},"t_struct(highest_bidder_struct)1215_storage":{"encoding":"inplace","label":"struct PolkaGift.highest_bidder_struct","members":[{"astId":1205,"contract":"contracts/PolkaGift.sol:PolkaGift","label":"token_id","offset":0,"slot":"0","type":"t_string_storage"},{"astId":1208,"contract":"contracts/PolkaGift.sol:PolkaGift","label":"event_id","offset":0,"slot":"1","type":"t_string_storage"},{"astId":1211,"contract":"contracts/PolkaGift.sol:PolkaGift","label":"wallet","offset":0,"slot":"2","type":"t_address"},{"astId":1214,"contract":"contracts/PolkaGift.sol:PolkaGift","label":"price","offset":0,"slot":"3","type":"t_string_storage"}],"numberOfBytes":"128"},"t_struct(token_bid_struct)1229_storage":{"encoding":"inplace","label":"struct PolkaGift.token_bid_struct","members":[{"astId":1225,"contract":"contracts/PolkaGift.sol:PolkaGift","label":"token_id","offset":0,"slot":"0","type":"t_string_storage"},{"astId":1228,"contract":"contracts/PolkaGift.sol:PolkaGift","label":"bid_uri","offset":0,"slot":"1","type":"t_string_storage"}],"numberOfBytes":"64"},"t_uint256":{"encoding":"inplace","label":"uint256","numberOfBytes":"32"}}},"userdoc":{"kind":"user","methods":{},"version":1}}}}