{
  "_format": "hh-sol-artifact-1",
  "contractName": "CredibilityStaking",
  "sourceName": "contracts/MintableERC20.sol",
  "abi": [
    {
      "inputs": [
        {
          "internalType": "address",
          "name": "_stakingToken",
          "type": "address"
        }
      ],
      "stateMutability": "nonpayable",
      "type": "constructor"
    },
    {
      "inputs": [
        {
          "internalType": "address",
          "name": "owner",
          "type": "address"
        }
      ],
      "name": "OwnableInvalidOwner",
      "type": "error"
    },
    {
      "inputs": [
        {
          "internalType": "address",
          "name": "account",
          "type": "address"
        }
      ],
      "name": "OwnableUnauthorizedAccount",
      "type": "error"
    },
    {
      "inputs": [],
      "name": "ReentrancyGuardReentrantCall",
      "type": "error"
    },
    {
      "anonymous": false,
      "inputs": [
        {
          "indexed": true,
          "internalType": "address",
          "name": "user",
          "type": "address"
        },
        {
          "indexed": false,
          "internalType": "uint256",
          "name": "points",
          "type": "uint256"
        }
      ],
      "name": "CredibilityPointsUpdated",
      "type": "event"
    },
    {
      "anonymous": false,
      "inputs": [
        {
          "indexed": true,
          "internalType": "address",
          "name": "previousOwner",
          "type": "address"
        },
        {
          "indexed": true,
          "internalType": "address",
          "name": "newOwner",
          "type": "address"
        }
      ],
      "name": "OwnershipTransferred",
      "type": "event"
    },
    {
      "anonymous": false,
      "inputs": [
        {
          "indexed": true,
          "internalType": "address",
          "name": "user",
          "type": "address"
        },
        {
          "indexed": false,
          "internalType": "uint256",
          "name": "amount",
          "type": "uint256"
        }
      ],
      "name": "Staked",
      "type": "event"
    },
    {
      "anonymous": false,
      "inputs": [
        {
          "indexed": true,
          "internalType": "address",
          "name": "staker",
          "type": "address"
        },
        {
          "indexed": true,
          "internalType": "address",
          "name": "friend",
          "type": "address"
        },
        {
          "indexed": false,
          "internalType": "uint256",
          "name": "amount",
          "type": "uint256"
        }
      ],
      "name": "StakedForFriend",
      "type": "event"
    },
    {
      "anonymous": false,
      "inputs": [
        {
          "indexed": true,
          "internalType": "address",
          "name": "user",
          "type": "address"
        },
        {
          "indexed": false,
          "internalType": "uint256",
          "name": "amount",
          "type": "uint256"
        }
      ],
      "name": "Unstaked",
      "type": "event"
    },
    {
      "inputs": [],
      "name": "CREDIBILITY_POINTS_PER_DAY",
      "outputs": [
        {
          "internalType": "uint256",
          "name": "",
          "type": "uint256"
        }
      ],
      "stateMutability": "view",
      "type": "function"
    },
    {
      "inputs": [
        {
          "internalType": "address",
          "name": "",
          "type": "address"
        },
        {
          "internalType": "address",
          "name": "",
          "type": "address"
        }
      ],
      "name": "delegatedStakes",
      "outputs": [
        {
          "internalType": "uint256",
          "name": "",
          "type": "uint256"
        }
      ],
      "stateMutability": "view",
      "type": "function"
    },
    {
      "inputs": [
        {
          "internalType": "address",
          "name": "_user",
          "type": "address"
        }
      ],
      "name": "getStakeInfo",
      "outputs": [
        {
          "internalType": "uint256",
          "name": "amount",
          "type": "uint256"
        },
        {
          "internalType": "uint256",
          "name": "timestamp",
          "type": "uint256"
        },
        {
          "internalType": "uint256",
          "name": "credibilityPoints",
          "type": "uint256"
        }
      ],
      "stateMutability": "view",
      "type": "function"
    },
    {
      "inputs": [],
      "name": "owner",
      "outputs": [
        {
          "internalType": "address",
          "name": "",
          "type": "address"
        }
      ],
      "stateMutability": "view",
      "type": "function"
    },
    {
      "inputs": [],
      "name": "renounceOwnership",
      "outputs": [],
      "stateMutability": "nonpayable",
      "type": "function"
    },
    {
      "inputs": [
        {
          "internalType": "uint256",
          "name": "_amount",
          "type": "uint256"
        }
      ],
      "name": "stake",
      "outputs": [],
      "stateMutability": "nonpayable",
      "type": "function"
    },
    {
      "inputs": [
        {
          "internalType": "address",
          "name": "_friend",
          "type": "address"
        },
        {
          "internalType": "uint256",
          "name": "_amount",
          "type": "uint256"
        }
      ],
      "name": "stakeForFriend",
      "outputs": [],
      "stateMutability": "nonpayable",
      "type": "function"
    },
    {
      "inputs": [
        {
          "internalType": "address",
          "name": "",
          "type": "address"
        }
      ],
      "name": "stakes",
      "outputs": [
        {
          "internalType": "uint256",
          "name": "amount",
          "type": "uint256"
        },
        {
          "internalType": "uint256",
          "name": "timestamp",
          "type": "uint256"
        },
        {
          "internalType": "uint256",
          "name": "credibilityPoints",
          "type": "uint256"
        }
      ],
      "stateMutability": "view",
      "type": "function"
    },
    {
      "inputs": [],
      "name": "stakingToken",
      "outputs": [
        {
          "internalType": "contract IERC20",
          "name": "",
          "type": "address"
        }
      ],
      "stateMutability": "view",
      "type": "function"
    },
    {
      "inputs": [],
      "name": "totalStaked",
      "outputs": [
        {
          "internalType": "uint256",
          "name": "",
          "type": "uint256"
        }
      ],
      "stateMutability": "view",
      "type": "function"
    },
    {
      "inputs": [
        {
          "internalType": "address",
          "name": "newOwner",
          "type": "address"
        }
      ],
      "name": "transferOwnership",
      "outputs": [],
      "stateMutability": "nonpayable",
      "type": "function"
    },
    {
      "inputs": [
        {
          "internalType": "uint256",
          "name": "_amount",
          "type": "uint256"
        }
      ],
      "name": "unstake",
      "outputs": [],
      "stateMutability": "nonpayable",
      "type": "function"
    },
    {
      "inputs": [],
      "name": "updateCredibilityPoints",
      "outputs": [],
      "stateMutability": "nonpayable",
      "type": "function"
    }
  ],
  "bytecode": "0x608060405234801561001057600080fd5b506040516116f03803806116f08339818101604052810190610032919061022a565b33600073ffffffffffffffffffffffffffffffffffffffff168173ffffffffffffffffffffffffffffffffffffffff16036100a55760006040517f1e4fbdf700000000000000000000000000000000000000000000000000000000815260040161009c9190610266565b60405180910390fd5b6100b48161010360201b60201c565b506001808190555080600260006101000a81548173ffffffffffffffffffffffffffffffffffffffff021916908373ffffffffffffffffffffffffffffffffffffffff16021790555050610281565b60008060009054906101000a900473ffffffffffffffffffffffffffffffffffffffff169050816000806101000a81548173ffffffffffffffffffffffffffffffffffffffff021916908373ffffffffffffffffffffffffffffffffffffffff1602179055508173ffffffffffffffffffffffffffffffffffffffff168173ffffffffffffffffffffffffffffffffffffffff167f8be0079c531659141344cd1fd0a4f28419497f9722a3daafe3b4186f6b6457e060405160405180910390a35050565b600080fd5b600073ffffffffffffffffffffffffffffffffffffffff82169050919050565b60006101f7826101cc565b9050919050565b610207816101ec565b811461021257600080fd5b50565b600081519050610224816101fe565b92915050565b6000602082840312156102405761023f6101c7565b5b600061024e84828501610215565b91505092915050565b610260816101ec565b82525050565b600060208201905061027b6000830184610257565b92915050565b611460806102906000396000f3fe608060405234801561001057600080fd5b50600436106100cf5760003560e01c806372f702f31161008c578063a694fc3a11610066578063a694fc3a146101ca578063bd26969a146101e6578063c345315314610216578063f2fde38b14610248576100cf565b806372f702f314610170578063817b1cd21461018e5780638da5cb5b146101ac576100cf565b806316934fc4146100d45780632e17de7814610106578063307a58a71461012257806363585dca1461014057806366b12c8a1461015c578063715018a614610166575b600080fd5b6100ee60048036038101906100e99190610e9c565b610264565b6040516100fd93929190610ee2565b60405180910390f35b610120600480360381019061011b9190610f45565b61028e565b005b61012a6104c5565b6040516101379190610f72565b60405180910390f35b61015a60048036038101906101559190610f8d565b6104ca565b005b610164610713565b005b61016e6108b8565b005b6101786108cc565b604051610185919061102c565b60405180910390f35b6101966108f2565b6040516101a39190610f72565b60405180910390f35b6101b46108f8565b6040516101c19190611056565b60405180910390f35b6101e460048036038101906101df9190610f45565b610921565b005b61020060048036038101906101fb9190611071565b610b5f565b60405161020d9190610f72565b60405180910390f35b610230600480360381019061022b9190610e9c565b610b84565b60405161023f93929190610ee2565b60405180910390f35b610262600480360381019061025d9190610e9c565b610c11565b005b60036020528060005260406000206000915090508060000154908060010154908060020154905083565b610296610c97565b80600360003373ffffffffffffffffffffffffffffffffffffffff1673ffffffffffffffffffffffffffffffffffffffff16815260200190815260200160002060000154101561031b576040517f08c379a00000000000000000000000000000000000000000000000000000000081526004016103129061110e565b60405180910390fd5b80600360003373ffffffffffffffffffffffffffffffffffffffff1673ffffffffffffffffffffffffffffffffffffffff168152602001908152602001600020600001600082825461036d919061115d565b925050819055508060056000828254610386919061115d565b92505081905550600260009054906101000a900473ffffffffffffffffffffffffffffffffffffffff1673ffffffffffffffffffffffffffffffffffffffff1663a9059cbb33836040518363ffffffff1660e01b81526004016103ea929190611191565b6020604051808303816000875af1158015610409573d6000803e3d6000fd5b505050506040513d601f19601f8201168201806040525081019061042d91906111f2565b61046c576040517f08c379a00000000000000000000000000000000000000000000000000000000081526004016104639061126b565b60405180910390fd5b3373ffffffffffffffffffffffffffffffffffffffff167f0f5bb82176feb1b5e747e28471aa92156a04d9f3ab9f45f28e2d704232b93f75826040516104b29190610f72565b60405180910390a26104c2610cdd565b50565b600181565b6104d2610c97565b60008111610515576040517f08c379a000000000000000000000000000000000000000000000000000000000815260040161050c906112fd565b60405180910390fd5b600260009054906101000a900473ffffffffffffffffffffffffffffffffffffffff1673ffffffffffffffffffffffffffffffffffffffff166323b872dd3330846040518463ffffffff1660e01b81526004016105749392919061131d565b6020604051808303816000875af1158015610593573d6000803e3d6000fd5b505050506040513d601f19601f820116820180604052508101906105b791906111f2565b6105f6576040517f08c379a00000000000000000000000000000000000000000000000000000000081526004016105ed9061126b565b60405180910390fd5b80600460003373ffffffffffffffffffffffffffffffffffffffff1673ffffffffffffffffffffffffffffffffffffffff16815260200190815260200160002060008473ffffffffffffffffffffffffffffffffffffffff1673ffffffffffffffffffffffffffffffffffffffff16815260200190815260200160002060008282546106829190611354565b92505081905550806005600082825461069b9190611354565b925050819055508173ffffffffffffffffffffffffffffffffffffffff163373ffffffffffffffffffffffffffffffffffffffff167f5a0d1686729a184a098e6f3159c61fecc012e123b3253ace0ba02a83a85807c0836040516106ff9190610f72565b60405180910390a361070f610cdd565b5050565b600062015180600360003373ffffffffffffffffffffffffffffffffffffffff1673ffffffffffffffffffffffffffffffffffffffff1681526020019081526020016000206001015442610767919061115d565b61077191906113b7565b9050600060018261078291906113e8565b905080600360003373ffffffffffffffffffffffffffffffffffffffff1673ffffffffffffffffffffffffffffffffffffffff16815260200190815260200160002060020160008282546107d69190611354565b9250508190555042600360003373ffffffffffffffffffffffffffffffffffffffff1673ffffffffffffffffffffffffffffffffffffffff168152602001908152602001600020600101819055503373ffffffffffffffffffffffffffffffffffffffff167f229d6748c49ba819a5e52854c9eff521769c9675ebab371ca739724c4f747d0f600360003373ffffffffffffffffffffffffffffffffffffffff1673ffffffffffffffffffffffffffffffffffffffff168152602001908152602001600020600201546040516108ac9190610f72565b60405180910390a25050565b6108c0610ce6565b6108ca6000610d6d565b565b600260009054906101000a900473ffffffffffffffffffffffffffffffffffffffff1681565b60055481565b60008060009054906101000a900473ffffffffffffffffffffffffffffffffffffffff16905090565b610929610c97565b6000811161096c576040517f08c379a0000000000000000000000000000000000000000000000000000000008152600401610963906112fd565b60405180910390fd5b600260009054906101000a900473ffffffffffffffffffffffffffffffffffffffff1673ffffffffffffffffffffffffffffffffffffffff166323b872dd3330846040518463ffffffff1660e01b81526004016109cb9392919061131d565b6020604051808303816000875af11580156109ea573d6000803e3d6000fd5b505050506040513d601f19601f82011682018060405250810190610a0e91906111f2565b610a4d576040517f08c379a0000000000000000000000000000000000000000000000000000000008152600401610a449061126b565b60405180910390fd5b80600360003373ffffffffffffffffffffffffffffffffffffffff1673ffffffffffffffffffffffffffffffffffffffff1681526020019081526020016000206000016000828254610a9f9190611354565b9250508190555042600360003373ffffffffffffffffffffffffffffffffffffffff1673ffffffffffffffffffffffffffffffffffffffff168152602001908152602001600020600101819055508060056000828254610aff9190611354565b925050819055503373ffffffffffffffffffffffffffffffffffffffff167f9e71bc8eea02a63969f509818f2dafb9254532904319f9dbda79b67bd34a5f3d82604051610b4c9190610f72565b60405180910390a2610b5c610cdd565b50565b6004602052816000526040600020602052806000526040600020600091509150505481565b600080600080600360008673ffffffffffffffffffffffffffffffffffffffff1673ffffffffffffffffffffffffffffffffffffffff16815260200190815260200160002060405180606001604052908160008201548152602001600182015481526020016002820154815250509050806000015181602001518260400151935093509350509193909250565b610c19610ce6565b600073ffffffffffffffffffffffffffffffffffffffff168173ffffffffffffffffffffffffffffffffffffffff1603610c8b5760006040517f1e4fbdf7000000000000000000000000000000000000000000000000000000008152600401610c829190611056565b60405180910390fd5b610c9481610d6d565b50565b600260015403610cd3576040517f3ee5aeb500000000000000000000000000000000000000000000000000000000815260040160405180910390fd5b6002600181905550565b60018081905550565b610cee610e31565b73ffffffffffffffffffffffffffffffffffffffff16610d0c6108f8565b73ffffffffffffffffffffffffffffffffffffffff1614610d6b57610d2f610e31565b6040517f118cdaa7000000000000000000000000000000000000000000000000000000008152600401610d629190611056565b60405180910390fd5b565b60008060009054906101000a900473ffffffffffffffffffffffffffffffffffffffff169050816000806101000a81548173ffffffffffffffffffffffffffffffffffffffff021916908373ffffffffffffffffffffffffffffffffffffffff1602179055508173ffffffffffffffffffffffffffffffffffffffff168173ffffffffffffffffffffffffffffffffffffffff167f8be0079c531659141344cd1fd0a4f28419497f9722a3daafe3b4186f6b6457e060405160405180910390a35050565b600033905090565b600080fd5b600073ffffffffffffffffffffffffffffffffffffffff82169050919050565b6000610e6982610e3e565b9050919050565b610e7981610e5e565b8114610e8457600080fd5b50565b600081359050610e9681610e70565b92915050565b600060208284031215610eb257610eb1610e39565b5b6000610ec084828501610e87565b91505092915050565b6000819050919050565b610edc81610ec9565b82525050565b6000606082019050610ef76000830186610ed3565b610f046020830185610ed3565b610f116040830184610ed3565b949350505050565b610f2281610ec9565b8114610f2d57600080fd5b50565b600081359050610f3f81610f19565b92915050565b600060208284031215610f5b57610f5a610e39565b5b6000610f6984828501610f30565b91505092915050565b6000602082019050610f876000830184610ed3565b92915050565b60008060408385031215610fa457610fa3610e39565b5b6000610fb285828601610e87565b9250506020610fc385828601610f30565b9150509250929050565b6000819050919050565b6000610ff2610fed610fe884610e3e565b610fcd565b610e3e565b9050919050565b600061100482610fd7565b9050919050565b600061101682610ff9565b9050919050565b6110268161100b565b82525050565b6000602082019050611041600083018461101d565b92915050565b61105081610e5e565b82525050565b600060208201905061106b6000830184611047565b92915050565b6000806040838503121561108857611087610e39565b5b600061109685828601610e87565b92505060206110a785828601610e87565b9150509250929050565b600082825260208201905092915050565b7f496e73756666696369656e74207374616b650000000000000000000000000000600082015250565b60006110f86012836110b1565b9150611103826110c2565b602082019050919050565b60006020820190508181036000830152611127816110eb565b9050919050565b7f4e487b7100000000000000000000000000000000000000000000000000000000600052601160045260246000fd5b600061116882610ec9565b915061117383610ec9565b925082820390508181111561118b5761118a61112e565b5b92915050565b60006040820190506111a66000830185611047565b6111b36020830184610ed3565b9392505050565b60008115159050919050565b6111cf816111ba565b81146111da57600080fd5b50565b6000815190506111ec816111c6565b92915050565b60006020828403121561120857611207610e39565b5b6000611216848285016111dd565b91505092915050565b7f5472616e73666572206661696c65640000000000000000000000000000000000600082015250565b6000611255600f836110b1565b91506112608261121f565b602082019050919050565b6000602082019050818103600083015261128481611248565b9050919050565b7f5374616b6520616d6f756e74206d75737420626520677265617465722074686160008201527f6e20300000000000000000000000000000000000000000000000000000000000602082015250565b60006112e76023836110b1565b91506112f28261128b565b604082019050919050565b60006020820190508181036000830152611316816112da565b9050919050565b60006060820190506113326000830186611047565b61133f6020830185611047565b61134c6040830184610ed3565b949350505050565b600061135f82610ec9565b915061136a83610ec9565b92508282019050808211156113825761138161112e565b5b92915050565b7f4e487b7100000000000000000000000000000000000000000000000000000000600052601260045260246000fd5b60006113c282610ec9565b91506113cd83610ec9565b9250826113dd576113dc611388565b5b828204905092915050565b60006113f382610ec9565b91506113fe83610ec9565b925082820261140c81610ec9565b915082820484148315176114235761142261112e565b5b509291505056fea26469706673582212208f382c5203e3bd1772b4122e41d02143c7ffb09b1218b92236ccfa6e596a52a264736f6c634300081b0033",
  "linkReferences": {},
  "deployedLinkReferences": {}
}