{
  "_format": "hh-sol-artifact-1",
  "contractName": "RewardPool",
  "sourceName": "contracts/MintableERC20.sol",
  "abi": [
    {
      "inputs": [
        {
          "internalType": "address",
          "name": "_rewardToken",
          "type": "address"
        },
        {
          "internalType": "address",
          "name": "_stakingContract",
          "type": "address"
        }
      ],
      "stateMutability": "nonpayable",
      "type": "constructor"
    },
    {
      "inputs": [
        {
          "internalType": "address",
          "name": "owner",
          "type": "address"
        }
      ],
      "name": "OwnableInvalidOwner",
      "type": "error"
    },
    {
      "inputs": [
        {
          "internalType": "address",
          "name": "account",
          "type": "address"
        }
      ],
      "name": "OwnableUnauthorizedAccount",
      "type": "error"
    },
    {
      "anonymous": false,
      "inputs": [
        {
          "indexed": true,
          "internalType": "address",
          "name": "previousOwner",
          "type": "address"
        },
        {
          "indexed": true,
          "internalType": "address",
          "name": "newOwner",
          "type": "address"
        }
      ],
      "name": "OwnershipTransferred",
      "type": "event"
    },
    {
      "anonymous": false,
      "inputs": [
        {
          "indexed": true,
          "internalType": "address",
          "name": "user",
          "type": "address"
        },
        {
          "indexed": false,
          "internalType": "uint256",
          "name": "amount",
          "type": "uint256"
        }
      ],
      "name": "RewardDistributed",
      "type": "event"
    },
    {
      "inputs": [
        {
          "internalType": "uint256",
          "name": "_amount",
          "type": "uint256"
        }
      ],
      "name": "addRewards",
      "outputs": [],
      "stateMutability": "nonpayable",
      "type": "function"
    },
    {
      "inputs": [],
      "name": "claimRewards",
      "outputs": [],
      "stateMutability": "nonpayable",
      "type": "function"
    },
    {
      "inputs": [],
      "name": "distributeRewards",
      "outputs": [],
      "stateMutability": "nonpayable",
      "type": "function"
    },
    {
      "inputs": [],
      "name": "owner",
      "outputs": [
        {
          "internalType": "address",
          "name": "",
          "type": "address"
        }
      ],
      "stateMutability": "view",
      "type": "function"
    },
    {
      "inputs": [],
      "name": "renounceOwnership",
      "outputs": [],
      "stateMutability": "nonpayable",
      "type": "function"
    },
    {
      "inputs": [],
      "name": "rewardToken",
      "outputs": [
        {
          "internalType": "contract IERC20",
          "name": "",
          "type": "address"
        }
      ],
      "stateMutability": "view",
      "type": "function"
    },
    {
      "inputs": [
        {
          "internalType": "address",
          "name": "",
          "type": "address"
        }
      ],
      "name": "rewards",
      "outputs": [
        {
          "internalType": "uint256",
          "name": "",
          "type": "uint256"
        }
      ],
      "stateMutability": "view",
      "type": "function"
    },
    {
      "inputs": [],
      "name": "stakingContract",
      "outputs": [
        {
          "internalType": "contract CredibilityStaking",
          "name": "",
          "type": "address"
        }
      ],
      "stateMutability": "view",
      "type": "function"
    },
    {
      "inputs": [
        {
          "internalType": "address",
          "name": "newOwner",
          "type": "address"
        }
      ],
      "name": "transferOwnership",
      "outputs": [],
      "stateMutability": "nonpayable",
      "type": "function"
    }
  ],
  "bytecode": "0x608060405234801561001057600080fd5b5060405161109838038061109883398181016040528101906100329190610265565b33600073ffffffffffffffffffffffffffffffffffffffff168173ffffffffffffffffffffffffffffffffffffffff16036100a55760006040517f1e4fbdf700000000000000000000000000000000000000000000000000000000815260040161009c91906102b4565b60405180910390fd5b6100b48161013e60201b60201c565b5081600160006101000a81548173ffffffffffffffffffffffffffffffffffffffff021916908373ffffffffffffffffffffffffffffffffffffffff16021790555080600260006101000a81548173ffffffffffffffffffffffffffffffffffffffff021916908373ffffffffffffffffffffffffffffffffffffffff16021790555050506102cf565b60008060009054906101000a900473ffffffffffffffffffffffffffffffffffffffff169050816000806101000a81548173ffffffffffffffffffffffffffffffffffffffff021916908373ffffffffffffffffffffffffffffffffffffffff1602179055508173ffffffffffffffffffffffffffffffffffffffff168173ffffffffffffffffffffffffffffffffffffffff167f8be0079c531659141344cd1fd0a4f28419497f9722a3daafe3b4186f6b6457e060405160405180910390a35050565b600080fd5b600073ffffffffffffffffffffffffffffffffffffffff82169050919050565b600061023282610207565b9050919050565b61024281610227565b811461024d57600080fd5b50565b60008151905061025f81610239565b92915050565b6000806040838503121561027c5761027b610202565b5b600061028a85828601610250565b925050602061029b85828601610250565b9150509250929050565b6102ae81610227565b82525050565b60006020820190506102c960008301846102a5565b92915050565b610dba806102de6000396000f3fe608060405234801561001057600080fd5b50600436106100935760003560e01c80638da5cb5b116100665780638da5cb5b146100e6578063beceed3914610104578063ee99205c14610120578063f2fde38b1461013e578063f7c618c11461015a57610093565b80630700037d14610098578063372500ab146100c85780636f4a2cd0146100d2578063715018a6146100dc575b600080fd5b6100b260048036038101906100ad91906108b6565b610178565b6040516100bf91906108fc565b60405180910390f35b6100d0610190565b005b6100da61033e565b005b6100e4610505565b005b6100ee610519565b6040516100fb9190610926565b60405180910390f35b61011e6004803603810190610119919061096d565b610542565b005b61012861062e565b60405161013591906109f9565b60405180910390f35b610158600480360381019061015391906108b6565b610654565b005b6101626106da565b60405161016f9190610a35565b60405180910390f35b60036020528060005260406000206000915090505481565b6000600360003373ffffffffffffffffffffffffffffffffffffffff1673ffffffffffffffffffffffffffffffffffffffff16815260200190815260200160002054905060008111610217576040517f08c379a000000000000000000000000000000000000000000000000000000000815260040161020e90610aad565b60405180910390fd5b6000600360003373ffffffffffffffffffffffffffffffffffffffff1673ffffffffffffffffffffffffffffffffffffffff16815260200190815260200160002081905550600160009054906101000a900473ffffffffffffffffffffffffffffffffffffffff1673ffffffffffffffffffffffffffffffffffffffff1663a9059cbb33836040518363ffffffff1660e01b81526004016102b9929190610acd565b6020604051808303816000875af11580156102d8573d6000803e3d6000fd5b505050506040513d601f19601f820116820180604052508101906102fc9190610b2e565b61033b576040517f08c379a000000000000000000000000000000000000000000000000000000000815260040161033290610ba7565b60405180910390fd5b50565b610346610700565b6000600260009054906101000a900473ffffffffffffffffffffffffffffffffffffffff1673ffffffffffffffffffffffffffffffffffffffff1663817b1cd26040518163ffffffff1660e01b8152600401602060405180830381865afa1580156103b5573d6000803e3d6000fd5b505050506040513d601f19601f820116820180604052508101906103d99190610bdc565b90506000811161041e576040517f08c379a000000000000000000000000000000000000000000000000000000000815260040161041590610c55565b60405180910390fd5b6000600160009054906101000a900473ffffffffffffffffffffffffffffffffffffffff1673ffffffffffffffffffffffffffffffffffffffff166370a08231306040518263ffffffff1660e01b815260040161047b9190610926565b602060405180830381865afa158015610498573d6000803e3d6000fd5b505050506040513d601f19601f820116820180604052508101906104bc9190610bdc565b905060008111610501576040517f08c379a00000000000000000000000000000000000000000000000000000000081526004016104f890610cc1565b60405180910390fd5b5050565b61050d610700565b6105176000610787565b565b60008060009054906101000a900473ffffffffffffffffffffffffffffffffffffffff16905090565b61054a610700565b600160009054906101000a900473ffffffffffffffffffffffffffffffffffffffff1673ffffffffffffffffffffffffffffffffffffffff166323b872dd3330846040518463ffffffff1660e01b81526004016105a993929190610ce1565b6020604051808303816000875af11580156105c8573d6000803e3d6000fd5b505050506040513d601f19601f820116820180604052508101906105ec9190610b2e565b61062b576040517f08c379a000000000000000000000000000000000000000000000000000000000815260040161062290610d64565b60405180910390fd5b50565b600260009054906101000a900473ffffffffffffffffffffffffffffffffffffffff1681565b61065c610700565b600073ffffffffffffffffffffffffffffffffffffffff168173ffffffffffffffffffffffffffffffffffffffff16036106ce5760006040517f1e4fbdf70000000000000000000000000000000000000000000000000000000081526004016106c59190610926565b60405180910390fd5b6106d781610787565b50565b600160009054906101000a900473ffffffffffffffffffffffffffffffffffffffff1681565b61070861084b565b73ffffffffffffffffffffffffffffffffffffffff16610726610519565b73ffffffffffffffffffffffffffffffffffffffff16146107855761074961084b565b6040517f118cdaa700000000000000000000000000000000000000000000000000000000815260040161077c9190610926565b60405180910390fd5b565b60008060009054906101000a900473ffffffffffffffffffffffffffffffffffffffff169050816000806101000a81548173ffffffffffffffffffffffffffffffffffffffff021916908373ffffffffffffffffffffffffffffffffffffffff1602179055508173ffffffffffffffffffffffffffffffffffffffff168173ffffffffffffffffffffffffffffffffffffffff167f8be0079c531659141344cd1fd0a4f28419497f9722a3daafe3b4186f6b6457e060405160405180910390a35050565b600033905090565b600080fd5b600073ffffffffffffffffffffffffffffffffffffffff82169050919050565b600061088382610858565b9050919050565b61089381610878565b811461089e57600080fd5b50565b6000813590506108b08161088a565b92915050565b6000602082840312156108cc576108cb610853565b5b60006108da848285016108a1565b91505092915050565b6000819050919050565b6108f6816108e3565b82525050565b600060208201905061091160008301846108ed565b92915050565b61092081610878565b82525050565b600060208201905061093b6000830184610917565b92915050565b61094a816108e3565b811461095557600080fd5b50565b60008135905061096781610941565b92915050565b60006020828403121561098357610982610853565b5b600061099184828501610958565b91505092915050565b6000819050919050565b60006109bf6109ba6109b584610858565b61099a565b610858565b9050919050565b60006109d1826109a4565b9050919050565b60006109e3826109c6565b9050919050565b6109f3816109d8565b82525050565b6000602082019050610a0e60008301846109ea565b92915050565b6000610a1f826109c6565b9050919050565b610a2f81610a14565b82525050565b6000602082019050610a4a6000830184610a26565b92915050565b600082825260208201905092915050565b7f4e6f207265776172647320746f20636c61696d00000000000000000000000000600082015250565b6000610a97601383610a50565b9150610aa282610a61565b602082019050919050565b60006020820190508181036000830152610ac681610a8a565b9050919050565b6000604082019050610ae26000830185610917565b610aef60208301846108ed565b9392505050565b60008115159050919050565b610b0b81610af6565b8114610b1657600080fd5b50565b600081519050610b2881610b02565b92915050565b600060208284031215610b4457610b43610853565b5b6000610b5284828501610b19565b91505092915050565b7f526577617264207472616e73666572206661696c656400000000000000000000600082015250565b6000610b91601683610a50565b9150610b9c82610b5b565b602082019050919050565b60006020820190508181036000830152610bc081610b84565b9050919050565b600081519050610bd681610941565b92915050565b600060208284031215610bf257610bf1610853565b5b6000610c0084828501610bc7565b91505092915050565b7f4e6f207374616b657320746f2064697374726962757465207265776172647300600082015250565b6000610c3f601f83610a50565b9150610c4a82610c09565b602082019050919050565b60006020820190508181036000830152610c6e81610c32565b9050919050565b7f4e6f207265776172647320746f20646973747269627574650000000000000000600082015250565b6000610cab601883610a50565b9150610cb682610c75565b602082019050919050565b60006020820190508181036000830152610cda81610c9e565b9050919050565b6000606082019050610cf66000830186610917565b610d036020830185610917565b610d1060408301846108ed565b949350505050565b7f52657761726420746f6b656e207472616e73666572206661696c656400000000600082015250565b6000610d4e601c83610a50565b9150610d5982610d18565b602082019050919050565b60006020820190508181036000830152610d7d81610d41565b905091905056fea26469706673582212206882f8e7d1c79ad516a3f35755bece29a96b5301a4f1ed8883cc30d9d445ab8e64736f6c634300081b0033",
  "linkReferences": {},
  "deployedLinkReferences": {}
}