{
  "_format": "hh-sol-artifact-1",
  "contractName": "PolkaGift",
  "sourceName": "contracts/PolkaGift.sol",
  "abi": [
    {
      "inputs": [
        {
          "internalType": "string",
          "name": "",
          "type": "string"
        }
      ],
      "name": "AllEventEndTime",
      "outputs": [
        {
          "internalType": "bool",
          "name": "",
          "type": "bool"
        }
      ],
      "stateMutability": "view",
      "type": "function"
    },
    {
      "inputs": [
        {
          "internalType": "string",
          "name": "BidId",
          "type": "string"
        }
      ],
      "name": "BidURI",
      "outputs": [
        {
          "internalType": "string",
          "name": "",
          "type": "string"
        }
      ],
      "stateMutability": "view",
      "type": "function"
    },
    {
      "inputs": [
        {
          "internalType": "uint256",
          "name": "",
          "type": "uint256"
        }
      ],
      "name": "TokenHighestBidders",
      "outputs": [
        {
          "internalType": "string",
          "name": "token_id",
          "type": "string"
        },
        {
          "internalType": "string",
          "name": "event_id",
          "type": "string"
        },
        {
          "internalType": "address",
          "name": "wallet",
          "type": "address"
        },
        {
          "internalType": "string",
          "name": "price",
          "type": "string"
        }
      ],
      "stateMutability": "view",
      "type": "function"
    },
    {
      "inputs": [],
      "name": "_EventTokenSearchIds",
      "outputs": [
        {
          "internalType": "uint256",
          "name": "",
          "type": "uint256"
        }
      ],
      "stateMutability": "view",
      "type": "function"
    },
    {
      "inputs": [
        {
          "internalType": "string",
          "name": "",
          "type": "string"
        },
        {
          "internalType": "uint256",
          "name": "",
          "type": "uint256"
        }
      ],
      "name": "_SearchedStore",
      "outputs": [
        {
          "internalType": "string",
          "name": "",
          "type": "string"
        }
      ],
      "stateMutability": "view",
      "type": "function"
    },
    {
      "inputs": [
        {
          "internalType": "string",
          "name": "_tokenId",
          "type": "string"
        }
      ],
      "name": "_getSearchedTokenURI",
      "outputs": [
        {
          "internalType": "string",
          "name": "",
          "type": "string"
        }
      ],
      "stateMutability": "view",
      "type": "function"
    },
    {
      "inputs": [
        {
          "internalType": "string",
          "name": "bidId",
          "type": "string"
        },
        {
          "internalType": "string",
          "name": "_bidURI",
          "type": "string"
        }
      ],
      "name": "_setBidURI",
      "outputs": [],
      "stateMutability": "nonpayable",
      "type": "function"
    },
    {
      "inputs": [
        {
          "internalType": "string",
          "name": "_eventId",
          "type": "string"
        },
        {
          "internalType": "string",
          "name": "_raised",
          "type": "string"
        }
      ],
      "name": "_setEventRaised",
      "outputs": [],
      "stateMutability": "nonpayable",
      "type": "function"
    },
    {
      "inputs": [
        {
          "internalType": "string",
          "name": "eventId",
          "type": "string"
        },
        {
          "internalType": "string",
          "name": "_eventWallet",
          "type": "string"
        },
        {
          "internalType": "string",
          "name": "_eventURI",
          "type": "string"
        }
      ],
      "name": "_setEventURI",
      "outputs": [],
      "stateMutability": "nonpayable",
      "type": "function"
    },
    {
      "inputs": [
        {
          "internalType": "uint256",
          "name": "TokenBidId",
          "type": "uint256"
        },
        {
          "internalType": "string",
          "name": "TokenId",
          "type": "string"
        },
        {
          "internalType": "string",
          "name": "_BidURI",
          "type": "string"
        }
      ],
      "name": "_setTokenBid",
      "outputs": [],
      "stateMutability": "nonpayable",
      "type": "function"
    },
    {
      "inputs": [
        {
          "internalType": "uint256",
          "name": "EventTokenId",
          "type": "uint256"
        },
        {
          "internalType": "string",
          "name": "EventId",
          "type": "string"
        },
        {
          "internalType": "string",
          "name": "_tokenURI",
          "type": "string"
        }
      ],
      "name": "_setTokenEvent",
      "outputs": [],
      "stateMutability": "nonpayable",
      "type": "function"
    },
    {
      "inputs": [
        {
          "internalType": "string",
          "name": "token_id",
          "type": "string"
        },
        {
          "internalType": "string",
          "name": "event_id",
          "type": "string"
        },
        {
          "internalType": "address",
          "name": "wallet",
          "type": "address"
        },
        {
          "internalType": "string",
          "name": "price",
          "type": "string"
        }
      ],
      "name": "_setTokenHighestBid",
      "outputs": [],
      "stateMutability": "nonpayable",
      "type": "function"
    },
    {
      "inputs": [
        {
          "internalType": "string",
          "name": "tokenId",
          "type": "string"
        },
        {
          "internalType": "string",
          "name": "_tokenURI",
          "type": "string"
        }
      ],
      "name": "_setTokenURI",
      "outputs": [],
      "stateMutability": "nonpayable",
      "type": "function"
    },
    {
      "inputs": [
        {
          "internalType": "address",
          "name": "_claimer",
          "type": "address"
        },
        {
          "internalType": "string",
          "name": "_tokenURI",
          "type": "string"
        },
        {
          "internalType": "string",
          "name": "_eventid",
          "type": "string"
        }
      ],
      "name": "claimToken",
      "outputs": [
        {
          "internalType": "uint256",
          "name": "",
          "type": "uint256"
        }
      ],
      "stateMutability": "nonpayable",
      "type": "function"
    },
    {
      "inputs": [
        {
          "internalType": "string",
          "name": "_tokenId",
          "type": "string"
        },
        {
          "internalType": "string",
          "name": "_bidURI",
          "type": "string"
        },
        {
          "internalType": "string",
          "name": "_eventid",
          "type": "string"
        },
        {
          "internalType": "string",
          "name": "_raised",
          "type": "string"
        },
        {
          "internalType": "string",
          "name": "_bid_price",
          "type": "string"
        }
      ],
      "name": "createBid",
      "outputs": [],
      "stateMutability": "nonpayable",
      "type": "function"
    },
    {
      "inputs": [
        {
          "internalType": "string",
          "name": "_eventWallet",
          "type": "string"
        },
        {
          "internalType": "string",
          "name": "_eventURI",
          "type": "string"
        },
        {
          "internalType": "uint256",
          "name": "endtime",
          "type": "uint256"
        }
      ],
      "name": "createEvent",
      "outputs": [
        {
          "internalType": "uint256",
          "name": "",
          "type": "uint256"
        }
      ],
      "stateMutability": "nonpayable",
      "type": "function"
    },
    {
      "inputs": [
        {
          "internalType": "string",
          "name": "eventID",
          "type": "string"
        }
      ],
      "name": "distribute_event",
      "outputs": [],
      "stateMutability": "nonpayable",
      "type": "function"
    },
    {
      "inputs": [
        {
          "internalType": "string",
          "name": "eventId",
          "type": "string"
        }
      ],
      "name": "eventURI",
      "outputs": [
        {
          "internalType": "string[2]",
          "name": "",
          "type": "string[2]"
        }
      ],
      "stateMutability": "view",
      "type": "function"
    },
    {
      "inputs": [
        {
          "internalType": "string",
          "name": "_bidURI",
          "type": "string"
        }
      ],
      "name": "getBidIdByUri",
      "outputs": [
        {
          "internalType": "uint256",
          "name": "",
          "type": "uint256"
        }
      ],
      "stateMutability": "view",
      "type": "function"
    },
    {
      "inputs": [
        {
          "internalType": "string",
          "name": "TokenID",
          "type": "string"
        }
      ],
      "name": "getBidsSearchToken",
      "outputs": [
        {
          "internalType": "string[]",
          "name": "",
          "type": "string[]"
        }
      ],
      "stateMutability": "view",
      "type": "function"
    },
    {
      "inputs": [
        {
          "internalType": "string",
          "name": "_eventURI",
          "type": "string"
        }
      ],
      "name": "getEventIdByURI",
      "outputs": [
        {
          "internalType": "uint256",
          "name": "",
          "type": "uint256"
        }
      ],
      "stateMutability": "view",
      "type": "function"
    },
    {
      "inputs": [
        {
          "internalType": "string",
          "name": "_eventId",
          "type": "string"
        }
      ],
      "name": "getEventRaised",
      "outputs": [
        {
          "internalType": "string",
          "name": "",
          "type": "string"
        }
      ],
      "stateMutability": "view",
      "type": "function"
    },
    {
      "inputs": [
        {
          "internalType": "string",
          "name": "EventId",
          "type": "string"
        },
        {
          "internalType": "string",
          "name": "_tokenURI",
          "type": "string"
        }
      ],
      "name": "getGetEventsTokenID",
      "outputs": [
        {
          "internalType": "uint256",
          "name": "",
          "type": "uint256"
        }
      ],
      "stateMutability": "view",
      "type": "function"
    },
    {
      "inputs": [
        {
          "internalType": "string",
          "name": "Wallet",
          "type": "string"
        }
      ],
      "name": "getSearchEventbyWallet",
      "outputs": [
        {
          "internalType": "string[]",
          "name": "",
          "type": "string[]"
        }
      ],
      "stateMutability": "view",
      "type": "function"
    },
    {
      "inputs": [
        {
          "internalType": "string",
          "name": "token_id",
          "type": "string"
        }
      ],
      "name": "getTokenHighestBid",
      "outputs": [
        {
          "internalType": "string",
          "name": "",
          "type": "string"
        }
      ],
      "stateMutability": "view",
      "type": "function"
    },
    {
      "inputs": [
        {
          "internalType": "string",
          "name": "TokenID",
          "type": "string"
        }
      ],
      "name": "getTotalBid",
      "outputs": [
        {
          "internalType": "string[]",
          "name": "",
          "type": "string[]"
        }
      ],
      "stateMutability": "view",
      "type": "function"
    },
    {
      "inputs": [
        {
          "internalType": "string",
          "name": "_tokenURI",
          "type": "string"
        }
      ],
      "name": "gettokenIdByUri",
      "outputs": [
        {
          "internalType": "uint256",
          "name": "",
          "type": "uint256"
        }
      ],
      "stateMutability": "view",
      "type": "function"
    },
    {
      "inputs": [
        {
          "internalType": "string",
          "name": "EventID",
          "type": "string"
        }
      ],
      "name": "gettokenSearchEventTotal",
      "outputs": [
        {
          "internalType": "string[]",
          "name": "",
          "type": "string[]"
        }
      ],
      "stateMutability": "view",
      "type": "function"
    },
    {
      "inputs": [
        {
          "internalType": "string",
          "name": "_str",
          "type": "string"
        }
      ],
      "name": "strToUint",
      "outputs": [
        {
          "internalType": "uint256",
          "name": "res",
          "type": "uint256"
        }
      ],
      "stateMutability": "pure",
      "type": "function"
    },
    {
      "inputs": [
        {
          "internalType": "string",
          "name": "tokenId",
          "type": "string"
        }
      ],
      "name": "tokenURI",
      "outputs": [
        {
          "internalType": "string",
          "name": "",
          "type": "string"
        }
      ],
      "stateMutability": "view",
      "type": "function"
    },
    {
      "inputs": [],
      "name": "totalEvent",
      "outputs": [
        {
          "internalType": "uint256",
          "name": "",
          "type": "uint256"
        }
      ],
      "stateMutability": "view",
      "type": "function"
    },
    {
      "inputs": [],
      "name": "totalSupply",
      "outputs": [
        {
          "internalType": "uint256",
          "name": "",
          "type": "uint256"
        }
      ],
      "stateMutability": "view",
      "type": "function"
    }
  ],
  "bytecode": "0x608060405234801561001057600080fd5b5061352c806100206000396000f3fe608060405234801561001057600080fd5b50600436106101f05760003560e01c806370881e721161010f578063bfee6f8e116100a2578063d45fc51611610071578063d45fc51614610676578063df6b96c7146106a6578063eacb4a74146106c2578063f7e34095146106f2576101f0565b8063bfee6f8e146105de578063c5ef3ec5146105fa578063ce65e7481461062a578063d0fb869914610646576101f0565b80638c2715b7116100de5780638c2715b714610532578063932a196b14610562578063a42a665c14610592578063b91e924f146105c2576101f0565b806370881e7214610495578063783db260146104c85780637ab4ab6e146104f85780637eadfa6a14610514576101f0565b80633358f45b116101875780635555fe17116101565780635555fe17146103d55780635f08c6b5146104055780636beee9d7146104355780636ebb4d8714610465576101f0565b80633358f45b1461033d5780634cf12d261461036d5780635457bbf91461039d578063545fa9ec146103b9576101f0565b8063282e5e81116101c3578063282e5e81146102915780632a0d0373146102ad5780632bde1581146102dd578063304b16db1461030d576101f0565b8063144cbca6146101f557806318160ddd146102135780631e65e1171461023157806325c11f7414610261575b600080fd5b6101fd61070e565b60405161020a91906122fb565b60405180910390f35b61021b610714565b60405161022891906122fb565b60405180910390f35b61024b60048036038101906102469190612470565b61071d565b60405161025891906125fa565b60405180910390f35b61027b60048036038101906102769190612470565b6109d5565b60405161028891906125fa565b60405180910390f35b6102ab60048036038101906102a6919061261c565b610b5a565b005b6102c760048036038101906102c29190612470565b610b8a565b6040516102d491906125fa565b60405180910390f35b6102f760048036038101906102f291906126f2565b610d0f565b60405161030491906122fb565b60405180910390f35b61032760048036038101906103229190612470565b610d8c565b60405161033491906122fb565b60405180910390f35b61035760048036038101906103529190612470565b610e40565b6040516103649190612798565b60405180910390f35b61038760048036038101906103829190612470565b610e76565b60405161039491906127fd565b60405180910390f35b6103b760048036038101906103b2919061284b565b610f26565b005b6103d360048036038101906103ce9190612470565b610f82565b005b6103ef60048036038101906103ea91906128d6565b610fbc565b6040516103fc91906122fb565b60405180910390f35b61041f600480360381019061041a9190612470565b611091565b60405161042c91906127fd565b60405180910390f35b61044f600480360381019061044a9190612470565b611141565b60405161045c91906127fd565b60405180910390f35b61047f600480360381019061047a9190612470565b6111eb565b60405161048c9190612a03565b60405180910390f35b6104af60048036038101906104aa9190612a25565b6112d6565b6040516104bf9493929190612a61565b60405180910390f35b6104e260048036038101906104dd919061261c565b6114be565b6040516104ef91906122fb565b60405180910390f35b610512600480360381019061050d919061261c565b61156d565b005b61051c61159d565b60405161052991906122fb565b60405180910390f35b61054c60048036038101906105479190612abb565b6115a7565b60405161055991906127fd565b60405180910390f35b61057c60048036038101906105779190612470565b61166d565b60405161058991906122fb565b60405180910390f35b6105ac60048036038101906105a79190612470565b61170d565b6040516105b991906127fd565b60405180910390f35b6105dc60048036038101906105d7919061284b565b6117bd565b005b6105f860048036038101906105f39190612b17565b611819565b005b610614600480360381019061060f9190612470565b611860565b60405161062191906122fb565b60405180910390f35b610644600480360381019061063f9190612bbe565b611973565b005b610660600480360381019061065b9190612470565b611ba5565b60405161066d91906125fa565b60405180910390f35b610690600480360381019061068b9190612470565b611d2a565b60405161069d91906122fb565b60405180910390f35b6106c060048036038101906106bb919061261c565b611dca565b005b6106dc60048036038101906106d79190612470565b611dfa565b6040516106e991906127fd565b60405180910390f35b61070c60048036038101906107079190612c79565b611ebe565b005b60065481565b60008054905090565b606060008060005b6002548110156107cc578480519060200120600e61074283611fcd565b6040516020016107529190612de2565b60405160208183030381529060405260405161076e9190612e08565b908152602001604051809103902060006002811061078f5761078e612e1f565b5b0160405161079d9190612f51565b6040518091039020036107b95782806107b590612f97565b9350505b80806107c490612f97565b915050610725565b5060008267ffffffffffffffff8111156107e9576107e8612345565b5b60405190808252806020026020018201604052801561081c57816020015b60608152602001906001900390816108075790505b50905060005b6002548110156109c9578580519060200120600e61083f83611fcd565b60405160200161084f9190612de2565b60405160208183030381529060405260405161086b9190612e08565b908152602001604051809103902060006002811061088c5761088b612e1f565b5b0160405161089a9190612f51565b6040518091039020036109b657600e6108b282611fcd565b6040516020016108c29190612de2565b6040516020818303038152906040526040516108de9190612e08565b90815260200160405180910390206001600281106108ff576108fe612e1f565b5b01805461090b90612e7d565b80601f016020809104026020016040519081016040528092919081815260200182805461093790612e7d565b80156109845780601f1061095957610100808354040283529160200191610984565b820191906000526020600020905b81548152906001019060200180831161096757829003601f168201915b505050505082848151811061099c5761099b612e1f565b5b602002602001018190525082806109b290612f97565b9350505b80806109c190612f97565b915050610822565b50809350505050919050565b60606000600a67ffffffffffffffff8111156109f4576109f3612345565b5b604051908082528060200260200182016040528015610a2757816020015b6060815260200190600190039081610a125790505b5090506000805b600454811015610b4f57848051906020012060096000838152602001908152602001600020600001604051610a639190612f51565b604051809103902003610b3c57600960008281526020019081526020016000206001018054610a9190612e7d565b80601f0160208091040260200160405190810160405280929190818152602001828054610abd90612e7d565b8015610b0a5780601f10610adf57610100808354040283529160200191610b0a565b820191906000526020600020905b815481529060010190602001808311610aed57829003601f168201915b5050505050838381518110610b2257610b21612e1f565b5b60200260200101819052508180610b3890612f97565b9250505b8080610b4790612f97565b915050610a2e565b508192505050919050565b80600f83604051610b6b9190612e08565b90815260200160405180910390209081610b85919061318b565b505050565b60606000600a67ffffffffffffffff811115610ba957610ba8612345565b5b604051908082528060200260200182016040528015610bdc57816020015b6060815260200190600190039081610bc75790505b5090506000805b600454811015610d0457848051906020012060096000838152602001908152602001600020600001604051610c189190612f51565b604051809103902003610cf157600960008281526020019081526020016000206001018054610c4690612e7d565b80601f0160208091040260200160405190810160405280929190818152602001828054610c7290612e7d565b8015610cbf5780601f10610c9457610100808354040283529160200191610cbf565b820191906000526020600020905b815481529060010190602001808311610ca257829003601f168201915b5050505050838381518110610cd757610cd6612e1f565b5b60200260200101819052508180610ced90612f97565b9250505b8080610cfc90612f97565b915050610be3565b508192505050919050565b6000610d44610d1f600054611fcd565b604051602001610d2f9190612de2565b6040516020818303038152906040528461156d565b610d5160035483856117bd565b600080815480929190610d6390612f97565b919050555060036000815480929190610d7b90612f97565b919050555060005490509392505050565b600080600090505b600254811015610e35578280519060200120600e610db183611fcd565b604051602001610dc19190612de2565b604051602081830303815290604052604051610ddd9190612e08565b9081526020016040518091039020600160028110610dfe57610dfd612e1f565b5b01604051610e0c9190612f51565b604051809103902003610e225780915050610e3b565b8080610e2d90612f97565b915050610d94565b50600090505b919050565b6007818051602081018201805184825260208301602085012081835280955050505050506000915054906101000a900460ff1681565b6060600d82604051610e889190612e08565b90815260200160405180910390208054610ea190612e7d565b80601f0160208091040260200160405190810160405280929190818152602001828054610ecd90612e7d565b8015610f1a5780601f10610eef57610100808354040283529160200191610f1a565b820191906000526020600020905b815481529060010190602001808311610efd57829003601f168201915b50505050509050919050565b604051806040016040528083815260200182815250600960008581526020019081526020016000206000820151816000019081610f63919061318b565b506020820151816001019081610f79919061318b565b50905050505050565b6001600782604051610f949190612e08565b908152602001604051809103902060006101000a81548160ff02191690831515021790555050565b600080610fca600254611fcd565b604051602001610fda9190612de2565b6040516020818303038152906040529050610ff6818686611819565b611035816040518060400160405280600181526020017f3000000000000000000000000000000000000000000000000000000000000000815250610b5a565b60006007826040516110479190612e08565b908152602001604051809103902060006101000a81548160ff0219169083151502179055506002600081548092919061107f90612f97565b91905055506002549150509392505050565b6060600c826040516110a39190612e08565b908152602001604051809103902080546110bc90612e7d565b80601f01602080910402602001604051908101604052809291908181526020018280546110e890612e7d565b80156111355780601f1061110a57610100808354040283529160200191611135565b820191906000526020600020905b81548152906001019060200180831161111857829003601f168201915b50505050509050919050565b606060005b6005548110156111ac578280519060200120600a600083815260200190815260200160002060000160405161117b9190612f51565b6040518091039020036111995761119181611fcd565b9150506111e6565b80806111a490612f97565b915050611146565b506040518060400160405280600281526020017f2d3100000000000000000000000000000000000000000000000000000000000081525090505b919050565b6111f36121ee565b600e826040516112039190612e08565b9081526020016040518091039020600280602002604051908101604052809291906000905b828210156112cb57838201805461123e90612e7d565b80601f016020809104026020016040519081016040528092919081815260200182805461126a90612e7d565b80156112b75780601f1061128c576101008083540402835291602001916112b7565b820191906000526020600020905b81548152906001019060200180831161129a57829003601f168201915b505050505081526020019060010190611228565b505050509050919050565b600a6020528060005260406000206000915090508060000180546112f990612e7d565b80601f016020809104026020016040519081016040528092919081815260200182805461132590612e7d565b80156113725780601f1061134757610100808354040283529160200191611372565b820191906000526020600020905b81548152906001019060200180831161135557829003601f168201915b50505050509080600101805461138790612e7d565b80601f01602080910402602001604051908101604052809291908181526020018280546113b390612e7d565b80156114005780601f106113d557610100808354040283529160200191611400565b820191906000526020600020905b8154815290600101906020018083116113e357829003601f168201915b5050505050908060020160009054906101000a900473ffffffffffffffffffffffffffffffffffffffff169080600301805461143b90612e7d565b80601f016020809104026020016040519081016040528092919081815260200182805461146790612e7d565b80156114b45780601f10611489576101008083540402835291602001916114b4565b820191906000526020600020905b81548152906001019060200180831161149757829003601f168201915b5050505050905084565b600080600090505b600354811015611561578380519060200120600860008381526020019081526020016000206000016040516114fb9190612f51565b604051809103902014801561154057508280519060200120600860008381526020019081526020016000206001016040516115369190612f51565b6040518091039020145b1561154e5780915050611567565b808061155990612f97565b9150506114c6565b50600090505b92915050565b80600d8360405161157e9190612e08565b90815260200160405180910390209081611598919061318b565b505050565b6000600254905090565b600b8280516020810182018051848252602083016020850120818352809550505050505081600281106115d957600080fd5b016000915091505080546115ec90612e7d565b80601f016020809104026020016040519081016040528092919081815260200182805461161890612e7d565b80156116655780601f1061163a57610100808354040283529160200191611665565b820191906000526020600020905b81548152906001019060200180831161164857829003601f168201915b505050505081565b600080600090505b600054811015611702578280519060200120600d61169283611fcd565b6040516020016116a29190612de2565b6040516020818303038152906040526040516116be9190612e08565b90815260200160405180910390206040516116d99190612f51565b6040518091039020036116ef5780915050611708565b80806116fa90612f97565b915050611675565b50600090505b919050565b6060600f8260405161171f9190612e08565b9081526020016040518091039020805461173890612e7d565b80601f016020809104026020016040519081016040528092919081815260200182805461176490612e7d565b80156117b15780601f10611786576101008083540402835291602001916117b1565b820191906000526020600020905b81548152906001019060200180831161179457829003601f168201915b50505050509050919050565b6040518060400160405280838152602001828152506008600085815260200190815260200160002060008201518160000190816117fa919061318b565b506020820151816001019081611810919061318b565b50905050505050565b604051806040016040528083815260200182815250600e8460405161183e9190612e08565b908152602001604051809103902090600261185a929190612215565b50505050565b600080600090505b825181101561196c576000603084838151811061188857611887612e1f565b5b602001015160f81c60f81b60f81c6118a0919061326a565b60ff1610806118de5750600960308483815181106118c1576118c0612e1f565b5b602001015160f81c60f81b60f81c6118d9919061326a565b60ff16115b156118ed57600091505061196e565b60018184516118fc919061329f565b611906919061329f565b600a6119129190613406565b603084838151811061192757611926612e1f565b5b602001015160f81c60f81b60f81c61193f919061326a565b60ff1661194c9190613451565b826119579190613493565b9150808061196490612f97565b915050611868565b505b919050565b600061197e85611141565b90506040518060400160405280600281526020017f2d3100000000000000000000000000000000000000000000000000000000000081525080519060200120818051906020012014611aad5760405180608001604052808681526020018581526020018473ffffffffffffffffffffffffffffffffffffffff16815260200183815250600a6000611a0e84611860565b81526020019081526020016000206000820151816000019081611a31919061318b565b506020820151816001019081611a47919061318b565b5060408201518160020160006101000a81548173ffffffffffffffffffffffffffffffffffffffff021916908373ffffffffffffffffffffffffffffffffffffffff1602179055506060820151816003019081611aa4919061318b565b50905050611b9e565b60405180608001604052808681526020018581526020018473ffffffffffffffffffffffffffffffffffffffff16815260200183815250600a600060055481526020019081526020016000206000820151816000019081611b0e919061318b565b506020820151816001019081611b24919061318b565b5060408201518160020160006101000a81548173ffffffffffffffffffffffffffffffffffffffff021916908373ffffffffffffffffffffffffffffffffffffffff1602179055506060820151816003019081611b81919061318b565b5090505060056000815480929190611b9890612f97565b91905055505b5050505050565b60606000600a67ffffffffffffffff811115611bc457611bc3612345565b5b604051908082528060200260200182016040528015611bf757816020015b6060815260200190600190039081611be25790505b5090506000805b600354811015611d1f57848051906020012060086000838152602001908152602001600020600001604051611c339190612f51565b604051809103902003611d0c57600860008281526020019081526020016000206001018054611c6190612e7d565b80601f0160208091040260200160405190810160405280929190818152602001828054611c8d90612e7d565b8015611cda5780601f10611caf57610100808354040283529160200191611cda565b820191906000526020600020905b815481529060010190602001808311611cbd57829003601f168201915b5050505050838381518110611cf257611cf1612e1f565b5b60200260200101819052508180611d0890612f97565b9250505b8080611d1790612f97565b915050611bfe565b508192505050919050565b600080600090505b600154811015611dbf578280519060200120600c611d4f83611fcd565b604051602001611d5f9190612de2565b604051602081830303815290604052604051611d7b9190612e08565b9081526020016040518091039020604051611d969190612f51565b604051809103902003611dac5780915050611dc5565b8080611db790612f97565b915050611d32565b50600090505b919050565b80600c83604051611ddb9190612e08565b90815260200160405180910390209081611df5919061318b565b505050565b6060600b82604051611e0c9190612e08565b9081526020016040518091039020600060028110611e2d57611e2c612e1f565b5b018054611e3990612e7d565b80601f0160208091040260200160405190810160405280929190818152602001828054611e6590612e7d565b8015611eb25780601f10611e8757610100808354040283529160200191611eb2565b820191906000526020600020905b815481529060010190602001808311611e9557829003601f168201915b50505050509050919050565b6000611f7084600d88604051611ed49190612e08565b90815260200160405180910390208054611eed90612e7d565b80601f0160208091040260200160405190810160405280929190818152602001828054611f1990612e7d565b8015611f665780601f10611f3b57610100808354040283529160200191611f66565b820191906000526020600020905b815481529060010190602001808311611f4957829003601f168201915b50505050506114be565b9050611f7e86853385611973565b611f888484610b5a565b611f956004548787610f26565b60046000815480929190611fa890612f97565b919050555060016000815480929190611fc090612f97565b9190505550505050505050565b606060006001611fdc8461209b565b01905060008167ffffffffffffffff811115611ffb57611ffa612345565b5b6040519080825280601f01601f19166020018201604052801561202d5781602001600182028036833780820191505090505b509050600082602001820190505b600115612090578080600190039150507f3031323334353637383961626364656600000000000000000000000000000000600a86061a8153600a8581612084576120836134c7565b5b0494506000850361203b575b819350505050919050565b600080600090507a184f03e93ff9f4daa797ed6e38ed64bf6a1f01000000000000000083106120f9577a184f03e93ff9f4daa797ed6e38ed64bf6a1f01000000000000000083816120ef576120ee6134c7565b5b0492506040810190505b6d04ee2d6d415b85acef81000000008310612136576d04ee2d6d415b85acef8100000000838161212c5761212b6134c7565b5b0492506020810190505b662386f26fc10000831061216557662386f26fc10000838161215b5761215a6134c7565b5b0492506010810190505b6305f5e100831061218e576305f5e1008381612184576121836134c7565b5b0492506008810190505b61271083106121b35761271083816121a9576121a86134c7565b5b0492506004810190505b606483106121d657606483816121cc576121cb6134c7565b5b0492506002810190505b600a83106121e5576001810190505b80915050919050565b60405180604001604052806002905b60608152602001906001900390816121fd5790505090565b8260028101928215612250579160200282015b8281111561224f57825182908161223f919061318b565b5091602001919060010190612228565b5b50905061225d9190612261565b5090565b5b8082111561228157600081816122789190612285565b50600101612262565b5090565b50805461229190612e7d565b6000825580601f106122a357506122c2565b601f0160209004906000526020600020908101906122c191906122c5565b5b50565b5b808211156122de5760008160009055506001016122c6565b5090565b6000819050919050565b6122f5816122e2565b82525050565b600060208201905061231060008301846122ec565b92915050565b6000604051905090565b600080fd5b600080fd5b600080fd5b600080fd5b6000601f19601f8301169050919050565b7f4e487b7100000000000000000000000000000000000000000000000000000000600052604160045260246000fd5b61237d82612334565b810181811067ffffffffffffffff8211171561239c5761239b612345565b5b80604052505050565b60006123af612316565b90506123bb8282612374565b919050565b600067ffffffffffffffff8211156123db576123da612345565b5b6123e482612334565b9050602081019050919050565b82818337600083830152505050565b600061241361240e846123c0565b6123a5565b90508281526020810184848401111561242f5761242e61232f565b5b61243a8482856123f1565b509392505050565b600082601f8301126124575761245661232a565b5b8135612467848260208601612400565b91505092915050565b60006020828403121561248657612485612320565b5b600082013567ffffffffffffffff8111156124a4576124a3612325565b5b6124b084828501612442565b91505092915050565b600081519050919050565b600082825260208201905092915050565b6000819050602082019050919050565b600081519050919050565b600082825260208201905092915050565b60005b8381101561251f578082015181840152602081019050612504565b60008484015250505050565b6000612536826124e5565b61254081856124f0565b9350612550818560208601612501565b61255981612334565b840191505092915050565b6000612570838361252b565b905092915050565b6000602082019050919050565b6000612590826124b9565b61259a81856124c4565b9350836020820285016125ac856124d5565b8060005b858110156125e857848403895281516125c98582612564565b94506125d483612578565b925060208a019950506001810190506125b0565b50829750879550505050505092915050565b600060208201905081810360008301526126148184612585565b905092915050565b6000806040838503121561263357612632612320565b5b600083013567ffffffffffffffff81111561265157612650612325565b5b61265d85828601612442565b925050602083013567ffffffffffffffff81111561267e5761267d612325565b5b61268a85828601612442565b9150509250929050565b600073ffffffffffffffffffffffffffffffffffffffff82169050919050565b60006126bf82612694565b9050919050565b6126cf816126b4565b81146126da57600080fd5b50565b6000813590506126ec816126c6565b92915050565b60008060006060848603121561270b5761270a612320565b5b6000612719868287016126dd565b935050602084013567ffffffffffffffff81111561273a57612739612325565b5b61274686828701612442565b925050604084013567ffffffffffffffff81111561276757612766612325565b5b61277386828701612442565b9150509250925092565b60008115159050919050565b6127928161277d565b82525050565b60006020820190506127ad6000830184612789565b92915050565b600082825260208201905092915050565b60006127cf826124e5565b6127d981856127b3565b93506127e9818560208601612501565b6127f281612334565b840191505092915050565b6000602082019050818103600083015261281781846127c4565b905092915050565b612828816122e2565b811461283357600080fd5b50565b6000813590506128458161281f565b92915050565b60008060006060848603121561286457612863612320565b5b600061287286828701612836565b935050602084013567ffffffffffffffff81111561289357612892612325565b5b61289f86828701612442565b925050604084013567ffffffffffffffff8111156128c0576128bf612325565b5b6128cc86828701612442565b9150509250925092565b6000806000606084860312156128ef576128ee612320565b5b600084013567ffffffffffffffff81111561290d5761290c612325565b5b61291986828701612442565b935050602084013567ffffffffffffffff81111561293a57612939612325565b5b61294686828701612442565b925050604061295786828701612836565b9150509250925092565b600060029050919050565b600081905092915050565b6000819050919050565b6000602082019050919050565b600061299982612961565b6129a3818561296c565b9350836020820285016129b585612977565b8060005b858110156129f157848403895281516129d28582612564565b94506129dd83612981565b925060208a019950506001810190506129b9565b50829750879550505050505092915050565b60006020820190508181036000830152612a1d818461298e565b905092915050565b600060208284031215612a3b57612a3a612320565b5b6000612a4984828501612836565b91505092915050565b612a5b816126b4565b82525050565b60006080820190508181036000830152612a7b81876127c4565b90508181036020830152612a8f81866127c4565b9050612a9e6040830185612a52565b8181036060830152612ab081846127c4565b905095945050505050565b60008060408385031215612ad257612ad1612320565b5b600083013567ffffffffffffffff811115612af057612aef612325565b5b612afc85828601612442565b9250506020612b0d85828601612836565b9150509250929050565b600080600060608486031215612b3057612b2f612320565b5b600084013567ffffffffffffffff811115612b4e57612b4d612325565b5b612b5a86828701612442565b935050602084013567ffffffffffffffff811115612b7b57612b7a612325565b5b612b8786828701612442565b925050604084013567ffffffffffffffff811115612ba857612ba7612325565b5b612bb486828701612442565b9150509250925092565b60008060008060808587031215612bd857612bd7612320565b5b600085013567ffffffffffffffff811115612bf657612bf5612325565b5b612c0287828801612442565b945050602085013567ffffffffffffffff811115612c2357612c22612325565b5b612c2f87828801612442565b9350506040612c40878288016126dd565b925050606085013567ffffffffffffffff811115612c6157612c60612325565b5b612c6d87828801612442565b91505092959194509250565b600080600080600060a08688031215612c9557612c94612320565b5b600086013567ffffffffffffffff811115612cb357612cb2612325565b5b612cbf88828901612442565b955050602086013567ffffffffffffffff811115612ce057612cdf612325565b5b612cec88828901612442565b945050604086013567ffffffffffffffff811115612d0d57612d0c612325565b5b612d1988828901612442565b935050606086013567ffffffffffffffff811115612d3a57612d39612325565b5b612d4688828901612442565b925050608086013567ffffffffffffffff811115612d6757612d66612325565b5b612d7388828901612442565b9150509295509295909350565b7f6d5f000000000000000000000000000000000000000000000000000000000000815250565b600081905092915050565b6000612dbc826124e5565b612dc68185612da6565b9350612dd6818560208601612501565b80840191505092915050565b6000612ded82612d80565b600282019150612dfd8284612db1565b915081905092915050565b6000612e148284612db1565b915081905092915050565b7f4e487b7100000000000000000000000000000000000000000000000000000000600052603260045260246000fd5b7f4e487b7100000000000000000000000000000000000000000000000000000000600052602260045260246000fd5b60006002820490506001821680612e9557607f821691505b602082108103612ea857612ea7612e4e565b5b50919050565b600081905092915050565b60008190508160005260206000209050919050565b60008154612edb81612e7d565b612ee58186612eae565b94506001821660008114612f005760018114612f1557612f48565b60ff1983168652811515820286019350612f48565b612f1e85612eb9565b60005b83811015612f4057815481890152600182019150602081019050612f21565b838801955050505b50505092915050565b6000612f5d8284612ece565b915081905092915050565b7f4e487b7100000000000000000000000000000000000000000000000000000000600052601160045260246000fd5b6000612fa2826122e2565b91507fffffffffffffffffffffffffffffffffffffffffffffffffffffffffffffffff8203612fd457612fd3612f68565b5b600182019050919050565b60008190508160005260206000209050919050565b60006020601f8301049050919050565b600082821b905092915050565b6000600883026130417fffffffffffffffffffffffffffffffffffffffffffffffffffffffffffffffff82613004565b61304b8683613004565b95508019841693508086168417925050509392505050565b6000819050919050565b600061308861308361307e846122e2565b613063565b6122e2565b9050919050565b6000819050919050565b6130a28361306d565b6130b66130ae8261308f565b848454613011565b825550505050565b600090565b6130cb6130be565b6130d6818484613099565b505050565b5b818110156130fa576130ef6000826130c3565b6001810190506130dc565b5050565b601f82111561313f5761311081612fdf565b61311984612ff4565b81016020851015613128578190505b61313c61313485612ff4565b8301826130db565b50505b505050565b600082821c905092915050565b600061316260001984600802613144565b1980831691505092915050565b600061317b8383613151565b9150826002028217905092915050565b613194826124e5565b67ffffffffffffffff8111156131ad576131ac612345565b5b6131b78254612e7d565b6131c28282856130fe565b600060209050601f8311600181146131f557600084156131e3578287015190505b6131ed858261316f565b865550613255565b601f19841661320386612fdf565b60005b8281101561322b57848901518255600182019150602085019450602081019050613206565b868310156132485784890151613244601f891682613151565b8355505b6001600288020188555050505b505050505050565b600060ff82169050919050565b60006132758261325d565b91506132808361325d565b9250828203905060ff81111561329957613298612f68565b5b92915050565b60006132aa826122e2565b91506132b5836122e2565b92508282039050818111156132cd576132cc612f68565b5b92915050565b60008160011c9050919050565b6000808291508390505b600185111561332a5780860481111561330657613305612f68565b5b60018516156133155780820291505b8081029050613323856132d3565b94506132ea565b94509492505050565b60008261334357600190506133ff565b8161335157600090506133ff565b81600181146133675760028114613371576133a0565b60019150506133ff565b60ff84111561338357613382612f68565b5b8360020a91508482111561339a57613399612f68565b5b506133ff565b5060208310610133831016604e8410600b84101617156133d55782820a9050838111156133d0576133cf612f68565b5b6133ff565b6133e284848460016132e0565b925090508184048111156133f9576133f8612f68565b5b81810290505b9392505050565b6000613411826122e2565b915061341c836122e2565b92506134497fffffffffffffffffffffffffffffffffffffffffffffffffffffffffffffffff8484613333565b905092915050565b600061345c826122e2565b9150613467836122e2565b9250828202613475816122e2565b9150828204841483151761348c5761348b612f68565b5b5092915050565b600061349e826122e2565b91506134a9836122e2565b92508282019050808211156134c1576134c0612f68565b5b92915050565b7f4e487b7100000000000000000000000000000000000000000000000000000000600052601260045260246000fdfea2646970667358221220449cdc079e5cde619269038b64f9ef031827eac756e1b33fa63e4205514e557764736f6c63430008110033",
  "linkReferences": {},
  "deployedLinkReferences": {}
}