{
  "_format": "hh-sol-artifact-1",
  "contractName": "PolkaGift",
  "sourceName": "contracts/PolkaGift.sol",
  "abi": [
    {
      "inputs": [],
      "stateMutability": "nonpayable",
      "type": "constructor"
    },
    {
      "anonymous": false,
      "inputs": [
        {
          "indexed": true,
          "internalType": "address",
          "name": "owner",
          "type": "address"
        },
        {
          "indexed": true,
          "internalType": "address",
          "name": "approved",
          "type": "address"
        },
        {
          "indexed": true,
          "internalType": "uint256",
          "name": "tokenId",
          "type": "uint256"
        }
      ],
      "name": "Approval",
      "type": "event"
    },
    {
      "anonymous": false,
      "inputs": [
        {
          "indexed": true,
          "internalType": "address",
          "name": "owner",
          "type": "address"
        },
        {
          "indexed": true,
          "internalType": "address",
          "name": "operator",
          "type": "address"
        },
        {
          "indexed": false,
          "internalType": "bool",
          "name": "approved",
          "type": "bool"
        }
      ],
      "name": "ApprovalForAll",
      "type": "event"
    },
    {
      "anonymous": false,
      "inputs": [
        {
          "indexed": true,
          "internalType": "address",
          "name": "from",
          "type": "address"
        },
        {
          "indexed": true,
          "internalType": "address",
          "name": "to",
          "type": "address"
        },
        {
          "indexed": true,
          "internalType": "uint256",
          "name": "tokenId",
          "type": "uint256"
        }
      ],
      "name": "Transfer",
      "type": "event"
    },
    {
      "inputs": [
        {
          "internalType": "uint256",
          "name": "",
          "type": "uint256"
        }
      ],
      "name": "AllEventEndTime",
      "outputs": [
        {
          "internalType": "uint256",
          "name": "event_id",
          "type": "uint256"
        },
        {
          "internalType": "uint256",
          "name": "end_time",
          "type": "uint256"
        },
        {
          "internalType": "bool",
          "name": "ended",
          "type": "bool"
        }
      ],
      "stateMutability": "view",
      "type": "function"
    },
    {
      "inputs": [
        {
          "internalType": "uint256",
          "name": "BidId",
          "type": "uint256"
        }
      ],
      "name": "BidURI",
      "outputs": [
        {
          "internalType": "string",
          "name": "",
          "type": "string"
        }
      ],
      "stateMutability": "view",
      "type": "function"
    },
    {
      "inputs": [],
      "name": "_EventTokenSearchIds",
      "outputs": [
        {
          "internalType": "uint256",
          "name": "",
          "type": "uint256"
        }
      ],
      "stateMutability": "view",
      "type": "function"
    },
    {
      "inputs": [
        {
          "internalType": "uint256",
          "name": "",
          "type": "uint256"
        },
        {
          "internalType": "uint256",
          "name": "",
          "type": "uint256"
        }
      ],
      "name": "_SearchedStore",
      "outputs": [
        {
          "internalType": "string",
          "name": "",
          "type": "string"
        }
      ],
      "stateMutability": "view",
      "type": "function"
    },
    {
      "inputs": [
        {
          "internalType": "uint256",
          "name": "_tokenId",
          "type": "uint256"
        }
      ],
      "name": "_getSearchedTokenURI",
      "outputs": [
        {
          "internalType": "string",
          "name": "",
          "type": "string"
        }
      ],
      "stateMutability": "view",
      "type": "function"
    },
    {
      "inputs": [
        {
          "internalType": "uint256",
          "name": "bidId",
          "type": "uint256"
        },
        {
          "internalType": "string",
          "name": "_bidURI",
          "type": "string"
        }
      ],
      "name": "_setBidURI",
      "outputs": [],
      "stateMutability": "nonpayable",
      "type": "function"
    },
    {
      "inputs": [
        {
          "internalType": "uint256",
          "name": "_eventId",
          "type": "uint256"
        },
        {
          "internalType": "string",
          "name": "_raised",
          "type": "string"
        }
      ],
      "name": "_setEventRaised",
      "outputs": [],
      "stateMutability": "nonpayable",
      "type": "function"
    },
    {
      "inputs": [
        {
          "internalType": "uint256",
          "name": "eventId",
          "type": "uint256"
        },
        {
          "internalType": "string",
          "name": "_eventWallet",
          "type": "string"
        },
        {
          "internalType": "string",
          "name": "_eventURI",
          "type": "string"
        }
      ],
      "name": "_setEventURI",
      "outputs": [],
      "stateMutability": "nonpayable",
      "type": "function"
    },
    {
      "inputs": [
        {
          "internalType": "uint256",
          "name": "TokenBidId",
          "type": "uint256"
        },
        {
          "internalType": "uint256",
          "name": "TokenId",
          "type": "uint256"
        },
        {
          "internalType": "string",
          "name": "_BidURI",
          "type": "string"
        }
      ],
      "name": "_setTokenBid",
      "outputs": [],
      "stateMutability": "nonpayable",
      "type": "function"
    },
    {
      "inputs": [
        {
          "internalType": "uint256",
          "name": "EventTokenId",
          "type": "uint256"
        },
        {
          "internalType": "uint256",
          "name": "EventId",
          "type": "uint256"
        },
        {
          "internalType": "string",
          "name": "_tokenURI",
          "type": "string"
        }
      ],
      "name": "_setTokenEvent",
      "outputs": [],
      "stateMutability": "nonpayable",
      "type": "function"
    },
    {
      "inputs": [
        {
          "internalType": "uint256",
          "name": "token_id",
          "type": "uint256"
        },
        {
          "internalType": "uint256",
          "name": "event_id",
          "type": "uint256"
        },
        {
          "internalType": "address",
          "name": "wallet",
          "type": "address"
        }
      ],
      "name": "_setTokenHighestBid",
      "outputs": [],
      "stateMutability": "nonpayable",
      "type": "function"
    },
    {
      "inputs": [
        {
          "internalType": "uint256",
          "name": "tokenId",
          "type": "uint256"
        },
        {
          "internalType": "string",
          "name": "_tokenURI",
          "type": "string"
        }
      ],
      "name": "_setTokenURI",
      "outputs": [],
      "stateMutability": "nonpayable",
      "type": "function"
    },
    {
      "inputs": [
        {
          "internalType": "address",
          "name": "to",
          "type": "address"
        },
        {
          "internalType": "uint256",
          "name": "tokenId",
          "type": "uint256"
        }
      ],
      "name": "approve",
      "outputs": [],
      "stateMutability": "nonpayable",
      "type": "function"
    },
    {
      "inputs": [
        {
          "internalType": "address",
          "name": "owner",
          "type": "address"
        }
      ],
      "name": "balanceOf",
      "outputs": [
        {
          "internalType": "uint256",
          "name": "",
          "type": "uint256"
        }
      ],
      "stateMutability": "view",
      "type": "function"
    },
    {
      "inputs": [
        {
          "internalType": "address",
          "name": "_claimer",
          "type": "address"
        },
        {
          "internalType": "string",
          "name": "_tokenURI",
          "type": "string"
        },
        {
          "internalType": "uint256",
          "name": "_eventid",
          "type": "uint256"
        }
      ],
      "name": "claimToken",
      "outputs": [
        {
          "internalType": "uint256",
          "name": "",
          "type": "uint256"
        }
      ],
      "stateMutability": "nonpayable",
      "type": "function"
    },
    {
      "inputs": [
        {
          "internalType": "uint256",
          "name": "_tokenId",
          "type": "uint256"
        },
        {
          "internalType": "string",
          "name": "_bidURI",
          "type": "string"
        },
        {
          "internalType": "string",
          "name": "_updatedURI",
          "type": "string"
        },
        {
          "internalType": "uint256",
          "name": "_eventid",
          "type": "uint256"
        },
        {
          "internalType": "string",
          "name": "_raised",
          "type": "string"
        }
      ],
      "name": "createBid",
      "outputs": [],
      "stateMutability": "nonpayable",
      "type": "function"
    },
    {
      "inputs": [
        {
          "internalType": "string",
          "name": "_eventWallet",
          "type": "string"
        },
        {
          "internalType": "string",
          "name": "_eventURI",
          "type": "string"
        },
        {
          "internalType": "uint256",
          "name": "endtime",
          "type": "uint256"
        }
      ],
      "name": "createEvent",
      "outputs": [
        {
          "internalType": "uint256",
          "name": "",
          "type": "uint256"
        }
      ],
      "stateMutability": "nonpayable",
      "type": "function"
    },
    {
      "inputs": [],
      "name": "distributeFull",
      "outputs": [],
      "stateMutability": "nonpayable",
      "type": "function"
    },
    {
      "inputs": [
        {
          "internalType": "uint256",
          "name": "eventID",
          "type": "uint256"
        }
      ],
      "name": "distribute_event",
      "outputs": [],
      "stateMutability": "nonpayable",
      "type": "function"
    },
    {
      "inputs": [
        {
          "internalType": "uint256",
          "name": "eventId",
          "type": "uint256"
        }
      ],
      "name": "eventURI",
      "outputs": [
        {
          "internalType": "string[2]",
          "name": "",
          "type": "string[2]"
        }
      ],
      "stateMutability": "view",
      "type": "function"
    },
    {
      "inputs": [
        {
          "internalType": "uint256",
          "name": "tokenId",
          "type": "uint256"
        }
      ],
      "name": "getApproved",
      "outputs": [
        {
          "internalType": "address",
          "name": "",
          "type": "address"
        }
      ],
      "stateMutability": "view",
      "type": "function"
    },
    {
      "inputs": [
        {
          "internalType": "string",
          "name": "_bidURI",
          "type": "string"
        }
      ],
      "name": "getBidIdByUri",
      "outputs": [
        {
          "internalType": "uint256",
          "name": "",
          "type": "uint256"
        }
      ],
      "stateMutability": "view",
      "type": "function"
    },
    {
      "inputs": [
        {
          "internalType": "uint256",
          "name": "TokenID",
          "type": "uint256"
        }
      ],
      "name": "getBidsSearchToken",
      "outputs": [
        {
          "internalType": "string[]",
          "name": "",
          "type": "string[]"
        }
      ],
      "stateMutability": "view",
      "type": "function"
    },
    {
      "inputs": [
        {
          "internalType": "string",
          "name": "_eventURI",
          "type": "string"
        }
      ],
      "name": "getEventIdByURI",
      "outputs": [
        {
          "internalType": "uint256",
          "name": "",
          "type": "uint256"
        }
      ],
      "stateMutability": "view",
      "type": "function"
    },
    {
      "inputs": [
        {
          "internalType": "uint256",
          "name": "_eventId",
          "type": "uint256"
        }
      ],
      "name": "getEventRaised",
      "outputs": [
        {
          "internalType": "string",
          "name": "",
          "type": "string"
        }
      ],
      "stateMutability": "view",
      "type": "function"
    },
    {
      "inputs": [
        {
          "internalType": "uint256",
          "name": "EventId",
          "type": "uint256"
        },
        {
          "internalType": "string",
          "name": "_tokenURI",
          "type": "string"
        }
      ],
      "name": "getGetEventsTokenID",
      "outputs": [
        {
          "internalType": "uint256",
          "name": "",
          "type": "uint256"
        }
      ],
      "stateMutability": "view",
      "type": "function"
    },
    {
      "inputs": [
        {
          "internalType": "string",
          "name": "Wallet",
          "type": "string"
        }
      ],
      "name": "getSearchEventbyWallet",
      "outputs": [
        {
          "internalType": "string[]",
          "name": "",
          "type": "string[]"
        }
      ],
      "stateMutability": "view",
      "type": "function"
    },
    {
      "inputs": [
        {
          "internalType": "uint256",
          "name": "TokenID",
          "type": "uint256"
        }
      ],
      "name": "getTotalBid",
      "outputs": [
        {
          "internalType": "string[]",
          "name": "",
          "type": "string[]"
        }
      ],
      "stateMutability": "view",
      "type": "function"
    },
    {
      "inputs": [
        {
          "internalType": "string",
          "name": "_tokenURI",
          "type": "string"
        }
      ],
      "name": "gettokenIdByUri",
      "outputs": [
        {
          "internalType": "uint256",
          "name": "",
          "type": "uint256"
        }
      ],
      "stateMutability": "view",
      "type": "function"
    },
    {
      "inputs": [
        {
          "internalType": "uint256",
          "name": "EventID",
          "type": "uint256"
        }
      ],
      "name": "gettokenSearchEventTotal",
      "outputs": [
        {
          "internalType": "string[]",
          "name": "",
          "type": "string[]"
        }
      ],
      "stateMutability": "view",
      "type": "function"
    },
    {
      "inputs": [
        {
          "internalType": "address",
          "name": "owner",
          "type": "address"
        },
        {
          "internalType": "address",
          "name": "operator",
          "type": "address"
        }
      ],
      "name": "isApprovedForAll",
      "outputs": [
        {
          "internalType": "bool",
          "name": "",
          "type": "bool"
        }
      ],
      "stateMutability": "view",
      "type": "function"
    },
    {
      "inputs": [],
      "name": "name",
      "outputs": [
        {
          "internalType": "string",
          "name": "",
          "type": "string"
        }
      ],
      "stateMutability": "view",
      "type": "function"
    },
    {
      "inputs": [
        {
          "internalType": "uint256",
          "name": "tokenId",
          "type": "uint256"
        }
      ],
      "name": "ownerOf",
      "outputs": [
        {
          "internalType": "address",
          "name": "",
          "type": "address"
        }
      ],
      "stateMutability": "view",
      "type": "function"
    },
    {
      "inputs": [
        {
          "internalType": "address",
          "name": "from",
          "type": "address"
        },
        {
          "internalType": "address",
          "name": "to",
          "type": "address"
        },
        {
          "internalType": "uint256",
          "name": "tokenId",
          "type": "uint256"
        }
      ],
      "name": "safeTransferFrom",
      "outputs": [],
      "stateMutability": "nonpayable",
      "type": "function"
    },
    {
      "inputs": [
        {
          "internalType": "address",
          "name": "from",
          "type": "address"
        },
        {
          "internalType": "address",
          "name": "to",
          "type": "address"
        },
        {
          "internalType": "uint256",
          "name": "tokenId",
          "type": "uint256"
        },
        {
          "internalType": "bytes",
          "name": "data",
          "type": "bytes"
        }
      ],
      "name": "safeTransferFrom",
      "outputs": [],
      "stateMutability": "nonpayable",
      "type": "function"
    },
    {
      "inputs": [
        {
          "internalType": "address",
          "name": "operator",
          "type": "address"
        },
        {
          "internalType": "bool",
          "name": "approved",
          "type": "bool"
        }
      ],
      "name": "setApprovalForAll",
      "outputs": [],
      "stateMutability": "nonpayable",
      "type": "function"
    },
    {
      "inputs": [
        {
          "internalType": "bytes4",
          "name": "interfaceId",
          "type": "bytes4"
        }
      ],
      "name": "supportsInterface",
      "outputs": [
        {
          "internalType": "bool",
          "name": "",
          "type": "bool"
        }
      ],
      "stateMutability": "view",
      "type": "function"
    },
    {
      "inputs": [],
      "name": "symbol",
      "outputs": [
        {
          "internalType": "string",
          "name": "",
          "type": "string"
        }
      ],
      "stateMutability": "view",
      "type": "function"
    },
    {
      "inputs": [
        {
          "internalType": "uint256",
          "name": "tokenId",
          "type": "uint256"
        }
      ],
      "name": "tokenURI",
      "outputs": [
        {
          "internalType": "string",
          "name": "",
          "type": "string"
        }
      ],
      "stateMutability": "view",
      "type": "function"
    },
    {
      "inputs": [],
      "name": "totalEvent",
      "outputs": [
        {
          "internalType": "uint256",
          "name": "",
          "type": "uint256"
        }
      ],
      "stateMutability": "view",
      "type": "function"
    },
    {
      "inputs": [],
      "name": "totalSupply",
      "outputs": [
        {
          "internalType": "uint256",
          "name": "",
          "type": "uint256"
        }
      ],
      "stateMutability": "view",
      "type": "function"
    },
    {
      "inputs": [
        {
          "internalType": "address",
          "name": "from",
          "type": "address"
        },
        {
          "internalType": "address",
          "name": "to",
          "type": "address"
        },
        {
          "internalType": "uint256",
          "name": "tokenId",
          "type": "uint256"
        }
      ],
      "name": "transferFrom",
      "outputs": [],
      "stateMutability": "nonpayable",
      "type": "function"
    }
  ],
  "bytecode": "0x60806040523480156200001157600080fd5b506040518060400160405280600981526020017f506f6c6b614769667400000000000000000000000000000000000000000000008152506040518060400160405280600581526020017f50434f494e00000000000000000000000000000000000000000000000000000081525081600090816200008f919062000324565b508060019081620000a1919062000324565b5050506200040b565b600081519050919050565b7f4e487b7100000000000000000000000000000000000000000000000000000000600052604160045260246000fd5b7f4e487b7100000000000000000000000000000000000000000000000000000000600052602260045260246000fd5b600060028204905060018216806200012c57607f821691505b602082108103620001425762000141620000e4565b5b50919050565b60008190508160005260206000209050919050565b60006020601f8301049050919050565b600082821b905092915050565b600060088302620001ac7fffffffffffffffffffffffffffffffffffffffffffffffffffffffffffffffff826200016d565b620001b886836200016d565b95508019841693508086168417925050509392505050565b6000819050919050565b6000819050919050565b600062000205620001ff620001f984620001d0565b620001da565b620001d0565b9050919050565b6000819050919050565b6200022183620001e4565b6200023962000230826200020c565b8484546200017a565b825550505050565b600090565b6200025062000241565b6200025d81848462000216565b505050565b5b8181101562000285576200027960008262000246565b60018101905062000263565b5050565b601f821115620002d4576200029e8162000148565b620002a9846200015d565b81016020851015620002b9578190505b620002d1620002c8856200015d565b83018262000262565b50505b505050565b600082821c905092915050565b6000620002f960001984600802620002d9565b1980831691505092915050565b6000620003148383620002e6565b9150826002028217905092915050565b6200032f82620000aa565b67ffffffffffffffff8111156200034b576200034a620000b5565b5b62000357825462000113565b6200036482828562000289565b600060209050601f8311600181146200039c576000841562000387578287015190505b62000393858262000306565b86555062000403565b601f198416620003ac8662000148565b60005b82811015620003d657848901518255600182019150602085019450602081019050620003af565b86831015620003f65784890151620003f2601f891682620002e6565b8355505b6001600288020188555050505b505050505050565b6148dc806200041b6000396000f3fe608060405234801561001057600080fd5b506004361061025e5760003560e01c80635555fe1711610146578063aed47961116100c3578063d45fc51611610087578063d45fc516146107c9578063d654e993146107f9578063e08033d314610815578063e819405014610831578063e985e9c51461084d578063eb1d234d1461087d5761025e565b8063aed4796114610701578063b10a5dfa14610731578063b88d4fde14610761578063c87b56dd1461077d578063ce8a551a146107ad5761025e565b80637eadfa6a1161010a5780637eadfa6a14610649578063932a196b1461066757806395d89b4114610697578063a0fd0c6a146106b5578063a22cb465146106e55761025e565b80635555fe171461056d578063619581581461059d5780636352211e146105b957806370a08231146105e95780637cedbc1e146106195761025e565b80631e65e117116101df57806335011d90116101a357806335011d90146104755780633592dd80146104a557806342842e0e146104c1578063446a92e3146104dd5780634eb083ec1461050d5780635154380a1461053d5761025e565b80631e65e117146103bf57806323b872dd146103ef57806328520ab71461040b5780632a1efd2b1461043b578063304b16db146104455761025e565b806309d3f9711161022657806309d3f97114610319578063144cbca61461034b5780631677bf081461036957806318160ddd146103855780631dacc07e146103a35761025e565b8063015388681461026357806301ffc9a71461027f57806306fdde03146102af578063081812fc146102cd578063095ea7b3146102fd575b600080fd5b61027d600480360381019061027891906132b9565b6108ad565b005b6102996004803603810190610294919061336d565b6108d2565b6040516102a691906133b5565b60405180910390f35b6102b76109b4565b6040516102c4919061344f565b60405180910390f35b6102e760048036038101906102e29190613471565b610a46565b6040516102f491906134df565b60405180910390f35b61031760048036038101906103129190613526565b610a8c565b005b610333600480360381019061032e9190613471565b610ba3565b60405161034293929190613575565b60405180910390f35b610353610bda565b60405161036091906135ac565b60405180910390f35b610383600480360381019061037e91906132b9565b610be0565b005b61038d610c05565b60405161039a91906135ac565b60405180910390f35b6103bd60048036038101906103b891906135c7565b610c0f565b005b6103d960048036038101906103d49190613696565b610d3e565b6040516103e691906137eb565b60405180910390f35b6104096004803603810190610404919061380d565b610f60565b005b610425600480360381019061042091906132b9565b610fc0565b60405161043291906135ac565b60405180910390f35b610443611099565b005b61045f600480360381019061045a9190613696565b611145565b60405161046c91906135ac565b60405180910390f35b61048f600480360381019061048a9190613860565b6111c7565b60405161049c91906135ac565b60405180910390f35b6104bf60048036038101906104ba91906138cf565b61122a565b005b6104db60048036038101906104d6919061380d565b61126e565b005b6104f760048036038101906104f29190613471565b61128e565b604051610504919061344f565b60405180910390f35b61052760048036038101906105229190613471565b611333565b604051610534919061344f565b60405180910390f35b61055760048036038101906105529190613471565b6113d8565b60405161056491906137eb565b60405180910390f35b6105876004803603810190610582919061393e565b611587565b60405161059491906135ac565b60405180910390f35b6105b760048036038101906105b291906139c9565b611667565b005b6105d360048036038101906105ce9190613471565b6116a3565b6040516105e091906134df565b60405180910390f35b61060360048036038101906105fe9190613a54565b611729565b60405161061091906135ac565b60405180910390f35b610633600480360381019061062e9190613471565b6117e0565b604051610640919061344f565b60405180910390f35b610651611899565b60405161065e91906135ac565b60405180910390f35b610681600480360381019061067c9190613696565b6118a3565b60405161068e91906135ac565b60405180910390f35b61069f611911565b6040516106ac919061344f565b60405180910390f35b6106cf60048036038101906106ca9190613471565b6119a3565b6040516106dc9190613b23565b60405180910390f35b6106ff60048036038101906106fa9190613b71565b611a83565b005b61071b60048036038101906107169190613471565b611a99565b60405161072891906137eb565b60405180910390f35b61074b60048036038101906107469190613bb1565b611c48565b604051610758919061344f565b60405180910390f35b61077b60048036038101906107769190613c92565b611cf8565b005b61079760048036038101906107929190613471565b611d5a565b6040516107a4919061344f565b60405180910390f35b6107c760048036038101906107c29190613d15565b611dff565b005b6107e360048036038101906107de9190613696565b611ec0565b6040516107f091906135ac565b60405180910390f35b610813600480360381019061080e91906138cf565b611f2e565b005b61082f600480360381019061082a91906132b9565b611f72565b005b61084b60048036038101906108469190613471565b611f97565b005b61086760048036038101906108629190613d68565b6120b4565b60405161087491906133b5565b60405180910390f35b61089760048036038101906108929190613471565b612148565b6040516108a491906137eb565b60405180910390f35b806013600084815260200190815260200160002090816108cd9190613fb4565b505050565b60007f80ac58cd000000000000000000000000000000000000000000000000000000007bffffffffffffffffffffffffffffffffffffffffffffffffffffffff1916827bffffffffffffffffffffffffffffffffffffffffffffffffffffffff1916148061099d57507f5b5e139f000000000000000000000000000000000000000000000000000000007bffffffffffffffffffffffffffffffffffffffffffffffffffffffff1916827bffffffffffffffffffffffffffffffffffffffffffffffffffffffff1916145b806109ad57506109ac826122f7565b5b9050919050565b6060600080546109c390613dd7565b80601f01602080910402602001604051908101604052809291908181526020018280546109ef90613dd7565b8015610a3c5780601f10610a1157610100808354040283529160200191610a3c565b820191906000526020600020905b815481529060010190602001808311610a1f57829003601f168201915b5050505050905090565b6000610a5182612361565b6004600083815260200190815260200160002060009054906101000a900473ffffffffffffffffffffffffffffffffffffffff169050919050565b6000610a97826116a3565b90508073ffffffffffffffffffffffffffffffffffffffff168373ffffffffffffffffffffffffffffffffffffffff1603610b07576040517f08c379a0000000000000000000000000000000000000000000000000000000008152600401610afe906140f8565b60405180910390fd5b8073ffffffffffffffffffffffffffffffffffffffff16610b266123ac565b73ffffffffffffffffffffffffffffffffffffffff161480610b555750610b5481610b4f6123ac565b6120b4565b5b610b94576040517f08c379a0000000000000000000000000000000000000000000000000000000008152600401610b8b9061418a565b60405180910390fd5b610b9e83836123b4565b505050565b600d6020528060005260406000206000915090508060000154908060010154908060020160009054906101000a900460ff16905083565b600c5481565b80601560008481526020019081526020016000209081610c009190613fb4565b505050565b6000600654905090565b6000610cb683601360008981526020019081526020016000208054610c3390613dd7565b80601f0160208091040260200160405190810160405280929190818152602001828054610c5f90613dd7565b8015610cac5780601f10610c8157610100808354040283529160200191610cac565b820191906000526020600020905b815481529060010190602001808311610c8f57829003601f168201915b5050505050610fc0565b905083601360008881526020019081526020016000209081610cd89190613fb4565b50610ce4868433611dff565b610cef81848661122a565b610cf98383610be0565b610d06600a548787611f2e565b600a6000815480929190610d19906141d9565b919050555060076000815480929190610d31906141d9565b9190505550505050505050565b606060008060005b600854811015610dbb57848051906020012060146000838152602001908152602001600020600060028110610d7e57610d7d614221565b5b01604051610d8c91906142f3565b604051809103902003610da8578280610da4906141d9565b9350505b8080610db3906141d9565b915050610d46565b5060008267ffffffffffffffff811115610dd857610dd761318e565b5b604051908082528060200260200182016040528015610e0b57816020015b6060815260200190600190039081610df65790505b50905060005b600854811015610f5457858051906020012060146000838152602001908152602001600020600060028110610e4957610e48614221565b5b01604051610e5791906142f3565b604051809103902003610f415760146000828152602001908152602001600020600160028110610e8a57610e89614221565b5b018054610e9690613dd7565b80601f0160208091040260200160405190810160405280929190818152602001828054610ec290613dd7565b8015610f0f5780601f10610ee457610100808354040283529160200191610f0f565b820191906000526020600020905b815481529060010190602001808311610ef257829003601f168201915b5050505050828481518110610f2757610f26614221565b5b60200260200101819052508280610f3d906141d9565b9350505b8080610f4c906141d9565b915050610e11565b50809350505050919050565b610f71610f6b6123ac565b8261246d565b610fb0576040517f08c379a0000000000000000000000000000000000000000000000000000000008152600401610fa79061437c565b60405180910390fd5b610fbb838383612502565b505050565b600080600090505b60095481101561108d57610fdb846127fb565b80519060200120600e600083815260200190815260200160002060006002811061100857611007614221565b5b0160405161101691906142f3565b604051809103902014801561106c57508280519060200120600e600083815260200190815260200160002060016002811061105457611053614221565b5b0160405161106291906142f3565b6040518091039020145b1561107a5780915050611093565b8080611085906141d9565b915050610fc8565b50600090505b92915050565b60005b600854811015611142576000600d600083815260200190815260200160002060405180606001604052908160008201548152602001600182015481526020016002820160009054906101000a900460ff161515151581525050905060004282602001511090506001151581151514801561111e57506000151582604001511515145b1561112d5761112c83611f97565b5b5050808061113a906141d9565b91505061109c565b50565b600080600090505b6008548110156111bc5782805190602001206014600083815260200190815260200160002060016002811061118557611184614221565b5b0160405161119391906142f3565b6040518091039020036111a957809150506111c2565b80806111b4906141d9565b91505061114d565b50600090505b919050565b60006111d5846006546128c9565b6111e1600654846108ad565b6111ee600954838561122a565b60066000815480929190611201906141d9565b919050555060096000815480929190611219906141d9565b919050555060065490509392505050565b604051806040016040528061123e846127fb565b815260200182815250600e6000858152602001908152602001600020906002611268929190613035565b50505050565b61128983838360405180602001604052806000815250611cf8565b505050565b60606012600083815260200190815260200160002080546112ae90613dd7565b80601f01602080910402602001604051908101604052809291908181526020018280546112da90613dd7565b80156113275780601f106112fc57610100808354040283529160200191611327565b820191906000526020600020905b81548152906001019060200180831161130a57829003601f168201915b50505050509050919050565b606060156000838152602001908152602001600020805461135390613dd7565b80601f016020809104026020016040519081016040528092919081815260200182805461137f90613dd7565b80156113cc5780601f106113a1576101008083540402835291602001916113cc565b820191906000526020600020905b8154815290600101906020018083116113af57829003601f168201915b50505050509050919050565b60606000600a67ffffffffffffffff8111156113f7576113f661318e565b5b60405190808252806020026020018201604052801561142a57816020015b60608152602001906001900390816114155790505b5090506000805b600a5481101561157c57611444856127fb565b80519060200120600f600083815260200190815260200160002060006002811061147157611470614221565b5b0160405161147f91906142f3565b60405180910390200361156957600f60008281526020019081526020016000206001600281106114b2576114b1614221565b5b0180546114be90613dd7565b80601f01602080910402602001604051908101604052809291908181526020018280546114ea90613dd7565b80156115375780601f1061150c57610100808354040283529160200191611537565b820191906000526020600020905b81548152906001019060200180831161151a57829003601f168201915b505050505083838151811061154f5761154e614221565b5b60200260200101819052508180611565906141d9565b9250505b8080611574906141d9565b915050611431565b508192505050919050565b60006115966008548585611667565b6115d76008546040518060400160405280600181526020017f3000000000000000000000000000000000000000000000000000000000000000815250610be0565b6040518060600160405280600854815260200183815260200160001515815250600d60006008548152602001908152602001600020600082015181600001556020820151816001015560408201518160020160006101000a81548160ff02191690831515021790555090505060086000815480929190611656906141d9565b919050555060085490509392505050565b6040518060400160405280838152602001828152506014600085815260200190815260200160002090600261169d929190613035565b50505050565b6000806116af83612ae6565b9050600073ffffffffffffffffffffffffffffffffffffffff168173ffffffffffffffffffffffffffffffffffffffff1603611720576040517f08c379a0000000000000000000000000000000000000000000000000000000008152600401611717906143e8565b60405180910390fd5b80915050919050565b60008073ffffffffffffffffffffffffffffffffffffffff168273ffffffffffffffffffffffffffffffffffffffff1603611799576040517f08c379a00000000000000000000000000000000000000000000000000000000081526004016117909061447a565b60405180910390fd5b600360008373ffffffffffffffffffffffffffffffffffffffff1673ffffffffffffffffffffffffffffffffffffffff168152602001908152602001600020549050919050565b60606011600083815260200190815260200160002060006002811061180857611807614221565b5b01805461181490613dd7565b80601f016020809104026020016040519081016040528092919081815260200182805461184090613dd7565b801561188d5780601f106118625761010080835404028352916020019161188d565b820191906000526020600020905b81548152906001019060200180831161187057829003601f168201915b50505050509050919050565b6000600854905090565b600080600090505b600654811015611906578280519060200120601360008381526020019081526020016000206040516118dd91906142f3565b6040518091039020036118f3578091505061190c565b80806118fe906141d9565b9150506118ab565b50600090505b919050565b60606001805461192090613dd7565b80601f016020809104026020016040519081016040528092919081815260200182805461194c90613dd7565b80156119995780601f1061196e57610100808354040283529160200191611999565b820191906000526020600020905b81548152906001019060200180831161197c57829003601f168201915b5050505050905090565b6119ab613081565b60146000838152602001908152602001600020600280602002604051908101604052809291906000905b82821015611a785783820180546119eb90613dd7565b80601f0160208091040260200160405190810160405280929190818152602001828054611a1790613dd7565b8015611a645780601f10611a3957610100808354040283529160200191611a64565b820191906000526020600020905b815481529060010190602001808311611a4757829003601f168201915b5050505050815260200190600101906119d5565b505050509050919050565b611a95611a8e6123ac565b8383612b23565b5050565b60606000600a67ffffffffffffffff811115611ab857611ab761318e565b5b604051908082528060200260200182016040528015611aeb57816020015b6060815260200190600190039081611ad65790505b5090506000805b600a54811015611c3d57611b05856127fb565b80519060200120600f6000838152602001908152602001600020600060028110611b3257611b31614221565b5b01604051611b4091906142f3565b604051809103902003611c2a57600f6000828152602001908152602001600020600160028110611b7357611b72614221565b5b018054611b7f90613dd7565b80601f0160208091040260200160405190810160405280929190818152602001828054611bab90613dd7565b8015611bf85780601f10611bcd57610100808354040283529160200191611bf8565b820191906000526020600020905b815481529060010190602001808311611bdb57829003601f168201915b5050505050838381518110611c1057611c0f614221565b5b60200260200101819052508180611c26906141d9565b9250505b8080611c35906141d9565b915050611af2565b508192505050919050565b60116020528160005260406000208160028110611c6457600080fd5b01600091509150508054611c7790613dd7565b80601f0160208091040260200160405190810160405280929190818152602001828054611ca390613dd7565b8015611cf05780601f10611cc557610100808354040283529160200191611cf0565b820191906000526020600020905b815481529060010190602001808311611cd357829003601f168201915b505050505081565b611d09611d036123ac565b8361246d565b611d48576040517f08c379a0000000000000000000000000000000000000000000000000000000008152600401611d3f9061437c565b60405180910390fd5b611d5484848484612c8f565b50505050565b6060601360008381526020019081526020016000208054611d7a90613dd7565b80601f0160208091040260200160405190810160405280929190818152602001828054611da690613dd7565b8015611df35780601f10611dc857610100808354040283529160200191611df3565b820191906000526020600020905b815481529060010190602001808311611dd657829003601f168201915b50505050509050919050565b60405180606001604052808481526020018381526020018273ffffffffffffffffffffffffffffffffffffffff1681525060106000600b548152602001908152602001600020600082015181600001556020820151816001015560408201518160020160006101000a81548173ffffffffffffffffffffffffffffffffffffffff021916908373ffffffffffffffffffffffffffffffffffffffff160217905550905050600b6000815480929190611eb6906141d9565b9190505550505050565b600080600090505b600754811015611f2357828051906020012060126000838152602001908152602001600020604051611efa91906142f3565b604051809103902003611f105780915050611f29565b8080611f1b906141d9565b915050611ec8565b50600090505b919050565b6040518060400160405280611f42846127fb565b815260200182815250600f6000858152602001908152602001600020906002611f6c929190613035565b50505050565b80601260008481526020019081526020016000209081611f929190613fb4565b505050565b60005b600b548110156120b05760006010600083815260200190815260200160002060405180606001604052908160008201548152602001600182015481526020016002820160009054906101000a900473ffffffffffffffffffffffffffffffffffffffff1673ffffffffffffffffffffffffffffffffffffffff1673ffffffffffffffffffffffffffffffffffffffff168152505090508260106000848152602001908152602001600020600101540361209c5761206c61205d82600001516116a3565b82604001518360000151612502565b6001600d600085815260200190815260200160002060020160006101000a81548160ff0219169083151502179055505b5080806120a8906141d9565b915050611f9a565b5050565b6000600560008473ffffffffffffffffffffffffffffffffffffffff1673ffffffffffffffffffffffffffffffffffffffff16815260200190815260200160002060008373ffffffffffffffffffffffffffffffffffffffff1673ffffffffffffffffffffffffffffffffffffffff16815260200190815260200160002060009054906101000a900460ff16905092915050565b60606000600a67ffffffffffffffff8111156121675761216661318e565b5b60405190808252806020026020018201604052801561219a57816020015b60608152602001906001900390816121855790505b5090506000805b6009548110156122ec576121b4856127fb565b80519060200120600e60008381526020019081526020016000206000600281106121e1576121e0614221565b5b016040516121ef91906142f3565b6040518091039020036122d957600e600082815260200190815260200160002060016002811061222257612221614221565b5b01805461222e90613dd7565b80601f016020809104026020016040519081016040528092919081815260200182805461225a90613dd7565b80156122a75780601f1061227c576101008083540402835291602001916122a7565b820191906000526020600020905b81548152906001019060200180831161228a57829003601f168201915b50505050508383815181106122bf576122be614221565b5b602002602001018190525081806122d5906141d9565b9250505b80806122e4906141d9565b9150506121a1565b508192505050919050565b60007f01ffc9a7000000000000000000000000000000000000000000000000000000007bffffffffffffffffffffffffffffffffffffffffffffffffffffffff1916827bffffffffffffffffffffffffffffffffffffffffffffffffffffffff1916149050919050565b61236a81612ceb565b6123a9576040517f08c379a00000000000000000000000000000000000000000000000000000000081526004016123a0906143e8565b60405180910390fd5b50565b600033905090565b816004600083815260200190815260200160002060006101000a81548173ffffffffffffffffffffffffffffffffffffffff021916908373ffffffffffffffffffffffffffffffffffffffff160217905550808273ffffffffffffffffffffffffffffffffffffffff16612427836116a3565b73ffffffffffffffffffffffffffffffffffffffff167f8c5be1e5ebec7d5bd14f71427d1e84f3dd0314c0f7b2291e5b200ac8c7c3b92560405160405180910390a45050565b600080612479836116a3565b90508073ffffffffffffffffffffffffffffffffffffffff168473ffffffffffffffffffffffffffffffffffffffff1614806124bb57506124ba81856120b4565b5b806124f957508373ffffffffffffffffffffffffffffffffffffffff166124e184610a46565b73ffffffffffffffffffffffffffffffffffffffff16145b91505092915050565b8273ffffffffffffffffffffffffffffffffffffffff16612522826116a3565b73ffffffffffffffffffffffffffffffffffffffff1614612578576040517f08c379a000000000000000000000000000000000000000000000000000000000815260040161256f9061450c565b60405180910390fd5b600073ffffffffffffffffffffffffffffffffffffffff168273ffffffffffffffffffffffffffffffffffffffff16036125e7576040517f08c379a00000000000000000000000000000000000000000000000000000000081526004016125de9061459e565b60405180910390fd5b6125f48383836001612d2c565b8273ffffffffffffffffffffffffffffffffffffffff16612614826116a3565b73ffffffffffffffffffffffffffffffffffffffff161461266a576040517f08c379a00000000000000000000000000000000000000000000000000000000081526004016126619061450c565b60405180910390fd5b6004600082815260200190815260200160002060006101000a81549073ffffffffffffffffffffffffffffffffffffffff02191690556001600360008573ffffffffffffffffffffffffffffffffffffffff1673ffffffffffffffffffffffffffffffffffffffff168152602001908152602001600020600082825403925050819055506001600360008473ffffffffffffffffffffffffffffffffffffffff1673ffffffffffffffffffffffffffffffffffffffff16815260200190815260200160002060008282540192505081905550816002600083815260200190815260200160002060006101000a81548173ffffffffffffffffffffffffffffffffffffffff021916908373ffffffffffffffffffffffffffffffffffffffff160217905550808273ffffffffffffffffffffffffffffffffffffffff168473ffffffffffffffffffffffffffffffffffffffff167fddf252ad1be2c89b69c2b068fc378daa952ba7f163c4a11628f55a4df523b3ef60405160405180910390a46127f68383836001612d32565b505050565b60606000600161280a84612d38565b01905060008167ffffffffffffffff8111156128295761282861318e565b5b6040519080825280601f01601f19166020018201604052801561285b5781602001600182028036833780820191505090505b509050600082602001820190505b6001156128be578080600190039150507f3031323334353637383961626364656600000000000000000000000000000000600a86061a8153600a85816128b2576128b16145be565b5b04945060008503612869575b819350505050919050565b600073ffffffffffffffffffffffffffffffffffffffff168273ffffffffffffffffffffffffffffffffffffffff1603612938576040517f08c379a000000000000000000000000000000000000000000000000000000000815260040161292f90614639565b60405180910390fd5b61294181612ceb565b15612981576040517f08c379a0000000000000000000000000000000000000000000000000000000008152600401612978906146a5565b60405180910390fd5b61298f600083836001612d2c565b61299881612ceb565b156129d8576040517f08c379a00000000000000000000000000000000000000000000000000000000081526004016129cf906146a5565b60405180910390fd5b6001600360008473ffffffffffffffffffffffffffffffffffffffff1673ffffffffffffffffffffffffffffffffffffffff16815260200190815260200160002060008282540192505081905550816002600083815260200190815260200160002060006101000a81548173ffffffffffffffffffffffffffffffffffffffff021916908373ffffffffffffffffffffffffffffffffffffffff160217905550808273ffffffffffffffffffffffffffffffffffffffff16600073ffffffffffffffffffffffffffffffffffffffff167fddf252ad1be2c89b69c2b068fc378daa952ba7f163c4a11628f55a4df523b3ef60405160405180910390a4612ae2600083836001612d32565b5050565b60006002600083815260200190815260200160002060009054906101000a900473ffffffffffffffffffffffffffffffffffffffff169050919050565b8173ffffffffffffffffffffffffffffffffffffffff168373ffffffffffffffffffffffffffffffffffffffff1603612b91576040517f08c379a0000000000000000000000000000000000000000000000000000000008152600401612b8890614711565b60405180910390fd5b80600560008573ffffffffffffffffffffffffffffffffffffffff1673ffffffffffffffffffffffffffffffffffffffff16815260200190815260200160002060008473ffffffffffffffffffffffffffffffffffffffff1673ffffffffffffffffffffffffffffffffffffffff16815260200190815260200160002060006101000a81548160ff0219169083151502179055508173ffffffffffffffffffffffffffffffffffffffff168373ffffffffffffffffffffffffffffffffffffffff167f17307eab39ab6107e8899845ad3d59bd9653f200f220920489ca2b5937696c3183604051612c8291906133b5565b60405180910390a3505050565b612c9a848484612502565b612ca684848484612e8b565b612ce5576040517f08c379a0000000000000000000000000000000000000000000000000000000008152600401612cdc906147a3565b60405180910390fd5b50505050565b60008073ffffffffffffffffffffffffffffffffffffffff16612d0d83612ae6565b73ffffffffffffffffffffffffffffffffffffffff1614159050919050565b50505050565b50505050565b600080600090507a184f03e93ff9f4daa797ed6e38ed64bf6a1f0100000000000000008310612d96577a184f03e93ff9f4daa797ed6e38ed64bf6a1f0100000000000000008381612d8c57612d8b6145be565b5b0492506040810190505b6d04ee2d6d415b85acef81000000008310612dd3576d04ee2d6d415b85acef81000000008381612dc957612dc86145be565b5b0492506020810190505b662386f26fc100008310612e0257662386f26fc100008381612df857612df76145be565b5b0492506010810190505b6305f5e1008310612e2b576305f5e1008381612e2157612e206145be565b5b0492506008810190505b6127108310612e50576127108381612e4657612e456145be565b5b0492506004810190505b60648310612e735760648381612e6957612e686145be565b5b0492506002810190505b600a8310612e82576001810190505b80915050919050565b6000612eac8473ffffffffffffffffffffffffffffffffffffffff16613012565b15613005578373ffffffffffffffffffffffffffffffffffffffff1663150b7a02612ed56123ac565b8786866040518563ffffffff1660e01b8152600401612ef79493929190614818565b6020604051808303816000875af1925050508015612f3357506040513d601f19601f82011682018060405250810190612f309190614879565b60015b612fb5573d8060008114612f63576040519150601f19603f3d011682016040523d82523d6000602084013e612f68565b606091505b506000815103612fad576040517f08c379a0000000000000000000000000000000000000000000000000000000008152600401612fa4906147a3565b60405180910390fd5b805181602001fd5b63150b7a0260e01b7bffffffffffffffffffffffffffffffffffffffffffffffffffffffff1916817bffffffffffffffffffffffffffffffffffffffffffffffffffffffff19161491505061300a565b600190505b949350505050565b6000808273ffffffffffffffffffffffffffffffffffffffff163b119050919050565b8260028101928215613070579160200282015b8281111561306f57825182908161305f9190613fb4565b5091602001919060010190613048565b5b50905061307d91906130a8565b5090565b60405180604001604052806002905b60608152602001906001900390816130905790505090565b5b808211156130c857600081816130bf91906130cc565b506001016130a9565b5090565b5080546130d890613dd7565b6000825580601f106130ea5750613109565b601f016020900490600052602060002090810190613108919061310c565b5b50565b5b8082111561312557600081600090555060010161310d565b5090565b6000604051905090565b600080fd5b600080fd5b6000819050919050565b6131508161313d565b811461315b57600080fd5b50565b60008135905061316d81613147565b92915050565b600080fd5b600080fd5b6000601f19601f8301169050919050565b7f4e487b7100000000000000000000000000000000000000000000000000000000600052604160045260246000fd5b6131c68261317d565b810181811067ffffffffffffffff821117156131e5576131e461318e565b5b80604052505050565b60006131f8613129565b905061320482826131bd565b919050565b600067ffffffffffffffff8211156132245761322361318e565b5b61322d8261317d565b9050602081019050919050565b82818337600083830152505050565b600061325c61325784613209565b6131ee565b90508281526020810184848401111561327857613277613178565b5b61328384828561323a565b509392505050565b600082601f8301126132a05761329f613173565b5b81356132b0848260208601613249565b91505092915050565b600080604083850312156132d0576132cf613133565b5b60006132de8582860161315e565b925050602083013567ffffffffffffffff8111156132ff576132fe613138565b5b61330b8582860161328b565b9150509250929050565b60007fffffffff0000000000000000000000000000000000000000000000000000000082169050919050565b61334a81613315565b811461335557600080fd5b50565b60008135905061336781613341565b92915050565b60006020828403121561338357613382613133565b5b600061339184828501613358565b91505092915050565b60008115159050919050565b6133af8161339a565b82525050565b60006020820190506133ca60008301846133a6565b92915050565b600081519050919050565b600082825260208201905092915050565b60005b8381101561340a5780820151818401526020810190506133ef565b60008484015250505050565b6000613421826133d0565b61342b81856133db565b935061343b8185602086016133ec565b6134448161317d565b840191505092915050565b600060208201905081810360008301526134698184613416565b905092915050565b60006020828403121561348757613486613133565b5b60006134958482850161315e565b91505092915050565b600073ffffffffffffffffffffffffffffffffffffffff82169050919050565b60006134c98261349e565b9050919050565b6134d9816134be565b82525050565b60006020820190506134f460008301846134d0565b92915050565b613503816134be565b811461350e57600080fd5b50565b600081359050613520816134fa565b92915050565b6000806040838503121561353d5761353c613133565b5b600061354b85828601613511565b925050602061355c8582860161315e565b9150509250929050565b61356f8161313d565b82525050565b600060608201905061358a6000830186613566565b6135976020830185613566565b6135a460408301846133a6565b949350505050565b60006020820190506135c16000830184613566565b92915050565b600080600080600060a086880312156135e3576135e2613133565b5b60006135f18882890161315e565b955050602086013567ffffffffffffffff81111561361257613611613138565b5b61361e8882890161328b565b945050604086013567ffffffffffffffff81111561363f5761363e613138565b5b61364b8882890161328b565b935050606061365c8882890161315e565b925050608086013567ffffffffffffffff81111561367d5761367c613138565b5b6136898882890161328b565b9150509295509295909350565b6000602082840312156136ac576136ab613133565b5b600082013567ffffffffffffffff8111156136ca576136c9613138565b5b6136d68482850161328b565b91505092915050565b600081519050919050565b600082825260208201905092915050565b6000819050602082019050919050565b600082825260208201905092915050565b6000613727826133d0565b613731818561370b565b93506137418185602086016133ec565b61374a8161317d565b840191505092915050565b6000613761838361371c565b905092915050565b6000602082019050919050565b6000613781826136df565b61378b81856136ea565b93508360208202850161379d856136fb565b8060005b858110156137d957848403895281516137ba8582613755565b94506137c583613769565b925060208a019950506001810190506137a1565b50829750879550505050505092915050565b600060208201905081810360008301526138058184613776565b905092915050565b60008060006060848603121561382657613825613133565b5b600061383486828701613511565b935050602061384586828701613511565b92505060406138568682870161315e565b9150509250925092565b60008060006060848603121561387957613878613133565b5b600061388786828701613511565b935050602084013567ffffffffffffffff8111156138a8576138a7613138565b5b6138b48682870161328b565b92505060406138c58682870161315e565b9150509250925092565b6000806000606084860312156138e8576138e7613133565b5b60006138f68682870161315e565b93505060206139078682870161315e565b925050604084013567ffffffffffffffff81111561392857613927613138565b5b6139348682870161328b565b9150509250925092565b60008060006060848603121561395757613956613133565b5b600084013567ffffffffffffffff81111561397557613974613138565b5b6139818682870161328b565b935050602084013567ffffffffffffffff8111156139a2576139a1613138565b5b6139ae8682870161328b565b92505060406139bf8682870161315e565b9150509250925092565b6000806000606084860312156139e2576139e1613133565b5b60006139f08682870161315e565b935050602084013567ffffffffffffffff811115613a1157613a10613138565b5b613a1d8682870161328b565b925050604084013567ffffffffffffffff811115613a3e57613a3d613138565b5b613a4a8682870161328b565b9150509250925092565b600060208284031215613a6a57613a69613133565b5b6000613a7884828501613511565b91505092915050565b600060029050919050565b600081905092915050565b6000819050919050565b6000602082019050919050565b6000613ab982613a81565b613ac38185613a8c565b935083602082028501613ad585613a97565b8060005b85811015613b115784840389528151613af28582613755565b9450613afd83613aa1565b925060208a01995050600181019050613ad9565b50829750879550505050505092915050565b60006020820190508181036000830152613b3d8184613aae565b905092915050565b613b4e8161339a565b8114613b5957600080fd5b50565b600081359050613b6b81613b45565b92915050565b60008060408385031215613b8857613b87613133565b5b6000613b9685828601613511565b9250506020613ba785828601613b5c565b9150509250929050565b60008060408385031215613bc857613bc7613133565b5b6000613bd68582860161315e565b9250506020613be78582860161315e565b9150509250929050565b600067ffffffffffffffff821115613c0c57613c0b61318e565b5b613c158261317d565b9050602081019050919050565b6000613c35613c3084613bf1565b6131ee565b905082815260208101848484011115613c5157613c50613178565b5b613c5c84828561323a565b509392505050565b600082601f830112613c7957613c78613173565b5b8135613c89848260208601613c22565b91505092915050565b60008060008060808587031215613cac57613cab613133565b5b6000613cba87828801613511565b9450506020613ccb87828801613511565b9350506040613cdc8782880161315e565b925050606085013567ffffffffffffffff811115613cfd57613cfc613138565b5b613d0987828801613c64565b91505092959194509250565b600080600060608486031215613d2e57613d2d613133565b5b6000613d3c8682870161315e565b9350506020613d4d8682870161315e565b9250506040613d5e86828701613511565b9150509250925092565b60008060408385031215613d7f57613d7e613133565b5b6000613d8d85828601613511565b9250506020613d9e85828601613511565b9150509250929050565b7f4e487b7100000000000000000000000000000000000000000000000000000000600052602260045260246000fd5b60006002820490506001821680613def57607f821691505b602082108103613e0257613e01613da8565b5b50919050565b60008190508160005260206000209050919050565b60006020601f8301049050919050565b600082821b905092915050565b600060088302613e6a7fffffffffffffffffffffffffffffffffffffffffffffffffffffffffffffffff82613e2d565b613e748683613e2d565b95508019841693508086168417925050509392505050565b6000819050919050565b6000613eb1613eac613ea78461313d565b613e8c565b61313d565b9050919050565b6000819050919050565b613ecb83613e96565b613edf613ed782613eb8565b848454613e3a565b825550505050565b600090565b613ef4613ee7565b613eff818484613ec2565b505050565b5b81811015613f2357613f18600082613eec565b600181019050613f05565b5050565b601f821115613f6857613f3981613e08565b613f4284613e1d565b81016020851015613f51578190505b613f65613f5d85613e1d565b830182613f04565b50505b505050565b600082821c905092915050565b6000613f8b60001984600802613f6d565b1980831691505092915050565b6000613fa48383613f7a565b9150826002028217905092915050565b613fbd826133d0565b67ffffffffffffffff811115613fd657613fd561318e565b5b613fe08254613dd7565b613feb828285613f27565b600060209050601f83116001811461401e576000841561400c578287015190505b6140168582613f98565b86555061407e565b601f19841661402c86613e08565b60005b828110156140545784890151825560018201915060208501945060208101905061402f565b86831015614071578489015161406d601f891682613f7a565b8355505b6001600288020188555050505b505050505050565b7f4552433732313a20617070726f76616c20746f2063757272656e74206f776e6560008201527f7200000000000000000000000000000000000000000000000000000000000000602082015250565b60006140e26021836133db565b91506140ed82614086565b604082019050919050565b60006020820190508181036000830152614111816140d5565b9050919050565b7f4552433732313a20617070726f76652063616c6c6572206973206e6f7420746f60008201527f6b656e206f776e6572206f7220617070726f76656420666f7220616c6c000000602082015250565b6000614174603d836133db565b915061417f82614118565b604082019050919050565b600060208201905081810360008301526141a381614167565b9050919050565b7f4e487b7100000000000000000000000000000000000000000000000000000000600052601160045260246000fd5b60006141e48261313d565b91507fffffffffffffffffffffffffffffffffffffffffffffffffffffffffffffffff8203614216576142156141aa565b5b600182019050919050565b7f4e487b7100000000000000000000000000000000000000000000000000000000600052603260045260246000fd5b600081905092915050565b60008190508160005260206000209050919050565b6000815461427d81613dd7565b6142878186614250565b945060018216600081146142a257600181146142b7576142ea565b60ff19831686528115158202860193506142ea565b6142c08561425b565b60005b838110156142e2578154818901526001820191506020810190506142c3565b838801955050505b50505092915050565b60006142ff8284614270565b915081905092915050565b7f4552433732313a2063616c6c6572206973206e6f7420746f6b656e206f776e6560008201527f72206f7220617070726f76656400000000000000000000000000000000000000602082015250565b6000614366602d836133db565b91506143718261430a565b604082019050919050565b6000602082019050818103600083015261439581614359565b9050919050565b7f4552433732313a20696e76616c696420746f6b656e2049440000000000000000600082015250565b60006143d26018836133db565b91506143dd8261439c565b602082019050919050565b60006020820190508181036000830152614401816143c5565b9050919050565b7f4552433732313a2061646472657373207a65726f206973206e6f74206120766160008201527f6c6964206f776e65720000000000000000000000000000000000000000000000602082015250565b60006144646029836133db565b915061446f82614408565b604082019050919050565b6000602082019050818103600083015261449381614457565b9050919050565b7f4552433732313a207472616e736665722066726f6d20696e636f72726563742060008201527f6f776e6572000000000000000000000000000000000000000000000000000000602082015250565b60006144f66025836133db565b91506145018261449a565b604082019050919050565b60006020820190508181036000830152614525816144e9565b9050919050565b7f4552433732313a207472616e7366657220746f20746865207a65726f2061646460008201527f7265737300000000000000000000000000000000000000000000000000000000602082015250565b60006145886024836133db565b91506145938261452c565b604082019050919050565b600060208201905081810360008301526145b78161457b565b9050919050565b7f4e487b7100000000000000000000000000000000000000000000000000000000600052601260045260246000fd5b7f4552433732313a206d696e7420746f20746865207a65726f2061646472657373600082015250565b60006146236020836133db565b915061462e826145ed565b602082019050919050565b6000602082019050818103600083015261465281614616565b9050919050565b7f4552433732313a20746f6b656e20616c7265616479206d696e74656400000000600082015250565b600061468f601c836133db565b915061469a82614659565b602082019050919050565b600060208201905081810360008301526146be81614682565b9050919050565b7f4552433732313a20617070726f766520746f2063616c6c657200000000000000600082015250565b60006146fb6019836133db565b9150614706826146c5565b602082019050919050565b6000602082019050818103600083015261472a816146ee565b9050919050565b7f4552433732313a207472616e7366657220746f206e6f6e20455243373231526560008201527f63656976657220696d706c656d656e7465720000000000000000000000000000602082015250565b600061478d6032836133db565b915061479882614731565b604082019050919050565b600060208201905081810360008301526147bc81614780565b9050919050565b600081519050919050565b600082825260208201905092915050565b60006147ea826147c3565b6147f481856147ce565b93506148048185602086016133ec565b61480d8161317d565b840191505092915050565b600060808201905061482d60008301876134d0565b61483a60208301866134d0565b6148476040830185613566565b818103606083015261485981846147df565b905095945050505050565b60008151905061487381613341565b92915050565b60006020828403121561488f5761488e613133565b5b600061489d84828501614864565b9150509291505056fea26469706673582212203ca086171f8476212dff20ec37a7349d3861104ef09ea9a80afcd449275a0d7164736f6c63430008110033",
  "linkReferences": {},
  "deployedLinkReferences": {}
}