{"contracts/DidUtils.sol":{"DidUtils":{"abi":[{"inputs":[{"internalType":"bytes","name":"did","type":"bytes"}],"name":"parseAddrFromDID","outputs":[{"internalType":"address","name":"","type":"address"}],"stateMutability":"pure","type":"function"},{"inputs":[{"internalType":"bytes","name":"pubKey","type":"bytes"}],"name":"pubKeyToAddr","outputs":[{"internalType":"address","name":"","type":"address"}],"stateMutability":"pure","type":"function"},{"inputs":[{"internalType":"string","name":"did","type":"string"}],"name":"verifyDIDFormat","outputs":[{"internalType":"bool","name":"","type":"bool"}],"stateMutability":"pure","type":"function"}],"evm":{"bytecode":{"linkReferences":{"contracts/BytesUtils.sol":{"BytesUtils":[{"length":20,"start":252},{"length":20,"start":532}]}},"object":"6105db610026600b82828239805160001a60731461001957fe5b30600052607381538281f3fe730000000000000000000000000000000000000000301460806040526004361061004b5760003560e01c80636619b7ec14610050578063c6b8e1a214610079578063f92511321461008c575b600080fd5b61006361005e3660046103f0565b6100ac565b6040516100709190610495565b60405180910390f35b6100636100873660046103f0565b6100b9565b61009f61009a3660046103f0565b610173565b60405161007091906104a9565b805160208201205b919050565b6000806009905060606100d0848384875103610285565b9050606073__$ad5f1105ae2e107008b91fdda17d716fb8$__638e7e34d7836040518263ffffffff1660e01b815260040161010b91906104b4565b60006040518083038186803b15801561012357600080fd5b505af4158015610137573d6000803e3d6000fd5b505050506040513d6000823e601f3d908101601f1916820160405261015f919081019061042b565b905061016a81610305565b95945050505050565b8051600090829060311461018b5760009150506100b4565b6060604051806040016040528060098152602001683234b21d32ba34379d60b91b81525090506101c76101c18360008451610285565b82610339565b6101d6576000925050506100b4565b60606101e88383518451865103610285565b9050606073__$ad5f1105ae2e107008b91fdda17d716fb8$__638e7e34d7836040518263ffffffff1660e01b815260040161022391906104b4565b60006040518083038186803b15801561023b57600080fd5b505af415801561024f573d6000803e3d6000fd5b505050506040513d6000823e601f3d908101601f19168201604052610277919081019061042b565b516014149695505050505050565b60608183018451101561029757600080fd5b6060821580156102b2576040519150602082016040526102fc565b6040519150601f8416801560200281840101858101878315602002848b0101015b818310156102eb5780518352602092830192016102d3565b5050858452601f01601f1916604052505b50949350505050565b600081516014146103315760405162461bcd60e51b8152600401610328906104e7565b60405180910390fd5b506014015190565b8151815160009160019181148083146103555760009250610393565b600160208701838101602088015b60028483851001141561038e5780518351146103825760009650600093505b60209283019201610363565b505050505b5090949350505050565b600082601f8301126103ad578081fd5b81356103c06103bb82610551565b61052a565b91508082528360208285010111156103d757600080fd5b8060208401602084013760009082016020015292915050565b600060208284031215610401578081fd5b813567ffffffffffffffff811115610417578182fd5b6104238482850161039d565b949350505050565b60006020828403121561043c578081fd5b815167ffffffffffffffff811115610452578182fd5b8201601f81018413610462578182fd5b80516104706103bb82610551565b818152856020838501011115610484578384fd5b61016a826020830160208601610575565b6001600160a01b0391909116815260200190565b901515815260200190565b60006020825282518060208401526104d3816040850160208701610575565b601f01601f19169190910160400192915050565b60208082526023908201527f6279746573206c656e67746820646f6573206e6f74206d61746368206164647260408201526265737360e81b606082015260800190565b60405181810167ffffffffffffffff8111828210171561054957600080fd5b604052919050565b600067ffffffffffffffff821115610567578081fd5b50601f01601f191660200190565b60005b83811015610590578181015183820152602001610578565b8381111561059f576000848401525b5050505056fea26469706673582212204ced5f415dde4ba20ade71d74a2c0b1b21925a5b7d1f7f2f3d2be75734dc877564736f6c634300060c0033","opcodes":"PUSH2 0x5DB PUSH2 0x26 PUSH1 0xB DUP3 DUP3 DUP3 CODECOPY DUP1 MLOAD PUSH1 0x0 BYTE PUSH1 0x73 EQ PUSH2 0x19 JUMPI INVALID JUMPDEST ADDRESS PUSH1 0x0 MSTORE PUSH1 0x73 DUP2 MSTORE8 DUP3 DUP2 RETURN INVALID PUSH20 0x0 ADDRESS EQ PUSH1 0x80 PUSH1 0x40 MSTORE PUSH1 0x4 CALLDATASIZE LT PUSH2 0x4B JUMPI PUSH1 0x0 CALLDATALOAD PUSH1 0xE0 SHR DUP1 PUSH4 0x6619B7EC EQ PUSH2 0x50 JUMPI DUP1 PUSH4 0xC6B8E1A2 EQ PUSH2 0x79 JUMPI DUP1 PUSH4 0xF9251132 EQ PUSH2 0x8C JUMPI JUMPDEST PUSH1 0x0 DUP1 REVERT JUMPDEST PUSH2 0x63 PUSH2 0x5E CALLDATASIZE PUSH1 0x4 PUSH2 0x3F0 JUMP JUMPDEST PUSH2 0xAC JUMP JUMPDEST PUSH1 0x40 MLOAD PUSH2 0x70 SWAP2 SWAP1 PUSH2 0x495 JUMP JUMPDEST PUSH1 0x40 MLOAD DUP1 SWAP2 SUB SWAP1 RETURN JUMPDEST PUSH2 0x63 PUSH2 0x87 CALLDATASIZE PUSH1 0x4 PUSH2 0x3F0 JUMP JUMPDEST PUSH2 0xB9 JUMP JUMPDEST PUSH2 0x9F PUSH2 0x9A CALLDATASIZE PUSH1 0x4 PUSH2 0x3F0 JUMP JUMPDEST PUSH2 0x173 JUMP JUMPDEST PUSH1 0x40 MLOAD PUSH2 0x70 SWAP2 SWAP1 PUSH2 0x4A9 JUMP JUMPDEST DUP1 MLOAD PUSH1 0x20 DUP3 ADD KECCAK256 JUMPDEST SWAP2 SWAP1 POP JUMP JUMPDEST PUSH1 0x0 DUP1 PUSH1 0x9 SWAP1 POP PUSH1 0x60 PUSH2 0xD0 DUP5 DUP4 DUP5 DUP8 MLOAD SUB PUSH2 0x285 JUMP JUMPDEST SWAP1 POP PUSH1 0x60 PUSH20 0x0 PUSH4 0x8E7E34D7 DUP4 PUSH1 0x40 MLOAD DUP3 PUSH4 0xFFFFFFFF AND PUSH1 0xE0 SHL DUP2 MSTORE PUSH1 0x4 ADD PUSH2 0x10B SWAP2 SWAP1 PUSH2 0x4B4 JUMP JUMPDEST PUSH1 0x0 PUSH1 0x40 MLOAD DUP1 DUP4 SUB DUP2 DUP7 DUP1 EXTCODESIZE ISZERO DUP1 ISZERO PUSH2 0x123 JUMPI PUSH1 0x0 DUP1 REVERT JUMPDEST POP GAS DELEGATECALL ISZERO DUP1 ISZERO PUSH2 0x137 JUMPI RETURNDATASIZE PUSH1 0x0 DUP1 RETURNDATACOPY RETURNDATASIZE PUSH1 0x0 REVERT JUMPDEST POP POP POP POP PUSH1 0x40 MLOAD RETURNDATASIZE PUSH1 0x0 DUP3 RETURNDATACOPY PUSH1 0x1F RETURNDATASIZE SWAP1 DUP2 ADD PUSH1 0x1F NOT AND DUP3 ADD PUSH1 0x40 MSTORE PUSH2 0x15F SWAP2 SWAP1 DUP2 ADD SWAP1 PUSH2 0x42B JUMP JUMPDEST SWAP1 POP PUSH2 0x16A DUP2 PUSH2 0x305 JUMP JUMPDEST SWAP6 SWAP5 POP POP POP POP POP JUMP JUMPDEST DUP1 MLOAD PUSH1 0x0 SWAP1 DUP3 SWAP1 PUSH1 0x31 EQ PUSH2 0x18B JUMPI PUSH1 0x0 SWAP2 POP POP PUSH2 0xB4 JUMP JUMPDEST PUSH1 0x60 PUSH1 0x40 MLOAD DUP1 PUSH1 0x40 ADD PUSH1 0x40 MSTORE DUP1 PUSH1 0x9 DUP2 MSTORE PUSH1 0x20 ADD PUSH9 0x3234B21D32BA34379D PUSH1 0xB9 SHL DUP2 MSTORE POP SWAP1 POP PUSH2 0x1C7 PUSH2 0x1C1 DUP4 PUSH1 0x0 DUP5 MLOAD PUSH2 0x285 JUMP JUMPDEST DUP3 PUSH2 0x339 JUMP JUMPDEST PUSH2 0x1D6 JUMPI PUSH1 0x0 SWAP3 POP POP POP PUSH2 0xB4 JUMP JUMPDEST PUSH1 0x60 PUSH2 0x1E8 DUP4 DUP4 MLOAD DUP5 MLOAD DUP7 MLOAD SUB PUSH2 0x285 JUMP JUMPDEST SWAP1 POP PUSH1 0x60 PUSH20 0x0 PUSH4 0x8E7E34D7 DUP4 PUSH1 0x40 MLOAD DUP3 PUSH4 0xFFFFFFFF AND PUSH1 0xE0 SHL DUP2 MSTORE PUSH1 0x4 ADD PUSH2 0x223 SWAP2 SWAP1 PUSH2 0x4B4 JUMP JUMPDEST PUSH1 0x0 PUSH1 0x40 MLOAD DUP1 DUP4 SUB DUP2 DUP7 DUP1 EXTCODESIZE ISZERO DUP1 ISZERO PUSH2 0x23B JUMPI PUSH1 0x0 DUP1 REVERT JUMPDEST POP GAS DELEGATECALL ISZERO DUP1 ISZERO PUSH2 0x24F JUMPI RETURNDATASIZE PUSH1 0x0 DUP1 RETURNDATACOPY RETURNDATASIZE PUSH1 0x0 REVERT JUMPDEST POP POP POP POP PUSH1 0x40 MLOAD RETURNDATASIZE PUSH1 0x0 DUP3 RETURNDATACOPY PUSH1 0x1F RETURNDATASIZE SWAP1 DUP2 ADD PUSH1 0x1F NOT AND DUP3 ADD PUSH1 0x40 MSTORE PUSH2 0x277 SWAP2 SWAP1 DUP2 ADD SWAP1 PUSH2 0x42B JUMP JUMPDEST MLOAD PUSH1 0x14 EQ SWAP7 SWAP6 POP POP POP POP POP POP JUMP JUMPDEST PUSH1 0x60 DUP2 DUP4 ADD DUP5 MLOAD LT ISZERO PUSH2 0x297 JUMPI PUSH1 0x0 DUP1 REVERT JUMPDEST PUSH1 0x60 DUP3 ISZERO DUP1 ISZERO PUSH2 0x2B2 JUMPI PUSH1 0x40 MLOAD SWAP2 POP PUSH1 0x20 DUP3 ADD PUSH1 0x40 MSTORE PUSH2 0x2FC JUMP JUMPDEST PUSH1 0x40 MLOAD SWAP2 POP PUSH1 0x1F DUP5 AND DUP1 ISZERO PUSH1 0x20 MUL DUP2 DUP5 ADD ADD DUP6 DUP2 ADD DUP8 DUP4 ISZERO PUSH1 0x20 MUL DUP5 DUP12 ADD ADD ADD JUMPDEST DUP2 DUP4 LT ISZERO PUSH2 0x2EB JUMPI DUP1 MLOAD DUP4 MSTORE PUSH1 0x20 SWAP3 DUP4 ADD SWAP3 ADD PUSH2 0x2D3 JUMP JUMPDEST POP POP DUP6 DUP5 MSTORE PUSH1 0x1F ADD PUSH1 0x1F NOT AND PUSH1 0x40 MSTORE POP JUMPDEST POP SWAP5 SWAP4 POP POP POP POP JUMP JUMPDEST PUSH1 0x0 DUP2 MLOAD PUSH1 0x14 EQ PUSH2 0x331 JUMPI PUSH1 0x40 MLOAD PUSH3 0x461BCD PUSH1 0xE5 SHL DUP2 MSTORE PUSH1 0x4 ADD PUSH2 0x328 SWAP1 PUSH2 0x4E7 JUMP JUMPDEST PUSH1 0x40 MLOAD DUP1 SWAP2 SUB SWAP1 REVERT JUMPDEST POP PUSH1 0x14 ADD MLOAD SWAP1 JUMP JUMPDEST DUP2 MLOAD DUP2 MLOAD PUSH1 0x0 SWAP2 PUSH1 0x1 SWAP2 DUP2 EQ DUP1 DUP4 EQ PUSH2 0x355 JUMPI PUSH1 0x0 SWAP3 POP PUSH2 0x393 JUMP JUMPDEST PUSH1 0x1 PUSH1 0x20 DUP8 ADD DUP4 DUP2 ADD PUSH1 0x20 DUP9 ADD JUMPDEST PUSH1 0x2 DUP5 DUP4 DUP6 LT ADD EQ ISZERO PUSH2 0x38E JUMPI DUP1 MLOAD DUP4 MLOAD EQ PUSH2 0x382 JUMPI PUSH1 0x0 SWAP7 POP PUSH1 0x0 SWAP4 POP JUMPDEST PUSH1 0x20 SWAP3 DUP4 ADD SWAP3 ADD PUSH2 0x363 JUMP JUMPDEST POP POP POP POP JUMPDEST POP SWAP1 SWAP5 SWAP4 POP POP POP POP JUMP JUMPDEST PUSH1 0x0 DUP3 PUSH1 0x1F DUP4 ADD SLT PUSH2 0x3AD JUMPI DUP1 DUP2 REVERT JUMPDEST DUP2 CALLDATALOAD PUSH2 0x3C0 PUSH2 0x3BB DUP3 PUSH2 0x551 JUMP JUMPDEST PUSH2 0x52A JUMP JUMPDEST SWAP2 POP DUP1 DUP3 MSTORE DUP4 PUSH1 0x20 DUP3 DUP6 ADD ADD GT ISZERO PUSH2 0x3D7 JUMPI PUSH1 0x0 DUP1 REVERT JUMPDEST DUP1 PUSH1 0x20 DUP5 ADD PUSH1 0x20 DUP5 ADD CALLDATACOPY PUSH1 0x0 SWAP1 DUP3 ADD PUSH1 0x20 ADD MSTORE SWAP3 SWAP2 POP POP JUMP JUMPDEST PUSH1 0x0 PUSH1 0x20 DUP3 DUP5 SUB SLT ISZERO PUSH2 0x401 JUMPI DUP1 DUP2 REVERT JUMPDEST DUP2 CALLDATALOAD PUSH8 0xFFFFFFFFFFFFFFFF DUP2 GT ISZERO PUSH2 0x417 JUMPI DUP2 DUP3 REVERT JUMPDEST PUSH2 0x423 DUP5 DUP3 DUP6 ADD PUSH2 0x39D JUMP JUMPDEST SWAP5 SWAP4 POP POP POP POP JUMP JUMPDEST PUSH1 0x0 PUSH1 0x20 DUP3 DUP5 SUB SLT ISZERO PUSH2 0x43C JUMPI DUP1 DUP2 REVERT JUMPDEST DUP2 MLOAD PUSH8 0xFFFFFFFFFFFFFFFF DUP2 GT ISZERO PUSH2 0x452 JUMPI DUP2 DUP3 REVERT JUMPDEST DUP3 ADD PUSH1 0x1F DUP2 ADD DUP5 SGT PUSH2 0x462 JUMPI DUP2 DUP3 REVERT JUMPDEST DUP1 MLOAD PUSH2 0x470 PUSH2 0x3BB DUP3 PUSH2 0x551 JUMP JUMPDEST DUP2 DUP2 MSTORE DUP6 PUSH1 0x20 DUP4 DUP6 ADD ADD GT ISZERO PUSH2 0x484 JUMPI DUP4 DUP5 REVERT JUMPDEST PUSH2 0x16A DUP3 PUSH1 0x20 DUP4 ADD PUSH1 0x20 DUP7 ADD PUSH2 0x575 JUMP JUMPDEST PUSH1 0x1 PUSH1 0x1 PUSH1 0xA0 SHL SUB SWAP2 SWAP1 SWAP2 AND DUP2 MSTORE PUSH1 0x20 ADD SWAP1 JUMP JUMPDEST SWAP1 ISZERO ISZERO DUP2 MSTORE PUSH1 0x20 ADD SWAP1 JUMP JUMPDEST PUSH1 0x0 PUSH1 0x20 DUP3 MSTORE DUP3 MLOAD DUP1 PUSH1 0x20 DUP5 ADD MSTORE PUSH2 0x4D3 DUP2 PUSH1 0x40 DUP6 ADD PUSH1 0x20 DUP8 ADD PUSH2 0x575 JUMP JUMPDEST PUSH1 0x1F ADD PUSH1 0x1F NOT AND SWAP2 SWAP1 SWAP2 ADD PUSH1 0x40 ADD SWAP3 SWAP2 POP POP JUMP JUMPDEST PUSH1 0x20 DUP1 DUP3 MSTORE PUSH1 0x23 SWAP1 DUP3 ADD MSTORE PUSH32 0x6279746573206C656E67746820646F6573206E6F74206D617463682061646472 PUSH1 0x40 DUP3 ADD MSTORE PUSH3 0x657373 PUSH1 0xE8 SHL PUSH1 0x60 DUP3 ADD MSTORE PUSH1 0x80 ADD SWAP1 JUMP JUMPDEST PUSH1 0x40 MLOAD DUP2 DUP2 ADD PUSH8 0xFFFFFFFFFFFFFFFF DUP2 GT DUP3 DUP3 LT OR ISZERO PUSH2 0x549 JUMPI PUSH1 0x0 DUP1 REVERT JUMPDEST PUSH1 0x40 MSTORE SWAP2 SWAP1 POP JUMP JUMPDEST PUSH1 0x0 PUSH8 0xFFFFFFFFFFFFFFFF DUP3 GT ISZERO PUSH2 0x567 JUMPI DUP1 DUP2 REVERT JUMPDEST POP PUSH1 0x1F ADD PUSH1 0x1F NOT AND PUSH1 0x20 ADD SWAP1 JUMP JUMPDEST PUSH1 0x0 JUMPDEST DUP4 DUP2 LT ISZERO PUSH2 0x590 JUMPI DUP2 DUP2 ADD MLOAD DUP4 DUP3 ADD MSTORE PUSH1 0x20 ADD PUSH2 0x578 JUMP JUMPDEST DUP4 DUP2 GT ISZERO PUSH2 0x59F JUMPI PUSH1 0x0 DUP5 DUP5 ADD MSTORE JUMPDEST POP POP POP POP JUMP INVALID LOG2 PUSH5 0x6970667358 0x22 SLT KECCAK256 0x4C 0xED 0x5F COINBASE 0x5D 0xDE 0x4B LOG2 EXP 0xDE PUSH18 0xD74A2C0B1B21925A5B7D1F7F2F3D2BE75734 0xDC DUP8 PUSH22 0x64736F6C634300060C00330000000000000000000000 "},"methodIdentifiers":{"parseAddrFromDID(bytes)":"c6b8e1a2","pubKeyToAddr(bytes)":"6619b7ec","verifyDIDFormat(string)":"f9251132"}}}}}