{"contracts/MixinDidV2.sol":{"DIDContractV2":{"abi":[{"inputs":[],"stateMutability":"nonpayable","type":"constructor"},{"anonymous":false,"inputs":[{"indexed":false,"internalType":"string","name":"did","type":"string"},{"indexed":false,"internalType":"address","name":"addr","type":"address"},{"indexed":false,"internalType":"string[]","name":"controller","type":"string[]"}],"name":"AddAddr","type":"event"},{"anonymous":false,"inputs":[{"indexed":false,"internalType":"string","name":"did","type":"string"},{"indexed":false,"internalType":"string","name":"context","type":"string"}],"name":"AddContext","type":"event"},{"anonymous":false,"inputs":[{"indexed":false,"internalType":"string","name":"did","type":"string"},{"indexed":false,"internalType":"string","name":"controller","type":"string"}],"name":"AddController","type":"event"},{"anonymous":false,"inputs":[{"indexed":false,"internalType":"string","name":"did","type":"string"},{"indexed":false,"internalType":"bytes","name":"pubKey","type":"bytes"},{"indexed":false,"internalType":"string[]","name":"controller","type":"string[]"}],"name":"AddKey","type":"event"},{"anonymous":false,"inputs":[{"indexed":false,"internalType":"string","name":"did","type":"string"},{"indexed":false,"internalType":"address","name":"addr","type":"address"},{"indexed":false,"internalType":"string[]","name":"controller","type":"string[]"}],"name":"AddNewAuthAddr","type":"event"},{"anonymous":false,"inputs":[{"indexed":false,"internalType":"string","name":"did","type":"string"},{"indexed":false,"internalType":"bytes","name":"pubKey","type":"bytes"},{"indexed":false,"internalType":"string[]","name":"controller","type":"string[]"}],"name":"AddNewAuthKey","type":"event"},{"anonymous":false,"inputs":[{"indexed":false,"internalType":"string","name":"did","type":"string"},{"indexed":false,"internalType":"string","name":"serviceId","type":"string"},{"indexed":false,"internalType":"string","name":"serviceType","type":"string"},{"indexed":false,"internalType":"string","name":"serviceEndpoint","type":"string"}],"name":"AddService","type":"event"},{"anonymous":false,"inputs":[{"indexed":false,"internalType":"string","name":"did","type":"string"}],"name":"Deactivate","type":"event"},{"anonymous":false,"inputs":[{"indexed":false,"internalType":"string","name":"did","type":"string"},{"indexed":false,"internalType":"address","name":"addr","type":"address"}],"name":"DeactivateAddr","type":"event"},{"anonymous":false,"inputs":[{"indexed":false,"internalType":"string","name":"did","type":"string"},{"indexed":false,"internalType":"address","name":"addr","type":"address"}],"name":"DeactivateAuthAddr","type":"event"},{"anonymous":false,"inputs":[{"indexed":false,"internalType":"string","name":"did","type":"string"},{"indexed":false,"internalType":"bytes","name":"pubKey","type":"bytes"}],"name":"DeactivateAuthKey","type":"event"},{"anonymous":false,"inputs":[{"indexed":false,"internalType":"string","name":"did","type":"string"},{"indexed":false,"internalType":"bytes","name":"pubKey","type":"bytes"}],"name":"DeactivateKey","type":"event"},{"anonymous":false,"inputs":[{"indexed":false,"internalType":"string","name":"did","type":"string"},{"indexed":false,"internalType":"string","name":"context","type":"string"}],"name":"RemoveContext","type":"event"},{"anonymous":false,"inputs":[{"indexed":false,"internalType":"string","name":"did","type":"string"},{"indexed":false,"internalType":"string","name":"controller","type":"string"}],"name":"RemoveController","type":"event"},{"anonymous":false,"inputs":[{"indexed":false,"internalType":"string","name":"did","type":"string"},{"indexed":false,"internalType":"string","name":"serviceId","type":"string"}],"name":"RemoveService","type":"event"},{"anonymous":false,"inputs":[{"indexed":false,"internalType":"string","name":"did","type":"string"},{"indexed":false,"internalType":"address","name":"addr","type":"address"}],"name":"SetAuthAddr","type":"event"},{"anonymous":false,"inputs":[{"indexed":false,"internalType":"string","name":"did","type":"string"},{"indexed":false,"internalType":"bytes","name":"pubKey","type":"bytes"}],"name":"SetAuthKey","type":"event"},{"anonymous":false,"inputs":[{"indexed":false,"internalType":"string","name":"did","type":"string"},{"indexed":false,"internalType":"string","name":"serviceId","type":"string"},{"indexed":false,"internalType":"string","name":"serviceType","type":"string"},{"indexed":false,"internalType":"string","name":"serviceEndpoint","type":"string"}],"name":"UpdateService","type":"event"},{"inputs":[{"internalType":"string","name":"did","type":"string"},{"internalType":"address","name":"addr","type":"address"},{"internalType":"string[]","name":"controller","type":"string[]"},{"internalType":"bytes","name":"singer","type":"bytes"}],"name":"addAddr","outputs":[],"stateMutability":"nonpayable","type":"function"},{"inputs":[{"internalType":"string","name":"did","type":"string"},{"internalType":"string[]","name":"contexts","type":"string[]"},{"internalType":"bytes","name":"singer","type":"bytes"}],"name":"addContext","outputs":[],"stateMutability":"nonpayable","type":"function"},{"inputs":[{"internalType":"string","name":"did","type":"string"},{"internalType":"string","name":"controller","type":"string"},{"internalType":"bytes","name":"singer","type":"bytes"}],"name":"addController","outputs":[],"stateMutability":"nonpayable","type":"function"},{"inputs":[{"internalType":"string","name":"did","type":"string"},{"internalType":"bytes","name":"newPubKey","type":"bytes"},{"internalType":"string[]","name":"controller","type":"string[]"},{"internalType":"bytes","name":"singer","type":"bytes"}],"name":"addKey","outputs":[],"stateMutability":"nonpayable","type":"function"},{"inputs":[{"internalType":"string","name":"did","type":"string"},{"internalType":"address","name":"addr","type":"address"},{"internalType":"string[]","name":"controller","type":"string[]"},{"internalType":"bytes","name":"singer","type":"bytes"}],"name":"addNewAuthAddr","outputs":[],"stateMutability":"nonpayable","type":"function"},{"inputs":[{"internalType":"string","name":"did","type":"string"},{"internalType":"address","name":"addr","type":"address"},{"internalType":"string[]","name":"controller","type":"string[]"},{"internalType":"string","name":"controllerSigner","type":"string"},{"internalType":"bytes","name":"singer","type":"bytes"}],"name":"addNewAuthAddrByController","outputs":[],"stateMutability":"nonpayable","type":"function"},{"inputs":[{"internalType":"string","name":"did","type":"string"},{"internalType":"bytes","name":"pubKey","type":"bytes"},{"internalType":"string[]","name":"controller","type":"string[]"},{"internalType":"bytes","name":"singer","type":"bytes"}],"name":"addNewAuthKey","outputs":[],"stateMutability":"nonpayable","type":"function"},{"inputs":[{"internalType":"string","name":"did","type":"string"},{"internalType":"bytes","name":"pubKey","type":"bytes"},{"internalType":"string[]","name":"controller","type":"string[]"},{"internalType":"string","name":"controllerSigner","type":"string"},{"internalType":"bytes","name":"singer","type":"bytes"}],"name":"addNewAuthKeyByController","outputs":[],"stateMutability":"nonpayable","type":"function"},{"inputs":[{"internalType":"string","name":"did","type":"string"},{"internalType":"string","name":"serviceId","type":"string"},{"internalType":"string","name":"serviceType","type":"string"},{"internalType":"string","name":"serviceEndpoint","type":"string"},{"internalType":"bytes","name":"singer","type":"bytes"}],"name":"addService","outputs":[],"stateMutability":"nonpayable","type":"function"},{"inputs":[{"internalType":"string","name":"","type":"string"}],"name":"data","outputs":[{"internalType":"uint256","name":"size","type":"uint256"}],"stateMutability":"view","type":"function"},{"inputs":[{"internalType":"string","name":"did","type":"string"},{"internalType":"address","name":"addr","type":"address"},{"internalType":"bytes","name":"singer","type":"bytes"}],"name":"deactivateAddr","outputs":[],"stateMutability":"nonpayable","type":"function"},{"inputs":[{"internalType":"string","name":"did","type":"string"},{"internalType":"address","name":"addr","type":"address"},{"internalType":"bytes","name":"singer","type":"bytes"}],"name":"deactivateAuthAddr","outputs":[],"stateMutability":"nonpayable","type":"function"},{"inputs":[{"internalType":"string","name":"did","type":"string"},{"internalType":"address","name":"addr","type":"address"},{"internalType":"string","name":"controller","type":"string"},{"internalType":"bytes","name":"singer","type":"bytes"}],"name":"deactivateAuthAddrByController","outputs":[],"stateMutability":"nonpayable","type":"function"},{"inputs":[{"internalType":"string","name":"did","type":"string"},{"internalType":"bytes","name":"pubKey","type":"bytes"},{"internalType":"bytes","name":"singer","type":"bytes"}],"name":"deactivateAuthKey","outputs":[],"stateMutability":"nonpayable","type":"function"},{"inputs":[{"internalType":"string","name":"did","type":"string"},{"internalType":"bytes","name":"pubKey","type":"bytes"},{"internalType":"string","name":"controller","type":"string"},{"internalType":"bytes","name":"singer","type":"bytes"}],"name":"deactivateAuthKeyByController","outputs":[],"stateMutability":"nonpayable","type":"function"},{"inputs":[{"internalType":"string","name":"did","type":"string"},{"internalType":"bytes","name":"singer","type":"bytes"}],"name":"deactivateID","outputs":[],"stateMutability":"nonpayable","type":"function"},{"inputs":[{"internalType":"string","name":"did","type":"string"},{"internalType":"bytes","name":"pubKey","type":"bytes"},{"internalType":"bytes","name":"singer","type":"bytes"}],"name":"deactivateKey","outputs":[],"stateMutability":"nonpayable","type":"function"},{"inputs":[{"internalType":"string","name":"","type":"string"}],"name":"didStatus","outputs":[{"internalType":"bool","name":"deactivated","type":"bool"},{"internalType":"uint256","name":"authListLen","type":"uint256"}],"stateMutability":"view","type":"function"},{"inputs":[{"internalType":"string","name":"did","type":"string"}],"name":"getAllAuthKey","outputs":[{"components":[{"internalType":"string","name":"id","type":"string"},{"internalType":"string","name":"keyType","type":"string"},{"internalType":"string[]","name":"controller","type":"string[]"},{"internalType":"bytes","name":"pubKeyData","type":"bytes"},{"internalType":"bool","name":"deactivated","type":"bool"},{"internalType":"bool","name":"isPubKey","type":"bool"},{"internalType":"uint256","name":"authIndex","type":"uint256"}],"internalType":"struct StorageUtils.PublicKey[]","name":"","type":"tuple[]"}],"stateMutability":"view","type":"function"},{"inputs":[{"internalType":"string","name":"did","type":"string"}],"name":"getAllController","outputs":[{"internalType":"string[]","name":"","type":"string[]"}],"stateMutability":"view","type":"function"},{"inputs":[{"internalType":"string","name":"did","type":"string"}],"name":"getAllPubKey","outputs":[{"components":[{"internalType":"string","name":"id","type":"string"},{"internalType":"string","name":"keyType","type":"string"},{"internalType":"string[]","name":"controller","type":"string[]"},{"internalType":"bytes","name":"pubKeyData","type":"bytes"},{"internalType":"bool","name":"deactivated","type":"bool"},{"internalType":"bool","name":"isPubKey","type":"bool"},{"internalType":"uint256","name":"authIndex","type":"uint256"}],"internalType":"struct StorageUtils.PublicKey[]","name":"","type":"tuple[]"}],"stateMutability":"view","type":"function"},{"inputs":[{"internalType":"string","name":"did","type":"string"}],"name":"getAllService","outputs":[{"components":[{"internalType":"string","name":"serviceId","type":"string"},{"internalType":"string","name":"serviceType","type":"string"},{"internalType":"string","name":"serviceEndpoint","type":"string"}],"internalType":"struct StorageUtils.Service[]","name":"","type":"tuple[]"}],"stateMutability":"view","type":"function"},{"inputs":[{"internalType":"string","name":"did","type":"string"}],"name":"getContext","outputs":[{"internalType":"string[]","name":"","type":"string[]"}],"stateMutability":"view","type":"function"},{"inputs":[{"internalType":"string","name":"did","type":"string"}],"name":"getDocument","outputs":[{"components":[{"internalType":"string[]","name":"context","type":"string[]"},{"internalType":"string","name":"id","type":"string"},{"components":[{"internalType":"string","name":"id","type":"string"},{"internalType":"string","name":"keyType","type":"string"},{"internalType":"string[]","name":"controller","type":"string[]"},{"internalType":"bytes","name":"pubKeyData","type":"bytes"},{"internalType":"bool","name":"deactivated","type":"bool"},{"internalType":"bool","name":"isPubKey","type":"bool"},{"internalType":"uint256","name":"authIndex","type":"uint256"}],"internalType":"struct StorageUtils.PublicKey[]","name":"publicKey","type":"tuple[]"},{"components":[{"internalType":"string","name":"id","type":"string"},{"internalType":"string","name":"keyType","type":"string"},{"internalType":"string[]","name":"controller","type":"string[]"},{"internalType":"bytes","name":"pubKeyData","type":"bytes"},{"internalType":"bool","name":"deactivated","type":"bool"},{"internalType":"bool","name":"isPubKey","type":"bool"},{"internalType":"uint256","name":"authIndex","type":"uint256"}],"internalType":"struct StorageUtils.PublicKey[]","name":"authentication","type":"tuple[]"},{"internalType":"string[]","name":"controller","type":"string[]"},{"components":[{"internalType":"string","name":"serviceId","type":"string"},{"internalType":"string","name":"serviceType","type":"string"},{"internalType":"string","name":"serviceEndpoint","type":"string"}],"internalType":"struct StorageUtils.Service[]","name":"service","type":"tuple[]"},{"internalType":"uint256","name":"updated","type":"uint256"}],"internalType":"struct StorageUtils.DIDDocument","name":"","type":"tuple"}],"stateMutability":"view","type":"function"},{"inputs":[{"internalType":"string","name":"did","type":"string"}],"name":"getUpdatedTime","outputs":[{"internalType":"uint256","name":"","type":"uint256"}],"stateMutability":"view","type":"function"},{"inputs":[{"internalType":"string","name":"did","type":"string"},{"internalType":"string[]","name":"contexts","type":"string[]"},{"internalType":"bytes","name":"singer","type":"bytes"}],"name":"removeContext","outputs":[],"stateMutability":"nonpayable","type":"function"},{"inputs":[{"internalType":"string","name":"did","type":"string"},{"internalType":"string","name":"controller","type":"string"},{"internalType":"bytes","name":"singer","type":"bytes"}],"name":"removeController","outputs":[],"stateMutability":"nonpayable","type":"function"},{"inputs":[{"internalType":"string","name":"did","type":"string"},{"internalType":"string","name":"serviceId","type":"string"},{"internalType":"bytes","name":"singer","type":"bytes"}],"name":"removeService","outputs":[],"stateMutability":"nonpayable","type":"function"},{"inputs":[{"internalType":"string","name":"did","type":"string"},{"internalType":"address","name":"addr","type":"address"},{"internalType":"bytes","name":"singer","type":"bytes"}],"name":"setAuthAddr","outputs":[],"stateMutability":"nonpayable","type":"function"},{"inputs":[{"internalType":"string","name":"did","type":"string"},{"internalType":"address","name":"addr","type":"address"},{"internalType":"string","name":"controller","type":"string"},{"internalType":"bytes","name":"singer","type":"bytes"}],"name":"setAuthAddrByController","outputs":[],"stateMutability":"nonpayable","type":"function"},{"inputs":[{"internalType":"string","name":"did","type":"string"},{"internalType":"bytes","name":"pubKey","type":"bytes"},{"internalType":"bytes","name":"singer","type":"bytes"}],"name":"setAuthKey","outputs":[],"stateMutability":"nonpayable","type":"function"},{"inputs":[{"internalType":"string","name":"did","type":"string"},{"internalType":"bytes","name":"pubKey","type":"bytes"},{"internalType":"string","name":"controller","type":"string"},{"internalType":"bytes","name":"singer","type":"bytes"}],"name":"setAuthKeyByController","outputs":[],"stateMutability":"nonpayable","type":"function"},{"inputs":[{"internalType":"string","name":"did","type":"string"},{"internalType":"string","name":"serviceId","type":"string"},{"internalType":"string","name":"serviceType","type":"string"},{"internalType":"string","name":"serviceEndpoint","type":"string"},{"internalType":"bytes","name":"singer","type":"bytes"}],"name":"updateService","outputs":[],"stateMutability":"nonpayable","type":"function"},{"inputs":[{"internalType":"string","name":"did","type":"string"},{"internalType":"string","name":"controller","type":"string"},{"internalType":"bytes","name":"singer","type":"bytes"}],"name":"verifyController","outputs":[{"internalType":"bool","name":"","type":"bool"}],"stateMutability":"view","type":"function"},{"inputs":[{"internalType":"string","name":"did","type":"string"},{"internalType":"bytes","name":"singer","type":"bytes"}],"name":"verifySignature","outputs":[{"internalType":"bool","name":"","type":"bool"}],"stateMutability":"view","type":"function"}],"evm":{"bytecode":{"linkReferences":{"contracts/BytesUtils.sol":{"BytesUtils":[{"length":20,"start":1957},{"length":20,"start":3996},{"length":20,"start":8056},{"length":20,"start":11612},{"length":20,"start":13976}]},"contracts/DidUtils.sol":{"DidUtils":[{"length":20,"start":10284},{"length":20,"start":11767},{"length":20,"start":11971},{"length":20,"start":12353},{"length":20,"start":14131},{"length":20,"start":14684}]},"contracts/KeyUtils.sol":{"KeyUtils":[{"length":20,"start":1501},{"length":20,"start":1644},{"length":20,"start":2165},{"length":20,"start":2489},{"length":20,"start":2632},{"length":20,"start":2904},{"length":20,"start":3229},{"length":20,"start":3372},{"length":20,"start":4204},{"length":20,"start":4432},{"length":20,"start":4611},{"length":20,"start":4877},{"length":20,"start":5020},{"length":20,"start":5880},{"length":20,"start":6023},{"length":20,"start":6471},{"length":20,"start":6650},{"length":20,"start":7541},{"length":20,"start":7684},{"length":20,"start":8251},{"length":20,"start":8768},{"length":20,"start":8975},{"length":20,"start":9169},{"length":20,"start":9363},{"length":20,"start":9557},{"length":20,"start":9886},{"length":20,"start":10530},{"length":20,"start":11183},{"length":20,"start":11313},{"length":20,"start":12187},{"length":20,"start":12477},{"length":20,"start":12736},{"length":20,"start":13198},{"length":20,"start":13504},{"length":20,"start":13802},{"length":20,"start":14335},{"length":20,"start":14465}]},"contracts/StorageUtils.sol":{"StorageUtils":[{"length":20,"start":2337},{"length":20,"start":3089},{"length":20,"start":4376},{"length":20,"start":5196},{"length":20,"start":6199},{"length":20,"start":8430},{"length":20,"start":10071},{"length":20,"start":10867},{"length":20,"start":12933},{"length":20,"start":13326},{"length":20,"start":13632},{"length":20,"start":13930}]}},"object":"608060405234801561001057600080fd5b506153f3806100206000396000f3fe608060405234801561001057600080fd5b50600436106102105760003560e01c80637ccb6a6411610125578063af4e1238116100ad578063d558cdea1161007c578063d558cdea146104a9578063db7d1f04146104bc578063ec02a3b5146104cf578063f8d8f4ad146104e2578063fa1bac721461050257610210565b8063af4e12381461044f578063b0abb19914610470578063ba96428114610483578063d22eafd91461049657610210565b80638ba6652c116100f45780638ba6652c146103f05780638da5588c146104035780639033d99a146104165780639053ad0314610429578063958607b81461043c57610210565b80637ccb6a64146103975780637d1c754f146103b75780638095627f146103ca57806388209cf3146103dd57610210565b8063398a85ec116101a857806365cbf7c31161017757806365cbf7c314610338578063667f5fa31461034b5780636747e9bc1461035e5780636e5f318314610371578063793f66c91461038457610210565b8063398a85ec146102ec57806352c07c56146102ff578063538645031461031257806353949d4f1461032557610210565b8063244d9153116101e4578063244d9153146102865780632e35d7ca146102995780632e97b8d4146102b95780633634791e146102cc57610210565b80622b4c821461021557806304f6748c1461022a5780630ec0865b146102535780631f7c7a9d14610266575b600080fd5b61022861022336600461465a565b610515565b005b61023d61023836600461432a565b61058d565b60405161024a9190615147565b60405180910390f35b610228610261366004614736565b6105ad565b61027961027436600461432a565b610773565b60405161024a9190614b64565b610228610294366004614736565b610989565b6102ac6102a736600461432a565b610b33565b60405161024a9190614b51565b6102286102c7366004614736565b610c6d565b6102df6102da3660046145fa565b610e02565b60405161024a9190614b8a565b6102286102fa3660046144b0565b610e1a565b61022861030d36600461465a565b610e80565b61022861032036600461435c565b610eea565b6102ac61033336600461432a565b610f6a565b61022861034636600461458e565b611120565b6102286103593660046147fa565b6112dd565b61022861036c3660046144b0565b61153f565b61022861037f366004614524565b611598565b610228610392366004614736565b6115f2565b6103aa6103a536600461432a565b61163b565b60405161024a9190615028565b6102286103c53660046147fa565b6116c8565b6102286103d836600461458e565b611917565b6102286103eb366004614524565b611ac4565b6102df6103fe366004614736565b611b1e565b61022861041136600461435c565b611b38565b61022861042436600461478d565b611bb7565b61022861043736600461478d565b611c01565b61022861044a366004614736565b611c4b565b61046261045d36600461432a565b611c94565b60405161024a929190614b95565b61022861047e3660046143f4565b611cc0565b61023d61049136600461432a565b611d4f565b6102796104a436600461432a565b611f46565b6102286104b73660046144b0565b61214c565b6102286104ca3660046146c7565b6121a5565b6102286104dd3660046145fa565b612210565b6104f56104f036600461432a565b612679565b60405161024a9190614b77565b610228610510366004614736565b6127b3565b6105208482846127fc565b935061054c8484600060405180606001604052806021815260200161537d6021913986600060016128db565b7fb22d64a17a74dc192d537930ccfefdcc25c0e279b7595081c4f42e7613f01cf884848460405161057f93929190614cce565b60405180910390a150505050565b805160208183018101805160008252928201919093012091526002015481565b6105b78382612ac4565b9250606073__$d895092408b28263ee57beab52231763ab$__631eae56fe856040518263ffffffff1660e01b81526004016105f29190614ba5565b60006040518083038186803b15801561060a57600080fd5b505af415801561061e573d6000803e3d6000fd5b505050506040513d6000823e601f3d908101601f1916820160405261064691908101906142f8565b9050600073__$d895092408b28263ee57beab52231763ab$__63f4d9407f856040518263ffffffff1660e01b81526004016106819190614ba5565b60206040518083038186803b15801561069957600080fd5b505af41580156106ad573d6000803e3d6000fd5b505050506040513d601f19601f820116820180604052508101906106d191906142e0565b9050600061070082866000866040516106ea9190614abd565b9081526040519081900360200190209190612af5565b905080156107295760405162461bcd60e51b815260040161072090614e8d565b60405180910390fd5b61073286612b7d565b7f158049e5f97a0923906423a422819a72f859b99834ab1471ec73c7e5d8c2221d8686604051610763929190614ca9565b60405180910390a1505050505050565b604051639416b42360e01b815260609073__$ad5f1105ae2e107008b91fdda17d716fb8$__90639416b423906107ad908590600401614ba5565b60006040518083038186803b1580156107c557600080fd5b505af41580156107d9573d6000803e3d6000fd5b505050506040513d6000823e601f3d908101601f1916820160405261080191908101906142f8565b91506001826040516108139190614abd565b9081526040519081900360200190205460ff16156108435760405162461bcd60e51b815260040161072090614f7d565b6040516305c2e49560e21b815260609073__$d895092408b28263ee57beab52231763ab$__9063170b92549061087d908690600401614ba5565b60006040518083038186803b15801561089557600080fd5b505af41580156108a9573d6000803e3d6000fd5b505050506040513d6000823e601f3d908101601f191682016040526108d191908101906142f8565b9050600080826040516108e49190614abd565b908152604051908190036020018120632c7f2e4b60e01b8252915073__$5db7214be5932887d9b1c5075d6310aecd$__90632c7f2e4b9061092b9087908590600401614d5f565b60006040518083038186803b15801561094357600080fd5b505af4158015610957573d6000803e3d6000fd5b505050506040513d6000823e601f3d908101601f1916820160405261097f919081019061412e565b925050505b919050565b6109938382612ac4565b9250606073__$d895092408b28263ee57beab52231763ab$__631eae56fe856040518263ffffffff1660e01b81526004016109ce9190614ba5565b60006040518083038186803b1580156109e657600080fd5b505af41580156109fa573d6000803e3d6000fd5b505050506040513d6000823e601f3d908101601f19168201604052610a2291908101906142f8565b9050600073__$d895092408b28263ee57beab52231763ab$__63f4d9407f856040518263ffffffff1660e01b8152600401610a5d9190614ba5565b60206040518083038186803b158015610a7557600080fd5b505af4158015610a89573d6000803e3d6000fd5b505050506040513d601f19601f82011682018060405250810190610aad91906142e0565b90506000610ada82600085604051610ac59190614abd565b90815260405190819003602001902090612caa565b905080610af95760405162461bcd60e51b815260040161072090614fa6565b610b0286612b7d565b7f60b2df265d895cbd29c118ef04311b5ccf506bbc063740f4ed3eb7a60448afe78686604051610763929190614ca9565b60608073__$d895092408b28263ee57beab52231763ab$__631eae56fe846040518263ffffffff1660e01b8152600401610b6d9190614ba5565b60006040518083038186803b158015610b8557600080fd5b505af4158015610b99573d6000803e3d6000fd5b505050506040513d6000823e601f3d908101601f19168201604052610bc191908101906142f8565b905060008082604051610bd49190614abd565b90815260405190819003602001812063637529db60e01b8252915073__$5db7214be5932887d9b1c5075d6310aecd$__9063637529db90610c19908490600401615147565b60006040518083038186803b158015610c3157600080fd5b505af4158015610c45573d6000803e3d6000fd5b505050506040513d6000823e601f3d908101601f1916820160405261097f91908101906140fc565b610c778382612ac4565b9250606073__$d895092408b28263ee57beab52231763ab$__63eb824844856040518263ffffffff1660e01b8152600401610cb29190614ba5565b60006040518083038186803b158015610cca57600080fd5b505af4158015610cde573d6000803e3d6000fd5b505050506040513d6000823e601f3d908101601f19168201604052610d0691908101906142f8565b9050600073__$d895092408b28263ee57beab52231763ab$__634acf2705856040518263ffffffff1660e01b8152600401610d419190614ba5565b60206040518083038186803b158015610d5957600080fd5b505af4158015610d6d573d6000803e3d6000fd5b505050506040513d601f19601f82011682018060405250810190610d9191906142e0565b90506000610da982600085604051610ac59190614abd565b905080610dc85760405162461bcd60e51b815260040161072090614fd4565b610dd186612b7d565b7fab8833e166d8cbd16f823a1e7c05653d3f78d9c3498ebdf0b2393c16e3fe94878686604051610763929190614ca9565b600080610e0f8484612d36565b509150505b92915050565b610e248382612ac4565b604080516000815260208101909152909350610e429084908461335c565b7f605a8562b3e375915ae30d3f6a56e766cc11be0a6c592b68704f048f5ac9d8678383604051610e73929190614c41565b60405180910390a1505050565b610e8b8482846127fc565b9350610eb78484600060405180606001604052806021815260200161537d6021913986600160006128db565b7f0f649d2ebae9f0c1584c133d91aaae79f84b2580c33e7c2480a4bd0e27a2910984848460405161057f93929190614cce565b610ef58482846127fc565b604080516000808252606082018352602080830190815260008051602061539e83398151915293830193909352929650610f37928792879187906001906128db565b7fa9f8cf46beb11b19df1f3f276b45158a279eff65c1fb27bb4f3b91e1a894f0dd84848460405161057f93929190614c6b565b604051639416b42360e01b815260609073__$ad5f1105ae2e107008b91fdda17d716fb8$__90639416b42390610fa4908590600401614ba5565b60006040518083038186803b158015610fbc57600080fd5b505af4158015610fd0573d6000803e3d6000fd5b505050506040513d6000823e601f3d908101601f19168201604052610ff891908101906142f8565b915060018260405161100a9190614abd565b9081526040519081900360200190205460ff161561103a5760405162461bcd60e51b815260040161072090614f7d565b604051630dd6e46f60e11b815260609073__$d895092408b28263ee57beab52231763ab$__90631badc8de90611074908690600401614ba5565b60006040518083038186803b15801561108c57600080fd5b505af41580156110a0573d6000803e3d6000fd5b505050506040513d6000823e601f3d908101601f191682016040526110c891908101906142f8565b9050600080826040516110db9190614abd565b908152604051908190036020018120638c78953160e01b8252915073__$5db7214be5932887d9b1c5075d6310aecd$__90638c78953190610c19908490600401615150565b61112a8382612ac4565b9250606073__$d895092408b28263ee57beab52231763ab$__631badc8de856040518263ffffffff1660e01b81526004016111659190614ba5565b60006040518083038186803b15801561117d57600080fd5b505af4158015611191573d6000803e3d6000fd5b505050506040513d6000823e601f3d908101601f191682016040526111b991908101906142f8565b905060005b83518110156112cd5760608482815181106111d557fe5b60200260200101519050600073__$d895092408b28263ee57beab52231763ab$__63229cbc87836040518263ffffffff1660e01b81526004016112189190614ba5565b60206040518083038186803b15801561123057600080fd5b505af4158015611244573d6000803e3d6000fd5b505050506040513d601f19601f8201168201806040525081019061126891906142e0565b9050600061128182846000886040516106ea9190614abd565b9050806112c2577fab878ced0a294d7dde0c095c50e69cd0c400119ef2d9545bda4cc63d281148c588846040516112b9929190614ca9565b60405180910390a15b5050506001016111be565b506112d784612b7d565b50505050565b6112e78582612ac4565b9450606073__$d895092408b28263ee57beab52231763ab$__63eb824844876040518263ffffffff1660e01b81526004016113229190614ba5565b60006040518083038186803b15801561133a57600080fd5b505af415801561134e573d6000803e3d6000fd5b505050506040513d6000823e601f3d908101601f1916820160405261137691908101906142f8565b9050600073__$d895092408b28263ee57beab52231763ab$__634acf2705876040518263ffffffff1660e01b81526004016113b19190614ba5565b60206040518083038186803b1580156113c957600080fd5b505af41580156113dd573d6000803e3d6000fd5b505050506040513d601f19601f8201168201806040525081019061140191906142e0565b905061140b613cd3565b6040518060600160405280888152602001878152602001868152509050606073__$5db7214be5932887d9b1c5075d6310aecd$__63711f2cd4836040518263ffffffff1660e01b815260040161146191906150ef565b60006040518083038186803b15801561147957600080fd5b505af415801561148d573d6000803e3d6000fd5b505050506040513d6000823e601f3d908101601f191682016040526114b591908101906142f8565b905060006114ce84836000886040516106ea9190614abd565b9050806114ed5760405162461bcd60e51b815260040161072090614fd4565b6114f68a612b7d565b7fce02a40ad64d07c09428e43775774b9c09a2fb4050cb2133feffdaf82e7c201f8a8a8a8a60405161152b9493929190614d07565b60405180910390a150505050505050505050565b6115498382612ac4565b6040805160008152602081019091529093506115679084908461348e565b7f5b4ad0c78947966b48caff8e1256800d9ecc297743953b6ba78776d0e81d327f8383604051610e73929190614c41565b6115a384838361357d565b6040805160008152602081019091529094506115c19085908561335c565b7f605a8562b3e375915ae30d3f6a56e766cc11be0a6c592b68704f048f5ac9d867848460405161057f929190614c41565b6115fc8382612ac4565b925061160a838360006135b8565b7fc2613a8fbe2f84ee12626ff6451fe839595edd92aa6d8fd95e62e587b42a0e158383604051610e73929190614ca9565b611643613cf4565b606061164e83610f6a565b9050606061165b84610773565b9050606061166885611f46565b9050606061167586610b33565b9050606061168287612679565b9050600061168f88611d4f565b6040805160e081018252978852602088018a9052870195909552506060850192909252608084015260a083015260c08201529050919050565b6116d28582612ac4565b9450606073__$d895092408b28263ee57beab52231763ab$__63eb824844876040518263ffffffff1660e01b815260040161170d9190614ba5565b60006040518083038186803b15801561172557600080fd5b505af4158015611739573d6000803e3d6000fd5b505050506040513d6000823e601f3d908101601f1916820160405261176191908101906142f8565b9050600073__$d895092408b28263ee57beab52231763ab$__634acf2705876040518263ffffffff1660e01b815260040161179c9190614ba5565b60206040518083038186803b1580156117b457600080fd5b505af41580156117c8573d6000803e3d6000fd5b505050506040513d601f19601f820116820180604052508101906117ec91906142e0565b90506117f6613cd3565b6040518060600160405280888152602001878152602001868152509050606073__$5db7214be5932887d9b1c5075d6310aecd$__63711f2cd4836040518263ffffffff1660e01b815260040161184c91906150ef565b60006040518083038186803b15801561186457600080fd5b505af4158015611878573d6000803e3d6000fd5b505050506040513d6000823e601f3d908101601f191682016040526118a091908101906142f8565b905060006118b984836000886040516106ea9190614abd565b905080156118d95760405162461bcd60e51b815260040161072090614fff565b6118e28a612b7d565b7f8e2e47c852a8c05bbd1bc96df47294a54af338a51f99884924137ab38278860f8a8a8a8a60405161152b9493929190614d07565b6119218382612ac4565b9250606073__$d895092408b28263ee57beab52231763ab$__631badc8de856040518263ffffffff1660e01b815260040161195c9190614ba5565b60006040518083038186803b15801561197457600080fd5b505af4158015611988573d6000803e3d6000fd5b505050506040513d6000823e601f3d908101601f191682016040526119b091908101906142f8565b905060005b83518110156112cd5760608482815181106119cc57fe5b60200260200101519050600073__$d895092408b28263ee57beab52231763ab$__63229cbc87836040518263ffffffff1660e01b8152600401611a0f9190614ba5565b60206040518083038186803b158015611a2757600080fd5b505af4158015611a3b573d6000803e3d6000fd5b505050506040513d601f19601f82011682018060405250810190611a5f91906142e0565b90506000611a7782600087604051610ac59190614abd565b90508015611ab9577f58055c159e081c2caccfa4852d9a4285566a460de7ba910919b0ff75271d877f8884604051611ab0929190614ca9565b60405180910390a15b5050506001016119b5565b611acf84838361357d565b604080516000815260208101909152909450611aed9085908561348e565b7f5b4ad0c78947966b48caff8e1256800d9ecc297743953b6ba78776d0e81d327f848460405161057f929190614c41565b600080611b2c858585613672565b509150505b9392505050565b611b438482846127fc565b604080516000808252606082018352602080830190815260008051602061539e83398151915293830193909352929650611b849287928791879060016128db565b7fe2bd3ac8e89e6fc034167d63de32d1247aa49f6802f2264875d0a00fd645da5484848460405161057f93929190614c6b565b611bc284838361357d565b9350611bd08484600061335c565b7f40f36fc5010e18c1e871f706915909d1fcf1215d949a2c4d72350380162b1bd5848460405161057f929190614ca9565b611c0c84838361357d565b9350611c1a8484600061348e565b7f2b5997c0533b1b213e90a8955d60e56efed753c769a096d6e30f68b8fe955d06848460405161057f929190614ca9565b611c558382612ac4565b9250611c638383600061348e565b7f2b5997c0533b1b213e90a8955d60e56efed753c769a096d6e30f68b8fe955d068383604051610e73929190614ca9565b805160208183018101805160018083529383019290940191909120929052815491015460ff9091169082565b611ccc8582848661392c565b604080516000808252606082018352602080830190815260008051602061539e83398151915293830193909352929750611d0d9288928891889060016128db565b7fe2bd3ac8e89e6fc034167d63de32d1247aa49f6802f2264875d0a00fd645da54858585604051611d4093929190614c6b565b60405180910390a15050505050565b6000606073__$d895092408b28263ee57beab52231763ab$__639eee0a89846040518263ffffffff1660e01b8152600401611d8a9190614ba5565b60006040518083038186803b158015611da257600080fd5b505af4158015611db6573d6000803e3d6000fd5b505050506040513d6000823e601f3d908101601f19168201604052611dde91908101906142f8565b9050600073__$d895092408b28263ee57beab52231763ab$__63e97b8b906040518163ffffffff1660e01b815260040160206040518083038186803b158015611e2657600080fd5b505af4158015611e3a573d6000803e3d6000fd5b505050506040513d601f19601f82011682018060405250810190611e5e91906142e0565b90506060600083604051611e729190614abd565b908152604080516020928190038301812060008681529084528290206001908101805460029281161561010002600019011691909104601f81018590048502830185019093528282529092909190830182828015611f115780601f10611ee657610100808354040283529160200191611f11565b820191906000526020600020905b815481529060010190602001808311611ef457829003601f168201915b50505050509050805160001415611f2e5760009350505050610984565b6000611f3b826000613a04565b509695505050505050565b604051639416b42360e01b815260609073__$ad5f1105ae2e107008b91fdda17d716fb8$__90639416b42390611f80908590600401614ba5565b60006040518083038186803b158015611f9857600080fd5b505af4158015611fac573d6000803e3d6000fd5b505050506040513d6000823e601f3d908101601f19168201604052611fd491908101906142f8565b9150600182604051611fe69190614abd565b9081526040519081900360200190205460ff16156120165760405162461bcd60e51b815260040161072090614f7d565b60008073__$d895092408b28263ee57beab52231763ab$__63170b9254856040518263ffffffff1660e01b81526004016120509190614ba5565b60006040518083038186803b15801561206857600080fd5b505af415801561207c573d6000803e3d6000fd5b505050506040513d6000823e601f3d908101601f191682016040526120a491908101906142f8565b6040516120b19190614abd565b90815260405190819003602001812063211d8c5360e11b8252915073__$5db7214be5932887d9b1c5075d6310aecd$__9063423b18a6906120f89086908590600401614d5f565b60006040518083038186803b15801561211057600080fd5b505af4158015612124573d6000803e3d6000fd5b505050506040513d6000823e601f3d908101601f19168201604052611b31919081019061412e565b6121568382612ac4565b604080516000815260208101909152909350612174908490846135b8565b7f3364de2ecbd53e405faf989044be284732af4a4d2f29f9db04df4bcf1d753b518383604051610e73929190614c41565b6121b18582848661392c565b94506121dd8585600060405180606001604052806021815260200161537d6021913987600060016128db565b7fb22d64a17a74dc192d537930ccfefdcc25c0e279b7595081c4f42e7613f01cf8858585604051611d4093929190614cce565b61221a8282612ac4565b9150600073__$d895092408b28263ee57beab52231763ab$__631badc8de846040518263ffffffff1660e01b81526004016122559190614ba5565b60006040518083038186803b15801561226d57600080fd5b505af4158015612281573d6000803e3d6000fd5b505050506040513d6000823e601f3d908101601f191682016040526122a991908101906142f8565b6040516122b69190614abd565b90815260405190819003602001902060006122d46001830182613d31565b5060006002919091018190556040516305c2e49560e21b815273__$d895092408b28263ee57beab52231763ab$__9063170b925490612317908690600401614ba5565b60006040518083038186803b15801561232f57600080fd5b505af4158015612343573d6000803e3d6000fd5b505050506040513d6000823e601f3d908101601f1916820160405261236b91908101906142f8565b6040516123789190614abd565b90815260405190819003602001902060006123966001830182613d31565b506000600291909101819055604051630f572b7f60e11b815273__$d895092408b28263ee57beab52231763ab$__90631eae56fe906123d9908690600401614ba5565b60006040518083038186803b1580156123f157600080fd5b505af4158015612405573d6000803e3d6000fd5b505050506040513d6000823e601f3d908101601f1916820160405261242d91908101906142f8565b60405161243a9190614abd565b90815260405190819003602001902060006124586001830182613d31565b506000600291909101819055604051633ae0921160e21b815273__$d895092408b28263ee57beab52231763ab$__9063eb8248449061249b908690600401614ba5565b60006040518083038186803b1580156124b357600080fd5b505af41580156124c7573d6000803e3d6000fd5b505050506040513d6000823e601f3d908101601f191682016040526124ef91908101906142f8565b6040516124fc9190614abd565b908152604051908190036020019020600061251a6001830182613d31565b506000600291909101819055604051639eee0a8960e01b815273__$d895092408b28263ee57beab52231763ab$__90639eee0a899061255d908690600401614ba5565b60006040518083038186803b15801561257557600080fd5b505af4158015612589573d6000803e3d6000fd5b505050506040513d6000823e601f3d908101601f191682016040526125b191908101906142f8565b6040516125be9190614abd565b90815260405190819003602001902060006125dc6001830182613d31565b60028201600090555050600180836040516125f79190614abd565b908152604051908190036020018120805492151560ff1990931692909217909155600090600190612629908590614abd565b9081526020016040518091039020600101819055507fe0d447dee36c113fb0b5edf3262a72a06d967bd571d810cfaa2b7df89749f7ca8260405161266d9190614ba5565b60405180910390a15050565b60608073__$d895092408b28263ee57beab52231763ab$__63eb824844846040518263ffffffff1660e01b81526004016126b39190614ba5565b60006040518083038186803b1580156126cb57600080fd5b505af41580156126df573d6000803e3d6000fd5b505050506040513d6000823e601f3d908101601f1916820160405261270791908101906142f8565b90506000808260405161271a9190614abd565b90815260405190819003602001812063833667e160e01b8252915073__$5db7214be5932887d9b1c5075d6310aecd$__9063833667e19061275f908490600401615147565b60006040518083038186803b15801561277757600080fd5b505af415801561278b573d6000803e3d6000fd5b505050506040513d6000823e601f3d908101601f1916820160405261097f91908101906141b6565b6127bd8382612ac4565b92506127cb8383600061335c565b7f40f36fc5010e18c1e871f706915909d1fcf1215d949a2c4d72350380162b1bd58383604051610e73929190614ca9565b606060005b82518110156128c85773__$af086eb72a71a83a951685455470ad2da6$__63f925113284838151811061283057fe5b60200260200101516040518263ffffffff1660e01b81526004016128549190614ba5565b60206040518083038186803b15801561286c57600080fd5b505af4158015612880573d6000803e3d6000fd5b505050506040513d601f19601f820116820180604052508101906128a491906142c0565b6128c05760405162461bcd60e51b815260040161072090614f51565b600101612801565b506128d38484612ac4565b949350505050565b6001835110156128fd5760405162461bcd60e51b815260040161072090614eb9565b60008073__$d895092408b28263ee57beab52231763ab$__63170b92548a6040518263ffffffff1660e01b81526004016129379190614ba5565b60006040518083038186803b15801561294f57600080fd5b505af4158015612963573d6000803e3d6000fd5b505050506040513d6000823e601f3d908101601f1916820160405261298b91908101906142f8565b6040516129989190614abd565b90815260405190819003602001902060018101549091506002016060896129be83613a9f565b6040516020016129cf929190614b10565b604051602081830303815290604052905060606129ec8a8a613b76565b90506129f6613d55565b6040518060e001604052808481526020018a8152602001898152602001838152602001600015158152602001881515815260200187612a36576000612a3f565b612a3f8e613bd6565b90526040516337aebcf760e01b815290915073__$5db7214be5932887d9b1c5075d6310aecd$__906337aebcf790612a7d908890859060040161518e565b60006040518083038186803b158015612a9557600080fd5b505af4158015612aa9573d6000803e3d6000fd5b50505050612ab68c612b7d565b505050505050505050505050565b606060006060612ad48585612d36565b91509150816128d35760405162461bcd60e51b815260040161072090614e63565b6000828152602084815260408220805484519092612b1a926001019190860190613d96565b508015612b2b576001915050611b31565b5060018085018054918201808255600086815260208890526040902081905585919083908110612b5757fe5b60009182526020822060029182020192909255908601805460010190559150611b319050565b604051639eee0a8960e01b815260609073__$d895092408b28263ee57beab52231763ab$__90639eee0a8990612bb7908590600401614ba5565b60006040518083038186803b158015612bcf57600080fd5b505af4158015612be3573d6000803e3d6000fd5b505050506040513d6000823e601f3d908101601f19168201604052612c0b91908101906142f8565b9050600073__$d895092408b28263ee57beab52231763ab$__63e97b8b906040518163ffffffff1660e01b815260040160206040518083038186803b158015612c5357600080fd5b505af4158015612c67573d6000803e3d6000fd5b505050506040513d601f19601f82011682018060405250810190612c8b91906142e0565b90506112d781612c9a42613c2b565b6000856040516106ea9190614abd565b60008181526020839052604081205480612cc8576000915050610e14565b600083815260208590526040812081815590612ce76001830182613e14565b50506001846001016001830381548110612cfd57fe5b600091825260209091206002918202016001908101805460ff191693151593909317909255949094018054600019019055509192915050565b6000606073__$ad5f1105ae2e107008b91fdda17d716fb8$__639416b423856040518263ffffffff1660e01b8152600401612d719190614ba5565b60006040518083038186803b158015612d8957600080fd5b505af4158015612d9d573d6000803e3d6000fd5b505050506040513d6000823e601f3d908101601f19168201604052612dc591908101906142f8565b604051637c92889960e11b815290945073__$af086eb72a71a83a951685455470ad2da6$__9063f925113290612dff908790600401614ba5565b60206040518083038186803b158015612e1757600080fd5b505af4158015612e2b573d6000803e3d6000fd5b505050506040513d601f19601f82011682018060405250810190612e4f91906142c0565b612e5e57506000905082613355565b600184604051612e6e9190614abd565b9081526040519081900360200190205460ff1615612e9157506000905082613355565b60405163635c70d160e11b815260009073__$af086eb72a71a83a951685455470ad2da6$__9063c6b8e1a290612ecb908890600401614ba5565b60206040518083038186803b158015612ee357600080fd5b505af4158015612ef7573d6000803e3d6000fd5b505050506040513d601f19601f82011682018060405250810190612f1b91906140e0565b9050835160001415612f51576001600160a01b038116331480612f4657506001600160a01b03811632145b859250925050613355565b60008085516014141561301257612f6786613c93565b60408051600081526020810190915290925073__$d895092408b28263ee57beab52231763ab$__9063b726099b90612f9f9085613b76565b6040518263ffffffff1660e01b8152600401612fbb9190614ba5565b60206040518083038186803b158015612fd357600080fd5b505af4158015612fe7573d6000803e3d6000fd5b505050506040513d601f19601f8201168201806040525081019061300b91906142e0565b905061312f565b6040516319866dfb60e21b815273__$af086eb72a71a83a951685455470ad2da6$__90636619b7ec90613049908990600401614ba5565b60206040518083038186803b15801561306157600080fd5b505af4158015613075573d6000803e3d6000fd5b505050506040513d601f19601f8201168201806040525081019061309991906140e0565b915073__$d895092408b28263ee57beab52231763ab$__63b726099b6130c0886000613b76565b6040518263ffffffff1660e01b81526004016130dc9190614ba5565b60206040518083038186803b1580156130f457600080fd5b505af4158015613108573d6000803e3d6000fd5b505050506040513d601f19601f8201168201806040525081019061312c91906142e0565b90505b6001600160a01b038216331480159061315157506001600160a01b0382163214155b156131655760008794509450505050613355565b826001600160a01b0316826001600160a01b0316141561318e5760018794509450505050613355565b6040516305c2e49560e21b815260609073__$d895092408b28263ee57beab52231763ab$__9063170b9254906131c8908b90600401614ba5565b60006040518083038186803b1580156131e057600080fd5b505af41580156131f4573d6000803e3d6000fd5b505050506040513d6000823e601f3d908101601f1916820160405261321c91908101906142f8565b9050613247826000836040516132329190614abd565b90815260405190819003602001902090613cbe565b61325b576000889550955050505050613355565b613263613d55565b73__$5db7214be5932887d9b1c5075d6310aecd$__63bbed643e60008460405161328d9190614abd565b90815260408051918290036020908101832060008981529152206001600160e01b031960e084901b1682526132ca91600190910190600401614bb8565b60006040518083038186803b1580156132e257600080fd5b505af41580156132f6573d6000803e3d6000fd5b505050506040513d6000823e601f3d908101601f1916820160405261331e9190810190614875565b9050806080015180613332575060c0810151155b1561334857600089965096505050505050613355565b6001899650965050505050505b9250929050565b6040516305c2e49560e21b815260609073__$d895092408b28263ee57beab52231763ab$__9063170b925490613396908790600401614ba5565b60006040518083038186803b1580156133ae57600080fd5b505af41580156133c2573d6000803e3d6000fd5b505050506040513d6000823e601f3d908101601f191682016040526133ea91908101906142f8565b905073__$5db7214be5932887d9b1c5075d6310aecd$__636265a1d36000836040516134169190614abd565b908152602001604051809103902061342e8686613b76565b61343788613bd6565b6040518463ffffffff1660e01b81526004016134559392919061529e565b60006040518083038186803b15801561346d57600080fd5b505af4158015613481573d6000803e3d6000fd5b505050506112d784612b7d565b6040516305c2e49560e21b815260609073__$d895092408b28263ee57beab52231763ab$__9063170b9254906134c8908790600401614ba5565b60006040518083038186803b1580156134e057600080fd5b505af41580156134f4573d6000803e3d6000fd5b505050506040513d6000823e601f3d908101601f1916820160405261351c91908101906142f8565b905073__$5db7214be5932887d9b1c5075d6310aecd$__638e5506cb6000836040516135489190614abd565b90815260200160405180910390206135608686613b76565b6040518363ffffffff1660e01b8152600401613455929190615285565b60606000606061358e868686613672565b91509150816135af5760405162461bcd60e51b815260040161072090614da6565b95945050505050565b6040516305c2e49560e21b815260609073__$d895092408b28263ee57beab52231763ab$__9063170b9254906135f2908790600401614ba5565b60006040518083038186803b15801561360a57600080fd5b505af415801561361e573d6000803e3d6000fd5b505050506040513d6000823e601f3d908101601f1916820160405261364691908101906142f8565b905073__$5db7214be5932887d9b1c5075d6310aecd$__636550a4706000836040516135489190614abd565b6000606073__$ad5f1105ae2e107008b91fdda17d716fb8$__639416b423866040518263ffffffff1660e01b81526004016136ad9190614ba5565b60006040518083038186803b1580156136c557600080fd5b505af41580156136d9573d6000803e3d6000fd5b505050506040513d6000823e601f3d908101601f1916820160405261370191908101906142f8565b604051637c92889960e11b815290955073__$af086eb72a71a83a951685455470ad2da6$__9063f92511329061373b908890600401614ba5565b60206040518083038186803b15801561375357600080fd5b505af4158015613767573d6000803e3d6000fd5b505050506040513d601f19601f8201168201806040525081019061378b91906142c0565b61379a57506000905083613924565b6001856040516137aa9190614abd565b9081526040519081900360200190205460ff16156137cd57506000905083613924565b604051630f572b7f60e11b815260609073__$d895092408b28263ee57beab52231763ab$__90631eae56fe90613807908990600401614ba5565b60006040518083038186803b15801561381f57600080fd5b505af4158015613833573d6000803e3d6000fd5b505050506040513d6000823e601f3d908101601f1916820160405261385b91908101906142f8565b9050600073__$d895092408b28263ee57beab52231763ab$__63f4d9407f876040518263ffffffff1660e01b81526004016138969190614ba5565b60206040518083038186803b1580156138ae57600080fd5b505af41580156138c2573d6000803e3d6000fd5b505050506040513d601f19601f820116820180604052508101906138e691906142e0565b90506138fc816000846040516132329190614abd565b61390e57600087935093505050613924565b600061391a8787612d36565b5094508793505050505b935093915050565b606060005b82518110156139f85773__$af086eb72a71a83a951685455470ad2da6$__63f925113284838151811061396057fe5b60200260200101516040518263ffffffff1660e01b81526004016139849190614ba5565b60206040518083038186803b15801561399c57600080fd5b505af41580156139b0573d6000803e3d6000fd5b505050506040513d601f19601f820116820180604052508101906139d491906142c0565b6139f05760405162461bcd60e51b815260040161072090614f51565b600101613931565b506135af85848661357d565b6000808351836020011115613a2b5760405162461bcd60e51b815260040161072090614ddd565b600060405160206000600182038760208a0101515b83831015613a605780821a83860153600183019250600182039150613a40565b50505081016040525190506001600160ff1b03811115613a925760405162461bcd60e51b815260040161072090614ee3565b9460209390930193505050565b606081613ac457506040805180820190915260018152600360fc1b6020820152610984565b8160005b8115613adc57600101600a82049150613ac8565b6060816001600160401b0381118015613af457600080fd5b506040519080825280601f01601f191660200182016040528015613b1f576020820181803683370190505b50905060001982015b8515613b6d57600a860660300160f81b82828060019003935081518110613b4b57fe5b60200101906001600160f81b031916908160001a905350600a86049550613b28565b50949350505050565b60608083604051602001613b8a9190614abd565b60408051601f1981840301815291905290506001600160a01b03831615611b31578083604051602001613bbe929190614ad9565b60405160208183030381529060405290509392505050565b600080600183604051613be99190614abd565b908152602001604051809103902060010154600201905080600184604051613c119190614abd565b908152604051908190036020019020600101559050919050565b60606001600160ff1b03821115613c545760405162461bcd60e51b815260040161072090614f1a565b60405160208082526000601f5b82821015613c835785811a826020860101536001919091019060001901613c61565b5050506040818101905292915050565b60008151601414613cb65760405162461bcd60e51b815260040161072090614e20565b506014015190565b60009081526020919091526040902054151590565b60405180606001604052806060815260200160608152602001606081525090565b6040518060e00160405280606081526020016060815260200160608152602001606081526020016060815260200160608152602001600081525090565b5080546000825560020290600052602060002090810190613d529190613e58565b50565b6040518060e0016040528060608152602001606081526020016060815260200160608152602001600015158152602001600015158152602001600081525090565b828054600181600116156101000203166002900490600052602060002090601f016020900481019282601f10613dd757805160ff1916838001178555613e04565b82800160010185558215613e04579182015b82811115613e04578251825591602001919060010190613de9565b50613e10929150613e79565b5090565b50805460018160011615610100020316600290046000825580601f10613e3a5750613d52565b601f016020900490600052602060002090810190613d529190613e79565b5b80821115613e10576000815560018101805460ff19169055600201613e59565b5b80821115613e105760008155600101613e7a565b600082601f830112613e9e578081fd5b8135613eb1613eac826152ed565b6152c7565b818152915060208083019084810160005b84811015613eeb57613ed9888484358a0101613f5e565b84529282019290820190600101613ec2565b505050505092915050565b600082601f830112613f06578081fd5b8151613f14613eac826152ed565b818152915060208083019084810160005b84811015613eeb57613f3c888484518a0101613fac565b84529282019290820190600101613f25565b80518015158114610e1457600080fd5b600082601f830112613f6e578081fd5b8135613f7c613eac8261530c565b9150808252836020828501011115613f9357600080fd5b8060208401602084013760009082016020015292915050565b600082601f830112613fbc578081fd5b8151613fca613eac8261530c565b9150808252836020828501011115613fe157600080fd5b613ff281602084016020860161533b565b5092915050565b600060e0828403121561400a578081fd5b61401460e06152c7565b905081516001600160401b038082111561402d57600080fd5b61403985838601613fac565b8352602084015191508082111561404f57600080fd5b61405b85838601613fac565b6020840152604084015191508082111561407457600080fd5b61408085838601613ef6565b6040840152606084015191508082111561409957600080fd5b506140a684828501613fac565b6060830152506140b98360808401613f4e565b60808201526140cb8360a08401613f4e565b60a082015260c082015160c082015292915050565b6000602082840312156140f1578081fd5b8151611b3181615367565b60006020828403121561410d578081fd5b81516001600160401b03811115614122578182fd5b6128d384828501613ef6565b60006020808385031215614140578182fd5b82516001600160401b03811115614155578283fd5b8301601f81018513614165578283fd5b8051614173613eac826152ed565b81815283810190838501865b848110156141a8576141968a888451890101613ff9565b8452928601929086019060010161417f565b509098975050505050505050565b600060208083850312156141c8578182fd5b82516001600160401b03808211156141de578384fd5b818501915085601f8301126141f1578384fd5b81516141ff613eac826152ed565b81815284810190848601875b848110156142b15781518701606080601f19838f0301121561422b578a8bfd5b614234816152c7565b8a83015189811115614244578c8dfd5b6142528f8d83870101613fac565b825250604083015189811115614266578c8dfd5b6142748f8d83870101613fac565b828d01525090820151908882111561428a578b8cfd5b6142988e8c84860101613fac565b604082015286525050928701929087019060010161420b565b50909998505050505050505050565b6000602082840312156142d1578081fd5b81518015158114611b31578182fd5b6000602082840312156142f1578081fd5b5051919050565b600060208284031215614309578081fd5b81516001600160401b0381111561431e578182fd5b6128d384828501613fac565b60006020828403121561433b578081fd5b81356001600160401b03811115614350578182fd5b6128d384828501613f5e565b60008060008060808587031215614371578283fd5b84356001600160401b0380821115614387578485fd5b61439388838901613f5e565b9550602087013591506143a582615367565b909350604086013590808211156143ba578384fd5b6143c688838901613e8e565b935060608701359150808211156143db578283fd5b506143e887828801613f5e565b91505092959194509250565b600080600080600060a0868803121561440b578283fd5b85356001600160401b0380821115614421578485fd5b61442d89838a01613f5e565b96506020880135915061443f82615367565b90945060408701359080821115614454578485fd5b61446089838a01613e8e565b94506060880135915080821115614475578283fd5b61448189838a01613f5e565b93506080880135915080821115614496578283fd5b506144a388828901613f5e565b9150509295509295909350565b6000806000606084860312156144c4578081fd5b83356001600160401b03808211156144da578283fd5b6144e687838801613f5e565b9450602086013591506144f882615367565b9092506040850135908082111561450d578283fd5b5061451a86828701613f5e565b9150509250925092565b60008060008060808587031215614539578182fd5b84356001600160401b038082111561454f578384fd5b61455b88838901613f5e565b95506020870135915061456d82615367565b90935060408601359080821115614582578384fd5b6143c688838901613f5e565b6000806000606084860312156145a2578081fd5b83356001600160401b03808211156145b8578283fd5b6145c487838801613f5e565b945060208601359150808211156145d9578283fd5b6145e587838801613e8e565b9350604086013591508082111561450d578283fd5b6000806040838503121561460c578182fd5b82356001600160401b0380821115614622578384fd5b61462e86838701613f5e565b93506020850135915080821115614643578283fd5b5061465085828601613f5e565b9150509250929050565b6000806000806080858703121561466f578182fd5b84356001600160401b0380821115614685578384fd5b61469188838901613f5e565b955060208701359150808211156146a6578384fd5b6146b288838901613f5e565b945060408701359150808211156143ba578384fd5b600080600080600060a086880312156146de578283fd5b85356001600160401b03808211156146f4578485fd5b61470089838a01613f5e565b96506020880135915080821115614715578485fd5b61472189838a01613f5e565b95506040880135915080821115614454578485fd5b60008060006060848603121561474a578081fd5b83356001600160401b0380821115614760578283fd5b61476c87838801613f5e565b94506020860135915080821115614781578283fd5b6145e587838801613f5e565b600080600080608085870312156147a2578182fd5b84356001600160401b03808211156147b8578384fd5b6147c488838901613f5e565b955060208701359150808211156147d9578384fd5b6147e588838901613f5e565b94506040870135915080821115614582578384fd5b600080600080600060a08688031215614811578283fd5b85356001600160401b0380821115614827578485fd5b61483389838a01613f5e565b96506020880135915080821115614848578485fd5b61485489838a01613f5e565b95506040880135915080821115614869578485fd5b61446089838a01613f5e565b600060208284031215614886578081fd5b81516001600160401b0381111561489b578182fd5b6128d384828501613ff9565b6000815180845260208085018081965082840281019150828601855b858110156148ed5782840389526148db848351614a91565b988501989350908401906001016148c3565b5091979650505050505050565b6000815180845260208085018081965082840281019150828601855b858110156148ed57828403895261492e848351614a91565b98850198935090840190600101614916565b6000815180845260208085018081965082840281019150828601855b858110156148ed578284038952815160e0815181875261497e82880182614a91565b91505086820151868203888801526149968282614a91565b915050604080830151878303828901526149b083826148a7565b92505050606080830151878303828901526149cb8382614a91565b6080858101511515908a015260a0808601511515908a015260c0948501519490980193909352505050978401979084019060010161495c565b6000815180845260208085018081965082840281019150828601855b858110156148ed578284038952815160608151818752614a4282880182614a91565b9150508682015186820388880152614a5a8282614a91565b91505060408083015192508682038188015250614a778183614a91565b9a87019a9550505090840190600101614a20565b15159052565b60008151808452614aa981602086016020860161533b565b601f01601f19169290920160200192915050565b60008251614acf81846020870161533b565b9190910192915050565b60008351614aeb81846020880161533b565b60609390931b6bffffffffffffffffffffffff19169190920190815260140192915050565b60008351614b2281846020880161533b565b65236b6579732d60d01b9083019081528351614b4581600684016020880161533b565b01600601949350505050565b600060208252611b3160208301846148fa565b600060208252611b316020830184614940565b600060208252611b316020830184614a04565b901515815260200190565b9115158252602082015260400190565b600060208252611b316020830184614a91565b60006020808301818452828554600180821660008114614bdf5760018114614bfd576148ed565b60028304607f16855260ff19831660408901526060880193506148ed565b60028304808652614c0d8a61532f565b885b82811015614c2b5781548b820160400152908401908801614c0f565b8a01604001955050505091979650505050505050565b600060408252614c546040830185614a91565b905060018060a01b03831660208301529392505050565b600060608252614c7e6060830186614a91565b6001600160a01b03851660208401528281036040840152614c9f81856148fa565b9695505050505050565b600060408252614cbc6040830185614a91565b82810360208401526135af8185614a91565b600060608252614ce16060830186614a91565b8281036020840152614cf38186614a91565b90508281036040840152614c9f81856148fa565b600060808252614d1a6080830187614a91565b8281036020840152614d2c8187614a91565b90508281036040840152614d408186614a91565b90508281036060840152614d548185614a91565b979650505050505050565b600060608252614d726060830185614a91565b82810360208401526020815260008051602061539e8339815191526020820152604081019150508260408301529392505050565b60208082526017908201527f636865636b20636f6e74726f6c6c6572206661696c6564000000000000000000604082015260600190565b60208082526023908201527f4e65787455696e743235352c206f66667365742065786365656473206d6178696040820152626d756d60e81b606082015260800190565b60208082526023908201527f6279746573206c656e67746820646f6573206e6f74206d61746368206164647260408201526265737360e81b606082015260800190565b60208082526010908201526f18da1958dac81cda59c819985a5b195960821b604082015260600190565b60208082526012908201527118dbdb9d1c9bdb1b195c88195e1a5cdd195960721b604082015260600190565b60208082526010908201526f636f6e74726f6c6c657220656d70747960801b604082015260600190565b60208082526017908201527f56616c75652065786365656473207468652072616e6765000000000000000000604082015260600190565b6020808252601b908201527f56616c756520657863656564732075696e743235352072616e67650000000000604082015260600190565b60208082526012908201527134b63632b3b0b61031b7b73a3937b63632b960711b604082015260600190565b6020808252600f908201526e191a590819195858dd1a5d985d1959608a1b604082015260600190565b60208082526014908201527318dbdb9d1c9bdb1b195c881b9bdd08195e1a5cdd60621b604082015260600190565b6020808252601190820152701cd95c9d9a58d9481b9bdd08195e1a5cdd607a1b604082015260600190565b6020808252600f908201526e1cd95c9d9a58d948195e1a5cdd1959608a1b604082015260600190565b600060208252825160e060208401526150456101008401826148a7565b90506020840151601f19808584030160408601526150638383614a91565b925060408601519150808584030160608601526150808383614940565b9250606086015191508085840301608086015261509d8383614940565b925060808601519150808584030160a08601526150ba83836148a7565b925060a08601519150808584030160c0860152506150d88282614a04565b91505060c084015160e08401528091505092915050565b60006020825282516060602084015261510b6080840182614a91565b90506020840151601f19808584030160408601526151298383614a91565b92506040860151915080858403016060860152506135af8282614a91565b90815260200190565b908152604060208201819052601c908201527f68747470733a2f2f7777772e77332e6f72672f6e732f6469642f763100000000606082015260800190565b60008382526020604081840152835160e060408501526151b2610120850182614a91565b905081850151603f19808684030160608701526151cf8383614a91565b6040880151878203830160808901528051808352919450850192508484019085810285018601875b8281101561522557601f19878303018452615213828751614a91565b958801959388019391506001016151f7565b5060608a01519650838982030160a08a01526152418188614a91565b9650505050505050608084015161525b60c0850182614a8b565b5060a084015161526e60e0850182614a8b565b5060c0840151610100840152809150509392505050565b6000838252604060208301526128d36040830184614a91565b6000848252606060208301526152b76060830185614a91565b9050826040830152949350505050565b6040518181016001600160401b03811182821017156152e557600080fd5b604052919050565b60006001600160401b03821115615302578081fd5b5060209081020190565b60006001600160401b03821115615321578081fd5b50601f01601f191660200190565b60009081526020902090565b60005b8381101561535657818101518382015260200161533e565b838111156112d75750506000910152565b6001600160a01b0381168114613d5257600080fdfe4563647361536563703235366b31566572696669636174696f6e4b6579323031394563647361536563703235366b315265636f766572794d6574686f6432303230a264697066735822122021017516da2425d60967365a4ec7f8f574bd33f2b0c931642afe275420b572bb64736f6c634300060c0033","opcodes":"PUSH1 0x80 PUSH1 0x40 MSTORE CALLVALUE DUP1 ISZERO PUSH2 0x10 JUMPI PUSH1 0x0 DUP1 REVERT JUMPDEST POP PUSH2 0x53F3 DUP1 PUSH2 0x20 PUSH1 0x0 CODECOPY PUSH1 0x0 RETURN INVALID PUSH1 0x80 PUSH1 0x40 MSTORE CALLVALUE DUP1 ISZERO PUSH2 0x10 JUMPI PUSH1 0x0 DUP1 REVERT JUMPDEST POP PUSH1 0x4 CALLDATASIZE LT PUSH2 0x210 JUMPI PUSH1 0x0 CALLDATALOAD PUSH1 0xE0 SHR DUP1 PUSH4 0x7CCB6A64 GT PUSH2 0x125 JUMPI DUP1 PUSH4 0xAF4E1238 GT PUSH2 0xAD JUMPI DUP1 PUSH4 0xD558CDEA GT PUSH2 0x7C JUMPI DUP1 PUSH4 0xD558CDEA EQ PUSH2 0x4A9 JUMPI DUP1 PUSH4 0xDB7D1F04 EQ PUSH2 0x4BC JUMPI DUP1 PUSH4 0xEC02A3B5 EQ PUSH2 0x4CF JUMPI DUP1 PUSH4 0xF8D8F4AD EQ PUSH2 0x4E2 JUMPI DUP1 PUSH4 0xFA1BAC72 EQ PUSH2 0x502 JUMPI PUSH2 0x210 JUMP JUMPDEST DUP1 PUSH4 0xAF4E1238 EQ PUSH2 0x44F JUMPI DUP1 PUSH4 0xB0ABB199 EQ PUSH2 0x470 JUMPI DUP1 PUSH4 0xBA964281 EQ PUSH2 0x483 JUMPI DUP1 PUSH4 0xD22EAFD9 EQ PUSH2 0x496 JUMPI PUSH2 0x210 JUMP JUMPDEST DUP1 PUSH4 0x8BA6652C GT PUSH2 0xF4 JUMPI DUP1 PUSH4 0x8BA6652C EQ PUSH2 0x3F0 JUMPI DUP1 PUSH4 0x8DA5588C EQ PUSH2 0x403 JUMPI DUP1 PUSH4 0x9033D99A EQ PUSH2 0x416 JUMPI DUP1 PUSH4 0x9053AD03 EQ PUSH2 0x429 JUMPI DUP1 PUSH4 0x958607B8 EQ PUSH2 0x43C JUMPI PUSH2 0x210 JUMP JUMPDEST DUP1 PUSH4 0x7CCB6A64 EQ PUSH2 0x397 JUMPI DUP1 PUSH4 0x7D1C754F EQ PUSH2 0x3B7 JUMPI DUP1 PUSH4 0x8095627F EQ PUSH2 0x3CA JUMPI DUP1 PUSH4 0x88209CF3 EQ PUSH2 0x3DD JUMPI PUSH2 0x210 JUMP JUMPDEST DUP1 PUSH4 0x398A85EC GT PUSH2 0x1A8 JUMPI DUP1 PUSH4 0x65CBF7C3 GT PUSH2 0x177 JUMPI DUP1 PUSH4 0x65CBF7C3 EQ PUSH2 0x338 JUMPI DUP1 PUSH4 0x667F5FA3 EQ PUSH2 0x34B JUMPI DUP1 PUSH4 0x6747E9BC EQ PUSH2 0x35E JUMPI DUP1 PUSH4 0x6E5F3183 EQ PUSH2 0x371 JUMPI DUP1 PUSH4 0x793F66C9 EQ PUSH2 0x384 JUMPI PUSH2 0x210 JUMP JUMPDEST DUP1 PUSH4 0x398A85EC EQ PUSH2 0x2EC JUMPI DUP1 PUSH4 0x52C07C56 EQ PUSH2 0x2FF JUMPI DUP1 PUSH4 0x53864503 EQ PUSH2 0x312 JUMPI DUP1 PUSH4 0x53949D4F EQ PUSH2 0x325 JUMPI PUSH2 0x210 JUMP JUMPDEST DUP1 PUSH4 0x244D9153 GT PUSH2 0x1E4 JUMPI DUP1 PUSH4 0x244D9153 EQ PUSH2 0x286 JUMPI DUP1 PUSH4 0x2E35D7CA EQ PUSH2 0x299 JUMPI DUP1 PUSH4 0x2E97B8D4 EQ PUSH2 0x2B9 JUMPI DUP1 PUSH4 0x3634791E EQ PUSH2 0x2CC JUMPI PUSH2 0x210 JUMP JUMPDEST DUP1 PUSH3 0x2B4C82 EQ PUSH2 0x215 JUMPI DUP1 PUSH4 0x4F6748C EQ PUSH2 0x22A JUMPI DUP1 PUSH4 0xEC0865B EQ PUSH2 0x253 JUMPI DUP1 PUSH4 0x1F7C7A9D EQ PUSH2 0x266 JUMPI JUMPDEST PUSH1 0x0 DUP1 REVERT JUMPDEST PUSH2 0x228 PUSH2 0x223 CALLDATASIZE PUSH1 0x4 PUSH2 0x465A JUMP JUMPDEST PUSH2 0x515 JUMP JUMPDEST STOP JUMPDEST PUSH2 0x23D PUSH2 0x238 CALLDATASIZE PUSH1 0x4 PUSH2 0x432A JUMP JUMPDEST PUSH2 0x58D JUMP JUMPDEST PUSH1 0x40 MLOAD PUSH2 0x24A SWAP2 SWAP1 PUSH2 0x5147 JUMP JUMPDEST PUSH1 0x40 MLOAD DUP1 SWAP2 SUB SWAP1 RETURN JUMPDEST PUSH2 0x228 PUSH2 0x261 CALLDATASIZE PUSH1 0x4 PUSH2 0x4736 JUMP JUMPDEST PUSH2 0x5AD JUMP JUMPDEST PUSH2 0x279 PUSH2 0x274 CALLDATASIZE PUSH1 0x4 PUSH2 0x432A JUMP JUMPDEST PUSH2 0x773 JUMP JUMPDEST PUSH1 0x40 MLOAD PUSH2 0x24A SWAP2 SWAP1 PUSH2 0x4B64 JUMP JUMPDEST PUSH2 0x228 PUSH2 0x294 CALLDATASIZE PUSH1 0x4 PUSH2 0x4736 JUMP JUMPDEST PUSH2 0x989 JUMP JUMPDEST PUSH2 0x2AC PUSH2 0x2A7 CALLDATASIZE PUSH1 0x4 PUSH2 0x432A JUMP JUMPDEST PUSH2 0xB33 JUMP JUMPDEST PUSH1 0x40 MLOAD PUSH2 0x24A SWAP2 SWAP1 PUSH2 0x4B51 JUMP JUMPDEST PUSH2 0x228 PUSH2 0x2C7 CALLDATASIZE PUSH1 0x4 PUSH2 0x4736 JUMP JUMPDEST PUSH2 0xC6D JUMP JUMPDEST PUSH2 0x2DF PUSH2 0x2DA CALLDATASIZE PUSH1 0x4 PUSH2 0x45FA JUMP JUMPDEST PUSH2 0xE02 JUMP JUMPDEST PUSH1 0x40 MLOAD PUSH2 0x24A SWAP2 SWAP1 PUSH2 0x4B8A JUMP JUMPDEST PUSH2 0x228 PUSH2 0x2FA CALLDATASIZE PUSH1 0x4 PUSH2 0x44B0 JUMP JUMPDEST PUSH2 0xE1A JUMP JUMPDEST PUSH2 0x228 PUSH2 0x30D CALLDATASIZE PUSH1 0x4 PUSH2 0x465A JUMP JUMPDEST PUSH2 0xE80 JUMP JUMPDEST PUSH2 0x228 PUSH2 0x320 CALLDATASIZE PUSH1 0x4 PUSH2 0x435C JUMP JUMPDEST PUSH2 0xEEA JUMP JUMPDEST PUSH2 0x2AC PUSH2 0x333 CALLDATASIZE PUSH1 0x4 PUSH2 0x432A JUMP JUMPDEST PUSH2 0xF6A JUMP JUMPDEST PUSH2 0x228 PUSH2 0x346 CALLDATASIZE PUSH1 0x4 PUSH2 0x458E JUMP JUMPDEST PUSH2 0x1120 JUMP JUMPDEST PUSH2 0x228 PUSH2 0x359 CALLDATASIZE PUSH1 0x4 PUSH2 0x47FA JUMP JUMPDEST PUSH2 0x12DD JUMP JUMPDEST PUSH2 0x228 PUSH2 0x36C CALLDATASIZE PUSH1 0x4 PUSH2 0x44B0 JUMP JUMPDEST PUSH2 0x153F JUMP JUMPDEST PUSH2 0x228 PUSH2 0x37F CALLDATASIZE PUSH1 0x4 PUSH2 0x4524 JUMP JUMPDEST PUSH2 0x1598 JUMP JUMPDEST PUSH2 0x228 PUSH2 0x392 CALLDATASIZE PUSH1 0x4 PUSH2 0x4736 JUMP JUMPDEST PUSH2 0x15F2 JUMP JUMPDEST PUSH2 0x3AA PUSH2 0x3A5 CALLDATASIZE PUSH1 0x4 PUSH2 0x432A JUMP JUMPDEST PUSH2 0x163B JUMP JUMPDEST PUSH1 0x40 MLOAD PUSH2 0x24A SWAP2 SWAP1 PUSH2 0x5028 JUMP JUMPDEST PUSH2 0x228 PUSH2 0x3C5 CALLDATASIZE PUSH1 0x4 PUSH2 0x47FA JUMP JUMPDEST PUSH2 0x16C8 JUMP JUMPDEST PUSH2 0x228 PUSH2 0x3D8 CALLDATASIZE PUSH1 0x4 PUSH2 0x458E JUMP JUMPDEST PUSH2 0x1917 JUMP JUMPDEST PUSH2 0x228 PUSH2 0x3EB CALLDATASIZE PUSH1 0x4 PUSH2 0x4524 JUMP JUMPDEST PUSH2 0x1AC4 JUMP JUMPDEST PUSH2 0x2DF PUSH2 0x3FE CALLDATASIZE PUSH1 0x4 PUSH2 0x4736 JUMP JUMPDEST PUSH2 0x1B1E JUMP JUMPDEST PUSH2 0x228 PUSH2 0x411 CALLDATASIZE PUSH1 0x4 PUSH2 0x435C JUMP JUMPDEST PUSH2 0x1B38 JUMP JUMPDEST PUSH2 0x228 PUSH2 0x424 CALLDATASIZE PUSH1 0x4 PUSH2 0x478D JUMP JUMPDEST PUSH2 0x1BB7 JUMP JUMPDEST PUSH2 0x228 PUSH2 0x437 CALLDATASIZE PUSH1 0x4 PUSH2 0x478D JUMP JUMPDEST PUSH2 0x1C01 JUMP JUMPDEST PUSH2 0x228 PUSH2 0x44A CALLDATASIZE PUSH1 0x4 PUSH2 0x4736 JUMP JUMPDEST PUSH2 0x1C4B JUMP JUMPDEST PUSH2 0x462 PUSH2 0x45D CALLDATASIZE PUSH1 0x4 PUSH2 0x432A JUMP JUMPDEST PUSH2 0x1C94 JUMP JUMPDEST PUSH1 0x40 MLOAD PUSH2 0x24A SWAP3 SWAP2 SWAP1 PUSH2 0x4B95 JUMP JUMPDEST PUSH2 0x228 PUSH2 0x47E CALLDATASIZE PUSH1 0x4 PUSH2 0x43F4 JUMP JUMPDEST PUSH2 0x1CC0 JUMP JUMPDEST PUSH2 0x23D PUSH2 0x491 CALLDATASIZE PUSH1 0x4 PUSH2 0x432A JUMP JUMPDEST PUSH2 0x1D4F JUMP JUMPDEST PUSH2 0x279 PUSH2 0x4A4 CALLDATASIZE PUSH1 0x4 PUSH2 0x432A JUMP JUMPDEST PUSH2 0x1F46 JUMP JUMPDEST PUSH2 0x228 PUSH2 0x4B7 CALLDATASIZE PUSH1 0x4 PUSH2 0x44B0 JUMP JUMPDEST PUSH2 0x214C JUMP JUMPDEST PUSH2 0x228 PUSH2 0x4CA CALLDATASIZE PUSH1 0x4 PUSH2 0x46C7 JUMP JUMPDEST PUSH2 0x21A5 JUMP JUMPDEST PUSH2 0x228 PUSH2 0x4DD CALLDATASIZE PUSH1 0x4 PUSH2 0x45FA JUMP JUMPDEST PUSH2 0x2210 JUMP JUMPDEST PUSH2 0x4F5 PUSH2 0x4F0 CALLDATASIZE PUSH1 0x4 PUSH2 0x432A JUMP JUMPDEST PUSH2 0x2679 JUMP JUMPDEST PUSH1 0x40 MLOAD PUSH2 0x24A SWAP2 SWAP1 PUSH2 0x4B77 JUMP JUMPDEST PUSH2 0x228 PUSH2 0x510 CALLDATASIZE PUSH1 0x4 PUSH2 0x4736 JUMP JUMPDEST PUSH2 0x27B3 JUMP JUMPDEST PUSH2 0x520 DUP5 DUP3 DUP5 PUSH2 0x27FC JUMP JUMPDEST SWAP4 POP PUSH2 0x54C DUP5 DUP5 PUSH1 0x0 PUSH1 0x40 MLOAD DUP1 PUSH1 0x60 ADD PUSH1 0x40 MSTORE DUP1 PUSH1 0x21 DUP2 MSTORE PUSH1 0x20 ADD PUSH2 0x537D PUSH1 0x21 SWAP2 CODECOPY DUP7 PUSH1 0x0 PUSH1 0x1 PUSH2 0x28DB JUMP JUMPDEST PUSH32 0xB22D64A17A74DC192D537930CCFEFDCC25C0E279B7595081C4F42E7613F01CF8 DUP5 DUP5 DUP5 PUSH1 0x40 MLOAD PUSH2 0x57F SWAP4 SWAP3 SWAP2 SWAP1 PUSH2 0x4CCE JUMP JUMPDEST PUSH1 0x40 MLOAD DUP1 SWAP2 SUB SWAP1 LOG1 POP POP POP POP JUMP JUMPDEST DUP1 MLOAD PUSH1 0x20 DUP2 DUP4 ADD DUP2 ADD DUP1 MLOAD PUSH1 0x0 DUP3 MSTORE SWAP3 DUP3 ADD SWAP2 SWAP1 SWAP4 ADD KECCAK256 SWAP2 MSTORE PUSH1 0x2 ADD SLOAD DUP2 JUMP JUMPDEST PUSH2 0x5B7 DUP4 DUP3 PUSH2 0x2AC4 JUMP JUMPDEST SWAP3 POP PUSH1 0x60 PUSH20 0x0 PUSH4 0x1EAE56FE DUP6 PUSH1 0x40 MLOAD DUP3 PUSH4 0xFFFFFFFF AND PUSH1 0xE0 SHL DUP2 MSTORE PUSH1 0x4 ADD PUSH2 0x5F2 SWAP2 SWAP1 PUSH2 0x4BA5 JUMP JUMPDEST PUSH1 0x0 PUSH1 0x40 MLOAD DUP1 DUP4 SUB DUP2 DUP7 DUP1 EXTCODESIZE ISZERO DUP1 ISZERO PUSH2 0x60A JUMPI PUSH1 0x0 DUP1 REVERT JUMPDEST POP GAS DELEGATECALL ISZERO DUP1 ISZERO PUSH2 0x61E JUMPI RETURNDATASIZE PUSH1 0x0 DUP1 RETURNDATACOPY RETURNDATASIZE PUSH1 0x0 REVERT JUMPDEST POP POP POP POP PUSH1 0x40 MLOAD RETURNDATASIZE PUSH1 0x0 DUP3 RETURNDATACOPY PUSH1 0x1F RETURNDATASIZE SWAP1 DUP2 ADD PUSH1 0x1F NOT AND DUP3 ADD PUSH1 0x40 MSTORE PUSH2 0x646 SWAP2 SWAP1 DUP2 ADD SWAP1 PUSH2 0x42F8 JUMP JUMPDEST SWAP1 POP PUSH1 0x0 PUSH20 0x0 PUSH4 0xF4D9407F DUP6 PUSH1 0x40 MLOAD DUP3 PUSH4 0xFFFFFFFF AND PUSH1 0xE0 SHL DUP2 MSTORE PUSH1 0x4 ADD PUSH2 0x681 SWAP2 SWAP1 PUSH2 0x4BA5 JUMP JUMPDEST PUSH1 0x20 PUSH1 0x40 MLOAD DUP1 DUP4 SUB DUP2 DUP7 DUP1 EXTCODESIZE ISZERO DUP1 ISZERO PUSH2 0x699 JUMPI PUSH1 0x0 DUP1 REVERT JUMPDEST POP GAS DELEGATECALL ISZERO DUP1 ISZERO PUSH2 0x6AD JUMPI RETURNDATASIZE PUSH1 0x0 DUP1 RETURNDATACOPY RETURNDATASIZE PUSH1 0x0 REVERT JUMPDEST POP POP POP POP PUSH1 0x40 MLOAD RETURNDATASIZE PUSH1 0x1F NOT PUSH1 0x1F DUP3 ADD AND DUP3 ADD DUP1 PUSH1 0x40 MSTORE POP DUP2 ADD SWAP1 PUSH2 0x6D1 SWAP2 SWAP1 PUSH2 0x42E0 JUMP JUMPDEST SWAP1 POP PUSH1 0x0 PUSH2 0x700 DUP3 DUP7 PUSH1 0x0 DUP7 PUSH1 0x40 MLOAD PUSH2 0x6EA SWAP2 SWAP1 PUSH2 0x4ABD JUMP JUMPDEST SWAP1 DUP2 MSTORE PUSH1 0x40 MLOAD SWAP1 DUP2 SWAP1 SUB PUSH1 0x20 ADD SWAP1 KECCAK256 SWAP2 SWAP1 PUSH2 0x2AF5 JUMP JUMPDEST SWAP1 POP DUP1 ISZERO PUSH2 0x729 JUMPI PUSH1 0x40 MLOAD PUSH3 0x461BCD PUSH1 0xE5 SHL DUP2 MSTORE PUSH1 0x4 ADD PUSH2 0x720 SWAP1 PUSH2 0x4E8D JUMP JUMPDEST PUSH1 0x40 MLOAD DUP1 SWAP2 SUB SWAP1 REVERT JUMPDEST PUSH2 0x732 DUP7 PUSH2 0x2B7D JUMP JUMPDEST PUSH32 0x158049E5F97A0923906423A422819A72F859B99834AB1471EC73C7E5D8C2221D DUP7 DUP7 PUSH1 0x40 MLOAD PUSH2 0x763 SWAP3 SWAP2 SWAP1 PUSH2 0x4CA9 JUMP JUMPDEST PUSH1 0x40 MLOAD DUP1 SWAP2 SUB SWAP1 LOG1 POP POP POP POP POP POP JUMP JUMPDEST PUSH1 0x40 MLOAD PUSH4 0x9416B423 PUSH1 0xE0 SHL DUP2 MSTORE PUSH1 0x60 SWAP1 PUSH20 0x0 SWAP1 PUSH4 0x9416B423 SWAP1 PUSH2 0x7AD SWAP1 DUP6 SWAP1 PUSH1 0x4 ADD PUSH2 0x4BA5 JUMP JUMPDEST PUSH1 0x0 PUSH1 0x40 MLOAD DUP1 DUP4 SUB DUP2 DUP7 DUP1 EXTCODESIZE ISZERO DUP1 ISZERO PUSH2 0x7C5 JUMPI PUSH1 0x0 DUP1 REVERT JUMPDEST POP GAS DELEGATECALL ISZERO DUP1 ISZERO PUSH2 0x7D9 JUMPI RETURNDATASIZE PUSH1 0x0 DUP1 RETURNDATACOPY RETURNDATASIZE PUSH1 0x0 REVERT JUMPDEST POP POP POP POP PUSH1 0x40 MLOAD RETURNDATASIZE PUSH1 0x0 DUP3 RETURNDATACOPY PUSH1 0x1F RETURNDATASIZE SWAP1 DUP2 ADD PUSH1 0x1F NOT AND DUP3 ADD PUSH1 0x40 MSTORE PUSH2 0x801 SWAP2 SWAP1 DUP2 ADD SWAP1 PUSH2 0x42F8 JUMP JUMPDEST SWAP2 POP PUSH1 0x1 DUP3 PUSH1 0x40 MLOAD PUSH2 0x813 SWAP2 SWAP1 PUSH2 0x4ABD JUMP JUMPDEST SWAP1 DUP2 MSTORE PUSH1 0x40 MLOAD SWAP1 DUP2 SWAP1 SUB PUSH1 0x20 ADD SWAP1 KECCAK256 SLOAD PUSH1 0xFF AND ISZERO PUSH2 0x843 JUMPI PUSH1 0x40 MLOAD PUSH3 0x461BCD PUSH1 0xE5 SHL DUP2 MSTORE PUSH1 0x4 ADD PUSH2 0x720 SWAP1 PUSH2 0x4F7D JUMP JUMPDEST PUSH1 0x40 MLOAD PUSH4 0x5C2E495 PUSH1 0xE2 SHL DUP2 MSTORE PUSH1 0x60 SWAP1 PUSH20 0x0 SWAP1 PUSH4 0x170B9254 SWAP1 PUSH2 0x87D SWAP1 DUP7 SWAP1 PUSH1 0x4 ADD PUSH2 0x4BA5 JUMP JUMPDEST PUSH1 0x0 PUSH1 0x40 MLOAD DUP1 DUP4 SUB DUP2 DUP7 DUP1 EXTCODESIZE ISZERO DUP1 ISZERO PUSH2 0x895 JUMPI PUSH1 0x0 DUP1 REVERT JUMPDEST POP GAS DELEGATECALL ISZERO DUP1 ISZERO PUSH2 0x8A9 JUMPI RETURNDATASIZE PUSH1 0x0 DUP1 RETURNDATACOPY RETURNDATASIZE PUSH1 0x0 REVERT JUMPDEST POP POP POP POP PUSH1 0x40 MLOAD RETURNDATASIZE PUSH1 0x0 DUP3 RETURNDATACOPY PUSH1 0x1F RETURNDATASIZE SWAP1 DUP2 ADD PUSH1 0x1F NOT AND DUP3 ADD PUSH1 0x40 MSTORE PUSH2 0x8D1 SWAP2 SWAP1 DUP2 ADD SWAP1 PUSH2 0x42F8 JUMP JUMPDEST SWAP1 POP PUSH1 0x0 DUP1 DUP3 PUSH1 0x40 MLOAD PUSH2 0x8E4 SWAP2 SWAP1 PUSH2 0x4ABD JUMP JUMPDEST SWAP1 DUP2 MSTORE PUSH1 0x40 MLOAD SWAP1 DUP2 SWAP1 SUB PUSH1 0x20 ADD DUP2 KECCAK256 PUSH4 0x2C7F2E4B PUSH1 0xE0 SHL DUP3 MSTORE SWAP2 POP PUSH20 0x0 SWAP1 PUSH4 0x2C7F2E4B SWAP1 PUSH2 0x92B SWAP1 DUP8 SWAP1 DUP6 SWAP1 PUSH1 0x4 ADD PUSH2 0x4D5F JUMP JUMPDEST PUSH1 0x0 PUSH1 0x40 MLOAD DUP1 DUP4 SUB DUP2 DUP7 DUP1 EXTCODESIZE ISZERO DUP1 ISZERO PUSH2 0x943 JUMPI PUSH1 0x0 DUP1 REVERT JUMPDEST POP GAS DELEGATECALL ISZERO DUP1 ISZERO PUSH2 0x957 JUMPI RETURNDATASIZE PUSH1 0x0 DUP1 RETURNDATACOPY RETURNDATASIZE PUSH1 0x0 REVERT JUMPDEST POP POP POP POP PUSH1 0x40 MLOAD RETURNDATASIZE PUSH1 0x0 DUP3 RETURNDATACOPY PUSH1 0x1F RETURNDATASIZE SWAP1 DUP2 ADD PUSH1 0x1F NOT AND DUP3 ADD PUSH1 0x40 MSTORE PUSH2 0x97F SWAP2 SWAP1 DUP2 ADD SWAP1 PUSH2 0x412E JUMP JUMPDEST SWAP3 POP POP POP JUMPDEST SWAP2 SWAP1 POP JUMP JUMPDEST PUSH2 0x993 DUP4 DUP3 PUSH2 0x2AC4 JUMP JUMPDEST SWAP3 POP PUSH1 0x60 PUSH20 0x0 PUSH4 0x1EAE56FE DUP6 PUSH1 0x40 MLOAD DUP3 PUSH4 0xFFFFFFFF AND PUSH1 0xE0 SHL DUP2 MSTORE PUSH1 0x4 ADD PUSH2 0x9CE SWAP2 SWAP1 PUSH2 0x4BA5 JUMP JUMPDEST PUSH1 0x0 PUSH1 0x40 MLOAD DUP1 DUP4 SUB DUP2 DUP7 DUP1 EXTCODESIZE ISZERO DUP1 ISZERO PUSH2 0x9E6 JUMPI PUSH1 0x0 DUP1 REVERT JUMPDEST POP GAS DELEGATECALL ISZERO DUP1 ISZERO PUSH2 0x9FA JUMPI RETURNDATASIZE PUSH1 0x0 DUP1 RETURNDATACOPY RETURNDATASIZE PUSH1 0x0 REVERT JUMPDEST POP POP POP POP PUSH1 0x40 MLOAD RETURNDATASIZE PUSH1 0x0 DUP3 RETURNDATACOPY PUSH1 0x1F RETURNDATASIZE SWAP1 DUP2 ADD PUSH1 0x1F NOT AND DUP3 ADD PUSH1 0x40 MSTORE PUSH2 0xA22 SWAP2 SWAP1 DUP2 ADD SWAP1 PUSH2 0x42F8 JUMP JUMPDEST SWAP1 POP PUSH1 0x0 PUSH20 0x0 PUSH4 0xF4D9407F DUP6 PUSH1 0x40 MLOAD DUP3 PUSH4 0xFFFFFFFF AND PUSH1 0xE0 SHL DUP2 MSTORE PUSH1 0x4 ADD PUSH2 0xA5D SWAP2 SWAP1 PUSH2 0x4BA5 JUMP JUMPDEST PUSH1 0x20 PUSH1 0x40 MLOAD DUP1 DUP4 SUB DUP2 DUP7 DUP1 EXTCODESIZE ISZERO DUP1 ISZERO PUSH2 0xA75 JUMPI PUSH1 0x0 DUP1 REVERT JUMPDEST POP GAS DELEGATECALL ISZERO DUP1 ISZERO PUSH2 0xA89 JUMPI RETURNDATASIZE PUSH1 0x0 DUP1 RETURNDATACOPY RETURNDATASIZE PUSH1 0x0 REVERT JUMPDEST POP POP POP POP PUSH1 0x40 MLOAD RETURNDATASIZE PUSH1 0x1F NOT PUSH1 0x1F DUP3 ADD AND DUP3 ADD DUP1 PUSH1 0x40 MSTORE POP DUP2 ADD SWAP1 PUSH2 0xAAD SWAP2 SWAP1 PUSH2 0x42E0 JUMP JUMPDEST SWAP1 POP PUSH1 0x0 PUSH2 0xADA DUP3 PUSH1 0x0 DUP6 PUSH1 0x40 MLOAD PUSH2 0xAC5 SWAP2 SWAP1 PUSH2 0x4ABD JUMP JUMPDEST SWAP1 DUP2 MSTORE PUSH1 0x40 MLOAD SWAP1 DUP2 SWAP1 SUB PUSH1 0x20 ADD SWAP1 KECCAK256 SWAP1 PUSH2 0x2CAA JUMP JUMPDEST SWAP1 POP DUP1 PUSH2 0xAF9 JUMPI PUSH1 0x40 MLOAD PUSH3 0x461BCD PUSH1 0xE5 SHL DUP2 MSTORE PUSH1 0x4 ADD PUSH2 0x720 SWAP1 PUSH2 0x4FA6 JUMP JUMPDEST PUSH2 0xB02 DUP7 PUSH2 0x2B7D JUMP JUMPDEST PUSH32 0x60B2DF265D895CBD29C118EF04311B5CCF506BBC063740F4ED3EB7A60448AFE7 DUP7 DUP7 PUSH1 0x40 MLOAD PUSH2 0x763 SWAP3 SWAP2 SWAP1 PUSH2 0x4CA9 JUMP JUMPDEST PUSH1 0x60 DUP1 PUSH20 0x0 PUSH4 0x1EAE56FE DUP5 PUSH1 0x40 MLOAD DUP3 PUSH4 0xFFFFFFFF AND PUSH1 0xE0 SHL DUP2 MSTORE PUSH1 0x4 ADD PUSH2 0xB6D SWAP2 SWAP1 PUSH2 0x4BA5 JUMP JUMPDEST PUSH1 0x0 PUSH1 0x40 MLOAD DUP1 DUP4 SUB DUP2 DUP7 DUP1 EXTCODESIZE ISZERO DUP1 ISZERO PUSH2 0xB85 JUMPI PUSH1 0x0 DUP1 REVERT JUMPDEST POP GAS DELEGATECALL ISZERO DUP1 ISZERO PUSH2 0xB99 JUMPI RETURNDATASIZE PUSH1 0x0 DUP1 RETURNDATACOPY RETURNDATASIZE PUSH1 0x0 REVERT JUMPDEST POP POP POP POP PUSH1 0x40 MLOAD RETURNDATASIZE PUSH1 0x0 DUP3 RETURNDATACOPY PUSH1 0x1F RETURNDATASIZE SWAP1 DUP2 ADD PUSH1 0x1F NOT AND DUP3 ADD PUSH1 0x40 MSTORE PUSH2 0xBC1 SWAP2 SWAP1 DUP2 ADD SWAP1 PUSH2 0x42F8 JUMP JUMPDEST SWAP1 POP PUSH1 0x0 DUP1 DUP3 PUSH1 0x40 MLOAD PUSH2 0xBD4 SWAP2 SWAP1 PUSH2 0x4ABD JUMP JUMPDEST SWAP1 DUP2 MSTORE PUSH1 0x40 MLOAD SWAP1 DUP2 SWAP1 SUB PUSH1 0x20 ADD DUP2 KECCAK256 PUSH4 0x637529DB PUSH1 0xE0 SHL DUP3 MSTORE SWAP2 POP PUSH20 0x0 SWAP1 PUSH4 0x637529DB SWAP1 PUSH2 0xC19 SWAP1 DUP5 SWAP1 PUSH1 0x4 ADD PUSH2 0x5147 JUMP JUMPDEST PUSH1 0x0 PUSH1 0x40 MLOAD DUP1 DUP4 SUB DUP2 DUP7 DUP1 EXTCODESIZE ISZERO DUP1 ISZERO PUSH2 0xC31 JUMPI PUSH1 0x0 DUP1 REVERT JUMPDEST POP GAS DELEGATECALL ISZERO DUP1 ISZERO PUSH2 0xC45 JUMPI RETURNDATASIZE PUSH1 0x0 DUP1 RETURNDATACOPY RETURNDATASIZE PUSH1 0x0 REVERT JUMPDEST POP POP POP POP PUSH1 0x40 MLOAD RETURNDATASIZE PUSH1 0x0 DUP3 RETURNDATACOPY PUSH1 0x1F RETURNDATASIZE SWAP1 DUP2 ADD PUSH1 0x1F NOT AND DUP3 ADD PUSH1 0x40 MSTORE PUSH2 0x97F SWAP2 SWAP1 DUP2 ADD SWAP1 PUSH2 0x40FC JUMP JUMPDEST PUSH2 0xC77 DUP4 DUP3 PUSH2 0x2AC4 JUMP JUMPDEST SWAP3 POP PUSH1 0x60 PUSH20 0x0 PUSH4 0xEB824844 DUP6 PUSH1 0x40 MLOAD DUP3 PUSH4 0xFFFFFFFF AND PUSH1 0xE0 SHL DUP2 MSTORE PUSH1 0x4 ADD PUSH2 0xCB2 SWAP2 SWAP1 PUSH2 0x4BA5 JUMP JUMPDEST PUSH1 0x0 PUSH1 0x40 MLOAD DUP1 DUP4 SUB DUP2 DUP7 DUP1 EXTCODESIZE ISZERO DUP1 ISZERO PUSH2 0xCCA JUMPI PUSH1 0x0 DUP1 REVERT JUMPDEST POP GAS DELEGATECALL ISZERO DUP1 ISZERO PUSH2 0xCDE JUMPI RETURNDATASIZE PUSH1 0x0 DUP1 RETURNDATACOPY RETURNDATASIZE PUSH1 0x0 REVERT JUMPDEST POP POP POP POP PUSH1 0x40 MLOAD RETURNDATASIZE PUSH1 0x0 DUP3 RETURNDATACOPY PUSH1 0x1F RETURNDATASIZE SWAP1 DUP2 ADD PUSH1 0x1F NOT AND DUP3 ADD PUSH1 0x40 MSTORE PUSH2 0xD06 SWAP2 SWAP1 DUP2 ADD SWAP1 PUSH2 0x42F8 JUMP JUMPDEST SWAP1 POP PUSH1 0x0 PUSH20 0x0 PUSH4 0x4ACF2705 DUP6 PUSH1 0x40 MLOAD DUP3 PUSH4 0xFFFFFFFF AND PUSH1 0xE0 SHL DUP2 MSTORE PUSH1 0x4 ADD PUSH2 0xD41 SWAP2 SWAP1 PUSH2 0x4BA5 JUMP JUMPDEST PUSH1 0x20 PUSH1 0x40 MLOAD DUP1 DUP4 SUB DUP2 DUP7 DUP1 EXTCODESIZE ISZERO DUP1 ISZERO PUSH2 0xD59 JUMPI PUSH1 0x0 DUP1 REVERT JUMPDEST POP GAS DELEGATECALL ISZERO DUP1 ISZERO PUSH2 0xD6D JUMPI RETURNDATASIZE PUSH1 0x0 DUP1 RETURNDATACOPY RETURNDATASIZE PUSH1 0x0 REVERT JUMPDEST POP POP POP POP PUSH1 0x40 MLOAD RETURNDATASIZE PUSH1 0x1F NOT PUSH1 0x1F DUP3 ADD AND DUP3 ADD DUP1 PUSH1 0x40 MSTORE POP DUP2 ADD SWAP1 PUSH2 0xD91 SWAP2 SWAP1 PUSH2 0x42E0 JUMP JUMPDEST SWAP1 POP PUSH1 0x0 PUSH2 0xDA9 DUP3 PUSH1 0x0 DUP6 PUSH1 0x40 MLOAD PUSH2 0xAC5 SWAP2 SWAP1 PUSH2 0x4ABD JUMP JUMPDEST SWAP1 POP DUP1 PUSH2 0xDC8 JUMPI PUSH1 0x40 MLOAD PUSH3 0x461BCD PUSH1 0xE5 SHL DUP2 MSTORE PUSH1 0x4 ADD PUSH2 0x720 SWAP1 PUSH2 0x4FD4 JUMP JUMPDEST PUSH2 0xDD1 DUP7 PUSH2 0x2B7D JUMP JUMPDEST PUSH32 0xAB8833E166D8CBD16F823A1E7C05653D3F78D9C3498EBDF0B2393C16E3FE9487 DUP7 DUP7 PUSH1 0x40 MLOAD PUSH2 0x763 SWAP3 SWAP2 SWAP1 PUSH2 0x4CA9 JUMP JUMPDEST PUSH1 0x0 DUP1 PUSH2 0xE0F DUP5 DUP5 PUSH2 0x2D36 JUMP JUMPDEST POP SWAP2 POP POP JUMPDEST SWAP3 SWAP2 POP POP JUMP JUMPDEST PUSH2 0xE24 DUP4 DUP3 PUSH2 0x2AC4 JUMP JUMPDEST PUSH1 0x40 DUP1 MLOAD PUSH1 0x0 DUP2 MSTORE PUSH1 0x20 DUP2 ADD SWAP1 SWAP2 MSTORE SWAP1 SWAP4 POP PUSH2 0xE42 SWAP1 DUP5 SWAP1 DUP5 PUSH2 0x335C JUMP JUMPDEST PUSH32 0x605A8562B3E375915AE30D3F6A56E766CC11BE0A6C592B68704F048F5AC9D867 DUP4 DUP4 PUSH1 0x40 MLOAD PUSH2 0xE73 SWAP3 SWAP2 SWAP1 PUSH2 0x4C41 JUMP JUMPDEST PUSH1 0x40 MLOAD DUP1 SWAP2 SUB SWAP1 LOG1 POP POP POP JUMP JUMPDEST PUSH2 0xE8B DUP5 DUP3 DUP5 PUSH2 0x27FC JUMP JUMPDEST SWAP4 POP PUSH2 0xEB7 DUP5 DUP5 PUSH1 0x0 PUSH1 0x40 MLOAD DUP1 PUSH1 0x60 ADD PUSH1 0x40 MSTORE DUP1 PUSH1 0x21 DUP2 MSTORE PUSH1 0x20 ADD PUSH2 0x537D PUSH1 0x21 SWAP2 CODECOPY DUP7 PUSH1 0x1 PUSH1 0x0 PUSH2 0x28DB JUMP JUMPDEST PUSH32 0xF649D2EBAE9F0C1584C133D91AAAE79F84B2580C33E7C2480A4BD0E27A29109 DUP5 DUP5 DUP5 PUSH1 0x40 MLOAD PUSH2 0x57F SWAP4 SWAP3 SWAP2 SWAP1 PUSH2 0x4CCE JUMP JUMPDEST PUSH2 0xEF5 DUP5 DUP3 DUP5 PUSH2 0x27FC JUMP JUMPDEST PUSH1 0x40 DUP1 MLOAD PUSH1 0x0 DUP1 DUP3 MSTORE PUSH1 0x60 DUP3 ADD DUP4 MSTORE PUSH1 0x20 DUP1 DUP4 ADD SWAP1 DUP2 MSTORE PUSH1 0x0 DUP1 MLOAD PUSH1 0x20 PUSH2 0x539E DUP4 CODECOPY DUP2 MLOAD SWAP2 MSTORE SWAP4 DUP4 ADD SWAP4 SWAP1 SWAP4 MSTORE SWAP3 SWAP7 POP PUSH2 0xF37 SWAP3 DUP8 SWAP3 DUP8 SWAP2 DUP8 SWAP1 PUSH1 0x1 SWAP1 PUSH2 0x28DB JUMP JUMPDEST PUSH32 0xA9F8CF46BEB11B19DF1F3F276B45158A279EFF65C1FB27BB4F3B91E1A894F0DD DUP5 DUP5 DUP5 PUSH1 0x40 MLOAD PUSH2 0x57F SWAP4 SWAP3 SWAP2 SWAP1 PUSH2 0x4C6B JUMP JUMPDEST PUSH1 0x40 MLOAD PUSH4 0x9416B423 PUSH1 0xE0 SHL DUP2 MSTORE PUSH1 0x60 SWAP1 PUSH20 0x0 SWAP1 PUSH4 0x9416B423 SWAP1 PUSH2 0xFA4 SWAP1 DUP6 SWAP1 PUSH1 0x4 ADD PUSH2 0x4BA5 JUMP JUMPDEST PUSH1 0x0 PUSH1 0x40 MLOAD DUP1 DUP4 SUB DUP2 DUP7 DUP1 EXTCODESIZE ISZERO DUP1 ISZERO PUSH2 0xFBC JUMPI PUSH1 0x0 DUP1 REVERT JUMPDEST POP GAS DELEGATECALL ISZERO DUP1 ISZERO PUSH2 0xFD0 JUMPI RETURNDATASIZE PUSH1 0x0 DUP1 RETURNDATACOPY RETURNDATASIZE PUSH1 0x0 REVERT JUMPDEST POP POP POP POP PUSH1 0x40 MLOAD RETURNDATASIZE PUSH1 0x0 DUP3 RETURNDATACOPY PUSH1 0x1F RETURNDATASIZE SWAP1 DUP2 ADD PUSH1 0x1F NOT AND DUP3 ADD PUSH1 0x40 MSTORE PUSH2 0xFF8 SWAP2 SWAP1 DUP2 ADD SWAP1 PUSH2 0x42F8 JUMP JUMPDEST SWAP2 POP PUSH1 0x1 DUP3 PUSH1 0x40 MLOAD PUSH2 0x100A SWAP2 SWAP1 PUSH2 0x4ABD JUMP JUMPDEST SWAP1 DUP2 MSTORE PUSH1 0x40 MLOAD SWAP1 DUP2 SWAP1 SUB PUSH1 0x20 ADD SWAP1 KECCAK256 SLOAD PUSH1 0xFF AND ISZERO PUSH2 0x103A JUMPI PUSH1 0x40 MLOAD PUSH3 0x461BCD PUSH1 0xE5 SHL DUP2 MSTORE PUSH1 0x4 ADD PUSH2 0x720 SWAP1 PUSH2 0x4F7D JUMP JUMPDEST PUSH1 0x40 MLOAD PUSH4 0xDD6E46F PUSH1 0xE1 SHL DUP2 MSTORE PUSH1 0x60 SWAP1 PUSH20 0x0 SWAP1 PUSH4 0x1BADC8DE SWAP1 PUSH2 0x1074 SWAP1 DUP7 SWAP1 PUSH1 0x4 ADD PUSH2 0x4BA5 JUMP JUMPDEST PUSH1 0x0 PUSH1 0x40 MLOAD DUP1 DUP4 SUB DUP2 DUP7 DUP1 EXTCODESIZE ISZERO DUP1 ISZERO PUSH2 0x108C JUMPI PUSH1 0x0 DUP1 REVERT JUMPDEST POP GAS DELEGATECALL ISZERO DUP1 ISZERO PUSH2 0x10A0 JUMPI RETURNDATASIZE PUSH1 0x0 DUP1 RETURNDATACOPY RETURNDATASIZE PUSH1 0x0 REVERT JUMPDEST POP POP POP POP PUSH1 0x40 MLOAD RETURNDATASIZE PUSH1 0x0 DUP3 RETURNDATACOPY PUSH1 0x1F RETURNDATASIZE SWAP1 DUP2 ADD PUSH1 0x1F NOT AND DUP3 ADD PUSH1 0x40 MSTORE PUSH2 0x10C8 SWAP2 SWAP1 DUP2 ADD SWAP1 PUSH2 0x42F8 JUMP JUMPDEST SWAP1 POP PUSH1 0x0 DUP1 DUP3 PUSH1 0x40 MLOAD PUSH2 0x10DB SWAP2 SWAP1 PUSH2 0x4ABD JUMP JUMPDEST SWAP1 DUP2 MSTORE PUSH1 0x40 MLOAD SWAP1 DUP2 SWAP1 SUB PUSH1 0x20 ADD DUP2 KECCAK256 PUSH4 0x8C789531 PUSH1 0xE0 SHL DUP3 MSTORE SWAP2 POP PUSH20 0x0 SWAP1 PUSH4 0x8C789531 SWAP1 PUSH2 0xC19 SWAP1 DUP5 SWAP1 PUSH1 0x4 ADD PUSH2 0x5150 JUMP JUMPDEST PUSH2 0x112A DUP4 DUP3 PUSH2 0x2AC4 JUMP JUMPDEST SWAP3 POP PUSH1 0x60 PUSH20 0x0 PUSH4 0x1BADC8DE DUP6 PUSH1 0x40 MLOAD DUP3 PUSH4 0xFFFFFFFF AND PUSH1 0xE0 SHL DUP2 MSTORE PUSH1 0x4 ADD PUSH2 0x1165 SWAP2 SWAP1 PUSH2 0x4BA5 JUMP JUMPDEST PUSH1 0x0 PUSH1 0x40 MLOAD DUP1 DUP4 SUB DUP2 DUP7 DUP1 EXTCODESIZE ISZERO DUP1 ISZERO PUSH2 0x117D JUMPI PUSH1 0x0 DUP1 REVERT JUMPDEST POP GAS DELEGATECALL ISZERO DUP1 ISZERO PUSH2 0x1191 JUMPI RETURNDATASIZE PUSH1 0x0 DUP1 RETURNDATACOPY RETURNDATASIZE PUSH1 0x0 REVERT JUMPDEST POP POP POP POP PUSH1 0x40 MLOAD RETURNDATASIZE PUSH1 0x0 DUP3 RETURNDATACOPY PUSH1 0x1F RETURNDATASIZE SWAP1 DUP2 ADD PUSH1 0x1F NOT AND DUP3 ADD PUSH1 0x40 MSTORE PUSH2 0x11B9 SWAP2 SWAP1 DUP2 ADD SWAP1 PUSH2 0x42F8 JUMP JUMPDEST SWAP1 POP PUSH1 0x0 JUMPDEST DUP4 MLOAD DUP2 LT ISZERO PUSH2 0x12CD JUMPI PUSH1 0x60 DUP5 DUP3 DUP2 MLOAD DUP2 LT PUSH2 0x11D5 JUMPI INVALID JUMPDEST PUSH1 0x20 MUL PUSH1 0x20 ADD ADD MLOAD SWAP1 POP PUSH1 0x0 PUSH20 0x0 PUSH4 0x229CBC87 DUP4 PUSH1 0x40 MLOAD DUP3 PUSH4 0xFFFFFFFF AND PUSH1 0xE0 SHL DUP2 MSTORE PUSH1 0x4 ADD PUSH2 0x1218 SWAP2 SWAP1 PUSH2 0x4BA5 JUMP JUMPDEST PUSH1 0x20 PUSH1 0x40 MLOAD DUP1 DUP4 SUB DUP2 DUP7 DUP1 EXTCODESIZE ISZERO DUP1 ISZERO PUSH2 0x1230 JUMPI PUSH1 0x0 DUP1 REVERT JUMPDEST POP GAS DELEGATECALL ISZERO DUP1 ISZERO PUSH2 0x1244 JUMPI RETURNDATASIZE PUSH1 0x0 DUP1 RETURNDATACOPY RETURNDATASIZE PUSH1 0x0 REVERT JUMPDEST POP POP POP POP PUSH1 0x40 MLOAD RETURNDATASIZE PUSH1 0x1F NOT PUSH1 0x1F DUP3 ADD AND DUP3 ADD DUP1 PUSH1 0x40 MSTORE POP DUP2 ADD SWAP1 PUSH2 0x1268 SWAP2 SWAP1 PUSH2 0x42E0 JUMP JUMPDEST SWAP1 POP PUSH1 0x0 PUSH2 0x1281 DUP3 DUP5 PUSH1 0x0 DUP9 PUSH1 0x40 MLOAD PUSH2 0x6EA SWAP2 SWAP1 PUSH2 0x4ABD JUMP JUMPDEST SWAP1 POP DUP1 PUSH2 0x12C2 JUMPI PUSH32 0xAB878CED0A294D7DDE0C095C50E69CD0C400119EF2D9545BDA4CC63D281148C5 DUP9 DUP5 PUSH1 0x40 MLOAD PUSH2 0x12B9 SWAP3 SWAP2 SWAP1 PUSH2 0x4CA9 JUMP JUMPDEST PUSH1 0x40 MLOAD DUP1 SWAP2 SUB SWAP1 LOG1 JUMPDEST POP POP POP PUSH1 0x1 ADD PUSH2 0x11BE JUMP JUMPDEST POP PUSH2 0x12D7 DUP5 PUSH2 0x2B7D JUMP JUMPDEST POP POP POP POP JUMP JUMPDEST PUSH2 0x12E7 DUP6 DUP3 PUSH2 0x2AC4 JUMP JUMPDEST SWAP5 POP PUSH1 0x60 PUSH20 0x0 PUSH4 0xEB824844 DUP8 PUSH1 0x40 MLOAD DUP3 PUSH4 0xFFFFFFFF AND PUSH1 0xE0 SHL DUP2 MSTORE PUSH1 0x4 ADD PUSH2 0x1322 SWAP2 SWAP1 PUSH2 0x4BA5 JUMP JUMPDEST PUSH1 0x0 PUSH1 0x40 MLOAD DUP1 DUP4 SUB DUP2 DUP7 DUP1 EXTCODESIZE ISZERO DUP1 ISZERO PUSH2 0x133A JUMPI PUSH1 0x0 DUP1 REVERT JUMPDEST POP GAS DELEGATECALL ISZERO DUP1 ISZERO PUSH2 0x134E JUMPI RETURNDATASIZE PUSH1 0x0 DUP1 RETURNDATACOPY RETURNDATASIZE PUSH1 0x0 REVERT JUMPDEST POP POP POP POP PUSH1 0x40 MLOAD RETURNDATASIZE PUSH1 0x0 DUP3 RETURNDATACOPY PUSH1 0x1F RETURNDATASIZE SWAP1 DUP2 ADD PUSH1 0x1F NOT AND DUP3 ADD PUSH1 0x40 MSTORE PUSH2 0x1376 SWAP2 SWAP1 DUP2 ADD SWAP1 PUSH2 0x42F8 JUMP JUMPDEST SWAP1 POP PUSH1 0x0 PUSH20 0x0 PUSH4 0x4ACF2705 DUP8 PUSH1 0x40 MLOAD DUP3 PUSH4 0xFFFFFFFF AND PUSH1 0xE0 SHL DUP2 MSTORE PUSH1 0x4 ADD PUSH2 0x13B1 SWAP2 SWAP1 PUSH2 0x4BA5 JUMP JUMPDEST PUSH1 0x20 PUSH1 0x40 MLOAD DUP1 DUP4 SUB DUP2 DUP7 DUP1 EXTCODESIZE ISZERO DUP1 ISZERO PUSH2 0x13C9 JUMPI PUSH1 0x0 DUP1 REVERT JUMPDEST POP GAS DELEGATECALL ISZERO DUP1 ISZERO PUSH2 0x13DD JUMPI RETURNDATASIZE PUSH1 0x0 DUP1 RETURNDATACOPY RETURNDATASIZE PUSH1 0x0 REVERT JUMPDEST POP POP POP POP PUSH1 0x40 MLOAD RETURNDATASIZE PUSH1 0x1F NOT PUSH1 0x1F DUP3 ADD AND DUP3 ADD DUP1 PUSH1 0x40 MSTORE POP DUP2 ADD SWAP1 PUSH2 0x1401 SWAP2 SWAP1 PUSH2 0x42E0 JUMP JUMPDEST SWAP1 POP PUSH2 0x140B PUSH2 0x3CD3 JUMP JUMPDEST PUSH1 0x40 MLOAD DUP1 PUSH1 0x60 ADD PUSH1 0x40 MSTORE DUP1 DUP9 DUP2 MSTORE PUSH1 0x20 ADD DUP8 DUP2 MSTORE PUSH1 0x20 ADD DUP7 DUP2 MSTORE POP SWAP1 POP PUSH1 0x60 PUSH20 0x0 PUSH4 0x711F2CD4 DUP4 PUSH1 0x40 MLOAD DUP3 PUSH4 0xFFFFFFFF AND PUSH1 0xE0 SHL DUP2 MSTORE PUSH1 0x4 ADD PUSH2 0x1461 SWAP2 SWAP1 PUSH2 0x50EF JUMP JUMPDEST PUSH1 0x0 PUSH1 0x40 MLOAD DUP1 DUP4 SUB DUP2 DUP7 DUP1 EXTCODESIZE ISZERO DUP1 ISZERO PUSH2 0x1479 JUMPI PUSH1 0x0 DUP1 REVERT JUMPDEST POP GAS DELEGATECALL ISZERO DUP1 ISZERO PUSH2 0x148D JUMPI RETURNDATASIZE PUSH1 0x0 DUP1 RETURNDATACOPY RETURNDATASIZE PUSH1 0x0 REVERT JUMPDEST POP POP POP POP PUSH1 0x40 MLOAD RETURNDATASIZE PUSH1 0x0 DUP3 RETURNDATACOPY PUSH1 0x1F RETURNDATASIZE SWAP1 DUP2 ADD PUSH1 0x1F NOT AND DUP3 ADD PUSH1 0x40 MSTORE PUSH2 0x14B5 SWAP2 SWAP1 DUP2 ADD SWAP1 PUSH2 0x42F8 JUMP JUMPDEST SWAP1 POP PUSH1 0x0 PUSH2 0x14CE DUP5 DUP4 PUSH1 0x0 DUP9 PUSH1 0x40 MLOAD PUSH2 0x6EA SWAP2 SWAP1 PUSH2 0x4ABD JUMP JUMPDEST SWAP1 POP DUP1 PUSH2 0x14ED JUMPI PUSH1 0x40 MLOAD PUSH3 0x461BCD PUSH1 0xE5 SHL DUP2 MSTORE PUSH1 0x4 ADD PUSH2 0x720 SWAP1 PUSH2 0x4FD4 JUMP JUMPDEST PUSH2 0x14F6 DUP11 PUSH2 0x2B7D JUMP JUMPDEST PUSH32 0xCE02A40AD64D07C09428E43775774B9C09A2FB4050CB2133FEFFDAF82E7C201F DUP11 DUP11 DUP11 DUP11 PUSH1 0x40 MLOAD PUSH2 0x152B SWAP5 SWAP4 SWAP3 SWAP2 SWAP1 PUSH2 0x4D07 JUMP JUMPDEST PUSH1 0x40 MLOAD DUP1 SWAP2 SUB SWAP1 LOG1 POP POP POP POP POP POP POP POP POP POP JUMP JUMPDEST PUSH2 0x1549 DUP4 DUP3 PUSH2 0x2AC4 JUMP JUMPDEST PUSH1 0x40 DUP1 MLOAD PUSH1 0x0 DUP2 MSTORE PUSH1 0x20 DUP2 ADD SWAP1 SWAP2 MSTORE SWAP1 SWAP4 POP PUSH2 0x1567 SWAP1 DUP5 SWAP1 DUP5 PUSH2 0x348E JUMP JUMPDEST PUSH32 0x5B4AD0C78947966B48CAFF8E1256800D9ECC297743953B6BA78776D0E81D327F DUP4 DUP4 PUSH1 0x40 MLOAD PUSH2 0xE73 SWAP3 SWAP2 SWAP1 PUSH2 0x4C41 JUMP JUMPDEST PUSH2 0x15A3 DUP5 DUP4 DUP4 PUSH2 0x357D JUMP JUMPDEST PUSH1 0x40 DUP1 MLOAD PUSH1 0x0 DUP2 MSTORE PUSH1 0x20 DUP2 ADD SWAP1 SWAP2 MSTORE SWAP1 SWAP5 POP PUSH2 0x15C1 SWAP1 DUP6 SWAP1 DUP6 PUSH2 0x335C JUMP JUMPDEST PUSH32 0x605A8562B3E375915AE30D3F6A56E766CC11BE0A6C592B68704F048F5AC9D867 DUP5 DUP5 PUSH1 0x40 MLOAD PUSH2 0x57F SWAP3 SWAP2 SWAP1 PUSH2 0x4C41 JUMP JUMPDEST PUSH2 0x15FC DUP4 DUP3 PUSH2 0x2AC4 JUMP JUMPDEST SWAP3 POP PUSH2 0x160A DUP4 DUP4 PUSH1 0x0 PUSH2 0x35B8 JUMP JUMPDEST PUSH32 0xC2613A8FBE2F84EE12626FF6451FE839595EDD92AA6D8FD95E62E587B42A0E15 DUP4 DUP4 PUSH1 0x40 MLOAD PUSH2 0xE73 SWAP3 SWAP2 SWAP1 PUSH2 0x4CA9 JUMP JUMPDEST PUSH2 0x1643 PUSH2 0x3CF4 JUMP JUMPDEST PUSH1 0x60 PUSH2 0x164E DUP4 PUSH2 0xF6A JUMP JUMPDEST SWAP1 POP PUSH1 0x60 PUSH2 0x165B DUP5 PUSH2 0x773 JUMP JUMPDEST SWAP1 POP PUSH1 0x60 PUSH2 0x1668 DUP6 PUSH2 0x1F46 JUMP JUMPDEST SWAP1 POP PUSH1 0x60 PUSH2 0x1675 DUP7 PUSH2 0xB33 JUMP JUMPDEST SWAP1 POP PUSH1 0x60 PUSH2 0x1682 DUP8 PUSH2 0x2679 JUMP JUMPDEST SWAP1 POP PUSH1 0x0 PUSH2 0x168F DUP9 PUSH2 0x1D4F JUMP JUMPDEST PUSH1 0x40 DUP1 MLOAD PUSH1 0xE0 DUP2 ADD DUP3 MSTORE SWAP8 DUP9 MSTORE PUSH1 0x20 DUP9 ADD DUP11 SWAP1 MSTORE DUP8 ADD SWAP6 SWAP1 SWAP6 MSTORE POP PUSH1 0x60 DUP6 ADD SWAP3 SWAP1 SWAP3 MSTORE PUSH1 0x80 DUP5 ADD MSTORE PUSH1 0xA0 DUP4 ADD MSTORE PUSH1 0xC0 DUP3 ADD MSTORE SWAP1 POP SWAP2 SWAP1 POP JUMP JUMPDEST PUSH2 0x16D2 DUP6 DUP3 PUSH2 0x2AC4 JUMP JUMPDEST SWAP5 POP PUSH1 0x60 PUSH20 0x0 PUSH4 0xEB824844 DUP8 PUSH1 0x40 MLOAD DUP3 PUSH4 0xFFFFFFFF AND PUSH1 0xE0 SHL DUP2 MSTORE PUSH1 0x4 ADD PUSH2 0x170D SWAP2 SWAP1 PUSH2 0x4BA5 JUMP JUMPDEST PUSH1 0x0 PUSH1 0x40 MLOAD DUP1 DUP4 SUB DUP2 DUP7 DUP1 EXTCODESIZE ISZERO DUP1 ISZERO PUSH2 0x1725 JUMPI PUSH1 0x0 DUP1 REVERT JUMPDEST POP GAS DELEGATECALL ISZERO DUP1 ISZERO PUSH2 0x1739 JUMPI RETURNDATASIZE PUSH1 0x0 DUP1 RETURNDATACOPY RETURNDATASIZE PUSH1 0x0 REVERT JUMPDEST POP POP POP POP PUSH1 0x40 MLOAD RETURNDATASIZE PUSH1 0x0 DUP3 RETURNDATACOPY PUSH1 0x1F RETURNDATASIZE SWAP1 DUP2 ADD PUSH1 0x1F NOT AND DUP3 ADD PUSH1 0x40 MSTORE PUSH2 0x1761 SWAP2 SWAP1 DUP2 ADD SWAP1 PUSH2 0x42F8 JUMP JUMPDEST SWAP1 POP PUSH1 0x0 PUSH20 0x0 PUSH4 0x4ACF2705 DUP8 PUSH1 0x40 MLOAD DUP3 PUSH4 0xFFFFFFFF AND PUSH1 0xE0 SHL DUP2 MSTORE PUSH1 0x4 ADD PUSH2 0x179C SWAP2 SWAP1 PUSH2 0x4BA5 JUMP JUMPDEST PUSH1 0x20 PUSH1 0x40 MLOAD DUP1 DUP4 SUB DUP2 DUP7 DUP1 EXTCODESIZE ISZERO DUP1 ISZERO PUSH2 0x17B4 JUMPI PUSH1 0x0 DUP1 REVERT JUMPDEST POP GAS DELEGATECALL ISZERO DUP1 ISZERO PUSH2 0x17C8 JUMPI RETURNDATASIZE PUSH1 0x0 DUP1 RETURNDATACOPY RETURNDATASIZE PUSH1 0x0 REVERT JUMPDEST POP POP POP POP PUSH1 0x40 MLOAD RETURNDATASIZE PUSH1 0x1F NOT PUSH1 0x1F DUP3 ADD AND DUP3 ADD DUP1 PUSH1 0x40 MSTORE POP DUP2 ADD SWAP1 PUSH2 0x17EC SWAP2 SWAP1 PUSH2 0x42E0 JUMP JUMPDEST SWAP1 POP PUSH2 0x17F6 PUSH2 0x3CD3 JUMP JUMPDEST PUSH1 0x40 MLOAD DUP1 PUSH1 0x60 ADD PUSH1 0x40 MSTORE DUP1 DUP9 DUP2 MSTORE PUSH1 0x20 ADD DUP8 DUP2 MSTORE PUSH1 0x20 ADD DUP7 DUP2 MSTORE POP SWAP1 POP PUSH1 0x60 PUSH20 0x0 PUSH4 0x711F2CD4 DUP4 PUSH1 0x40 MLOAD DUP3 PUSH4 0xFFFFFFFF AND PUSH1 0xE0 SHL DUP2 MSTORE PUSH1 0x4 ADD PUSH2 0x184C SWAP2 SWAP1 PUSH2 0x50EF JUMP JUMPDEST PUSH1 0x0 PUSH1 0x40 MLOAD DUP1 DUP4 SUB DUP2 DUP7 DUP1 EXTCODESIZE ISZERO DUP1 ISZERO PUSH2 0x1864 JUMPI PUSH1 0x0 DUP1 REVERT JUMPDEST POP GAS DELEGATECALL ISZERO DUP1 ISZERO PUSH2 0x1878 JUMPI RETURNDATASIZE PUSH1 0x0 DUP1 RETURNDATACOPY RETURNDATASIZE PUSH1 0x0 REVERT JUMPDEST POP POP POP POP PUSH1 0x40 MLOAD RETURNDATASIZE PUSH1 0x0 DUP3 RETURNDATACOPY PUSH1 0x1F RETURNDATASIZE SWAP1 DUP2 ADD PUSH1 0x1F NOT AND DUP3 ADD PUSH1 0x40 MSTORE PUSH2 0x18A0 SWAP2 SWAP1 DUP2 ADD SWAP1 PUSH2 0x42F8 JUMP JUMPDEST SWAP1 POP PUSH1 0x0 PUSH2 0x18B9 DUP5 DUP4 PUSH1 0x0 DUP9 PUSH1 0x40 MLOAD PUSH2 0x6EA SWAP2 SWAP1 PUSH2 0x4ABD JUMP JUMPDEST SWAP1 POP DUP1 ISZERO PUSH2 0x18D9 JUMPI PUSH1 0x40 MLOAD PUSH3 0x461BCD PUSH1 0xE5 SHL DUP2 MSTORE PUSH1 0x4 ADD PUSH2 0x720 SWAP1 PUSH2 0x4FFF JUMP JUMPDEST PUSH2 0x18E2 DUP11 PUSH2 0x2B7D JUMP JUMPDEST PUSH32 0x8E2E47C852A8C05BBD1BC96DF47294A54AF338A51F99884924137AB38278860F DUP11 DUP11 DUP11 DUP11 PUSH1 0x40 MLOAD PUSH2 0x152B SWAP5 SWAP4 SWAP3 SWAP2 SWAP1 PUSH2 0x4D07 JUMP JUMPDEST PUSH2 0x1921 DUP4 DUP3 PUSH2 0x2AC4 JUMP JUMPDEST SWAP3 POP PUSH1 0x60 PUSH20 0x0 PUSH4 0x1BADC8DE DUP6 PUSH1 0x40 MLOAD DUP3 PUSH4 0xFFFFFFFF AND PUSH1 0xE0 SHL DUP2 MSTORE PUSH1 0x4 ADD PUSH2 0x195C SWAP2 SWAP1 PUSH2 0x4BA5 JUMP JUMPDEST PUSH1 0x0 PUSH1 0x40 MLOAD DUP1 DUP4 SUB DUP2 DUP7 DUP1 EXTCODESIZE ISZERO DUP1 ISZERO PUSH2 0x1974 JUMPI PUSH1 0x0 DUP1 REVERT JUMPDEST POP GAS DELEGATECALL ISZERO DUP1 ISZERO PUSH2 0x1988 JUMPI RETURNDATASIZE PUSH1 0x0 DUP1 RETURNDATACOPY RETURNDATASIZE PUSH1 0x0 REVERT JUMPDEST POP POP POP POP PUSH1 0x40 MLOAD RETURNDATASIZE PUSH1 0x0 DUP3 RETURNDATACOPY PUSH1 0x1F RETURNDATASIZE SWAP1 DUP2 ADD PUSH1 0x1F NOT AND DUP3 ADD PUSH1 0x40 MSTORE PUSH2 0x19B0 SWAP2 SWAP1 DUP2 ADD SWAP1 PUSH2 0x42F8 JUMP JUMPDEST SWAP1 POP PUSH1 0x0 JUMPDEST DUP4 MLOAD DUP2 LT ISZERO PUSH2 0x12CD JUMPI PUSH1 0x60 DUP5 DUP3 DUP2 MLOAD DUP2 LT PUSH2 0x19CC JUMPI INVALID JUMPDEST PUSH1 0x20 MUL PUSH1 0x20 ADD ADD MLOAD SWAP1 POP PUSH1 0x0 PUSH20 0x0 PUSH4 0x229CBC87 DUP4 PUSH1 0x40 MLOAD DUP3 PUSH4 0xFFFFFFFF AND PUSH1 0xE0 SHL DUP2 MSTORE PUSH1 0x4 ADD PUSH2 0x1A0F SWAP2 SWAP1 PUSH2 0x4BA5 JUMP JUMPDEST PUSH1 0x20 PUSH1 0x40 MLOAD DUP1 DUP4 SUB DUP2 DUP7 DUP1 EXTCODESIZE ISZERO DUP1 ISZERO PUSH2 0x1A27 JUMPI PUSH1 0x0 DUP1 REVERT JUMPDEST POP GAS DELEGATECALL ISZERO DUP1 ISZERO PUSH2 0x1A3B JUMPI RETURNDATASIZE PUSH1 0x0 DUP1 RETURNDATACOPY RETURNDATASIZE PUSH1 0x0 REVERT JUMPDEST POP POP POP POP PUSH1 0x40 MLOAD RETURNDATASIZE PUSH1 0x1F NOT PUSH1 0x1F DUP3 ADD AND DUP3 ADD DUP1 PUSH1 0x40 MSTORE POP DUP2 ADD SWAP1 PUSH2 0x1A5F SWAP2 SWAP1 PUSH2 0x42E0 JUMP JUMPDEST SWAP1 POP PUSH1 0x0 PUSH2 0x1A77 DUP3 PUSH1 0x0 DUP8 PUSH1 0x40 MLOAD PUSH2 0xAC5 SWAP2 SWAP1 PUSH2 0x4ABD JUMP JUMPDEST SWAP1 POP DUP1 ISZERO PUSH2 0x1AB9 JUMPI PUSH32 0x58055C159E081C2CACCFA4852D9A4285566A460DE7BA910919B0FF75271D877F DUP9 DUP5 PUSH1 0x40 MLOAD PUSH2 0x1AB0 SWAP3 SWAP2 SWAP1 PUSH2 0x4CA9 JUMP JUMPDEST PUSH1 0x40 MLOAD DUP1 SWAP2 SUB SWAP1 LOG1 JUMPDEST POP POP POP PUSH1 0x1 ADD PUSH2 0x19B5 JUMP JUMPDEST PUSH2 0x1ACF DUP5 DUP4 DUP4 PUSH2 0x357D JUMP JUMPDEST PUSH1 0x40 DUP1 MLOAD PUSH1 0x0 DUP2 MSTORE PUSH1 0x20 DUP2 ADD SWAP1 SWAP2 MSTORE SWAP1 SWAP5 POP PUSH2 0x1AED SWAP1 DUP6 SWAP1 DUP6 PUSH2 0x348E JUMP JUMPDEST PUSH32 0x5B4AD0C78947966B48CAFF8E1256800D9ECC297743953B6BA78776D0E81D327F DUP5 DUP5 PUSH1 0x40 MLOAD PUSH2 0x57F SWAP3 SWAP2 SWAP1 PUSH2 0x4C41 JUMP JUMPDEST PUSH1 0x0 DUP1 PUSH2 0x1B2C DUP6 DUP6 DUP6 PUSH2 0x3672 JUMP JUMPDEST POP SWAP2 POP POP JUMPDEST SWAP4 SWAP3 POP POP POP JUMP JUMPDEST PUSH2 0x1B43 DUP5 DUP3 DUP5 PUSH2 0x27FC JUMP JUMPDEST PUSH1 0x40 DUP1 MLOAD PUSH1 0x0 DUP1 DUP3 MSTORE PUSH1 0x60 DUP3 ADD DUP4 MSTORE PUSH1 0x20 DUP1 DUP4 ADD SWAP1 DUP2 MSTORE PUSH1 0x0 DUP1 MLOAD PUSH1 0x20 PUSH2 0x539E DUP4 CODECOPY DUP2 MLOAD SWAP2 MSTORE SWAP4 DUP4 ADD SWAP4 SWAP1 SWAP4 MSTORE SWAP3 SWAP7 POP PUSH2 0x1B84 SWAP3 DUP8 SWAP3 DUP8 SWAP2 DUP8 SWAP1 PUSH1 0x1 PUSH2 0x28DB JUMP JUMPDEST PUSH32 0xE2BD3AC8E89E6FC034167D63DE32D1247AA49F6802F2264875D0A00FD645DA54 DUP5 DUP5 DUP5 PUSH1 0x40 MLOAD PUSH2 0x57F SWAP4 SWAP3 SWAP2 SWAP1 PUSH2 0x4C6B JUMP JUMPDEST PUSH2 0x1BC2 DUP5 DUP4 DUP4 PUSH2 0x357D JUMP JUMPDEST SWAP4 POP PUSH2 0x1BD0 DUP5 DUP5 PUSH1 0x0 PUSH2 0x335C JUMP JUMPDEST PUSH32 0x40F36FC5010E18C1E871F706915909D1FCF1215D949A2C4D72350380162B1BD5 DUP5 DUP5 PUSH1 0x40 MLOAD PUSH2 0x57F SWAP3 SWAP2 SWAP1 PUSH2 0x4CA9 JUMP JUMPDEST PUSH2 0x1C0C DUP5 DUP4 DUP4 PUSH2 0x357D JUMP JUMPDEST SWAP4 POP PUSH2 0x1C1A DUP5 DUP5 PUSH1 0x0 PUSH2 0x348E JUMP JUMPDEST PUSH32 0x2B5997C0533B1B213E90A8955D60E56EFED753C769A096D6E30F68B8FE955D06 DUP5 DUP5 PUSH1 0x40 MLOAD PUSH2 0x57F SWAP3 SWAP2 SWAP1 PUSH2 0x4CA9 JUMP JUMPDEST PUSH2 0x1C55 DUP4 DUP3 PUSH2 0x2AC4 JUMP JUMPDEST SWAP3 POP PUSH2 0x1C63 DUP4 DUP4 PUSH1 0x0 PUSH2 0x348E JUMP JUMPDEST PUSH32 0x2B5997C0533B1B213E90A8955D60E56EFED753C769A096D6E30F68B8FE955D06 DUP4 DUP4 PUSH1 0x40 MLOAD PUSH2 0xE73 SWAP3 SWAP2 SWAP1 PUSH2 0x4CA9 JUMP JUMPDEST DUP1 MLOAD PUSH1 0x20 DUP2 DUP4 ADD DUP2 ADD DUP1 MLOAD PUSH1 0x1 DUP1 DUP4 MSTORE SWAP4 DUP4 ADD SWAP3 SWAP1 SWAP5 ADD SWAP2 SWAP1 SWAP2 KECCAK256 SWAP3 SWAP1 MSTORE DUP2 SLOAD SWAP2 ADD SLOAD PUSH1 0xFF SWAP1 SWAP2 AND SWAP1 DUP3 JUMP JUMPDEST PUSH2 0x1CCC DUP6 DUP3 DUP5 DUP7 PUSH2 0x392C JUMP JUMPDEST PUSH1 0x40 DUP1 MLOAD PUSH1 0x0 DUP1 DUP3 MSTORE PUSH1 0x60 DUP3 ADD DUP4 MSTORE PUSH1 0x20 DUP1 DUP4 ADD SWAP1 DUP2 MSTORE PUSH1 0x0 DUP1 MLOAD PUSH1 0x20 PUSH2 0x539E DUP4 CODECOPY DUP2 MLOAD SWAP2 MSTORE SWAP4 DUP4 ADD SWAP4 SWAP1 SWAP4 MSTORE SWAP3 SWAP8 POP PUSH2 0x1D0D SWAP3 DUP9 SWAP3 DUP9 SWAP2 DUP9 SWAP1 PUSH1 0x1 PUSH2 0x28DB JUMP JUMPDEST PUSH32 0xE2BD3AC8E89E6FC034167D63DE32D1247AA49F6802F2264875D0A00FD645DA54 DUP6 DUP6 DUP6 PUSH1 0x40 MLOAD PUSH2 0x1D40 SWAP4 SWAP3 SWAP2 SWAP1 PUSH2 0x4C6B JUMP JUMPDEST PUSH1 0x40 MLOAD DUP1 SWAP2 SUB SWAP1 LOG1 POP POP POP POP POP JUMP JUMPDEST PUSH1 0x0 PUSH1 0x60 PUSH20 0x0 PUSH4 0x9EEE0A89 DUP5 PUSH1 0x40 MLOAD DUP3 PUSH4 0xFFFFFFFF AND PUSH1 0xE0 SHL DUP2 MSTORE PUSH1 0x4 ADD PUSH2 0x1D8A SWAP2 SWAP1 PUSH2 0x4BA5 JUMP JUMPDEST PUSH1 0x0 PUSH1 0x40 MLOAD DUP1 DUP4 SUB DUP2 DUP7 DUP1 EXTCODESIZE ISZERO DUP1 ISZERO PUSH2 0x1DA2 JUMPI PUSH1 0x0 DUP1 REVERT JUMPDEST POP GAS DELEGATECALL ISZERO DUP1 ISZERO PUSH2 0x1DB6 JUMPI RETURNDATASIZE PUSH1 0x0 DUP1 RETURNDATACOPY RETURNDATASIZE PUSH1 0x0 REVERT JUMPDEST POP POP POP POP PUSH1 0x40 MLOAD RETURNDATASIZE PUSH1 0x0 DUP3 RETURNDATACOPY PUSH1 0x1F RETURNDATASIZE SWAP1 DUP2 ADD PUSH1 0x1F NOT AND DUP3 ADD PUSH1 0x40 MSTORE PUSH2 0x1DDE SWAP2 SWAP1 DUP2 ADD SWAP1 PUSH2 0x42F8 JUMP JUMPDEST SWAP1 POP PUSH1 0x0 PUSH20 0x0 PUSH4 0xE97B8B90 PUSH1 0x40 MLOAD DUP2 PUSH4 0xFFFFFFFF AND PUSH1 0xE0 SHL DUP2 MSTORE PUSH1 0x4 ADD PUSH1 0x20 PUSH1 0x40 MLOAD DUP1 DUP4 SUB DUP2 DUP7 DUP1 EXTCODESIZE ISZERO DUP1 ISZERO PUSH2 0x1E26 JUMPI PUSH1 0x0 DUP1 REVERT JUMPDEST POP GAS DELEGATECALL ISZERO DUP1 ISZERO PUSH2 0x1E3A JUMPI RETURNDATASIZE PUSH1 0x0 DUP1 RETURNDATACOPY RETURNDATASIZE PUSH1 0x0 REVERT JUMPDEST POP POP POP POP PUSH1 0x40 MLOAD RETURNDATASIZE PUSH1 0x1F NOT PUSH1 0x1F DUP3 ADD AND DUP3 ADD DUP1 PUSH1 0x40 MSTORE POP DUP2 ADD SWAP1 PUSH2 0x1E5E SWAP2 SWAP1 PUSH2 0x42E0 JUMP JUMPDEST SWAP1 POP PUSH1 0x60 PUSH1 0x0 DUP4 PUSH1 0x40 MLOAD PUSH2 0x1E72 SWAP2 SWAP1 PUSH2 0x4ABD JUMP JUMPDEST SWAP1 DUP2 MSTORE PUSH1 0x40 DUP1 MLOAD PUSH1 0x20 SWAP3 DUP2 SWAP1 SUB DUP4 ADD DUP2 KECCAK256 PUSH1 0x0 DUP7 DUP2 MSTORE SWAP1 DUP5 MSTORE DUP3 SWAP1 KECCAK256 PUSH1 0x1 SWAP1 DUP2 ADD DUP1 SLOAD PUSH1 0x2 SWAP3 DUP2 AND ISZERO PUSH2 0x100 MUL PUSH1 0x0 NOT ADD AND SWAP2 SWAP1 SWAP2 DIV PUSH1 0x1F DUP2 ADD DUP6 SWAP1 DIV DUP6 MUL DUP4 ADD DUP6 ADD SWAP1 SWAP4 MSTORE DUP3 DUP3 MSTORE SWAP1 SWAP3 SWAP1 SWAP2 SWAP1 DUP4 ADD DUP3 DUP3 DUP1 ISZERO PUSH2 0x1F11 JUMPI DUP1 PUSH1 0x1F LT PUSH2 0x1EE6 JUMPI PUSH2 0x100 DUP1 DUP4 SLOAD DIV MUL DUP4 MSTORE SWAP2 PUSH1 0x20 ADD SWAP2 PUSH2 0x1F11 JUMP JUMPDEST DUP3 ADD SWAP2 SWAP1 PUSH1 0x0 MSTORE PUSH1 0x20 PUSH1 0x0 KECCAK256 SWAP1 JUMPDEST DUP2 SLOAD DUP2 MSTORE SWAP1 PUSH1 0x1 ADD SWAP1 PUSH1 0x20 ADD DUP1 DUP4 GT PUSH2 0x1EF4 JUMPI DUP3 SWAP1 SUB PUSH1 0x1F AND DUP3 ADD SWAP2 JUMPDEST POP POP POP POP POP SWAP1 POP DUP1 MLOAD PUSH1 0x0 EQ ISZERO PUSH2 0x1F2E JUMPI PUSH1 0x0 SWAP4 POP POP POP POP PUSH2 0x984 JUMP JUMPDEST PUSH1 0x0 PUSH2 0x1F3B DUP3 PUSH1 0x0 PUSH2 0x3A04 JUMP JUMPDEST POP SWAP7 SWAP6 POP POP POP POP POP POP JUMP JUMPDEST PUSH1 0x40 MLOAD PUSH4 0x9416B423 PUSH1 0xE0 SHL DUP2 MSTORE PUSH1 0x60 SWAP1 PUSH20 0x0 SWAP1 PUSH4 0x9416B423 SWAP1 PUSH2 0x1F80 SWAP1 DUP6 SWAP1 PUSH1 0x4 ADD PUSH2 0x4BA5 JUMP JUMPDEST PUSH1 0x0 PUSH1 0x40 MLOAD DUP1 DUP4 SUB DUP2 DUP7 DUP1 EXTCODESIZE ISZERO DUP1 ISZERO PUSH2 0x1F98 JUMPI PUSH1 0x0 DUP1 REVERT JUMPDEST POP GAS DELEGATECALL ISZERO DUP1 ISZERO PUSH2 0x1FAC JUMPI RETURNDATASIZE PUSH1 0x0 DUP1 RETURNDATACOPY RETURNDATASIZE PUSH1 0x0 REVERT JUMPDEST POP POP POP POP PUSH1 0x40 MLOAD RETURNDATASIZE PUSH1 0x0 DUP3 RETURNDATACOPY PUSH1 0x1F RETURNDATASIZE SWAP1 DUP2 ADD PUSH1 0x1F NOT AND DUP3 ADD PUSH1 0x40 MSTORE PUSH2 0x1FD4 SWAP2 SWAP1 DUP2 ADD SWAP1 PUSH2 0x42F8 JUMP JUMPDEST SWAP2 POP PUSH1 0x1 DUP3 PUSH1 0x40 MLOAD PUSH2 0x1FE6 SWAP2 SWAP1 PUSH2 0x4ABD JUMP JUMPDEST SWAP1 DUP2 MSTORE PUSH1 0x40 MLOAD SWAP1 DUP2 SWAP1 SUB PUSH1 0x20 ADD SWAP1 KECCAK256 SLOAD PUSH1 0xFF AND ISZERO PUSH2 0x2016 JUMPI PUSH1 0x40 MLOAD PUSH3 0x461BCD PUSH1 0xE5 SHL DUP2 MSTORE PUSH1 0x4 ADD PUSH2 0x720 SWAP1 PUSH2 0x4F7D JUMP JUMPDEST PUSH1 0x0 DUP1 PUSH20 0x0 PUSH4 0x170B9254 DUP6 PUSH1 0x40 MLOAD DUP3 PUSH4 0xFFFFFFFF AND PUSH1 0xE0 SHL DUP2 MSTORE PUSH1 0x4 ADD PUSH2 0x2050 SWAP2 SWAP1 PUSH2 0x4BA5 JUMP JUMPDEST PUSH1 0x0 PUSH1 0x40 MLOAD DUP1 DUP4 SUB DUP2 DUP7 DUP1 EXTCODESIZE ISZERO DUP1 ISZERO PUSH2 0x2068 JUMPI PUSH1 0x0 DUP1 REVERT JUMPDEST POP GAS DELEGATECALL ISZERO DUP1 ISZERO PUSH2 0x207C JUMPI RETURNDATASIZE PUSH1 0x0 DUP1 RETURNDATACOPY RETURNDATASIZE PUSH1 0x0 REVERT JUMPDEST POP POP POP POP PUSH1 0x40 MLOAD RETURNDATASIZE PUSH1 0x0 DUP3 RETURNDATACOPY PUSH1 0x1F RETURNDATASIZE SWAP1 DUP2 ADD PUSH1 0x1F NOT AND DUP3 ADD PUSH1 0x40 MSTORE PUSH2 0x20A4 SWAP2 SWAP1 DUP2 ADD SWAP1 PUSH2 0x42F8 JUMP JUMPDEST PUSH1 0x40 MLOAD PUSH2 0x20B1 SWAP2 SWAP1 PUSH2 0x4ABD JUMP JUMPDEST SWAP1 DUP2 MSTORE PUSH1 0x40 MLOAD SWAP1 DUP2 SWAP1 SUB PUSH1 0x20 ADD DUP2 KECCAK256 PUSH4 0x211D8C53 PUSH1 0xE1 SHL DUP3 MSTORE SWAP2 POP PUSH20 0x0 SWAP1 PUSH4 0x423B18A6 SWAP1 PUSH2 0x20F8 SWAP1 DUP7 SWAP1 DUP6 SWAP1 PUSH1 0x4 ADD PUSH2 0x4D5F JUMP JUMPDEST PUSH1 0x0 PUSH1 0x40 MLOAD DUP1 DUP4 SUB DUP2 DUP7 DUP1 EXTCODESIZE ISZERO DUP1 ISZERO PUSH2 0x2110 JUMPI PUSH1 0x0 DUP1 REVERT JUMPDEST POP GAS DELEGATECALL ISZERO DUP1 ISZERO PUSH2 0x2124 JUMPI RETURNDATASIZE PUSH1 0x0 DUP1 RETURNDATACOPY RETURNDATASIZE PUSH1 0x0 REVERT JUMPDEST POP POP POP POP PUSH1 0x40 MLOAD RETURNDATASIZE PUSH1 0x0 DUP3 RETURNDATACOPY PUSH1 0x1F RETURNDATASIZE SWAP1 DUP2 ADD PUSH1 0x1F NOT AND DUP3 ADD PUSH1 0x40 MSTORE PUSH2 0x1B31 SWAP2 SWAP1 DUP2 ADD SWAP1 PUSH2 0x412E JUMP JUMPDEST PUSH2 0x2156 DUP4 DUP3 PUSH2 0x2AC4 JUMP JUMPDEST PUSH1 0x40 DUP1 MLOAD PUSH1 0x0 DUP2 MSTORE PUSH1 0x20 DUP2 ADD SWAP1 SWAP2 MSTORE SWAP1 SWAP4 POP PUSH2 0x2174 SWAP1 DUP5 SWAP1 DUP5 PUSH2 0x35B8 JUMP JUMPDEST PUSH32 0x3364DE2ECBD53E405FAF989044BE284732AF4A4D2F29F9DB04DF4BCF1D753B51 DUP4 DUP4 PUSH1 0x40 MLOAD PUSH2 0xE73 SWAP3 SWAP2 SWAP1 PUSH2 0x4C41 JUMP JUMPDEST PUSH2 0x21B1 DUP6 DUP3 DUP5 DUP7 PUSH2 0x392C JUMP JUMPDEST SWAP5 POP PUSH2 0x21DD DUP6 DUP6 PUSH1 0x0 PUSH1 0x40 MLOAD DUP1 PUSH1 0x60 ADD PUSH1 0x40 MSTORE DUP1 PUSH1 0x21 DUP2 MSTORE PUSH1 0x20 ADD PUSH2 0x537D PUSH1 0x21 SWAP2 CODECOPY DUP8 PUSH1 0x0 PUSH1 0x1 PUSH2 0x28DB JUMP JUMPDEST PUSH32 0xB22D64A17A74DC192D537930CCFEFDCC25C0E279B7595081C4F42E7613F01CF8 DUP6 DUP6 DUP6 PUSH1 0x40 MLOAD PUSH2 0x1D40 SWAP4 SWAP3 SWAP2 SWAP1 PUSH2 0x4CCE JUMP JUMPDEST PUSH2 0x221A DUP3 DUP3 PUSH2 0x2AC4 JUMP JUMPDEST SWAP2 POP PUSH1 0x0 PUSH20 0x0 PUSH4 0x1BADC8DE DUP5 PUSH1 0x40 MLOAD DUP3 PUSH4 0xFFFFFFFF AND PUSH1 0xE0 SHL DUP2 MSTORE PUSH1 0x4 ADD PUSH2 0x2255 SWAP2 SWAP1 PUSH2 0x4BA5 JUMP JUMPDEST PUSH1 0x0 PUSH1 0x40 MLOAD DUP1 DUP4 SUB DUP2 DUP7 DUP1 EXTCODESIZE ISZERO DUP1 ISZERO PUSH2 0x226D JUMPI PUSH1 0x0 DUP1 REVERT JUMPDEST POP GAS DELEGATECALL ISZERO DUP1 ISZERO PUSH2 0x2281 JUMPI RETURNDATASIZE PUSH1 0x0 DUP1 RETURNDATACOPY RETURNDATASIZE PUSH1 0x0 REVERT JUMPDEST POP POP POP POP PUSH1 0x40 MLOAD RETURNDATASIZE PUSH1 0x0 DUP3 RETURNDATACOPY PUSH1 0x1F RETURNDATASIZE SWAP1 DUP2 ADD PUSH1 0x1F NOT AND DUP3 ADD PUSH1 0x40 MSTORE PUSH2 0x22A9 SWAP2 SWAP1 DUP2 ADD SWAP1 PUSH2 0x42F8 JUMP JUMPDEST PUSH1 0x40 MLOAD PUSH2 0x22B6 SWAP2 SWAP1 PUSH2 0x4ABD JUMP JUMPDEST SWAP1 DUP2 MSTORE PUSH1 0x40 MLOAD SWAP1 DUP2 SWAP1 SUB PUSH1 0x20 ADD SWAP1 KECCAK256 PUSH1 0x0 PUSH2 0x22D4 PUSH1 0x1 DUP4 ADD DUP3 PUSH2 0x3D31 JUMP JUMPDEST POP PUSH1 0x0 PUSH1 0x2 SWAP2 SWAP1 SWAP2 ADD DUP2 SWAP1 SSTORE PUSH1 0x40 MLOAD PUSH4 0x5C2E495 PUSH1 0xE2 SHL DUP2 MSTORE PUSH20 0x0 SWAP1 PUSH4 0x170B9254 SWAP1 PUSH2 0x2317 SWAP1 DUP7 SWAP1 PUSH1 0x4 ADD PUSH2 0x4BA5 JUMP JUMPDEST PUSH1 0x0 PUSH1 0x40 MLOAD DUP1 DUP4 SUB DUP2 DUP7 DUP1 EXTCODESIZE ISZERO DUP1 ISZERO PUSH2 0x232F JUMPI PUSH1 0x0 DUP1 REVERT JUMPDEST POP GAS DELEGATECALL ISZERO DUP1 ISZERO PUSH2 0x2343 JUMPI RETURNDATASIZE PUSH1 0x0 DUP1 RETURNDATACOPY RETURNDATASIZE PUSH1 0x0 REVERT JUMPDEST POP POP POP POP PUSH1 0x40 MLOAD RETURNDATASIZE PUSH1 0x0 DUP3 RETURNDATACOPY PUSH1 0x1F RETURNDATASIZE SWAP1 DUP2 ADD PUSH1 0x1F NOT AND DUP3 ADD PUSH1 0x40 MSTORE PUSH2 0x236B SWAP2 SWAP1 DUP2 ADD SWAP1 PUSH2 0x42F8 JUMP JUMPDEST PUSH1 0x40 MLOAD PUSH2 0x2378 SWAP2 SWAP1 PUSH2 0x4ABD JUMP JUMPDEST SWAP1 DUP2 MSTORE PUSH1 0x40 MLOAD SWAP1 DUP2 SWAP1 SUB PUSH1 0x20 ADD SWAP1 KECCAK256 PUSH1 0x0 PUSH2 0x2396 PUSH1 0x1 DUP4 ADD DUP3 PUSH2 0x3D31 JUMP JUMPDEST POP PUSH1 0x0 PUSH1 0x2 SWAP2 SWAP1 SWAP2 ADD DUP2 SWAP1 SSTORE PUSH1 0x40 MLOAD PUSH4 0xF572B7F PUSH1 0xE1 SHL DUP2 MSTORE PUSH20 0x0 SWAP1 PUSH4 0x1EAE56FE SWAP1 PUSH2 0x23D9 SWAP1 DUP7 SWAP1 PUSH1 0x4 ADD PUSH2 0x4BA5 JUMP JUMPDEST PUSH1 0x0 PUSH1 0x40 MLOAD DUP1 DUP4 SUB DUP2 DUP7 DUP1 EXTCODESIZE ISZERO DUP1 ISZERO PUSH2 0x23F1 JUMPI PUSH1 0x0 DUP1 REVERT JUMPDEST POP GAS DELEGATECALL ISZERO DUP1 ISZERO PUSH2 0x2405 JUMPI RETURNDATASIZE PUSH1 0x0 DUP1 RETURNDATACOPY RETURNDATASIZE PUSH1 0x0 REVERT JUMPDEST POP POP POP POP PUSH1 0x40 MLOAD RETURNDATASIZE PUSH1 0x0 DUP3 RETURNDATACOPY PUSH1 0x1F RETURNDATASIZE SWAP1 DUP2 ADD PUSH1 0x1F NOT AND DUP3 ADD PUSH1 0x40 MSTORE PUSH2 0x242D SWAP2 SWAP1 DUP2 ADD SWAP1 PUSH2 0x42F8 JUMP JUMPDEST PUSH1 0x40 MLOAD PUSH2 0x243A SWAP2 SWAP1 PUSH2 0x4ABD JUMP JUMPDEST SWAP1 DUP2 MSTORE PUSH1 0x40 MLOAD SWAP1 DUP2 SWAP1 SUB PUSH1 0x20 ADD SWAP1 KECCAK256 PUSH1 0x0 PUSH2 0x2458 PUSH1 0x1 DUP4 ADD DUP3 PUSH2 0x3D31 JUMP JUMPDEST POP PUSH1 0x0 PUSH1 0x2 SWAP2 SWAP1 SWAP2 ADD DUP2 SWAP1 SSTORE PUSH1 0x40 MLOAD PUSH4 0x3AE09211 PUSH1 0xE2 SHL DUP2 MSTORE PUSH20 0x0 SWAP1 PUSH4 0xEB824844 SWAP1 PUSH2 0x249B SWAP1 DUP7 SWAP1 PUSH1 0x4 ADD PUSH2 0x4BA5 JUMP JUMPDEST PUSH1 0x0 PUSH1 0x40 MLOAD DUP1 DUP4 SUB DUP2 DUP7 DUP1 EXTCODESIZE ISZERO DUP1 ISZERO PUSH2 0x24B3 JUMPI PUSH1 0x0 DUP1 REVERT JUMPDEST POP GAS DELEGATECALL ISZERO DUP1 ISZERO PUSH2 0x24C7 JUMPI RETURNDATASIZE PUSH1 0x0 DUP1 RETURNDATACOPY RETURNDATASIZE PUSH1 0x0 REVERT JUMPDEST POP POP POP POP PUSH1 0x40 MLOAD RETURNDATASIZE PUSH1 0x0 DUP3 RETURNDATACOPY PUSH1 0x1F RETURNDATASIZE SWAP1 DUP2 ADD PUSH1 0x1F NOT AND DUP3 ADD PUSH1 0x40 MSTORE PUSH2 0x24EF SWAP2 SWAP1 DUP2 ADD SWAP1 PUSH2 0x42F8 JUMP JUMPDEST PUSH1 0x40 MLOAD PUSH2 0x24FC SWAP2 SWAP1 PUSH2 0x4ABD JUMP JUMPDEST SWAP1 DUP2 MSTORE PUSH1 0x40 MLOAD SWAP1 DUP2 SWAP1 SUB PUSH1 0x20 ADD SWAP1 KECCAK256 PUSH1 0x0 PUSH2 0x251A PUSH1 0x1 DUP4 ADD DUP3 PUSH2 0x3D31 JUMP JUMPDEST POP PUSH1 0x0 PUSH1 0x2 SWAP2 SWAP1 SWAP2 ADD DUP2 SWAP1 SSTORE PUSH1 0x40 MLOAD PUSH4 0x9EEE0A89 PUSH1 0xE0 SHL DUP2 MSTORE PUSH20 0x0 SWAP1 PUSH4 0x9EEE0A89 SWAP1 PUSH2 0x255D SWAP1 DUP7 SWAP1 PUSH1 0x4 ADD PUSH2 0x4BA5 JUMP JUMPDEST PUSH1 0x0 PUSH1 0x40 MLOAD DUP1 DUP4 SUB DUP2 DUP7 DUP1 EXTCODESIZE ISZERO DUP1 ISZERO PUSH2 0x2575 JUMPI PUSH1 0x0 DUP1 REVERT JUMPDEST POP GAS DELEGATECALL ISZERO DUP1 ISZERO PUSH2 0x2589 JUMPI RETURNDATASIZE PUSH1 0x0 DUP1 RETURNDATACOPY RETURNDATASIZE PUSH1 0x0 REVERT JUMPDEST POP POP POP POP PUSH1 0x40 MLOAD RETURNDATASIZE PUSH1 0x0 DUP3 RETURNDATACOPY PUSH1 0x1F RETURNDATASIZE SWAP1 DUP2 ADD PUSH1 0x1F NOT AND DUP3 ADD PUSH1 0x40 MSTORE PUSH2 0x25B1 SWAP2 SWAP1 DUP2 ADD SWAP1 PUSH2 0x42F8 JUMP JUMPDEST PUSH1 0x40 MLOAD PUSH2 0x25BE SWAP2 SWAP1 PUSH2 0x4ABD JUMP JUMPDEST SWAP1 DUP2 MSTORE PUSH1 0x40 MLOAD SWAP1 DUP2 SWAP1 SUB PUSH1 0x20 ADD SWAP1 KECCAK256 PUSH1 0x0 PUSH2 0x25DC PUSH1 0x1 DUP4 ADD DUP3 PUSH2 0x3D31 JUMP JUMPDEST PUSH1 0x2 DUP3 ADD PUSH1 0x0 SWAP1 SSTORE POP POP PUSH1 0x1 DUP1 DUP4 PUSH1 0x40 MLOAD PUSH2 0x25F7 SWAP2 SWAP1 PUSH2 0x4ABD JUMP JUMPDEST SWAP1 DUP2 MSTORE PUSH1 0x40 MLOAD SWAP1 DUP2 SWAP1 SUB PUSH1 0x20 ADD DUP2 KECCAK256 DUP1 SLOAD SWAP3 ISZERO ISZERO PUSH1 0xFF NOT SWAP1 SWAP4 AND SWAP3 SWAP1 SWAP3 OR SWAP1 SWAP2 SSTORE PUSH1 0x0 SWAP1 PUSH1 0x1 SWAP1 PUSH2 0x2629 SWAP1 DUP6 SWAP1 PUSH2 0x4ABD JUMP JUMPDEST SWAP1 DUP2 MSTORE PUSH1 0x20 ADD PUSH1 0x40 MLOAD DUP1 SWAP2 SUB SWAP1 KECCAK256 PUSH1 0x1 ADD DUP2 SWAP1 SSTORE POP PUSH32 0xE0D447DEE36C113FB0B5EDF3262A72A06D967BD571D810CFAA2B7DF89749F7CA DUP3 PUSH1 0x40 MLOAD PUSH2 0x266D SWAP2 SWAP1 PUSH2 0x4BA5 JUMP JUMPDEST PUSH1 0x40 MLOAD DUP1 SWAP2 SUB SWAP1 LOG1 POP POP JUMP JUMPDEST PUSH1 0x60 DUP1 PUSH20 0x0 PUSH4 0xEB824844 DUP5 PUSH1 0x40 MLOAD DUP3 PUSH4 0xFFFFFFFF AND PUSH1 0xE0 SHL DUP2 MSTORE PUSH1 0x4 ADD PUSH2 0x26B3 SWAP2 SWAP1 PUSH2 0x4BA5 JUMP JUMPDEST PUSH1 0x0 PUSH1 0x40 MLOAD DUP1 DUP4 SUB DUP2 DUP7 DUP1 EXTCODESIZE ISZERO DUP1 ISZERO PUSH2 0x26CB JUMPI PUSH1 0x0 DUP1 REVERT JUMPDEST POP GAS DELEGATECALL ISZERO DUP1 ISZERO PUSH2 0x26DF JUMPI RETURNDATASIZE PUSH1 0x0 DUP1 RETURNDATACOPY RETURNDATASIZE PUSH1 0x0 REVERT JUMPDEST POP POP POP POP PUSH1 0x40 MLOAD RETURNDATASIZE PUSH1 0x0 DUP3 RETURNDATACOPY PUSH1 0x1F RETURNDATASIZE SWAP1 DUP2 ADD PUSH1 0x1F NOT AND DUP3 ADD PUSH1 0x40 MSTORE PUSH2 0x2707 SWAP2 SWAP1 DUP2 ADD SWAP1 PUSH2 0x42F8 JUMP JUMPDEST SWAP1 POP PUSH1 0x0 DUP1 DUP3 PUSH1 0x40 MLOAD PUSH2 0x271A SWAP2 SWAP1 PUSH2 0x4ABD JUMP JUMPDEST SWAP1 DUP2 MSTORE PUSH1 0x40 MLOAD SWAP1 DUP2 SWAP1 SUB PUSH1 0x20 ADD DUP2 KECCAK256 PUSH4 0x833667E1 PUSH1 0xE0 SHL DUP3 MSTORE SWAP2 POP PUSH20 0x0 SWAP1 PUSH4 0x833667E1 SWAP1 PUSH2 0x275F SWAP1 DUP5 SWAP1 PUSH1 0x4 ADD PUSH2 0x5147 JUMP JUMPDEST PUSH1 0x0 PUSH1 0x40 MLOAD DUP1 DUP4 SUB DUP2 DUP7 DUP1 EXTCODESIZE ISZERO DUP1 ISZERO PUSH2 0x2777 JUMPI PUSH1 0x0 DUP1 REVERT JUMPDEST POP GAS DELEGATECALL ISZERO DUP1 ISZERO PUSH2 0x278B JUMPI RETURNDATASIZE PUSH1 0x0 DUP1 RETURNDATACOPY RETURNDATASIZE PUSH1 0x0 REVERT JUMPDEST POP POP POP POP PUSH1 0x40 MLOAD RETURNDATASIZE PUSH1 0x0 DUP3 RETURNDATACOPY PUSH1 0x1F RETURNDATASIZE SWAP1 DUP2 ADD PUSH1 0x1F NOT AND DUP3 ADD PUSH1 0x40 MSTORE PUSH2 0x97F SWAP2 SWAP1 DUP2 ADD SWAP1 PUSH2 0x41B6 JUMP JUMPDEST PUSH2 0x27BD DUP4 DUP3 PUSH2 0x2AC4 JUMP JUMPDEST SWAP3 POP PUSH2 0x27CB DUP4 DUP4 PUSH1 0x0 PUSH2 0x335C JUMP JUMPDEST PUSH32 0x40F36FC5010E18C1E871F706915909D1FCF1215D949A2C4D72350380162B1BD5 DUP4 DUP4 PUSH1 0x40 MLOAD PUSH2 0xE73 SWAP3 SWAP2 SWAP1 PUSH2 0x4CA9 JUMP JUMPDEST PUSH1 0x60 PUSH1 0x0 JUMPDEST DUP3 MLOAD DUP2 LT ISZERO PUSH2 0x28C8 JUMPI PUSH20 0x0 PUSH4 0xF9251132 DUP5 DUP4 DUP2 MLOAD DUP2 LT PUSH2 0x2830 JUMPI INVALID JUMPDEST PUSH1 0x20 MUL PUSH1 0x20 ADD ADD MLOAD PUSH1 0x40 MLOAD DUP3 PUSH4 0xFFFFFFFF AND PUSH1 0xE0 SHL DUP2 MSTORE PUSH1 0x4 ADD PUSH2 0x2854 SWAP2 SWAP1 PUSH2 0x4BA5 JUMP JUMPDEST PUSH1 0x20 PUSH1 0x40 MLOAD DUP1 DUP4 SUB DUP2 DUP7 DUP1 EXTCODESIZE ISZERO DUP1 ISZERO PUSH2 0x286C JUMPI PUSH1 0x0 DUP1 REVERT JUMPDEST POP GAS DELEGATECALL ISZERO DUP1 ISZERO PUSH2 0x2880 JUMPI RETURNDATASIZE PUSH1 0x0 DUP1 RETURNDATACOPY RETURNDATASIZE PUSH1 0x0 REVERT JUMPDEST POP POP POP POP PUSH1 0x40 MLOAD RETURNDATASIZE PUSH1 0x1F NOT PUSH1 0x1F DUP3 ADD AND DUP3 ADD DUP1 PUSH1 0x40 MSTORE POP DUP2 ADD SWAP1 PUSH2 0x28A4 SWAP2 SWAP1 PUSH2 0x42C0 JUMP JUMPDEST PUSH2 0x28C0 JUMPI PUSH1 0x40 MLOAD PUSH3 0x461BCD PUSH1 0xE5 SHL DUP2 MSTORE PUSH1 0x4 ADD PUSH2 0x720 SWAP1 PUSH2 0x4F51 JUMP JUMPDEST PUSH1 0x1 ADD PUSH2 0x2801 JUMP JUMPDEST POP PUSH2 0x28D3 DUP5 DUP5 PUSH2 0x2AC4 JUMP JUMPDEST SWAP5 SWAP4 POP POP POP POP JUMP JUMPDEST PUSH1 0x1 DUP4 MLOAD LT ISZERO PUSH2 0x28FD JUMPI PUSH1 0x40 MLOAD PUSH3 0x461BCD PUSH1 0xE5 SHL DUP2 MSTORE PUSH1 0x4 ADD PUSH2 0x720 SWAP1 PUSH2 0x4EB9 JUMP JUMPDEST PUSH1 0x0 DUP1 PUSH20 0x0 PUSH4 0x170B9254 DUP11 PUSH1 0x40 MLOAD DUP3 PUSH4 0xFFFFFFFF AND PUSH1 0xE0 SHL DUP2 MSTORE PUSH1 0x4 ADD PUSH2 0x2937 SWAP2 SWAP1 PUSH2 0x4BA5 JUMP JUMPDEST PUSH1 0x0 PUSH1 0x40 MLOAD DUP1 DUP4 SUB DUP2 DUP7 DUP1 EXTCODESIZE ISZERO DUP1 ISZERO PUSH2 0x294F JUMPI PUSH1 0x0 DUP1 REVERT JUMPDEST POP GAS DELEGATECALL ISZERO DUP1 ISZERO PUSH2 0x2963 JUMPI RETURNDATASIZE PUSH1 0x0 DUP1 RETURNDATACOPY RETURNDATASIZE PUSH1 0x0 REVERT JUMPDEST POP POP POP POP PUSH1 0x40 MLOAD RETURNDATASIZE PUSH1 0x0 DUP3 RETURNDATACOPY PUSH1 0x1F RETURNDATASIZE SWAP1 DUP2 ADD PUSH1 0x1F NOT AND DUP3 ADD PUSH1 0x40 MSTORE PUSH2 0x298B SWAP2 SWAP1 DUP2 ADD SWAP1 PUSH2 0x42F8 JUMP JUMPDEST PUSH1 0x40 MLOAD PUSH2 0x2998 SWAP2 SWAP1 PUSH2 0x4ABD JUMP JUMPDEST SWAP1 DUP2 MSTORE PUSH1 0x40 MLOAD SWAP1 DUP2 SWAP1 SUB PUSH1 0x20 ADD SWAP1 KECCAK256 PUSH1 0x1 DUP2 ADD SLOAD SWAP1 SWAP2 POP PUSH1 0x2 ADD PUSH1 0x60 DUP10 PUSH2 0x29BE DUP4 PUSH2 0x3A9F JUMP JUMPDEST PUSH1 0x40 MLOAD PUSH1 0x20 ADD PUSH2 0x29CF SWAP3 SWAP2 SWAP1 PUSH2 0x4B10 JUMP JUMPDEST PUSH1 0x40 MLOAD PUSH1 0x20 DUP2 DUP4 SUB SUB DUP2 MSTORE SWAP1 PUSH1 0x40 MSTORE SWAP1 POP PUSH1 0x60 PUSH2 0x29EC DUP11 DUP11 PUSH2 0x3B76 JUMP JUMPDEST SWAP1 POP PUSH2 0x29F6 PUSH2 0x3D55 JUMP JUMPDEST PUSH1 0x40 MLOAD DUP1 PUSH1 0xE0 ADD PUSH1 0x40 MSTORE DUP1 DUP5 DUP2 MSTORE PUSH1 0x20 ADD DUP11 DUP2 MSTORE PUSH1 0x20 ADD DUP10 DUP2 MSTORE PUSH1 0x20 ADD DUP4 DUP2 MSTORE PUSH1 0x20 ADD PUSH1 0x0 ISZERO ISZERO DUP2 MSTORE PUSH1 0x20 ADD DUP9 ISZERO ISZERO DUP2 MSTORE PUSH1 0x20 ADD DUP8 PUSH2 0x2A36 JUMPI PUSH1 0x0 PUSH2 0x2A3F JUMP JUMPDEST PUSH2 0x2A3F DUP15 PUSH2 0x3BD6 JUMP JUMPDEST SWAP1 MSTORE PUSH1 0x40 MLOAD PUSH4 0x37AEBCF7 PUSH1 0xE0 SHL DUP2 MSTORE SWAP1 SWAP2 POP PUSH20 0x0 SWAP1 PUSH4 0x37AEBCF7 SWAP1 PUSH2 0x2A7D SWAP1 DUP9 SWAP1 DUP6 SWAP1 PUSH1 0x4 ADD PUSH2 0x518E JUMP JUMPDEST PUSH1 0x0 PUSH1 0x40 MLOAD DUP1 DUP4 SUB DUP2 DUP7 DUP1 EXTCODESIZE ISZERO DUP1 ISZERO PUSH2 0x2A95 JUMPI PUSH1 0x0 DUP1 REVERT JUMPDEST POP GAS DELEGATECALL ISZERO DUP1 ISZERO PUSH2 0x2AA9 JUMPI RETURNDATASIZE PUSH1 0x0 DUP1 RETURNDATACOPY RETURNDATASIZE PUSH1 0x0 REVERT JUMPDEST POP POP POP POP PUSH2 0x2AB6 DUP13 PUSH2 0x2B7D JUMP JUMPDEST POP POP POP POP POP POP POP POP POP POP POP POP JUMP JUMPDEST PUSH1 0x60 PUSH1 0x0 PUSH1 0x60 PUSH2 0x2AD4 DUP6 DUP6 PUSH2 0x2D36 JUMP JUMPDEST SWAP2 POP SWAP2 POP DUP2 PUSH2 0x28D3 JUMPI PUSH1 0x40 MLOAD PUSH3 0x461BCD PUSH1 0xE5 SHL DUP2 MSTORE PUSH1 0x4 ADD PUSH2 0x720 SWAP1 PUSH2 0x4E63 JUMP JUMPDEST PUSH1 0x0 DUP3 DUP2 MSTORE PUSH1 0x20 DUP5 DUP2 MSTORE PUSH1 0x40 DUP3 KECCAK256 DUP1 SLOAD DUP5 MLOAD SWAP1 SWAP3 PUSH2 0x2B1A SWAP3 PUSH1 0x1 ADD SWAP2 SWAP1 DUP7 ADD SWAP1 PUSH2 0x3D96 JUMP JUMPDEST POP DUP1 ISZERO PUSH2 0x2B2B JUMPI PUSH1 0x1 SWAP2 POP POP PUSH2 0x1B31 JUMP JUMPDEST POP PUSH1 0x1 DUP1 DUP6 ADD DUP1 SLOAD SWAP2 DUP3 ADD DUP1 DUP3 SSTORE PUSH1 0x0 DUP7 DUP2 MSTORE PUSH1 0x20 DUP9 SWAP1 MSTORE PUSH1 0x40 SWAP1 KECCAK256 DUP2 SWAP1 SSTORE DUP6 SWAP2 SWAP1 DUP4 SWAP1 DUP2 LT PUSH2 0x2B57 JUMPI INVALID JUMPDEST PUSH1 0x0 SWAP2 DUP3 MSTORE PUSH1 0x20 DUP3 KECCAK256 PUSH1 0x2 SWAP2 DUP3 MUL ADD SWAP3 SWAP1 SWAP3 SSTORE SWAP1 DUP7 ADD DUP1 SLOAD PUSH1 0x1 ADD SWAP1 SSTORE SWAP2 POP PUSH2 0x1B31 SWAP1 POP JUMP JUMPDEST PUSH1 0x40 MLOAD PUSH4 0x9EEE0A89 PUSH1 0xE0 SHL DUP2 MSTORE PUSH1 0x60 SWAP1 PUSH20 0x0 SWAP1 PUSH4 0x9EEE0A89 SWAP1 PUSH2 0x2BB7 SWAP1 DUP6 SWAP1 PUSH1 0x4 ADD PUSH2 0x4BA5 JUMP JUMPDEST PUSH1 0x0 PUSH1 0x40 MLOAD DUP1 DUP4 SUB DUP2 DUP7 DUP1 EXTCODESIZE ISZERO DUP1 ISZERO PUSH2 0x2BCF JUMPI PUSH1 0x0 DUP1 REVERT JUMPDEST POP GAS DELEGATECALL ISZERO DUP1 ISZERO PUSH2 0x2BE3 JUMPI RETURNDATASIZE PUSH1 0x0 DUP1 RETURNDATACOPY RETURNDATASIZE PUSH1 0x0 REVERT JUMPDEST POP POP POP POP PUSH1 0x40 MLOAD RETURNDATASIZE PUSH1 0x0 DUP3 RETURNDATACOPY PUSH1 0x1F RETURNDATASIZE SWAP1 DUP2 ADD PUSH1 0x1F NOT AND DUP3 ADD PUSH1 0x40 MSTORE PUSH2 0x2C0B SWAP2 SWAP1 DUP2 ADD SWAP1 PUSH2 0x42F8 JUMP JUMPDEST SWAP1 POP PUSH1 0x0 PUSH20 0x0 PUSH4 0xE97B8B90 PUSH1 0x40 MLOAD DUP2 PUSH4 0xFFFFFFFF AND PUSH1 0xE0 SHL DUP2 MSTORE PUSH1 0x4 ADD PUSH1 0x20 PUSH1 0x40 MLOAD DUP1 DUP4 SUB DUP2 DUP7 DUP1 EXTCODESIZE ISZERO DUP1 ISZERO PUSH2 0x2C53 JUMPI PUSH1 0x0 DUP1 REVERT JUMPDEST POP GAS DELEGATECALL ISZERO DUP1 ISZERO PUSH2 0x2C67 JUMPI RETURNDATASIZE PUSH1 0x0 DUP1 RETURNDATACOPY RETURNDATASIZE PUSH1 0x0 REVERT JUMPDEST POP POP POP POP PUSH1 0x40 MLOAD RETURNDATASIZE PUSH1 0x1F NOT PUSH1 0x1F DUP3 ADD AND DUP3 ADD DUP1 PUSH1 0x40 MSTORE POP DUP2 ADD SWAP1 PUSH2 0x2C8B SWAP2 SWAP1 PUSH2 0x42E0 JUMP JUMPDEST SWAP1 POP PUSH2 0x12D7 DUP2 PUSH2 0x2C9A TIMESTAMP PUSH2 0x3C2B JUMP JUMPDEST PUSH1 0x0 DUP6 PUSH1 0x40 MLOAD PUSH2 0x6EA SWAP2 SWAP1 PUSH2 0x4ABD JUMP JUMPDEST PUSH1 0x0 DUP2 DUP2 MSTORE PUSH1 0x20 DUP4 SWAP1 MSTORE PUSH1 0x40 DUP2 KECCAK256 SLOAD DUP1 PUSH2 0x2CC8 JUMPI PUSH1 0x0 SWAP2 POP POP PUSH2 0xE14 JUMP JUMPDEST PUSH1 0x0 DUP4 DUP2 MSTORE PUSH1 0x20 DUP6 SWAP1 MSTORE PUSH1 0x40 DUP2 KECCAK256 DUP2 DUP2 SSTORE SWAP1 PUSH2 0x2CE7 PUSH1 0x1 DUP4 ADD DUP3 PUSH2 0x3E14 JUMP JUMPDEST POP POP PUSH1 0x1 DUP5 PUSH1 0x1 ADD PUSH1 0x1 DUP4 SUB DUP2 SLOAD DUP2 LT PUSH2 0x2CFD JUMPI INVALID JUMPDEST PUSH1 0x0 SWAP2 DUP3 MSTORE PUSH1 0x20 SWAP1 SWAP2 KECCAK256 PUSH1 0x2 SWAP2 DUP3 MUL ADD PUSH1 0x1 SWAP1 DUP2 ADD DUP1 SLOAD PUSH1 0xFF NOT AND SWAP4 ISZERO ISZERO SWAP4 SWAP1 SWAP4 OR SWAP1 SWAP3 SSTORE SWAP5 SWAP1 SWAP5 ADD DUP1 SLOAD PUSH1 0x0 NOT ADD SWAP1 SSTORE POP SWAP2 SWAP3 SWAP2 POP POP JUMP JUMPDEST PUSH1 0x0 PUSH1 0x60 PUSH20 0x0 PUSH4 0x9416B423 DUP6 PUSH1 0x40 MLOAD DUP3 PUSH4 0xFFFFFFFF AND PUSH1 0xE0 SHL DUP2 MSTORE PUSH1 0x4 ADD PUSH2 0x2D71 SWAP2 SWAP1 PUSH2 0x4BA5 JUMP JUMPDEST PUSH1 0x0 PUSH1 0x40 MLOAD DUP1 DUP4 SUB DUP2 DUP7 DUP1 EXTCODESIZE ISZERO DUP1 ISZERO PUSH2 0x2D89 JUMPI PUSH1 0x0 DUP1 REVERT JUMPDEST POP GAS DELEGATECALL ISZERO DUP1 ISZERO PUSH2 0x2D9D JUMPI RETURNDATASIZE PUSH1 0x0 DUP1 RETURNDATACOPY RETURNDATASIZE PUSH1 0x0 REVERT JUMPDEST POP POP POP POP PUSH1 0x40 MLOAD RETURNDATASIZE PUSH1 0x0 DUP3 RETURNDATACOPY PUSH1 0x1F RETURNDATASIZE SWAP1 DUP2 ADD PUSH1 0x1F NOT AND DUP3 ADD PUSH1 0x40 MSTORE PUSH2 0x2DC5 SWAP2 SWAP1 DUP2 ADD SWAP1 PUSH2 0x42F8 JUMP JUMPDEST PUSH1 0x40 MLOAD PUSH4 0x7C928899 PUSH1 0xE1 SHL DUP2 MSTORE SWAP1 SWAP5 POP PUSH20 0x0 SWAP1 PUSH4 0xF9251132 SWAP1 PUSH2 0x2DFF SWAP1 DUP8 SWAP1 PUSH1 0x4 ADD PUSH2 0x4BA5 JUMP JUMPDEST PUSH1 0x20 PUSH1 0x40 MLOAD DUP1 DUP4 SUB DUP2 DUP7 DUP1 EXTCODESIZE ISZERO DUP1 ISZERO PUSH2 0x2E17 JUMPI PUSH1 0x0 DUP1 REVERT JUMPDEST POP GAS DELEGATECALL ISZERO DUP1 ISZERO PUSH2 0x2E2B JUMPI RETURNDATASIZE PUSH1 0x0 DUP1 RETURNDATACOPY RETURNDATASIZE PUSH1 0x0 REVERT JUMPDEST POP POP POP POP PUSH1 0x40 MLOAD RETURNDATASIZE PUSH1 0x1F NOT PUSH1 0x1F DUP3 ADD AND DUP3 ADD DUP1 PUSH1 0x40 MSTORE POP DUP2 ADD SWAP1 PUSH2 0x2E4F SWAP2 SWAP1 PUSH2 0x42C0 JUMP JUMPDEST PUSH2 0x2E5E JUMPI POP PUSH1 0x0 SWAP1 POP DUP3 PUSH2 0x3355 JUMP JUMPDEST PUSH1 0x1 DUP5 PUSH1 0x40 MLOAD PUSH2 0x2E6E SWAP2 SWAP1 PUSH2 0x4ABD JUMP JUMPDEST SWAP1 DUP2 MSTORE PUSH1 0x40 MLOAD SWAP1 DUP2 SWAP1 SUB PUSH1 0x20 ADD SWAP1 KECCAK256 SLOAD PUSH1 0xFF AND ISZERO PUSH2 0x2E91 JUMPI POP PUSH1 0x0 SWAP1 POP DUP3 PUSH2 0x3355 JUMP JUMPDEST PUSH1 0x40 MLOAD PUSH4 0x635C70D1 PUSH1 0xE1 SHL DUP2 MSTORE PUSH1 0x0 SWAP1 PUSH20 0x0 SWAP1 PUSH4 0xC6B8E1A2 SWAP1 PUSH2 0x2ECB SWAP1 DUP9 SWAP1 PUSH1 0x4 ADD PUSH2 0x4BA5 JUMP JUMPDEST PUSH1 0x20 PUSH1 0x40 MLOAD DUP1 DUP4 SUB DUP2 DUP7 DUP1 EXTCODESIZE ISZERO DUP1 ISZERO PUSH2 0x2EE3 JUMPI PUSH1 0x0 DUP1 REVERT JUMPDEST POP GAS DELEGATECALL ISZERO DUP1 ISZERO PUSH2 0x2EF7 JUMPI RETURNDATASIZE PUSH1 0x0 DUP1 RETURNDATACOPY RETURNDATASIZE PUSH1 0x0 REVERT JUMPDEST POP POP POP POP PUSH1 0x40 MLOAD RETURNDATASIZE PUSH1 0x1F NOT PUSH1 0x1F DUP3 ADD AND DUP3 ADD DUP1 PUSH1 0x40 MSTORE POP DUP2 ADD SWAP1 PUSH2 0x2F1B SWAP2 SWAP1 PUSH2 0x40E0 JUMP JUMPDEST SWAP1 POP DUP4 MLOAD PUSH1 0x0 EQ ISZERO PUSH2 0x2F51 JUMPI PUSH1 0x1 PUSH1 0x1 PUSH1 0xA0 SHL SUB DUP2 AND CALLER EQ DUP1 PUSH2 0x2F46 JUMPI POP PUSH1 0x1 PUSH1 0x1 PUSH1 0xA0 SHL SUB DUP2 AND ORIGIN EQ JUMPDEST DUP6 SWAP3 POP SWAP3 POP POP PUSH2 0x3355 JUMP JUMPDEST PUSH1 0x0 DUP1 DUP6 MLOAD PUSH1 0x14 EQ ISZERO PUSH2 0x3012 JUMPI PUSH2 0x2F67 DUP7 PUSH2 0x3C93 JUMP JUMPDEST PUSH1 0x40 DUP1 MLOAD PUSH1 0x0 DUP2 MSTORE PUSH1 0x20 DUP2 ADD SWAP1 SWAP2 MSTORE SWAP1 SWAP3 POP PUSH20 0x0 SWAP1 PUSH4 0xB726099B SWAP1 PUSH2 0x2F9F SWAP1 DUP6 PUSH2 0x3B76 JUMP JUMPDEST PUSH1 0x40 MLOAD DUP3 PUSH4 0xFFFFFFFF AND PUSH1 0xE0 SHL DUP2 MSTORE PUSH1 0x4 ADD PUSH2 0x2FBB SWAP2 SWAP1 PUSH2 0x4BA5 JUMP JUMPDEST PUSH1 0x20 PUSH1 0x40 MLOAD DUP1 DUP4 SUB DUP2 DUP7 DUP1 EXTCODESIZE ISZERO DUP1 ISZERO PUSH2 0x2FD3 JUMPI PUSH1 0x0 DUP1 REVERT JUMPDEST POP GAS DELEGATECALL ISZERO DUP1 ISZERO PUSH2 0x2FE7 JUMPI RETURNDATASIZE PUSH1 0x0 DUP1 RETURNDATACOPY RETURNDATASIZE PUSH1 0x0 REVERT JUMPDEST POP POP POP POP PUSH1 0x40 MLOAD RETURNDATASIZE PUSH1 0x1F NOT PUSH1 0x1F DUP3 ADD AND DUP3 ADD DUP1 PUSH1 0x40 MSTORE POP DUP2 ADD SWAP1 PUSH2 0x300B SWAP2 SWAP1 PUSH2 0x42E0 JUMP JUMPDEST SWAP1 POP PUSH2 0x312F JUMP JUMPDEST PUSH1 0x40 MLOAD PUSH4 0x19866DFB PUSH1 0xE2 SHL DUP2 MSTORE PUSH20 0x0 SWAP1 PUSH4 0x6619B7EC SWAP1 PUSH2 0x3049 SWAP1 DUP10 SWAP1 PUSH1 0x4 ADD PUSH2 0x4BA5 JUMP JUMPDEST PUSH1 0x20 PUSH1 0x40 MLOAD DUP1 DUP4 SUB DUP2 DUP7 DUP1 EXTCODESIZE ISZERO DUP1 ISZERO PUSH2 0x3061 JUMPI PUSH1 0x0 DUP1 REVERT JUMPDEST POP GAS DELEGATECALL ISZERO DUP1 ISZERO PUSH2 0x3075 JUMPI RETURNDATASIZE PUSH1 0x0 DUP1 RETURNDATACOPY RETURNDATASIZE PUSH1 0x0 REVERT JUMPDEST POP POP POP POP PUSH1 0x40 MLOAD RETURNDATASIZE PUSH1 0x1F NOT PUSH1 0x1F DUP3 ADD AND DUP3 ADD DUP1 PUSH1 0x40 MSTORE POP DUP2 ADD SWAP1 PUSH2 0x3099 SWAP2 SWAP1 PUSH2 0x40E0 JUMP JUMPDEST SWAP2 POP PUSH20 0x0 PUSH4 0xB726099B PUSH2 0x30C0 DUP9 PUSH1 0x0 PUSH2 0x3B76 JUMP JUMPDEST PUSH1 0x40 MLOAD DUP3 PUSH4 0xFFFFFFFF AND PUSH1 0xE0 SHL DUP2 MSTORE PUSH1 0x4 ADD PUSH2 0x30DC SWAP2 SWAP1 PUSH2 0x4BA5 JUMP JUMPDEST PUSH1 0x20 PUSH1 0x40 MLOAD DUP1 DUP4 SUB DUP2 DUP7 DUP1 EXTCODESIZE ISZERO DUP1 ISZERO PUSH2 0x30F4 JUMPI PUSH1 0x0 DUP1 REVERT JUMPDEST POP GAS DELEGATECALL ISZERO DUP1 ISZERO PUSH2 0x3108 JUMPI RETURNDATASIZE PUSH1 0x0 DUP1 RETURNDATACOPY RETURNDATASIZE PUSH1 0x0 REVERT JUMPDEST POP POP POP POP PUSH1 0x40 MLOAD RETURNDATASIZE PUSH1 0x1F NOT PUSH1 0x1F DUP3 ADD AND DUP3 ADD DUP1 PUSH1 0x40 MSTORE POP DUP2 ADD SWAP1 PUSH2 0x312C SWAP2 SWAP1 PUSH2 0x42E0 JUMP JUMPDEST SWAP1 POP JUMPDEST PUSH1 0x1 PUSH1 0x1 PUSH1 0xA0 SHL SUB DUP3 AND CALLER EQ DUP1 ISZERO SWAP1 PUSH2 0x3151 JUMPI POP PUSH1 0x1 PUSH1 0x1 PUSH1 0xA0 SHL SUB DUP3 AND ORIGIN EQ ISZERO JUMPDEST ISZERO PUSH2 0x3165 JUMPI PUSH1 0x0 DUP8 SWAP5 POP SWAP5 POP POP POP POP PUSH2 0x3355 JUMP JUMPDEST DUP3 PUSH1 0x1 PUSH1 0x1 PUSH1 0xA0 SHL SUB AND DUP3 PUSH1 0x1 PUSH1 0x1 PUSH1 0xA0 SHL SUB AND EQ ISZERO PUSH2 0x318E JUMPI PUSH1 0x1 DUP8 SWAP5 POP SWAP5 POP POP POP POP PUSH2 0x3355 JUMP JUMPDEST PUSH1 0x40 MLOAD PUSH4 0x5C2E495 PUSH1 0xE2 SHL DUP2 MSTORE PUSH1 0x60 SWAP1 PUSH20 0x0 SWAP1 PUSH4 0x170B9254 SWAP1 PUSH2 0x31C8 SWAP1 DUP12 SWAP1 PUSH1 0x4 ADD PUSH2 0x4BA5 JUMP JUMPDEST PUSH1 0x0 PUSH1 0x40 MLOAD DUP1 DUP4 SUB DUP2 DUP7 DUP1 EXTCODESIZE ISZERO DUP1 ISZERO PUSH2 0x31E0 JUMPI PUSH1 0x0 DUP1 REVERT JUMPDEST POP GAS DELEGATECALL ISZERO DUP1 ISZERO PUSH2 0x31F4 JUMPI RETURNDATASIZE PUSH1 0x0 DUP1 RETURNDATACOPY RETURNDATASIZE PUSH1 0x0 REVERT JUMPDEST POP POP POP POP PUSH1 0x40 MLOAD RETURNDATASIZE PUSH1 0x0 DUP3 RETURNDATACOPY PUSH1 0x1F RETURNDATASIZE SWAP1 DUP2 ADD PUSH1 0x1F NOT AND DUP3 ADD PUSH1 0x40 MSTORE PUSH2 0x321C SWAP2 SWAP1 DUP2 ADD SWAP1 PUSH2 0x42F8 JUMP JUMPDEST SWAP1 POP PUSH2 0x3247 DUP3 PUSH1 0x0 DUP4 PUSH1 0x40 MLOAD PUSH2 0x3232 SWAP2 SWAP1 PUSH2 0x4ABD JUMP JUMPDEST SWAP1 DUP2 MSTORE PUSH1 0x40 MLOAD SWAP1 DUP2 SWAP1 SUB PUSH1 0x20 ADD SWAP1 KECCAK256 SWAP1 PUSH2 0x3CBE JUMP JUMPDEST PUSH2 0x325B JUMPI PUSH1 0x0 DUP9 SWAP6 POP SWAP6 POP POP POP POP POP PUSH2 0x3355 JUMP JUMPDEST PUSH2 0x3263 PUSH2 0x3D55 JUMP JUMPDEST PUSH20 0x0 PUSH4 0xBBED643E PUSH1 0x0 DUP5 PUSH1 0x40 MLOAD PUSH2 0x328D SWAP2 SWAP1 PUSH2 0x4ABD JUMP JUMPDEST SWAP1 DUP2 MSTORE PUSH1 0x40 DUP1 MLOAD SWAP2 DUP3 SWAP1 SUB PUSH1 0x20 SWAP1 DUP2 ADD DUP4 KECCAK256 PUSH1 0x0 DUP10 DUP2 MSTORE SWAP2 MSTORE KECCAK256 PUSH1 0x1 PUSH1 0x1 PUSH1 0xE0 SHL SUB NOT PUSH1 0xE0 DUP5 SWAP1 SHL AND DUP3 MSTORE PUSH2 0x32CA SWAP2 PUSH1 0x1 SWAP1 SWAP2 ADD SWAP1 PUSH1 0x4 ADD PUSH2 0x4BB8 JUMP JUMPDEST PUSH1 0x0 PUSH1 0x40 MLOAD DUP1 DUP4 SUB DUP2 DUP7 DUP1 EXTCODESIZE ISZERO DUP1 ISZERO PUSH2 0x32E2 JUMPI PUSH1 0x0 DUP1 REVERT JUMPDEST POP GAS DELEGATECALL ISZERO DUP1 ISZERO PUSH2 0x32F6 JUMPI RETURNDATASIZE PUSH1 0x0 DUP1 RETURNDATACOPY RETURNDATASIZE PUSH1 0x0 REVERT JUMPDEST POP POP POP POP PUSH1 0x40 MLOAD RETURNDATASIZE PUSH1 0x0 DUP3 RETURNDATACOPY PUSH1 0x1F RETURNDATASIZE SWAP1 DUP2 ADD PUSH1 0x1F NOT AND DUP3 ADD PUSH1 0x40 MSTORE PUSH2 0x331E SWAP2 SWAP1 DUP2 ADD SWAP1 PUSH2 0x4875 JUMP JUMPDEST SWAP1 POP DUP1 PUSH1 0x80 ADD MLOAD DUP1 PUSH2 0x3332 JUMPI POP PUSH1 0xC0 DUP2 ADD MLOAD ISZERO JUMPDEST ISZERO PUSH2 0x3348 JUMPI PUSH1 0x0 DUP10 SWAP7 POP SWAP7 POP POP POP POP POP POP PUSH2 0x3355 JUMP JUMPDEST PUSH1 0x1 DUP10 SWAP7 POP SWAP7 POP POP POP POP POP POP JUMPDEST SWAP3 POP SWAP3 SWAP1 POP JUMP JUMPDEST PUSH1 0x40 MLOAD PUSH4 0x5C2E495 PUSH1 0xE2 SHL DUP2 MSTORE PUSH1 0x60 SWAP1 PUSH20 0x0 SWAP1 PUSH4 0x170B9254 SWAP1 PUSH2 0x3396 SWAP1 DUP8 SWAP1 PUSH1 0x4 ADD PUSH2 0x4BA5 JUMP JUMPDEST PUSH1 0x0 PUSH1 0x40 MLOAD DUP1 DUP4 SUB DUP2 DUP7 DUP1 EXTCODESIZE ISZERO DUP1 ISZERO PUSH2 0x33AE JUMPI PUSH1 0x0 DUP1 REVERT JUMPDEST POP GAS DELEGATECALL ISZERO DUP1 ISZERO PUSH2 0x33C2 JUMPI RETURNDATASIZE PUSH1 0x0 DUP1 RETURNDATACOPY RETURNDATASIZE PUSH1 0x0 REVERT JUMPDEST POP POP POP POP PUSH1 0x40 MLOAD RETURNDATASIZE PUSH1 0x0 DUP3 RETURNDATACOPY PUSH1 0x1F RETURNDATASIZE SWAP1 DUP2 ADD PUSH1 0x1F NOT AND DUP3 ADD PUSH1 0x40 MSTORE PUSH2 0x33EA SWAP2 SWAP1 DUP2 ADD SWAP1 PUSH2 0x42F8 JUMP JUMPDEST SWAP1 POP PUSH20 0x0 PUSH4 0x6265A1D3 PUSH1 0x0 DUP4 PUSH1 0x40 MLOAD PUSH2 0x3416 SWAP2 SWAP1 PUSH2 0x4ABD JUMP JUMPDEST SWAP1 DUP2 MSTORE PUSH1 0x20 ADD PUSH1 0x40 MLOAD DUP1 SWAP2 SUB SWAP1 KECCAK256 PUSH2 0x342E DUP7 DUP7 PUSH2 0x3B76 JUMP JUMPDEST PUSH2 0x3437 DUP9 PUSH2 0x3BD6 JUMP JUMPDEST PUSH1 0x40 MLOAD DUP5 PUSH4 0xFFFFFFFF AND PUSH1 0xE0 SHL DUP2 MSTORE PUSH1 0x4 ADD PUSH2 0x3455 SWAP4 SWAP3 SWAP2 SWAP1 PUSH2 0x529E JUMP JUMPDEST PUSH1 0x0 PUSH1 0x40 MLOAD DUP1 DUP4 SUB DUP2 DUP7 DUP1 EXTCODESIZE ISZERO DUP1 ISZERO PUSH2 0x346D JUMPI PUSH1 0x0 DUP1 REVERT JUMPDEST POP GAS DELEGATECALL ISZERO DUP1 ISZERO PUSH2 0x3481 JUMPI RETURNDATASIZE PUSH1 0x0 DUP1 RETURNDATACOPY RETURNDATASIZE PUSH1 0x0 REVERT JUMPDEST POP POP POP POP PUSH2 0x12D7 DUP5 PUSH2 0x2B7D JUMP JUMPDEST PUSH1 0x40 MLOAD PUSH4 0x5C2E495 PUSH1 0xE2 SHL DUP2 MSTORE PUSH1 0x60 SWAP1 PUSH20 0x0 SWAP1 PUSH4 0x170B9254 SWAP1 PUSH2 0x34C8 SWAP1 DUP8 SWAP1 PUSH1 0x4 ADD PUSH2 0x4BA5 JUMP JUMPDEST PUSH1 0x0 PUSH1 0x40 MLOAD DUP1 DUP4 SUB DUP2 DUP7 DUP1 EXTCODESIZE ISZERO DUP1 ISZERO PUSH2 0x34E0 JUMPI PUSH1 0x0 DUP1 REVERT JUMPDEST POP GAS DELEGATECALL ISZERO DUP1 ISZERO PUSH2 0x34F4 JUMPI RETURNDATASIZE PUSH1 0x0 DUP1 RETURNDATACOPY RETURNDATASIZE PUSH1 0x0 REVERT JUMPDEST POP POP POP POP PUSH1 0x40 MLOAD RETURNDATASIZE PUSH1 0x0 DUP3 RETURNDATACOPY PUSH1 0x1F RETURNDATASIZE SWAP1 DUP2 ADD PUSH1 0x1F NOT AND DUP3 ADD PUSH1 0x40 MSTORE PUSH2 0x351C SWAP2 SWAP1 DUP2 ADD SWAP1 PUSH2 0x42F8 JUMP JUMPDEST SWAP1 POP PUSH20 0x0 PUSH4 0x8E5506CB PUSH1 0x0 DUP4 PUSH1 0x40 MLOAD PUSH2 0x3548 SWAP2 SWAP1 PUSH2 0x4ABD JUMP JUMPDEST SWAP1 DUP2 MSTORE PUSH1 0x20 ADD PUSH1 0x40 MLOAD DUP1 SWAP2 SUB SWAP1 KECCAK256 PUSH2 0x3560 DUP7 DUP7 PUSH2 0x3B76 JUMP JUMPDEST PUSH1 0x40 MLOAD DUP4 PUSH4 0xFFFFFFFF AND PUSH1 0xE0 SHL DUP2 MSTORE PUSH1 0x4 ADD PUSH2 0x3455 SWAP3 SWAP2 SWAP1 PUSH2 0x5285 JUMP JUMPDEST PUSH1 0x60 PUSH1 0x0 PUSH1 0x60 PUSH2 0x358E DUP7 DUP7 DUP7 PUSH2 0x3672 JUMP JUMPDEST SWAP2 POP SWAP2 POP DUP2 PUSH2 0x35AF JUMPI PUSH1 0x40 MLOAD PUSH3 0x461BCD PUSH1 0xE5 SHL DUP2 MSTORE PUSH1 0x4 ADD PUSH2 0x720 SWAP1 PUSH2 0x4DA6 JUMP JUMPDEST SWAP6 SWAP5 POP POP POP POP POP JUMP JUMPDEST PUSH1 0x40 MLOAD PUSH4 0x5C2E495 PUSH1 0xE2 SHL DUP2 MSTORE PUSH1 0x60 SWAP1 PUSH20 0x0 SWAP1 PUSH4 0x170B9254 SWAP1 PUSH2 0x35F2 SWAP1 DUP8 SWAP1 PUSH1 0x4 ADD PUSH2 0x4BA5 JUMP JUMPDEST PUSH1 0x0 PUSH1 0x40 MLOAD DUP1 DUP4 SUB DUP2 DUP7 DUP1 EXTCODESIZE ISZERO DUP1 ISZERO PUSH2 0x360A JUMPI PUSH1 0x0 DUP1 REVERT JUMPDEST POP GAS DELEGATECALL ISZERO DUP1 ISZERO PUSH2 0x361E JUMPI RETURNDATASIZE PUSH1 0x0 DUP1 RETURNDATACOPY RETURNDATASIZE PUSH1 0x0 REVERT JUMPDEST POP POP POP POP PUSH1 0x40 MLOAD RETURNDATASIZE PUSH1 0x0 DUP3 RETURNDATACOPY PUSH1 0x1F RETURNDATASIZE SWAP1 DUP2 ADD PUSH1 0x1F NOT AND DUP3 ADD PUSH1 0x40 MSTORE PUSH2 0x3646 SWAP2 SWAP1 DUP2 ADD SWAP1 PUSH2 0x42F8 JUMP JUMPDEST SWAP1 POP PUSH20 0x0 PUSH4 0x6550A470 PUSH1 0x0 DUP4 PUSH1 0x40 MLOAD PUSH2 0x3548 SWAP2 SWAP1 PUSH2 0x4ABD JUMP JUMPDEST PUSH1 0x0 PUSH1 0x60 PUSH20 0x0 PUSH4 0x9416B423 DUP7 PUSH1 0x40 MLOAD DUP3 PUSH4 0xFFFFFFFF AND PUSH1 0xE0 SHL DUP2 MSTORE PUSH1 0x4 ADD PUSH2 0x36AD SWAP2 SWAP1 PUSH2 0x4BA5 JUMP JUMPDEST PUSH1 0x0 PUSH1 0x40 MLOAD DUP1 DUP4 SUB DUP2 DUP7 DUP1 EXTCODESIZE ISZERO DUP1 ISZERO PUSH2 0x36C5 JUMPI PUSH1 0x0 DUP1 REVERT JUMPDEST POP GAS DELEGATECALL ISZERO DUP1 ISZERO PUSH2 0x36D9 JUMPI RETURNDATASIZE PUSH1 0x0 DUP1 RETURNDATACOPY RETURNDATASIZE PUSH1 0x0 REVERT JUMPDEST POP POP POP POP PUSH1 0x40 MLOAD RETURNDATASIZE PUSH1 0x0 DUP3 RETURNDATACOPY PUSH1 0x1F RETURNDATASIZE SWAP1 DUP2 ADD PUSH1 0x1F NOT AND DUP3 ADD PUSH1 0x40 MSTORE PUSH2 0x3701 SWAP2 SWAP1 DUP2 ADD SWAP1 PUSH2 0x42F8 JUMP JUMPDEST PUSH1 0x40 MLOAD PUSH4 0x7C928899 PUSH1 0xE1 SHL DUP2 MSTORE SWAP1 SWAP6 POP PUSH20 0x0 SWAP1 PUSH4 0xF9251132 SWAP1 PUSH2 0x373B SWAP1 DUP9 SWAP1 PUSH1 0x4 ADD PUSH2 0x4BA5 JUMP JUMPDEST PUSH1 0x20 PUSH1 0x40 MLOAD DUP1 DUP4 SUB DUP2 DUP7 DUP1 EXTCODESIZE ISZERO DUP1 ISZERO PUSH2 0x3753 JUMPI PUSH1 0x0 DUP1 REVERT JUMPDEST POP GAS DELEGATECALL ISZERO DUP1 ISZERO PUSH2 0x3767 JUMPI RETURNDATASIZE PUSH1 0x0 DUP1 RETURNDATACOPY RETURNDATASIZE PUSH1 0x0 REVERT JUMPDEST POP POP POP POP PUSH1 0x40 MLOAD RETURNDATASIZE PUSH1 0x1F NOT PUSH1 0x1F DUP3 ADD AND DUP3 ADD DUP1 PUSH1 0x40 MSTORE POP DUP2 ADD SWAP1 PUSH2 0x378B SWAP2 SWAP1 PUSH2 0x42C0 JUMP JUMPDEST PUSH2 0x379A JUMPI POP PUSH1 0x0 SWAP1 POP DUP4 PUSH2 0x3924 JUMP JUMPDEST PUSH1 0x1 DUP6 PUSH1 0x40 MLOAD PUSH2 0x37AA SWAP2 SWAP1 PUSH2 0x4ABD JUMP JUMPDEST SWAP1 DUP2 MSTORE PUSH1 0x40 MLOAD SWAP1 DUP2 SWAP1 SUB PUSH1 0x20 ADD SWAP1 KECCAK256 SLOAD PUSH1 0xFF AND ISZERO PUSH2 0x37CD JUMPI POP PUSH1 0x0 SWAP1 POP DUP4 PUSH2 0x3924 JUMP JUMPDEST PUSH1 0x40 MLOAD PUSH4 0xF572B7F PUSH1 0xE1 SHL DUP2 MSTORE PUSH1 0x60 SWAP1 PUSH20 0x0 SWAP1 PUSH4 0x1EAE56FE SWAP1 PUSH2 0x3807 SWAP1 DUP10 SWAP1 PUSH1 0x4 ADD PUSH2 0x4BA5 JUMP JUMPDEST PUSH1 0x0 PUSH1 0x40 MLOAD DUP1 DUP4 SUB DUP2 DUP7 DUP1 EXTCODESIZE ISZERO DUP1 ISZERO PUSH2 0x381F JUMPI PUSH1 0x0 DUP1 REVERT JUMPDEST POP GAS DELEGATECALL ISZERO DUP1 ISZERO PUSH2 0x3833 JUMPI RETURNDATASIZE PUSH1 0x0 DUP1 RETURNDATACOPY RETURNDATASIZE PUSH1 0x0 REVERT JUMPDEST POP POP POP POP PUSH1 0x40 MLOAD RETURNDATASIZE PUSH1 0x0 DUP3 RETURNDATACOPY PUSH1 0x1F RETURNDATASIZE SWAP1 DUP2 ADD PUSH1 0x1F NOT AND DUP3 ADD PUSH1 0x40 MSTORE PUSH2 0x385B SWAP2 SWAP1 DUP2 ADD SWAP1 PUSH2 0x42F8 JUMP JUMPDEST SWAP1 POP PUSH1 0x0 PUSH20 0x0 PUSH4 0xF4D9407F DUP8 PUSH1 0x40 MLOAD DUP3 PUSH4 0xFFFFFFFF AND PUSH1 0xE0 SHL DUP2 MSTORE PUSH1 0x4 ADD PUSH2 0x3896 SWAP2 SWAP1 PUSH2 0x4BA5 JUMP JUMPDEST PUSH1 0x20 PUSH1 0x40 MLOAD DUP1 DUP4 SUB DUP2 DUP7 DUP1 EXTCODESIZE ISZERO DUP1 ISZERO PUSH2 0x38AE JUMPI PUSH1 0x0 DUP1 REVERT JUMPDEST POP GAS DELEGATECALL ISZERO DUP1 ISZERO PUSH2 0x38C2 JUMPI RETURNDATASIZE PUSH1 0x0 DUP1 RETURNDATACOPY RETURNDATASIZE PUSH1 0x0 REVERT JUMPDEST POP POP POP POP PUSH1 0x40 MLOAD RETURNDATASIZE PUSH1 0x1F NOT PUSH1 0x1F DUP3 ADD AND DUP3 ADD DUP1 PUSH1 0x40 MSTORE POP DUP2 ADD SWAP1 PUSH2 0x38E6 SWAP2 SWAP1 PUSH2 0x42E0 JUMP JUMPDEST SWAP1 POP PUSH2 0x38FC DUP2 PUSH1 0x0 DUP5 PUSH1 0x40 MLOAD PUSH2 0x3232 SWAP2 SWAP1 PUSH2 0x4ABD JUMP JUMPDEST PUSH2 0x390E JUMPI PUSH1 0x0 DUP8 SWAP4 POP SWAP4 POP POP POP PUSH2 0x3924 JUMP JUMPDEST PUSH1 0x0 PUSH2 0x391A DUP8 DUP8 PUSH2 0x2D36 JUMP JUMPDEST POP SWAP5 POP DUP8 SWAP4 POP POP POP POP JUMPDEST SWAP4 POP SWAP4 SWAP2 POP POP JUMP JUMPDEST PUSH1 0x60 PUSH1 0x0 JUMPDEST DUP3 MLOAD DUP2 LT ISZERO PUSH2 0x39F8 JUMPI PUSH20 0x0 PUSH4 0xF9251132 DUP5 DUP4 DUP2 MLOAD DUP2 LT PUSH2 0x3960 JUMPI INVALID JUMPDEST PUSH1 0x20 MUL PUSH1 0x20 ADD ADD MLOAD PUSH1 0x40 MLOAD DUP3 PUSH4 0xFFFFFFFF AND PUSH1 0xE0 SHL DUP2 MSTORE PUSH1 0x4 ADD PUSH2 0x3984 SWAP2 SWAP1 PUSH2 0x4BA5 JUMP JUMPDEST PUSH1 0x20 PUSH1 0x40 MLOAD DUP1 DUP4 SUB DUP2 DUP7 DUP1 EXTCODESIZE ISZERO DUP1 ISZERO PUSH2 0x399C JUMPI PUSH1 0x0 DUP1 REVERT JUMPDEST POP GAS DELEGATECALL ISZERO DUP1 ISZERO PUSH2 0x39B0 JUMPI RETURNDATASIZE PUSH1 0x0 DUP1 RETURNDATACOPY RETURNDATASIZE PUSH1 0x0 REVERT JUMPDEST POP POP POP POP PUSH1 0x40 MLOAD RETURNDATASIZE PUSH1 0x1F NOT PUSH1 0x1F DUP3 ADD AND DUP3 ADD DUP1 PUSH1 0x40 MSTORE POP DUP2 ADD SWAP1 PUSH2 0x39D4 SWAP2 SWAP1 PUSH2 0x42C0 JUMP JUMPDEST PUSH2 0x39F0 JUMPI PUSH1 0x40 MLOAD PUSH3 0x461BCD PUSH1 0xE5 SHL DUP2 MSTORE PUSH1 0x4 ADD PUSH2 0x720 SWAP1 PUSH2 0x4F51 JUMP JUMPDEST PUSH1 0x1 ADD PUSH2 0x3931 JUMP JUMPDEST POP PUSH2 0x35AF DUP6 DUP5 DUP7 PUSH2 0x357D JUMP JUMPDEST PUSH1 0x0 DUP1 DUP4 MLOAD DUP4 PUSH1 0x20 ADD GT ISZERO PUSH2 0x3A2B JUMPI PUSH1 0x40 MLOAD PUSH3 0x461BCD PUSH1 0xE5 SHL DUP2 MSTORE PUSH1 0x4 ADD PUSH2 0x720 SWAP1 PUSH2 0x4DDD JUMP JUMPDEST PUSH1 0x0 PUSH1 0x40 MLOAD PUSH1 0x20 PUSH1 0x0 PUSH1 0x1 DUP3 SUB DUP8 PUSH1 0x20 DUP11 ADD ADD MLOAD JUMPDEST DUP4 DUP4 LT ISZERO PUSH2 0x3A60 JUMPI DUP1 DUP3 BYTE DUP4 DUP7 ADD MSTORE8 PUSH1 0x1 DUP4 ADD SWAP3 POP PUSH1 0x1 DUP3 SUB SWAP2 POP PUSH2 0x3A40 JUMP JUMPDEST POP POP POP DUP2 ADD PUSH1 0x40 MSTORE MLOAD SWAP1 POP PUSH1 0x1 PUSH1 0x1 PUSH1 0xFF SHL SUB DUP2 GT ISZERO PUSH2 0x3A92 JUMPI PUSH1 0x40 MLOAD PUSH3 0x461BCD PUSH1 0xE5 SHL DUP2 MSTORE PUSH1 0x4 ADD PUSH2 0x720 SWAP1 PUSH2 0x4EE3 JUMP JUMPDEST SWAP5 PUSH1 0x20 SWAP4 SWAP1 SWAP4 ADD SWAP4 POP POP POP JUMP JUMPDEST PUSH1 0x60 DUP2 PUSH2 0x3AC4 JUMPI POP PUSH1 0x40 DUP1 MLOAD DUP1 DUP3 ADD SWAP1 SWAP2 MSTORE PUSH1 0x1 DUP2 MSTORE PUSH1 0x3 PUSH1 0xFC SHL PUSH1 0x20 DUP3 ADD MSTORE PUSH2 0x984 JUMP JUMPDEST DUP2 PUSH1 0x0 JUMPDEST DUP2 ISZERO PUSH2 0x3ADC JUMPI PUSH1 0x1 ADD PUSH1 0xA DUP3 DIV SWAP2 POP PUSH2 0x3AC8 JUMP JUMPDEST PUSH1 0x60 DUP2 PUSH1 0x1 PUSH1 0x1 PUSH1 0x40 SHL SUB DUP2 GT DUP1 ISZERO PUSH2 0x3AF4 JUMPI PUSH1 0x0 DUP1 REVERT JUMPDEST POP PUSH1 0x40 MLOAD SWAP1 DUP1 DUP3 MSTORE DUP1 PUSH1 0x1F ADD PUSH1 0x1F NOT AND PUSH1 0x20 ADD DUP3 ADD PUSH1 0x40 MSTORE DUP1 ISZERO PUSH2 0x3B1F JUMPI PUSH1 0x20 DUP3 ADD DUP2 DUP1 CALLDATASIZE DUP4 CALLDATACOPY ADD SWAP1 POP JUMPDEST POP SWAP1 POP PUSH1 0x0 NOT DUP3 ADD JUMPDEST DUP6 ISZERO PUSH2 0x3B6D JUMPI PUSH1 0xA DUP7 MOD PUSH1 0x30 ADD PUSH1 0xF8 SHL DUP3 DUP3 DUP1 PUSH1 0x1 SWAP1 SUB SWAP4 POP DUP2 MLOAD DUP2 LT PUSH2 0x3B4B JUMPI INVALID JUMPDEST PUSH1 0x20 ADD ADD SWAP1 PUSH1 0x1 PUSH1 0x1 PUSH1 0xF8 SHL SUB NOT AND SWAP1 DUP2 PUSH1 0x0 BYTE SWAP1 MSTORE8 POP PUSH1 0xA DUP7 DIV SWAP6 POP PUSH2 0x3B28 JUMP JUMPDEST POP SWAP5 SWAP4 POP POP POP POP JUMP JUMPDEST PUSH1 0x60 DUP1 DUP4 PUSH1 0x40 MLOAD PUSH1 0x20 ADD PUSH2 0x3B8A SWAP2 SWAP1 PUSH2 0x4ABD JUMP JUMPDEST PUSH1 0x40 DUP1 MLOAD PUSH1 0x1F NOT DUP2 DUP5 SUB ADD DUP2 MSTORE SWAP2 SWAP1 MSTORE SWAP1 POP PUSH1 0x1 PUSH1 0x1 PUSH1 0xA0 SHL SUB DUP4 AND ISZERO PUSH2 0x1B31 JUMPI DUP1 DUP4 PUSH1 0x40 MLOAD PUSH1 0x20 ADD PUSH2 0x3BBE SWAP3 SWAP2 SWAP1 PUSH2 0x4AD9 JUMP JUMPDEST PUSH1 0x40 MLOAD PUSH1 0x20 DUP2 DUP4 SUB SUB DUP2 MSTORE SWAP1 PUSH1 0x40 MSTORE SWAP1 POP SWAP4 SWAP3 POP POP POP JUMP JUMPDEST PUSH1 0x0 DUP1 PUSH1 0x1 DUP4 PUSH1 0x40 MLOAD PUSH2 0x3BE9 SWAP2 SWAP1 PUSH2 0x4ABD JUMP JUMPDEST SWAP1 DUP2 MSTORE PUSH1 0x20 ADD PUSH1 0x40 MLOAD DUP1 SWAP2 SUB SWAP1 KECCAK256 PUSH1 0x1 ADD SLOAD PUSH1 0x2 ADD SWAP1 POP DUP1 PUSH1 0x1 DUP5 PUSH1 0x40 MLOAD PUSH2 0x3C11 SWAP2 SWAP1 PUSH2 0x4ABD JUMP JUMPDEST SWAP1 DUP2 MSTORE PUSH1 0x40 MLOAD SWAP1 DUP2 SWAP1 SUB PUSH1 0x20 ADD SWAP1 KECCAK256 PUSH1 0x1 ADD SSTORE SWAP1 POP SWAP2 SWAP1 POP JUMP JUMPDEST PUSH1 0x60 PUSH1 0x1 PUSH1 0x1 PUSH1 0xFF SHL SUB DUP3 GT ISZERO PUSH2 0x3C54 JUMPI PUSH1 0x40 MLOAD PUSH3 0x461BCD PUSH1 0xE5 SHL DUP2 MSTORE PUSH1 0x4 ADD PUSH2 0x720 SWAP1 PUSH2 0x4F1A JUMP JUMPDEST PUSH1 0x40 MLOAD PUSH1 0x20 DUP1 DUP3 MSTORE PUSH1 0x0 PUSH1 0x1F JUMPDEST DUP3 DUP3 LT ISZERO PUSH2 0x3C83 JUMPI DUP6 DUP2 BYTE DUP3 PUSH1 0x20 DUP7 ADD ADD MSTORE8 PUSH1 0x1 SWAP2 SWAP1 SWAP2 ADD SWAP1 PUSH1 0x0 NOT ADD PUSH2 0x3C61 JUMP JUMPDEST POP POP POP PUSH1 0x40 DUP2 DUP2 ADD SWAP1 MSTORE SWAP3 SWAP2 POP POP JUMP JUMPDEST PUSH1 0x0 DUP2 MLOAD PUSH1 0x14 EQ PUSH2 0x3CB6 JUMPI PUSH1 0x40 MLOAD PUSH3 0x461BCD PUSH1 0xE5 SHL DUP2 MSTORE PUSH1 0x4 ADD PUSH2 0x720 SWAP1 PUSH2 0x4E20 JUMP JUMPDEST POP PUSH1 0x14 ADD MLOAD SWAP1 JUMP JUMPDEST PUSH1 0x0 SWAP1 DUP2 MSTORE PUSH1 0x20 SWAP2 SWAP1 SWAP2 MSTORE PUSH1 0x40 SWAP1 KECCAK256 SLOAD ISZERO ISZERO SWAP1 JUMP JUMPDEST PUSH1 0x40 MLOAD DUP1 PUSH1 0x60 ADD PUSH1 0x40 MSTORE DUP1 PUSH1 0x60 DUP2 MSTORE PUSH1 0x20 ADD PUSH1 0x60 DUP2 MSTORE PUSH1 0x20 ADD PUSH1 0x60 DUP2 MSTORE POP SWAP1 JUMP JUMPDEST PUSH1 0x40 MLOAD DUP1 PUSH1 0xE0 ADD PUSH1 0x40 MSTORE DUP1 PUSH1 0x60 DUP2 MSTORE PUSH1 0x20 ADD PUSH1 0x60 DUP2 MSTORE PUSH1 0x20 ADD PUSH1 0x60 DUP2 MSTORE PUSH1 0x20 ADD PUSH1 0x60 DUP2 MSTORE PUSH1 0x20 ADD PUSH1 0x60 DUP2 MSTORE PUSH1 0x20 ADD PUSH1 0x60 DUP2 MSTORE PUSH1 0x20 ADD PUSH1 0x0 DUP2 MSTORE POP SWAP1 JUMP JUMPDEST POP DUP1 SLOAD PUSH1 0x0 DUP3 SSTORE PUSH1 0x2 MUL SWAP1 PUSH1 0x0 MSTORE PUSH1 0x20 PUSH1 0x0 KECCAK256 SWAP1 DUP2 ADD SWAP1 PUSH2 0x3D52 SWAP2 SWAP1 PUSH2 0x3E58 JUMP JUMPDEST POP JUMP JUMPDEST PUSH1 0x40 MLOAD DUP1 PUSH1 0xE0 ADD PUSH1 0x40 MSTORE DUP1 PUSH1 0x60 DUP2 MSTORE PUSH1 0x20 ADD PUSH1 0x60 DUP2 MSTORE PUSH1 0x20 ADD PUSH1 0x60 DUP2 MSTORE PUSH1 0x20 ADD PUSH1 0x60 DUP2 MSTORE PUSH1 0x20 ADD PUSH1 0x0 ISZERO ISZERO DUP2 MSTORE PUSH1 0x20 ADD PUSH1 0x0 ISZERO ISZERO DUP2 MSTORE PUSH1 0x20 ADD PUSH1 0x0 DUP2 MSTORE POP SWAP1 JUMP JUMPDEST DUP3 DUP1 SLOAD PUSH1 0x1 DUP2 PUSH1 0x1 AND ISZERO PUSH2 0x100 MUL SUB AND PUSH1 0x2 SWAP1 DIV SWAP1 PUSH1 0x0 MSTORE PUSH1 0x20 PUSH1 0x0 KECCAK256 SWAP1 PUSH1 0x1F ADD PUSH1 0x20 SWAP1 DIV DUP2 ADD SWAP3 DUP3 PUSH1 0x1F LT PUSH2 0x3DD7 JUMPI DUP1 MLOAD PUSH1 0xFF NOT AND DUP4 DUP1 ADD OR DUP6 SSTORE PUSH2 0x3E04 JUMP JUMPDEST DUP3 DUP1 ADD PUSH1 0x1 ADD DUP6 SSTORE DUP3 ISZERO PUSH2 0x3E04 JUMPI SWAP2 DUP3 ADD JUMPDEST DUP3 DUP2 GT ISZERO PUSH2 0x3E04 JUMPI DUP3 MLOAD DUP3 SSTORE SWAP2 PUSH1 0x20 ADD SWAP2 SWAP1 PUSH1 0x1 ADD SWAP1 PUSH2 0x3DE9 JUMP JUMPDEST POP PUSH2 0x3E10 SWAP3 SWAP2 POP PUSH2 0x3E79 JUMP JUMPDEST POP SWAP1 JUMP JUMPDEST POP DUP1 SLOAD PUSH1 0x1 DUP2 PUSH1 0x1 AND ISZERO PUSH2 0x100 MUL SUB AND PUSH1 0x2 SWAP1 DIV PUSH1 0x0 DUP3 SSTORE DUP1 PUSH1 0x1F LT PUSH2 0x3E3A JUMPI POP PUSH2 0x3D52 JUMP JUMPDEST PUSH1 0x1F ADD PUSH1 0x20 SWAP1 DIV SWAP1 PUSH1 0x0 MSTORE PUSH1 0x20 PUSH1 0x0 KECCAK256 SWAP1 DUP2 ADD SWAP1 PUSH2 0x3D52 SWAP2 SWAP1 PUSH2 0x3E79 JUMP JUMPDEST JUMPDEST DUP1 DUP3 GT ISZERO PUSH2 0x3E10 JUMPI PUSH1 0x0 DUP2 SSTORE PUSH1 0x1 DUP2 ADD DUP1 SLOAD PUSH1 0xFF NOT AND SWAP1 SSTORE PUSH1 0x2 ADD PUSH2 0x3E59 JUMP JUMPDEST JUMPDEST DUP1 DUP3 GT ISZERO PUSH2 0x3E10 JUMPI PUSH1 0x0 DUP2 SSTORE PUSH1 0x1 ADD PUSH2 0x3E7A JUMP JUMPDEST PUSH1 0x0 DUP3 PUSH1 0x1F DUP4 ADD SLT PUSH2 0x3E9E JUMPI DUP1 DUP2 REVERT JUMPDEST DUP2 CALLDATALOAD PUSH2 0x3EB1 PUSH2 0x3EAC DUP3 PUSH2 0x52ED JUMP JUMPDEST PUSH2 0x52C7 JUMP JUMPDEST DUP2 DUP2 MSTORE SWAP2 POP PUSH1 0x20 DUP1 DUP4 ADD SWAP1 DUP5 DUP2 ADD PUSH1 0x0 JUMPDEST DUP5 DUP2 LT ISZERO PUSH2 0x3EEB JUMPI PUSH2 0x3ED9 DUP9 DUP5 DUP5 CALLDATALOAD DUP11 ADD ADD PUSH2 0x3F5E JUMP JUMPDEST DUP5 MSTORE SWAP3 DUP3 ADD SWAP3 SWAP1 DUP3 ADD SWAP1 PUSH1 0x1 ADD PUSH2 0x3EC2 JUMP JUMPDEST POP POP POP POP POP SWAP3 SWAP2 POP POP JUMP JUMPDEST PUSH1 0x0 DUP3 PUSH1 0x1F DUP4 ADD SLT PUSH2 0x3F06 JUMPI DUP1 DUP2 REVERT JUMPDEST DUP2 MLOAD PUSH2 0x3F14 PUSH2 0x3EAC DUP3 PUSH2 0x52ED JUMP JUMPDEST DUP2 DUP2 MSTORE SWAP2 POP PUSH1 0x20 DUP1 DUP4 ADD SWAP1 DUP5 DUP2 ADD PUSH1 0x0 JUMPDEST DUP5 DUP2 LT ISZERO PUSH2 0x3EEB JUMPI PUSH2 0x3F3C DUP9 DUP5 DUP5 MLOAD DUP11 ADD ADD PUSH2 0x3FAC JUMP JUMPDEST DUP5 MSTORE SWAP3 DUP3 ADD SWAP3 SWAP1 DUP3 ADD SWAP1 PUSH1 0x1 ADD PUSH2 0x3F25 JUMP JUMPDEST DUP1 MLOAD DUP1 ISZERO ISZERO DUP2 EQ PUSH2 0xE14 JUMPI PUSH1 0x0 DUP1 REVERT JUMPDEST PUSH1 0x0 DUP3 PUSH1 0x1F DUP4 ADD SLT PUSH2 0x3F6E JUMPI DUP1 DUP2 REVERT JUMPDEST DUP2 CALLDATALOAD PUSH2 0x3F7C PUSH2 0x3EAC DUP3 PUSH2 0x530C JUMP JUMPDEST SWAP2 POP DUP1 DUP3 MSTORE DUP4 PUSH1 0x20 DUP3 DUP6 ADD ADD GT ISZERO PUSH2 0x3F93 JUMPI PUSH1 0x0 DUP1 REVERT JUMPDEST DUP1 PUSH1 0x20 DUP5 ADD PUSH1 0x20 DUP5 ADD CALLDATACOPY PUSH1 0x0 SWAP1 DUP3 ADD PUSH1 0x20 ADD MSTORE SWAP3 SWAP2 POP POP JUMP JUMPDEST PUSH1 0x0 DUP3 PUSH1 0x1F DUP4 ADD SLT PUSH2 0x3FBC JUMPI DUP1 DUP2 REVERT JUMPDEST DUP2 MLOAD PUSH2 0x3FCA PUSH2 0x3EAC DUP3 PUSH2 0x530C JUMP JUMPDEST SWAP2 POP DUP1 DUP3 MSTORE DUP4 PUSH1 0x20 DUP3 DUP6 ADD ADD GT ISZERO PUSH2 0x3FE1 JUMPI PUSH1 0x0 DUP1 REVERT JUMPDEST PUSH2 0x3FF2 DUP2 PUSH1 0x20 DUP5 ADD PUSH1 0x20 DUP7 ADD PUSH2 0x533B JUMP JUMPDEST POP SWAP3 SWAP2 POP POP JUMP JUMPDEST PUSH1 0x0 PUSH1 0xE0 DUP3 DUP5 SUB SLT ISZERO PUSH2 0x400A JUMPI DUP1 DUP2 REVERT JUMPDEST PUSH2 0x4014 PUSH1 0xE0 PUSH2 0x52C7 JUMP JUMPDEST SWAP1 POP DUP2 MLOAD PUSH1 0x1 PUSH1 0x1 PUSH1 0x40 SHL SUB DUP1 DUP3 GT ISZERO PUSH2 0x402D JUMPI PUSH1 0x0 DUP1 REVERT JUMPDEST PUSH2 0x4039 DUP6 DUP4 DUP7 ADD PUSH2 0x3FAC JUMP JUMPDEST DUP4 MSTORE PUSH1 0x20 DUP5 ADD MLOAD SWAP2 POP DUP1 DUP3 GT ISZERO PUSH2 0x404F JUMPI PUSH1 0x0 DUP1 REVERT JUMPDEST PUSH2 0x405B DUP6 DUP4 DUP7 ADD PUSH2 0x3FAC JUMP JUMPDEST PUSH1 0x20 DUP5 ADD MSTORE PUSH1 0x40 DUP5 ADD MLOAD SWAP2 POP DUP1 DUP3 GT ISZERO PUSH2 0x4074 JUMPI PUSH1 0x0 DUP1 REVERT JUMPDEST PUSH2 0x4080 DUP6 DUP4 DUP7 ADD PUSH2 0x3EF6 JUMP JUMPDEST PUSH1 0x40 DUP5 ADD MSTORE PUSH1 0x60 DUP5 ADD MLOAD SWAP2 POP DUP1 DUP3 GT ISZERO PUSH2 0x4099 JUMPI PUSH1 0x0 DUP1 REVERT JUMPDEST POP PUSH2 0x40A6 DUP5 DUP3 DUP6 ADD PUSH2 0x3FAC JUMP JUMPDEST PUSH1 0x60 DUP4 ADD MSTORE POP PUSH2 0x40B9 DUP4 PUSH1 0x80 DUP5 ADD PUSH2 0x3F4E JUMP JUMPDEST PUSH1 0x80 DUP3 ADD MSTORE PUSH2 0x40CB DUP4 PUSH1 0xA0 DUP5 ADD PUSH2 0x3F4E JUMP JUMPDEST PUSH1 0xA0 DUP3 ADD MSTORE PUSH1 0xC0 DUP3 ADD MLOAD PUSH1 0xC0 DUP3 ADD MSTORE SWAP3 SWAP2 POP POP JUMP JUMPDEST PUSH1 0x0 PUSH1 0x20 DUP3 DUP5 SUB SLT ISZERO PUSH2 0x40F1 JUMPI DUP1 DUP2 REVERT JUMPDEST DUP2 MLOAD PUSH2 0x1B31 DUP2 PUSH2 0x5367 JUMP JUMPDEST PUSH1 0x0 PUSH1 0x20 DUP3 DUP5 SUB SLT ISZERO PUSH2 0x410D JUMPI DUP1 DUP2 REVERT JUMPDEST DUP2 MLOAD PUSH1 0x1 PUSH1 0x1 PUSH1 0x40 SHL SUB DUP2 GT ISZERO PUSH2 0x4122 JUMPI DUP2 DUP3 REVERT JUMPDEST PUSH2 0x28D3 DUP5 DUP3 DUP6 ADD PUSH2 0x3EF6 JUMP JUMPDEST PUSH1 0x0 PUSH1 0x20 DUP1 DUP4 DUP6 SUB SLT ISZERO PUSH2 0x4140 JUMPI DUP2 DUP3 REVERT JUMPDEST DUP3 MLOAD PUSH1 0x1 PUSH1 0x1 PUSH1 0x40 SHL SUB DUP2 GT ISZERO PUSH2 0x4155 JUMPI DUP3 DUP4 REVERT JUMPDEST DUP4 ADD PUSH1 0x1F DUP2 ADD DUP6 SGT PUSH2 0x4165 JUMPI DUP3 DUP4 REVERT JUMPDEST DUP1 MLOAD PUSH2 0x4173 PUSH2 0x3EAC DUP3 PUSH2 0x52ED JUMP JUMPDEST DUP2 DUP2 MSTORE DUP4 DUP2 ADD SWAP1 DUP4 DUP6 ADD DUP7 JUMPDEST DUP5 DUP2 LT ISZERO PUSH2 0x41A8 JUMPI PUSH2 0x4196 DUP11 DUP9 DUP5 MLOAD DUP10 ADD ADD PUSH2 0x3FF9 JUMP JUMPDEST DUP5 MSTORE SWAP3 DUP7 ADD SWAP3 SWAP1 DUP7 ADD SWAP1 PUSH1 0x1 ADD PUSH2 0x417F JUMP JUMPDEST POP SWAP1 SWAP9 SWAP8 POP POP POP POP POP POP POP POP JUMP JUMPDEST PUSH1 0x0 PUSH1 0x20 DUP1 DUP4 DUP6 SUB SLT ISZERO PUSH2 0x41C8 JUMPI DUP2 DUP3 REVERT JUMPDEST DUP3 MLOAD PUSH1 0x1 PUSH1 0x1 PUSH1 0x40 SHL SUB DUP1 DUP3 GT ISZERO PUSH2 0x41DE JUMPI DUP4 DUP5 REVERT JUMPDEST DUP2 DUP6 ADD SWAP2 POP DUP6 PUSH1 0x1F DUP4 ADD SLT PUSH2 0x41F1 JUMPI DUP4 DUP5 REVERT JUMPDEST DUP2 MLOAD PUSH2 0x41FF PUSH2 0x3EAC DUP3 PUSH2 0x52ED JUMP JUMPDEST DUP2 DUP2 MSTORE DUP5 DUP2 ADD SWAP1 DUP5 DUP7 ADD DUP8 JUMPDEST DUP5 DUP2 LT ISZERO PUSH2 0x42B1 JUMPI DUP2 MLOAD DUP8 ADD PUSH1 0x60 DUP1 PUSH1 0x1F NOT DUP4 DUP16 SUB ADD SLT ISZERO PUSH2 0x422B JUMPI DUP11 DUP12 REVERT JUMPDEST PUSH2 0x4234 DUP2 PUSH2 0x52C7 JUMP JUMPDEST DUP11 DUP4 ADD MLOAD DUP10 DUP2 GT ISZERO PUSH2 0x4244 JUMPI DUP13 DUP14 REVERT JUMPDEST PUSH2 0x4252 DUP16 DUP14 DUP4 DUP8 ADD ADD PUSH2 0x3FAC JUMP JUMPDEST DUP3 MSTORE POP PUSH1 0x40 DUP4 ADD MLOAD DUP10 DUP2 GT ISZERO PUSH2 0x4266 JUMPI DUP13 DUP14 REVERT JUMPDEST PUSH2 0x4274 DUP16 DUP14 DUP4 DUP8 ADD ADD PUSH2 0x3FAC JUMP JUMPDEST DUP3 DUP14 ADD MSTORE POP SWAP1 DUP3 ADD MLOAD SWAP1 DUP9 DUP3 GT ISZERO PUSH2 0x428A JUMPI DUP12 DUP13 REVERT JUMPDEST PUSH2 0x4298 DUP15 DUP13 DUP5 DUP7 ADD ADD PUSH2 0x3FAC JUMP JUMPDEST PUSH1 0x40 DUP3 ADD MSTORE DUP7 MSTORE POP POP SWAP3 DUP8 ADD SWAP3 SWAP1 DUP8 ADD SWAP1 PUSH1 0x1 ADD PUSH2 0x420B JUMP JUMPDEST POP SWAP1 SWAP10 SWAP9 POP POP POP POP POP POP POP POP POP JUMP JUMPDEST PUSH1 0x0 PUSH1 0x20 DUP3 DUP5 SUB SLT ISZERO PUSH2 0x42D1 JUMPI DUP1 DUP2 REVERT JUMPDEST DUP2 MLOAD DUP1 ISZERO ISZERO DUP2 EQ PUSH2 0x1B31 JUMPI DUP2 DUP3 REVERT JUMPDEST PUSH1 0x0 PUSH1 0x20 DUP3 DUP5 SUB SLT ISZERO PUSH2 0x42F1 JUMPI DUP1 DUP2 REVERT JUMPDEST POP MLOAD SWAP2 SWAP1 POP JUMP JUMPDEST PUSH1 0x0 PUSH1 0x20 DUP3 DUP5 SUB SLT ISZERO PUSH2 0x4309 JUMPI DUP1 DUP2 REVERT JUMPDEST DUP2 MLOAD PUSH1 0x1 PUSH1 0x1 PUSH1 0x40 SHL SUB DUP2 GT ISZERO PUSH2 0x431E JUMPI DUP2 DUP3 REVERT JUMPDEST PUSH2 0x28D3 DUP5 DUP3 DUP6 ADD PUSH2 0x3FAC JUMP JUMPDEST PUSH1 0x0 PUSH1 0x20 DUP3 DUP5 SUB SLT ISZERO PUSH2 0x433B JUMPI DUP1 DUP2 REVERT JUMPDEST DUP2 CALLDATALOAD PUSH1 0x1 PUSH1 0x1 PUSH1 0x40 SHL SUB DUP2 GT ISZERO PUSH2 0x4350 JUMPI DUP2 DUP3 REVERT JUMPDEST PUSH2 0x28D3 DUP5 DUP3 DUP6 ADD PUSH2 0x3F5E JUMP JUMPDEST PUSH1 0x0 DUP1 PUSH1 0x0 DUP1 PUSH1 0x80 DUP6 DUP8 SUB SLT ISZERO PUSH2 0x4371 JUMPI DUP3 DUP4 REVERT JUMPDEST DUP5 CALLDATALOAD PUSH1 0x1 PUSH1 0x1 PUSH1 0x40 SHL SUB DUP1 DUP3 GT ISZERO PUSH2 0x4387 JUMPI DUP5 DUP6 REVERT JUMPDEST PUSH2 0x4393 DUP9 DUP4 DUP10 ADD PUSH2 0x3F5E JUMP JUMPDEST SWAP6 POP PUSH1 0x20 DUP8 ADD CALLDATALOAD SWAP2 POP PUSH2 0x43A5 DUP3 PUSH2 0x5367 JUMP JUMPDEST SWAP1 SWAP4 POP PUSH1 0x40 DUP7 ADD CALLDATALOAD SWAP1 DUP1 DUP3 GT ISZERO PUSH2 0x43BA JUMPI DUP4 DUP5 REVERT JUMPDEST PUSH2 0x43C6 DUP9 DUP4 DUP10 ADD PUSH2 0x3E8E JUMP JUMPDEST SWAP4 POP PUSH1 0x60 DUP8 ADD CALLDATALOAD SWAP2 POP DUP1 DUP3 GT ISZERO PUSH2 0x43DB JUMPI DUP3 DUP4 REVERT JUMPDEST POP PUSH2 0x43E8 DUP8 DUP3 DUP9 ADD PUSH2 0x3F5E JUMP JUMPDEST SWAP2 POP POP SWAP3 SWAP6 SWAP2 SWAP5 POP SWAP3 POP JUMP JUMPDEST PUSH1 0x0 DUP1 PUSH1 0x0 DUP1 PUSH1 0x0 PUSH1 0xA0 DUP7 DUP9 SUB SLT ISZERO PUSH2 0x440B JUMPI DUP3 DUP4 REVERT JUMPDEST DUP6 CALLDATALOAD PUSH1 0x1 PUSH1 0x1 PUSH1 0x40 SHL SUB DUP1 DUP3 GT ISZERO PUSH2 0x4421 JUMPI DUP5 DUP6 REVERT JUMPDEST PUSH2 0x442D DUP10 DUP4 DUP11 ADD PUSH2 0x3F5E JUMP JUMPDEST SWAP7 POP PUSH1 0x20 DUP9 ADD CALLDATALOAD SWAP2 POP PUSH2 0x443F DUP3 PUSH2 0x5367 JUMP JUMPDEST SWAP1 SWAP5 POP PUSH1 0x40 DUP8 ADD CALLDATALOAD SWAP1 DUP1 DUP3 GT ISZERO PUSH2 0x4454 JUMPI DUP5 DUP6 REVERT JUMPDEST PUSH2 0x4460 DUP10 DUP4 DUP11 ADD PUSH2 0x3E8E JUMP JUMPDEST SWAP5 POP PUSH1 0x60 DUP9 ADD CALLDATALOAD SWAP2 POP DUP1 DUP3 GT ISZERO PUSH2 0x4475 JUMPI DUP3 DUP4 REVERT JUMPDEST PUSH2 0x4481 DUP10 DUP4 DUP11 ADD PUSH2 0x3F5E JUMP JUMPDEST SWAP4 POP PUSH1 0x80 DUP9 ADD CALLDATALOAD SWAP2 POP DUP1 DUP3 GT ISZERO PUSH2 0x4496 JUMPI DUP3 DUP4 REVERT JUMPDEST POP PUSH2 0x44A3 DUP9 DUP3 DUP10 ADD PUSH2 0x3F5E JUMP JUMPDEST SWAP2 POP POP SWAP3 SWAP6 POP SWAP3 SWAP6 SWAP1 SWAP4 POP JUMP JUMPDEST PUSH1 0x0 DUP1 PUSH1 0x0 PUSH1 0x60 DUP5 DUP7 SUB SLT ISZERO PUSH2 0x44C4 JUMPI DUP1 DUP2 REVERT JUMPDEST DUP4 CALLDATALOAD PUSH1 0x1 PUSH1 0x1 PUSH1 0x40 SHL SUB DUP1 DUP3 GT ISZERO PUSH2 0x44DA JUMPI DUP3 DUP4 REVERT JUMPDEST PUSH2 0x44E6 DUP8 DUP4 DUP9 ADD PUSH2 0x3F5E JUMP JUMPDEST SWAP5 POP PUSH1 0x20 DUP7 ADD CALLDATALOAD SWAP2 POP PUSH2 0x44F8 DUP3 PUSH2 0x5367 JUMP JUMPDEST SWAP1 SWAP3 POP PUSH1 0x40 DUP6 ADD CALLDATALOAD SWAP1 DUP1 DUP3 GT ISZERO PUSH2 0x450D JUMPI DUP3 DUP4 REVERT JUMPDEST POP PUSH2 0x451A DUP7 DUP3 DUP8 ADD PUSH2 0x3F5E JUMP JUMPDEST SWAP2 POP POP SWAP3 POP SWAP3 POP SWAP3 JUMP JUMPDEST PUSH1 0x0 DUP1 PUSH1 0x0 DUP1 PUSH1 0x80 DUP6 DUP8 SUB SLT ISZERO PUSH2 0x4539 JUMPI DUP2 DUP3 REVERT JUMPDEST DUP5 CALLDATALOAD PUSH1 0x1 PUSH1 0x1 PUSH1 0x40 SHL SUB DUP1 DUP3 GT ISZERO PUSH2 0x454F JUMPI DUP4 DUP5 REVERT JUMPDEST PUSH2 0x455B DUP9 DUP4 DUP10 ADD PUSH2 0x3F5E JUMP JUMPDEST SWAP6 POP PUSH1 0x20 DUP8 ADD CALLDATALOAD SWAP2 POP PUSH2 0x456D DUP3 PUSH2 0x5367 JUMP JUMPDEST SWAP1 SWAP4 POP PUSH1 0x40 DUP7 ADD CALLDATALOAD SWAP1 DUP1 DUP3 GT ISZERO PUSH2 0x4582 JUMPI DUP4 DUP5 REVERT JUMPDEST PUSH2 0x43C6 DUP9 DUP4 DUP10 ADD PUSH2 0x3F5E JUMP JUMPDEST PUSH1 0x0 DUP1 PUSH1 0x0 PUSH1 0x60 DUP5 DUP7 SUB SLT ISZERO PUSH2 0x45A2 JUMPI DUP1 DUP2 REVERT JUMPDEST DUP4 CALLDATALOAD PUSH1 0x1 PUSH1 0x1 PUSH1 0x40 SHL SUB DUP1 DUP3 GT ISZERO PUSH2 0x45B8 JUMPI DUP3 DUP4 REVERT JUMPDEST PUSH2 0x45C4 DUP8 DUP4 DUP9 ADD PUSH2 0x3F5E JUMP JUMPDEST SWAP5 POP PUSH1 0x20 DUP7 ADD CALLDATALOAD SWAP2 POP DUP1 DUP3 GT ISZERO PUSH2 0x45D9 JUMPI DUP3 DUP4 REVERT JUMPDEST PUSH2 0x45E5 DUP8 DUP4 DUP9 ADD PUSH2 0x3E8E JUMP JUMPDEST SWAP4 POP PUSH1 0x40 DUP7 ADD CALLDATALOAD SWAP2 POP DUP1 DUP3 GT ISZERO PUSH2 0x450D JUMPI DUP3 DUP4 REVERT JUMPDEST PUSH1 0x0 DUP1 PUSH1 0x40 DUP4 DUP6 SUB SLT ISZERO PUSH2 0x460C JUMPI DUP2 DUP3 REVERT JUMPDEST DUP3 CALLDATALOAD PUSH1 0x1 PUSH1 0x1 PUSH1 0x40 SHL SUB DUP1 DUP3 GT ISZERO PUSH2 0x4622 JUMPI DUP4 DUP5 REVERT JUMPDEST PUSH2 0x462E DUP7 DUP4 DUP8 ADD PUSH2 0x3F5E JUMP JUMPDEST SWAP4 POP PUSH1 0x20 DUP6 ADD CALLDATALOAD SWAP2 POP DUP1 DUP3 GT ISZERO PUSH2 0x4643 JUMPI DUP3 DUP4 REVERT JUMPDEST POP PUSH2 0x4650 DUP6 DUP3 DUP7 ADD PUSH2 0x3F5E JUMP JUMPDEST SWAP2 POP POP SWAP3 POP SWAP3 SWAP1 POP JUMP JUMPDEST PUSH1 0x0 DUP1 PUSH1 0x0 DUP1 PUSH1 0x80 DUP6 DUP8 SUB SLT ISZERO PUSH2 0x466F JUMPI DUP2 DUP3 REVERT JUMPDEST DUP5 CALLDATALOAD PUSH1 0x1 PUSH1 0x1 PUSH1 0x40 SHL SUB DUP1 DUP3 GT ISZERO PUSH2 0x4685 JUMPI DUP4 DUP5 REVERT JUMPDEST PUSH2 0x4691 DUP9 DUP4 DUP10 ADD PUSH2 0x3F5E JUMP JUMPDEST SWAP6 POP PUSH1 0x20 DUP8 ADD CALLDATALOAD SWAP2 POP DUP1 DUP3 GT ISZERO PUSH2 0x46A6 JUMPI DUP4 DUP5 REVERT JUMPDEST PUSH2 0x46B2 DUP9 DUP4 DUP10 ADD PUSH2 0x3F5E JUMP JUMPDEST SWAP5 POP PUSH1 0x40 DUP8 ADD CALLDATALOAD SWAP2 POP DUP1 DUP3 GT ISZERO PUSH2 0x43BA JUMPI DUP4 DUP5 REVERT JUMPDEST PUSH1 0x0 DUP1 PUSH1 0x0 DUP1 PUSH1 0x0 PUSH1 0xA0 DUP7 DUP9 SUB SLT ISZERO PUSH2 0x46DE JUMPI DUP3 DUP4 REVERT JUMPDEST DUP6 CALLDATALOAD PUSH1 0x1 PUSH1 0x1 PUSH1 0x40 SHL SUB DUP1 DUP3 GT ISZERO PUSH2 0x46F4 JUMPI DUP5 DUP6 REVERT JUMPDEST PUSH2 0x4700 DUP10 DUP4 DUP11 ADD PUSH2 0x3F5E JUMP JUMPDEST SWAP7 POP PUSH1 0x20 DUP9 ADD CALLDATALOAD SWAP2 POP DUP1 DUP3 GT ISZERO PUSH2 0x4715 JUMPI DUP5 DUP6 REVERT JUMPDEST PUSH2 0x4721 DUP10 DUP4 DUP11 ADD PUSH2 0x3F5E JUMP JUMPDEST SWAP6 POP PUSH1 0x40 DUP9 ADD CALLDATALOAD SWAP2 POP DUP1 DUP3 GT ISZERO PUSH2 0x4454 JUMPI DUP5 DUP6 REVERT JUMPDEST PUSH1 0x0 DUP1 PUSH1 0x0 PUSH1 0x60 DUP5 DUP7 SUB SLT ISZERO PUSH2 0x474A JUMPI DUP1 DUP2 REVERT JUMPDEST DUP4 CALLDATALOAD PUSH1 0x1 PUSH1 0x1 PUSH1 0x40 SHL SUB DUP1 DUP3 GT ISZERO PUSH2 0x4760 JUMPI DUP3 DUP4 REVERT JUMPDEST PUSH2 0x476C DUP8 DUP4 DUP9 ADD PUSH2 0x3F5E JUMP JUMPDEST SWAP5 POP PUSH1 0x20 DUP7 ADD CALLDATALOAD SWAP2 POP DUP1 DUP3 GT ISZERO PUSH2 0x4781 JUMPI DUP3 DUP4 REVERT JUMPDEST PUSH2 0x45E5 DUP8 DUP4 DUP9 ADD PUSH2 0x3F5E JUMP JUMPDEST PUSH1 0x0 DUP1 PUSH1 0x0 DUP1 PUSH1 0x80 DUP6 DUP8 SUB SLT ISZERO PUSH2 0x47A2 JUMPI DUP2 DUP3 REVERT JUMPDEST DUP5 CALLDATALOAD PUSH1 0x1 PUSH1 0x1 PUSH1 0x40 SHL SUB DUP1 DUP3 GT ISZERO PUSH2 0x47B8 JUMPI DUP4 DUP5 REVERT JUMPDEST PUSH2 0x47C4 DUP9 DUP4 DUP10 ADD PUSH2 0x3F5E JUMP JUMPDEST SWAP6 POP PUSH1 0x20 DUP8 ADD CALLDATALOAD SWAP2 POP DUP1 DUP3 GT ISZERO PUSH2 0x47D9 JUMPI DUP4 DUP5 REVERT JUMPDEST PUSH2 0x47E5 DUP9 DUP4 DUP10 ADD PUSH2 0x3F5E JUMP JUMPDEST SWAP5 POP PUSH1 0x40 DUP8 ADD CALLDATALOAD SWAP2 POP DUP1 DUP3 GT ISZERO PUSH2 0x4582 JUMPI DUP4 DUP5 REVERT JUMPDEST PUSH1 0x0 DUP1 PUSH1 0x0 DUP1 PUSH1 0x0 PUSH1 0xA0 DUP7 DUP9 SUB SLT ISZERO PUSH2 0x4811 JUMPI DUP3 DUP4 REVERT JUMPDEST DUP6 CALLDATALOAD PUSH1 0x1 PUSH1 0x1 PUSH1 0x40 SHL SUB DUP1 DUP3 GT ISZERO PUSH2 0x4827 JUMPI DUP5 DUP6 REVERT JUMPDEST PUSH2 0x4833 DUP10 DUP4 DUP11 ADD PUSH2 0x3F5E JUMP JUMPDEST SWAP7 POP PUSH1 0x20 DUP9 ADD CALLDATALOAD SWAP2 POP DUP1 DUP3 GT ISZERO PUSH2 0x4848 JUMPI DUP5 DUP6 REVERT JUMPDEST PUSH2 0x4854 DUP10 DUP4 DUP11 ADD PUSH2 0x3F5E JUMP JUMPDEST SWAP6 POP PUSH1 0x40 DUP9 ADD CALLDATALOAD SWAP2 POP DUP1 DUP3 GT ISZERO PUSH2 0x4869 JUMPI DUP5 DUP6 REVERT JUMPDEST PUSH2 0x4460 DUP10 DUP4 DUP11 ADD PUSH2 0x3F5E JUMP JUMPDEST PUSH1 0x0 PUSH1 0x20 DUP3 DUP5 SUB SLT ISZERO PUSH2 0x4886 JUMPI DUP1 DUP2 REVERT JUMPDEST DUP2 MLOAD PUSH1 0x1 PUSH1 0x1 PUSH1 0x40 SHL SUB DUP2 GT ISZERO PUSH2 0x489B JUMPI DUP2 DUP3 REVERT JUMPDEST PUSH2 0x28D3 DUP5 DUP3 DUP6 ADD PUSH2 0x3FF9 JUMP JUMPDEST PUSH1 0x0 DUP2 MLOAD DUP1 DUP5 MSTORE PUSH1 0x20 DUP1 DUP6 ADD DUP1 DUP2 SWAP7 POP DUP3 DUP5 MUL DUP2 ADD SWAP2 POP DUP3 DUP7 ADD DUP6 JUMPDEST DUP6 DUP2 LT ISZERO PUSH2 0x48ED JUMPI DUP3 DUP5 SUB DUP10 MSTORE PUSH2 0x48DB DUP5 DUP4 MLOAD PUSH2 0x4A91 JUMP JUMPDEST SWAP9 DUP6 ADD SWAP9 SWAP4 POP SWAP1 DUP5 ADD SWAP1 PUSH1 0x1 ADD PUSH2 0x48C3 JUMP JUMPDEST POP SWAP2 SWAP8 SWAP7 POP POP POP POP POP POP POP JUMP JUMPDEST PUSH1 0x0 DUP2 MLOAD DUP1 DUP5 MSTORE PUSH1 0x20 DUP1 DUP6 ADD DUP1 DUP2 SWAP7 POP DUP3 DUP5 MUL DUP2 ADD SWAP2 POP DUP3 DUP7 ADD DUP6 JUMPDEST DUP6 DUP2 LT ISZERO PUSH2 0x48ED JUMPI DUP3 DUP5 SUB DUP10 MSTORE PUSH2 0x492E DUP5 DUP4 MLOAD PUSH2 0x4A91 JUMP JUMPDEST SWAP9 DUP6 ADD SWAP9 SWAP4 POP SWAP1 DUP5 ADD SWAP1 PUSH1 0x1 ADD PUSH2 0x4916 JUMP JUMPDEST PUSH1 0x0 DUP2 MLOAD DUP1 DUP5 MSTORE PUSH1 0x20 DUP1 DUP6 ADD DUP1 DUP2 SWAP7 POP DUP3 DUP5 MUL DUP2 ADD SWAP2 POP DUP3 DUP7 ADD DUP6 JUMPDEST DUP6 DUP2 LT ISZERO PUSH2 0x48ED JUMPI DUP3 DUP5 SUB DUP10 MSTORE DUP2 MLOAD PUSH1 0xE0 DUP2 MLOAD DUP2 DUP8 MSTORE PUSH2 0x497E DUP3 DUP9 ADD DUP3 PUSH2 0x4A91 JUMP JUMPDEST SWAP2 POP POP DUP7 DUP3 ADD MLOAD DUP7 DUP3 SUB DUP9 DUP9 ADD MSTORE PUSH2 0x4996 DUP3 DUP3 PUSH2 0x4A91 JUMP JUMPDEST SWAP2 POP POP PUSH1 0x40 DUP1 DUP4 ADD MLOAD DUP8 DUP4 SUB DUP3 DUP10 ADD MSTORE PUSH2 0x49B0 DUP4 DUP3 PUSH2 0x48A7 JUMP JUMPDEST SWAP3 POP POP POP PUSH1 0x60 DUP1 DUP4 ADD MLOAD DUP8 DUP4 SUB DUP3 DUP10 ADD MSTORE PUSH2 0x49CB DUP4 DUP3 PUSH2 0x4A91 JUMP JUMPDEST PUSH1 0x80 DUP6 DUP2 ADD MLOAD ISZERO ISZERO SWAP1 DUP11 ADD MSTORE PUSH1 0xA0 DUP1 DUP7 ADD MLOAD ISZERO ISZERO SWAP1 DUP11 ADD MSTORE PUSH1 0xC0 SWAP5 DUP6 ADD MLOAD SWAP5 SWAP1 SWAP9 ADD SWAP4 SWAP1 SWAP4 MSTORE POP POP POP SWAP8 DUP5 ADD SWAP8 SWAP1 DUP5 ADD SWAP1 PUSH1 0x1 ADD PUSH2 0x495C JUMP JUMPDEST PUSH1 0x0 DUP2 MLOAD DUP1 DUP5 MSTORE PUSH1 0x20 DUP1 DUP6 ADD DUP1 DUP2 SWAP7 POP DUP3 DUP5 MUL DUP2 ADD SWAP2 POP DUP3 DUP7 ADD DUP6 JUMPDEST DUP6 DUP2 LT ISZERO PUSH2 0x48ED JUMPI DUP3 DUP5 SUB DUP10 MSTORE DUP2 MLOAD PUSH1 0x60 DUP2 MLOAD DUP2 DUP8 MSTORE PUSH2 0x4A42 DUP3 DUP9 ADD DUP3 PUSH2 0x4A91 JUMP JUMPDEST SWAP2 POP POP DUP7 DUP3 ADD MLOAD DUP7 DUP3 SUB DUP9 DUP9 ADD MSTORE PUSH2 0x4A5A DUP3 DUP3 PUSH2 0x4A91 JUMP JUMPDEST SWAP2 POP POP PUSH1 0x40 DUP1 DUP4 ADD MLOAD SWAP3 POP DUP7 DUP3 SUB DUP2 DUP9 ADD MSTORE POP PUSH2 0x4A77 DUP2 DUP4 PUSH2 0x4A91 JUMP JUMPDEST SWAP11 DUP8 ADD SWAP11 SWAP6 POP POP POP SWAP1 DUP5 ADD SWAP1 PUSH1 0x1 ADD PUSH2 0x4A20 JUMP JUMPDEST ISZERO ISZERO SWAP1 MSTORE JUMP JUMPDEST PUSH1 0x0 DUP2 MLOAD DUP1 DUP5 MSTORE PUSH2 0x4AA9 DUP2 PUSH1 0x20 DUP7 ADD PUSH1 0x20 DUP7 ADD PUSH2 0x533B JUMP JUMPDEST PUSH1 0x1F ADD PUSH1 0x1F NOT AND SWAP3 SWAP1 SWAP3 ADD PUSH1 0x20 ADD SWAP3 SWAP2 POP POP JUMP JUMPDEST PUSH1 0x0 DUP3 MLOAD PUSH2 0x4ACF DUP2 DUP5 PUSH1 0x20 DUP8 ADD PUSH2 0x533B JUMP JUMPDEST SWAP2 SWAP1 SWAP2 ADD SWAP3 SWAP2 POP POP JUMP JUMPDEST PUSH1 0x0 DUP4 MLOAD PUSH2 0x4AEB DUP2 DUP5 PUSH1 0x20 DUP9 ADD PUSH2 0x533B JUMP JUMPDEST PUSH1 0x60 SWAP4 SWAP1 SWAP4 SHL PUSH12 0xFFFFFFFFFFFFFFFFFFFFFFFF NOT AND SWAP2 SWAP1 SWAP3 ADD SWAP1 DUP2 MSTORE PUSH1 0x14 ADD SWAP3 SWAP2 POP POP JUMP JUMPDEST PUSH1 0x0 DUP4 MLOAD PUSH2 0x4B22 DUP2 DUP5 PUSH1 0x20 DUP9 ADD PUSH2 0x533B JUMP JUMPDEST PUSH6 0x236B6579732D PUSH1 0xD0 SHL SWAP1 DUP4 ADD SWAP1 DUP2 MSTORE DUP4 MLOAD PUSH2 0x4B45 DUP2 PUSH1 0x6 DUP5 ADD PUSH1 0x20 DUP9 ADD PUSH2 0x533B JUMP JUMPDEST ADD PUSH1 0x6 ADD SWAP5 SWAP4 POP POP POP POP JUMP JUMPDEST PUSH1 0x0 PUSH1 0x20 DUP3 MSTORE PUSH2 0x1B31 PUSH1 0x20 DUP4 ADD DUP5 PUSH2 0x48FA JUMP JUMPDEST PUSH1 0x0 PUSH1 0x20 DUP3 MSTORE PUSH2 0x1B31 PUSH1 0x20 DUP4 ADD DUP5 PUSH2 0x4940 JUMP JUMPDEST PUSH1 0x0 PUSH1 0x20 DUP3 MSTORE PUSH2 0x1B31 PUSH1 0x20 DUP4 ADD DUP5 PUSH2 0x4A04 JUMP JUMPDEST SWAP1 ISZERO ISZERO DUP2 MSTORE PUSH1 0x20 ADD SWAP1 JUMP JUMPDEST SWAP2 ISZERO ISZERO DUP3 MSTORE PUSH1 0x20 DUP3 ADD MSTORE PUSH1 0x40 ADD SWAP1 JUMP JUMPDEST PUSH1 0x0 PUSH1 0x20 DUP3 MSTORE PUSH2 0x1B31 PUSH1 0x20 DUP4 ADD DUP5 PUSH2 0x4A91 JUMP JUMPDEST PUSH1 0x0 PUSH1 0x20 DUP1 DUP4 ADD DUP2 DUP5 MSTORE DUP3 DUP6 SLOAD PUSH1 0x1 DUP1 DUP3 AND PUSH1 0x0 DUP2 EQ PUSH2 0x4BDF JUMPI PUSH1 0x1 DUP2 EQ PUSH2 0x4BFD JUMPI PUSH2 0x48ED JUMP JUMPDEST PUSH1 0x2 DUP4 DIV PUSH1 0x7F AND DUP6 MSTORE PUSH1 0xFF NOT DUP4 AND PUSH1 0x40 DUP10 ADD MSTORE PUSH1 0x60 DUP9 ADD SWAP4 POP PUSH2 0x48ED JUMP JUMPDEST PUSH1 0x2 DUP4 DIV DUP1 DUP7 MSTORE PUSH2 0x4C0D DUP11 PUSH2 0x532F JUMP JUMPDEST DUP9 JUMPDEST DUP3 DUP2 LT ISZERO PUSH2 0x4C2B JUMPI DUP2 SLOAD DUP12 DUP3 ADD PUSH1 0x40 ADD MSTORE SWAP1 DUP5 ADD SWAP1 DUP9 ADD PUSH2 0x4C0F JUMP JUMPDEST DUP11 ADD PUSH1 0x40 ADD SWAP6 POP POP POP POP SWAP2 SWAP8 SWAP7 POP POP POP POP POP POP POP JUMP JUMPDEST PUSH1 0x0 PUSH1 0x40 DUP3 MSTORE PUSH2 0x4C54 PUSH1 0x40 DUP4 ADD DUP6 PUSH2 0x4A91 JUMP JUMPDEST SWAP1 POP PUSH1 0x1 DUP1 PUSH1 0xA0 SHL SUB DUP4 AND PUSH1 0x20 DUP4 ADD MSTORE SWAP4 SWAP3 POP POP POP JUMP JUMPDEST PUSH1 0x0 PUSH1 0x60 DUP3 MSTORE PUSH2 0x4C7E PUSH1 0x60 DUP4 ADD DUP7 PUSH2 0x4A91 JUMP JUMPDEST PUSH1 0x1 PUSH1 0x1 PUSH1 0xA0 SHL SUB DUP6 AND PUSH1 0x20 DUP5 ADD MSTORE DUP3 DUP2 SUB PUSH1 0x40 DUP5 ADD MSTORE PUSH2 0x4C9F DUP2 DUP6 PUSH2 0x48FA JUMP JUMPDEST SWAP7 SWAP6 POP POP POP POP POP POP JUMP JUMPDEST PUSH1 0x0 PUSH1 0x40 DUP3 MSTORE PUSH2 0x4CBC PUSH1 0x40 DUP4 ADD DUP6 PUSH2 0x4A91 JUMP JUMPDEST DUP3 DUP2 SUB PUSH1 0x20 DUP5 ADD MSTORE PUSH2 0x35AF DUP2 DUP6 PUSH2 0x4A91 JUMP JUMPDEST PUSH1 0x0 PUSH1 0x60 DUP3 MSTORE PUSH2 0x4CE1 PUSH1 0x60 DUP4 ADD DUP7 PUSH2 0x4A91 JUMP JUMPDEST DUP3 DUP2 SUB PUSH1 0x20 DUP5 ADD MSTORE PUSH2 0x4CF3 DUP2 DUP7 PUSH2 0x4A91 JUMP JUMPDEST SWAP1 POP DUP3 DUP2 SUB PUSH1 0x40 DUP5 ADD MSTORE PUSH2 0x4C9F DUP2 DUP6 PUSH2 0x48FA JUMP JUMPDEST PUSH1 0x0 PUSH1 0x80 DUP3 MSTORE PUSH2 0x4D1A PUSH1 0x80 DUP4 ADD DUP8 PUSH2 0x4A91 JUMP JUMPDEST DUP3 DUP2 SUB PUSH1 0x20 DUP5 ADD MSTORE PUSH2 0x4D2C DUP2 DUP8 PUSH2 0x4A91 JUMP JUMPDEST SWAP1 POP DUP3 DUP2 SUB PUSH1 0x40 DUP5 ADD MSTORE PUSH2 0x4D40 DUP2 DUP7 PUSH2 0x4A91 JUMP JUMPDEST SWAP1 POP DUP3 DUP2 SUB PUSH1 0x60 DUP5 ADD MSTORE PUSH2 0x4D54 DUP2 DUP6 PUSH2 0x4A91 JUMP JUMPDEST SWAP8 SWAP7 POP POP POP POP POP POP POP JUMP JUMPDEST PUSH1 0x0 PUSH1 0x60 DUP3 MSTORE PUSH2 0x4D72 PUSH1 0x60 DUP4 ADD DUP6 PUSH2 0x4A91 JUMP JUMPDEST DUP3 DUP2 SUB PUSH1 0x20 DUP5 ADD MSTORE PUSH1 0x20 DUP2 MSTORE PUSH1 0x0 DUP1 MLOAD PUSH1 0x20 PUSH2 0x539E DUP4 CODECOPY DUP2 MLOAD SWAP2 MSTORE PUSH1 0x20 DUP3 ADD MSTORE PUSH1 0x40 DUP2 ADD SWAP2 POP POP DUP3 PUSH1 0x40 DUP4 ADD MSTORE SWAP4 SWAP3 POP POP POP JUMP JUMPDEST PUSH1 0x20 DUP1 DUP3 MSTORE PUSH1 0x17 SWAP1 DUP3 ADD MSTORE PUSH32 0x636865636B20636F6E74726F6C6C6572206661696C6564000000000000000000 PUSH1 0x40 DUP3 ADD MSTORE PUSH1 0x60 ADD SWAP1 JUMP JUMPDEST PUSH1 0x20 DUP1 DUP3 MSTORE PUSH1 0x23 SWAP1 DUP3 ADD MSTORE PUSH32 0x4E65787455696E743235352C206F66667365742065786365656473206D617869 PUSH1 0x40 DUP3 ADD MSTORE PUSH3 0x6D756D PUSH1 0xE8 SHL PUSH1 0x60 DUP3 ADD MSTORE PUSH1 0x80 ADD SWAP1 JUMP JUMPDEST PUSH1 0x20 DUP1 DUP3 MSTORE PUSH1 0x23 SWAP1 DUP3 ADD MSTORE PUSH32 0x6279746573206C656E67746820646F6573206E6F74206D617463682061646472 PUSH1 0x40 DUP3 ADD MSTORE PUSH3 0x657373 PUSH1 0xE8 SHL PUSH1 0x60 DUP3 ADD MSTORE PUSH1 0x80 ADD SWAP1 JUMP JUMPDEST PUSH1 0x20 DUP1 DUP3 MSTORE PUSH1 0x10 SWAP1 DUP3 ADD MSTORE PUSH16 0x18DA1958DAC81CDA59C819985A5B1959 PUSH1 0x82 SHL PUSH1 0x40 DUP3 ADD MSTORE PUSH1 0x60 ADD SWAP1 JUMP JUMPDEST PUSH1 0x20 DUP1 DUP3 MSTORE PUSH1 0x12 SWAP1 DUP3 ADD MSTORE PUSH18 0x18DBDB9D1C9BDB1B195C88195E1A5CDD1959 PUSH1 0x72 SHL PUSH1 0x40 DUP3 ADD MSTORE PUSH1 0x60 ADD SWAP1 JUMP JUMPDEST PUSH1 0x20 DUP1 DUP3 MSTORE PUSH1 0x10 SWAP1 DUP3 ADD MSTORE PUSH16 0x636F6E74726F6C6C657220656D707479 PUSH1 0x80 SHL PUSH1 0x40 DUP3 ADD MSTORE PUSH1 0x60 ADD SWAP1 JUMP JUMPDEST PUSH1 0x20 DUP1 DUP3 MSTORE PUSH1 0x17 SWAP1 DUP3 ADD MSTORE PUSH32 0x56616C75652065786365656473207468652072616E6765000000000000000000 PUSH1 0x40 DUP3 ADD MSTORE PUSH1 0x60 ADD SWAP1 JUMP JUMPDEST PUSH1 0x20 DUP1 DUP3 MSTORE PUSH1 0x1B SWAP1 DUP3 ADD MSTORE PUSH32 0x56616C756520657863656564732075696E743235352072616E67650000000000 PUSH1 0x40 DUP3 ADD MSTORE PUSH1 0x60 ADD SWAP1 JUMP JUMPDEST PUSH1 0x20 DUP1 DUP3 MSTORE PUSH1 0x12 SWAP1 DUP3 ADD MSTORE PUSH18 0x34B63632B3B0B61031B7B73A3937B63632B9 PUSH1 0x71 SHL PUSH1 0x40 DUP3 ADD MSTORE PUSH1 0x60 ADD SWAP1 JUMP JUMPDEST PUSH1 0x20 DUP1 DUP3 MSTORE PUSH1 0xF SWAP1 DUP3 ADD MSTORE PUSH15 0x191A590819195858DD1A5D985D1959 PUSH1 0x8A SHL PUSH1 0x40 DUP3 ADD MSTORE PUSH1 0x60 ADD SWAP1 JUMP JUMPDEST PUSH1 0x20 DUP1 DUP3 MSTORE PUSH1 0x14 SWAP1 DUP3 ADD MSTORE PUSH20 0x18DBDB9D1C9BDB1B195C881B9BDD08195E1A5CDD PUSH1 0x62 SHL PUSH1 0x40 DUP3 ADD MSTORE PUSH1 0x60 ADD SWAP1 JUMP JUMPDEST PUSH1 0x20 DUP1 DUP3 MSTORE PUSH1 0x11 SWAP1 DUP3 ADD MSTORE PUSH17 0x1CD95C9D9A58D9481B9BDD08195E1A5CDD PUSH1 0x7A SHL PUSH1 0x40 DUP3 ADD MSTORE PUSH1 0x60 ADD SWAP1 JUMP JUMPDEST PUSH1 0x20 DUP1 DUP3 MSTORE PUSH1 0xF SWAP1 DUP3 ADD MSTORE PUSH15 0x1CD95C9D9A58D948195E1A5CDD1959 PUSH1 0x8A SHL PUSH1 0x40 DUP3 ADD MSTORE PUSH1 0x60 ADD SWAP1 JUMP JUMPDEST PUSH1 0x0 PUSH1 0x20 DUP3 MSTORE DUP3 MLOAD PUSH1 0xE0 PUSH1 0x20 DUP5 ADD MSTORE PUSH2 0x5045 PUSH2 0x100 DUP5 ADD DUP3 PUSH2 0x48A7 JUMP JUMPDEST SWAP1 POP PUSH1 0x20 DUP5 ADD MLOAD PUSH1 0x1F NOT DUP1 DUP6 DUP5 SUB ADD PUSH1 0x40 DUP7 ADD MSTORE PUSH2 0x5063 DUP4 DUP4 PUSH2 0x4A91 JUMP JUMPDEST SWAP3 POP PUSH1 0x40 DUP7 ADD MLOAD SWAP2 POP DUP1 DUP6 DUP5 SUB ADD PUSH1 0x60 DUP7 ADD MSTORE PUSH2 0x5080 DUP4 DUP4 PUSH2 0x4940 JUMP JUMPDEST SWAP3 POP PUSH1 0x60 DUP7 ADD MLOAD SWAP2 POP DUP1 DUP6 DUP5 SUB ADD PUSH1 0x80 DUP7 ADD MSTORE PUSH2 0x509D DUP4 DUP4 PUSH2 0x4940 JUMP JUMPDEST SWAP3 POP PUSH1 0x80 DUP7 ADD MLOAD SWAP2 POP DUP1 DUP6 DUP5 SUB ADD PUSH1 0xA0 DUP7 ADD MSTORE PUSH2 0x50BA DUP4 DUP4 PUSH2 0x48A7 JUMP JUMPDEST SWAP3 POP PUSH1 0xA0 DUP7 ADD MLOAD SWAP2 POP DUP1 DUP6 DUP5 SUB ADD PUSH1 0xC0 DUP7 ADD MSTORE POP PUSH2 0x50D8 DUP3 DUP3 PUSH2 0x4A04 JUMP JUMPDEST SWAP2 POP POP PUSH1 0xC0 DUP5 ADD MLOAD PUSH1 0xE0 DUP5 ADD MSTORE DUP1 SWAP2 POP POP SWAP3 SWAP2 POP POP JUMP JUMPDEST PUSH1 0x0 PUSH1 0x20 DUP3 MSTORE DUP3 MLOAD PUSH1 0x60 PUSH1 0x20 DUP5 ADD MSTORE PUSH2 0x510B PUSH1 0x80 DUP5 ADD DUP3 PUSH2 0x4A91 JUMP JUMPDEST SWAP1 POP PUSH1 0x20 DUP5 ADD MLOAD PUSH1 0x1F NOT DUP1 DUP6 DUP5 SUB ADD PUSH1 0x40 DUP7 ADD MSTORE PUSH2 0x5129 DUP4 DUP4 PUSH2 0x4A91 JUMP JUMPDEST SWAP3 POP PUSH1 0x40 DUP7 ADD MLOAD SWAP2 POP DUP1 DUP6 DUP5 SUB ADD PUSH1 0x60 DUP7 ADD MSTORE POP PUSH2 0x35AF DUP3 DUP3 PUSH2 0x4A91 JUMP JUMPDEST SWAP1 DUP2 MSTORE PUSH1 0x20 ADD SWAP1 JUMP JUMPDEST SWAP1 DUP2 MSTORE PUSH1 0x40 PUSH1 0x20 DUP3 ADD DUP2 SWAP1 MSTORE PUSH1 0x1C SWAP1 DUP3 ADD MSTORE PUSH32 0x68747470733A2F2F7777772E77332E6F72672F6E732F6469642F763100000000 PUSH1 0x60 DUP3 ADD MSTORE PUSH1 0x80 ADD SWAP1 JUMP JUMPDEST PUSH1 0x0 DUP4 DUP3 MSTORE PUSH1 0x20 PUSH1 0x40 DUP2 DUP5 ADD MSTORE DUP4 MLOAD PUSH1 0xE0 PUSH1 0x40 DUP6 ADD MSTORE PUSH2 0x51B2 PUSH2 0x120 DUP6 ADD DUP3 PUSH2 0x4A91 JUMP JUMPDEST SWAP1 POP DUP2 DUP6 ADD MLOAD PUSH1 0x3F NOT DUP1 DUP7 DUP5 SUB ADD PUSH1 0x60 DUP8 ADD MSTORE PUSH2 0x51CF DUP4 DUP4 PUSH2 0x4A91 JUMP JUMPDEST PUSH1 0x40 DUP9 ADD MLOAD DUP8 DUP3 SUB DUP4 ADD PUSH1 0x80 DUP10 ADD MSTORE DUP1 MLOAD DUP1 DUP4 MSTORE SWAP2 SWAP5 POP DUP6 ADD SWAP3 POP DUP5 DUP5 ADD SWAP1 DUP6 DUP2 MUL DUP6 ADD DUP7 ADD DUP8 JUMPDEST DUP3 DUP2 LT ISZERO PUSH2 0x5225 JUMPI PUSH1 0x1F NOT DUP8 DUP4 SUB ADD DUP5 MSTORE PUSH2 0x5213 DUP3 DUP8 MLOAD PUSH2 0x4A91 JUMP JUMPDEST SWAP6 DUP9 ADD SWAP6 SWAP4 DUP9 ADD SWAP4 SWAP2 POP PUSH1 0x1 ADD PUSH2 0x51F7 JUMP JUMPDEST POP PUSH1 0x60 DUP11 ADD MLOAD SWAP7 POP DUP4 DUP10 DUP3 SUB ADD PUSH1 0xA0 DUP11 ADD MSTORE PUSH2 0x5241 DUP2 DUP9 PUSH2 0x4A91 JUMP JUMPDEST SWAP7 POP POP POP POP POP POP POP PUSH1 0x80 DUP5 ADD MLOAD PUSH2 0x525B PUSH1 0xC0 DUP6 ADD DUP3 PUSH2 0x4A8B JUMP JUMPDEST POP PUSH1 0xA0 DUP5 ADD MLOAD PUSH2 0x526E PUSH1 0xE0 DUP6 ADD DUP3 PUSH2 0x4A8B JUMP JUMPDEST POP PUSH1 0xC0 DUP5 ADD MLOAD PUSH2 0x100 DUP5 ADD MSTORE DUP1 SWAP2 POP POP SWAP4 SWAP3 POP POP POP JUMP JUMPDEST PUSH1 0x0 DUP4 DUP3 MSTORE PUSH1 0x40 PUSH1 0x20 DUP4 ADD MSTORE PUSH2 0x28D3 PUSH1 0x40 DUP4 ADD DUP5 PUSH2 0x4A91 JUMP JUMPDEST PUSH1 0x0 DUP5 DUP3 MSTORE PUSH1 0x60 PUSH1 0x20 DUP4 ADD MSTORE PUSH2 0x52B7 PUSH1 0x60 DUP4 ADD DUP6 PUSH2 0x4A91 JUMP JUMPDEST SWAP1 POP DUP3 PUSH1 0x40 DUP4 ADD MSTORE SWAP5 SWAP4 POP POP POP POP JUMP JUMPDEST PUSH1 0x40 MLOAD DUP2 DUP2 ADD PUSH1 0x1 PUSH1 0x1 PUSH1 0x40 SHL SUB DUP2 GT DUP3 DUP3 LT OR ISZERO PUSH2 0x52E5 JUMPI PUSH1 0x0 DUP1 REVERT JUMPDEST PUSH1 0x40 MSTORE SWAP2 SWAP1 POP JUMP JUMPDEST PUSH1 0x0 PUSH1 0x1 PUSH1 0x1 PUSH1 0x40 SHL SUB DUP3 GT ISZERO PUSH2 0x5302 JUMPI DUP1 DUP2 REVERT JUMPDEST POP PUSH1 0x20 SWAP1 DUP2 MUL ADD SWAP1 JUMP JUMPDEST PUSH1 0x0 PUSH1 0x1 PUSH1 0x1 PUSH1 0x40 SHL SUB DUP3 GT ISZERO PUSH2 0x5321 JUMPI DUP1 DUP2 REVERT JUMPDEST POP PUSH1 0x1F ADD PUSH1 0x1F NOT AND PUSH1 0x20 ADD SWAP1 JUMP JUMPDEST PUSH1 0x0 SWAP1 DUP2 MSTORE PUSH1 0x20 SWAP1 KECCAK256 SWAP1 JUMP JUMPDEST PUSH1 0x0 JUMPDEST DUP4 DUP2 LT ISZERO PUSH2 0x5356 JUMPI DUP2 DUP2 ADD MLOAD DUP4 DUP3 ADD MSTORE PUSH1 0x20 ADD PUSH2 0x533E JUMP JUMPDEST DUP4 DUP2 GT ISZERO PUSH2 0x12D7 JUMPI POP POP PUSH1 0x0 SWAP2 ADD MSTORE JUMP JUMPDEST PUSH1 0x1 PUSH1 0x1 PUSH1 0xA0 SHL SUB DUP2 AND DUP2 EQ PUSH2 0x3D52 JUMPI PUSH1 0x0 DUP1 REVERT INVALID GASLIMIT PUSH4 0x64736153 PUSH6 0x63703235366B BALANCE JUMP PUSH6 0x726966696361 PUSH21 0x696F6E4B6579323031394563647361536563703235 CALLDATASIZE PUSH12 0x315265636F766572794D6574 PUSH9 0x6F6432303230A26469 PUSH17 0x66735822122021017516DA2425D6096736 GAS 0x4E 0xC7 0xF8 CREATE2 PUSH21 0xBD33F2B0C931642AFE275420B572BB64736F6C6343 STOP MOD 0xC STOP CALLER "},"methodIdentifiers":{"addAddr(string,address,string[],bytes)":"53864503","addContext(string,string[],bytes)":"65cbf7c3","addController(string,string,bytes)":"0ec0865b","addKey(string,bytes,string[],bytes)":"52c07c56","addNewAuthAddr(string,address,string[],bytes)":"8da5588c","addNewAuthAddrByController(string,address,string[],string,bytes)":"b0abb199","addNewAuthKey(string,bytes,string[],bytes)":"002b4c82","addNewAuthKeyByController(string,bytes,string[],string,bytes)":"db7d1f04","addService(string,string,string,string,bytes)":"7d1c754f","data(string)":"04f6748c","deactivateAddr(string,address,bytes)":"d558cdea","deactivateAuthAddr(string,address,bytes)":"6747e9bc","deactivateAuthAddrByController(string,address,string,bytes)":"88209cf3","deactivateAuthKey(string,bytes,bytes)":"958607b8","deactivateAuthKeyByController(string,bytes,string,bytes)":"9053ad03","deactivateID(string,bytes)":"ec02a3b5","deactivateKey(string,bytes,bytes)":"793f66c9","didStatus(string)":"af4e1238","getAllAuthKey(string)":"d22eafd9","getAllController(string)":"2e35d7ca","getAllPubKey(string)":"1f7c7a9d","getAllService(string)":"f8d8f4ad","getContext(string)":"53949d4f","getDocument(string)":"7ccb6a64","getUpdatedTime(string)":"ba964281","removeContext(string,string[],bytes)":"8095627f","removeController(string,string,bytes)":"244d9153","removeService(string,string,bytes)":"2e97b8d4","setAuthAddr(string,address,bytes)":"398a85ec","setAuthAddrByController(string,address,string,bytes)":"6e5f3183","setAuthKey(string,bytes,bytes)":"fa1bac72","setAuthKeyByController(string,bytes,string,bytes)":"9033d99a","updateService(string,string,string,string,bytes)":"667f5fa3","verifyController(string,string,bytes)":"8ba6652c","verifySignature(string,bytes)":"3634791e"}}}}}