{"contracts/KeyUtils.sol":{"KeyUtils":{"abi":[{"inputs":[{"internalType":"string","name":"did","type":"string"}],"name":"genContextKey","outputs":[{"internalType":"string","name":"","type":"string"}],"stateMutability":"pure","type":"function"},{"inputs":[{"internalType":"string","name":"ctx","type":"string"}],"name":"genContextSecondKey","outputs":[{"internalType":"bytes32","name":"","type":"bytes32"}],"stateMutability":"pure","type":"function"},{"inputs":[{"internalType":"string","name":"did","type":"string"}],"name":"genControllerKey","outputs":[{"internalType":"string","name":"","type":"string"}],"stateMutability":"pure","type":"function"},{"inputs":[{"internalType":"string","name":"controller","type":"string"}],"name":"genControllerSecondKey","outputs":[{"internalType":"bytes32","name":"","type":"bytes32"}],"stateMutability":"pure","type":"function"},{"inputs":[{"internalType":"string","name":"did","type":"string"}],"name":"genPubKeyListKey","outputs":[{"internalType":"string","name":"","type":"string"}],"stateMutability":"pure","type":"function"},{"inputs":[{"internalType":"bytes","name":"pubKey","type":"bytes"}],"name":"genPubKeyListSecondKey","outputs":[{"internalType":"bytes32","name":"","type":"bytes32"}],"stateMutability":"pure","type":"function"},{"inputs":[{"internalType":"string","name":"did","type":"string"}],"name":"genServiceKey","outputs":[{"internalType":"string","name":"","type":"string"}],"stateMutability":"pure","type":"function"},{"inputs":[{"internalType":"string","name":"serviceId","type":"string"}],"name":"genServiceSecondKey","outputs":[{"internalType":"bytes32","name":"","type":"bytes32"}],"stateMutability":"pure","type":"function"},{"inputs":[{"internalType":"string","name":"did","type":"string"}],"name":"genUpdateTimeKey","outputs":[{"internalType":"string","name":"","type":"string"}],"stateMutability":"pure","type":"function"},{"inputs":[],"name":"genUpdateTimeSecondKey","outputs":[{"internalType":"bytes32","name":"","type":"bytes32"}],"stateMutability":"pure","type":"function"}],"evm":{"bytecode":{"linkReferences":{},"object":"610429610026600b82828239805160001a60731461001957fe5b30600052607381538281f3fe73000000000000000000000000000000000000000030146080604052600436106100a85760003560e01c80639eee0a89116100705780639eee0a891461011c578063b726099b146100fc578063e97b8b901461012f578063eb82484414610137578063f4d9407f146100fc576100a8565b8063170b9254146100ad5780631badc8de146100d65780631eae56fe146100e9578063229cbc87146100fc5780634acf2705146100fc575b600080fd5b6100c06100bb36600461026c565b61014a565b6040516100cd9190610390565b60405180910390f35b6100c06100e436600461026c565b610173565b6100c06100f736600461026c565b610186565b61010f61010a36600461026c565b610199565b6040516100cd9190610387565b6100c061012a36600461026c565b6101a4565b61010f6101b7565b6100c061014536600461026c565b6101db565b60608160405160200161015d919061032c565b6040516020818303038152906040529050919050565b60608160405160200161015d91906102a7565b60608160405160200161015d91906102d3565b805160209091012090565b60608160405160200161015d9190610359565b7fc82895c0c3ceabd782a01504a94c9aacea049cda0758a362503092064cb5015f90565b60608160405160200161015d9190610301565b600082601f8301126101fe578081fd5b813567ffffffffffffffff80821115610215578283fd5b604051601f8301601f191681016020018281118282101715610235578485fd5b60405282815292508284830160200186101561025057600080fd5b8260208601602083013760006020848301015250505092915050565b60006020828403121561027d578081fd5b813567ffffffffffffffff811115610293578182fd5b61029f848285016101ee565b949350505050565b600082516102b98184602087016103c3565b671018dbdb9d195e1d60c21b920191825250600801919050565b600082516102e58184602087016103c3565b6931b7b73a3937b63632b960b11b920191825250600a01919050565b600082516103138184602087016103c3565b667365727669636560c81b920191825250600701919050565b6000825161033e8184602087016103c3565b687075626c69634b657960b81b920191825250600901919050565b6000825161036b8184602087016103c3565b6975706461746554696d6560b01b920191825250600a01919050565b90815260200190565b60006020825282518060208401526103af8160408501602087016103c3565b601f01601f19169190910160400192915050565b60005b838110156103de5781810151838201526020016103c6565b838111156103ed576000848401525b5050505056fea264697066735822122094dd33d2139224f4f4726e09e903931080ec9548384e44cbbbfeb12bcb9d10a564736f6c634300060c0033","opcodes":"PUSH2 0x429 PUSH2 0x26 PUSH1 0xB DUP3 DUP3 DUP3 CODECOPY DUP1 MLOAD PUSH1 0x0 BYTE PUSH1 0x73 EQ PUSH2 0x19 JUMPI INVALID JUMPDEST ADDRESS PUSH1 0x0 MSTORE PUSH1 0x73 DUP2 MSTORE8 DUP3 DUP2 RETURN INVALID PUSH20 0x0 ADDRESS EQ PUSH1 0x80 PUSH1 0x40 MSTORE PUSH1 0x4 CALLDATASIZE LT PUSH2 0xA8 JUMPI PUSH1 0x0 CALLDATALOAD PUSH1 0xE0 SHR DUP1 PUSH4 0x9EEE0A89 GT PUSH2 0x70 JUMPI DUP1 PUSH4 0x9EEE0A89 EQ PUSH2 0x11C JUMPI DUP1 PUSH4 0xB726099B EQ PUSH2 0xFC JUMPI DUP1 PUSH4 0xE97B8B90 EQ PUSH2 0x12F JUMPI DUP1 PUSH4 0xEB824844 EQ PUSH2 0x137 JUMPI DUP1 PUSH4 0xF4D9407F EQ PUSH2 0xFC JUMPI PUSH2 0xA8 JUMP JUMPDEST DUP1 PUSH4 0x170B9254 EQ PUSH2 0xAD JUMPI DUP1 PUSH4 0x1BADC8DE EQ PUSH2 0xD6 JUMPI DUP1 PUSH4 0x1EAE56FE EQ PUSH2 0xE9 JUMPI DUP1 PUSH4 0x229CBC87 EQ PUSH2 0xFC JUMPI DUP1 PUSH4 0x4ACF2705 EQ PUSH2 0xFC JUMPI JUMPDEST PUSH1 0x0 DUP1 REVERT JUMPDEST PUSH2 0xC0 PUSH2 0xBB CALLDATASIZE PUSH1 0x4 PUSH2 0x26C JUMP JUMPDEST PUSH2 0x14A JUMP JUMPDEST PUSH1 0x40 MLOAD PUSH2 0xCD SWAP2 SWAP1 PUSH2 0x390 JUMP JUMPDEST PUSH1 0x40 MLOAD DUP1 SWAP2 SUB SWAP1 RETURN JUMPDEST PUSH2 0xC0 PUSH2 0xE4 CALLDATASIZE PUSH1 0x4 PUSH2 0x26C JUMP JUMPDEST PUSH2 0x173 JUMP JUMPDEST PUSH2 0xC0 PUSH2 0xF7 CALLDATASIZE PUSH1 0x4 PUSH2 0x26C JUMP JUMPDEST PUSH2 0x186 JUMP JUMPDEST PUSH2 0x10F PUSH2 0x10A CALLDATASIZE PUSH1 0x4 PUSH2 0x26C JUMP JUMPDEST PUSH2 0x199 JUMP JUMPDEST PUSH1 0x40 MLOAD PUSH2 0xCD SWAP2 SWAP1 PUSH2 0x387 JUMP JUMPDEST PUSH2 0xC0 PUSH2 0x12A CALLDATASIZE PUSH1 0x4 PUSH2 0x26C JUMP JUMPDEST PUSH2 0x1A4 JUMP JUMPDEST PUSH2 0x10F PUSH2 0x1B7 JUMP JUMPDEST PUSH2 0xC0 PUSH2 0x145 CALLDATASIZE PUSH1 0x4 PUSH2 0x26C JUMP JUMPDEST PUSH2 0x1DB JUMP JUMPDEST PUSH1 0x60 DUP2 PUSH1 0x40 MLOAD PUSH1 0x20 ADD PUSH2 0x15D SWAP2 SWAP1 PUSH2 0x32C JUMP JUMPDEST PUSH1 0x40 MLOAD PUSH1 0x20 DUP2 DUP4 SUB SUB DUP2 MSTORE SWAP1 PUSH1 0x40 MSTORE SWAP1 POP SWAP2 SWAP1 POP JUMP JUMPDEST PUSH1 0x60 DUP2 PUSH1 0x40 MLOAD PUSH1 0x20 ADD PUSH2 0x15D SWAP2 SWAP1 PUSH2 0x2A7 JUMP JUMPDEST PUSH1 0x60 DUP2 PUSH1 0x40 MLOAD PUSH1 0x20 ADD PUSH2 0x15D SWAP2 SWAP1 PUSH2 0x2D3 JUMP JUMPDEST DUP1 MLOAD PUSH1 0x20 SWAP1 SWAP2 ADD KECCAK256 SWAP1 JUMP JUMPDEST PUSH1 0x60 DUP2 PUSH1 0x40 MLOAD PUSH1 0x20 ADD PUSH2 0x15D SWAP2 SWAP1 PUSH2 0x359 JUMP JUMPDEST PUSH32 0xC82895C0C3CEABD782A01504A94C9AACEA049CDA0758A362503092064CB5015F SWAP1 JUMP JUMPDEST PUSH1 0x60 DUP2 PUSH1 0x40 MLOAD PUSH1 0x20 ADD PUSH2 0x15D SWAP2 SWAP1 PUSH2 0x301 JUMP JUMPDEST PUSH1 0x0 DUP3 PUSH1 0x1F DUP4 ADD SLT PUSH2 0x1FE JUMPI DUP1 DUP2 REVERT JUMPDEST DUP2 CALLDATALOAD PUSH8 0xFFFFFFFFFFFFFFFF DUP1 DUP3 GT ISZERO PUSH2 0x215 JUMPI DUP3 DUP4 REVERT JUMPDEST PUSH1 0x40 MLOAD PUSH1 0x1F DUP4 ADD PUSH1 0x1F NOT AND DUP2 ADD PUSH1 0x20 ADD DUP3 DUP2 GT DUP3 DUP3 LT OR ISZERO PUSH2 0x235 JUMPI DUP5 DUP6 REVERT JUMPDEST PUSH1 0x40 MSTORE DUP3 DUP2 MSTORE SWAP3 POP DUP3 DUP5 DUP4 ADD PUSH1 0x20 ADD DUP7 LT ISZERO PUSH2 0x250 JUMPI PUSH1 0x0 DUP1 REVERT JUMPDEST DUP3 PUSH1 0x20 DUP7 ADD PUSH1 0x20 DUP4 ADD CALLDATACOPY PUSH1 0x0 PUSH1 0x20 DUP5 DUP4 ADD ADD MSTORE POP POP POP SWAP3 SWAP2 POP POP JUMP JUMPDEST PUSH1 0x0 PUSH1 0x20 DUP3 DUP5 SUB SLT ISZERO PUSH2 0x27D JUMPI DUP1 DUP2 REVERT JUMPDEST DUP2 CALLDATALOAD PUSH8 0xFFFFFFFFFFFFFFFF DUP2 GT ISZERO PUSH2 0x293 JUMPI DUP2 DUP3 REVERT JUMPDEST PUSH2 0x29F DUP5 DUP3 DUP6 ADD PUSH2 0x1EE JUMP JUMPDEST SWAP5 SWAP4 POP POP POP POP JUMP JUMPDEST PUSH1 0x0 DUP3 MLOAD PUSH2 0x2B9 DUP2 DUP5 PUSH1 0x20 DUP8 ADD PUSH2 0x3C3 JUMP JUMPDEST PUSH8 0x1018DBDB9D195E1D PUSH1 0xC2 SHL SWAP3 ADD SWAP2 DUP3 MSTORE POP PUSH1 0x8 ADD SWAP2 SWAP1 POP JUMP JUMPDEST PUSH1 0x0 DUP3 MLOAD PUSH2 0x2E5 DUP2 DUP5 PUSH1 0x20 DUP8 ADD PUSH2 0x3C3 JUMP JUMPDEST PUSH10 0x31B7B73A3937B63632B9 PUSH1 0xB1 SHL SWAP3 ADD SWAP2 DUP3 MSTORE POP PUSH1 0xA ADD SWAP2 SWAP1 POP JUMP JUMPDEST PUSH1 0x0 DUP3 MLOAD PUSH2 0x313 DUP2 DUP5 PUSH1 0x20 DUP8 ADD PUSH2 0x3C3 JUMP JUMPDEST PUSH7 0x73657276696365 PUSH1 0xC8 SHL SWAP3 ADD SWAP2 DUP3 MSTORE POP PUSH1 0x7 ADD SWAP2 SWAP1 POP JUMP JUMPDEST PUSH1 0x0 DUP3 MLOAD PUSH2 0x33E DUP2 DUP5 PUSH1 0x20 DUP8 ADD PUSH2 0x3C3 JUMP JUMPDEST PUSH9 0x7075626C69634B6579 PUSH1 0xB8 SHL SWAP3 ADD SWAP2 DUP3 MSTORE POP PUSH1 0x9 ADD SWAP2 SWAP1 POP JUMP JUMPDEST PUSH1 0x0 DUP3 MLOAD PUSH2 0x36B DUP2 DUP5 PUSH1 0x20 DUP8 ADD PUSH2 0x3C3 JUMP JUMPDEST PUSH10 0x75706461746554696D65 PUSH1 0xB0 SHL SWAP3 ADD SWAP2 DUP3 MSTORE POP PUSH1 0xA ADD SWAP2 SWAP1 POP JUMP JUMPDEST SWAP1 DUP2 MSTORE PUSH1 0x20 ADD SWAP1 JUMP JUMPDEST PUSH1 0x0 PUSH1 0x20 DUP3 MSTORE DUP3 MLOAD DUP1 PUSH1 0x20 DUP5 ADD MSTORE PUSH2 0x3AF DUP2 PUSH1 0x40 DUP6 ADD PUSH1 0x20 DUP8 ADD PUSH2 0x3C3 JUMP JUMPDEST PUSH1 0x1F ADD PUSH1 0x1F NOT AND SWAP2 SWAP1 SWAP2 ADD PUSH1 0x40 ADD SWAP3 SWAP2 POP POP JUMP JUMPDEST PUSH1 0x0 JUMPDEST DUP4 DUP2 LT ISZERO PUSH2 0x3DE JUMPI DUP2 DUP2 ADD MLOAD DUP4 DUP3 ADD MSTORE PUSH1 0x20 ADD PUSH2 0x3C6 JUMP JUMPDEST DUP4 DUP2 GT ISZERO PUSH2 0x3ED JUMPI PUSH1 0x0 DUP5 DUP5 ADD MSTORE JUMPDEST POP POP POP POP JUMP INVALID LOG2 PUSH5 0x6970667358 0x22 SLT KECCAK256 SWAP5 0xDD CALLER 0xD2 SGT SWAP3 0x24 DELEGATECALL DELEGATECALL PUSH19 0x6E09E903931080EC9548384E44CBBBFEB12BCB SWAP14 LT 0xA5 PUSH5 0x736F6C6343 STOP MOD 0xC STOP CALLER "},"methodIdentifiers":{"genContextKey(string)":"1badc8de","genContextSecondKey(string)":"229cbc87","genControllerKey(string)":"1eae56fe","genControllerSecondKey(string)":"f4d9407f","genPubKeyListKey(string)":"170b9254","genPubKeyListSecondKey(bytes)":"b726099b","genServiceKey(string)":"eb824844","genServiceSecondKey(string)":"4acf2705","genUpdateTimeKey(string)":"9eee0a89","genUpdateTimeSecondKey()":"e97b8b90"}}}}}