{
  "_format": "hh-sol-artifact-1",
  "contractName": "DIDContractV2",
  "sourceName": "contracts/MixinDidV2.sol",
  "abi": [
    {
      "inputs": [],
      "stateMutability": "nonpayable",
      "type": "constructor"
    },
    {
      "anonymous": false,
      "inputs": [
        {
          "indexed": false,
          "internalType": "string",
          "name": "did",
          "type": "string"
        },
        {
          "indexed": false,
          "internalType": "address",
          "name": "addr",
          "type": "address"
        },
        {
          "indexed": false,
          "internalType": "string[]",
          "name": "controller",
          "type": "string[]"
        }
      ],
      "name": "AddAddr",
      "type": "event"
    },
    {
      "anonymous": false,
      "inputs": [
        {
          "indexed": false,
          "internalType": "string",
          "name": "did",
          "type": "string"
        },
        {
          "indexed": false,
          "internalType": "string",
          "name": "context",
          "type": "string"
        }
      ],
      "name": "AddContext",
      "type": "event"
    },
    {
      "anonymous": false,
      "inputs": [
        {
          "indexed": false,
          "internalType": "string",
          "name": "did",
          "type": "string"
        },
        {
          "indexed": false,
          "internalType": "string",
          "name": "controller",
          "type": "string"
        }
      ],
      "name": "AddController",
      "type": "event"
    },
    {
      "anonymous": false,
      "inputs": [
        {
          "indexed": false,
          "internalType": "string",
          "name": "did",
          "type": "string"
        },
        {
          "indexed": false,
          "internalType": "bytes",
          "name": "pubKey",
          "type": "bytes"
        },
        {
          "indexed": false,
          "internalType": "string[]",
          "name": "controller",
          "type": "string[]"
        }
      ],
      "name": "AddKey",
      "type": "event"
    },
    {
      "anonymous": false,
      "inputs": [
        {
          "indexed": false,
          "internalType": "string",
          "name": "did",
          "type": "string"
        },
        {
          "indexed": false,
          "internalType": "address",
          "name": "addr",
          "type": "address"
        },
        {
          "indexed": false,
          "internalType": "string[]",
          "name": "controller",
          "type": "string[]"
        }
      ],
      "name": "AddNewAuthAddr",
      "type": "event"
    },
    {
      "anonymous": false,
      "inputs": [
        {
          "indexed": false,
          "internalType": "string",
          "name": "did",
          "type": "string"
        },
        {
          "indexed": false,
          "internalType": "bytes",
          "name": "pubKey",
          "type": "bytes"
        },
        {
          "indexed": false,
          "internalType": "string[]",
          "name": "controller",
          "type": "string[]"
        }
      ],
      "name": "AddNewAuthKey",
      "type": "event"
    },
    {
      "anonymous": false,
      "inputs": [
        {
          "indexed": false,
          "internalType": "string",
          "name": "did",
          "type": "string"
        },
        {
          "indexed": false,
          "internalType": "string",
          "name": "serviceId",
          "type": "string"
        },
        {
          "indexed": false,
          "internalType": "string",
          "name": "serviceType",
          "type": "string"
        },
        {
          "indexed": false,
          "internalType": "string",
          "name": "serviceEndpoint",
          "type": "string"
        }
      ],
      "name": "AddService",
      "type": "event"
    },
    {
      "anonymous": false,
      "inputs": [
        {
          "indexed": false,
          "internalType": "string",
          "name": "did",
          "type": "string"
        }
      ],
      "name": "Deactivate",
      "type": "event"
    },
    {
      "anonymous": false,
      "inputs": [
        {
          "indexed": false,
          "internalType": "string",
          "name": "did",
          "type": "string"
        },
        {
          "indexed": false,
          "internalType": "address",
          "name": "addr",
          "type": "address"
        }
      ],
      "name": "DeactivateAddr",
      "type": "event"
    },
    {
      "anonymous": false,
      "inputs": [
        {
          "indexed": false,
          "internalType": "string",
          "name": "did",
          "type": "string"
        },
        {
          "indexed": false,
          "internalType": "address",
          "name": "addr",
          "type": "address"
        }
      ],
      "name": "DeactivateAuthAddr",
      "type": "event"
    },
    {
      "anonymous": false,
      "inputs": [
        {
          "indexed": false,
          "internalType": "string",
          "name": "did",
          "type": "string"
        },
        {
          "indexed": false,
          "internalType": "bytes",
          "name": "pubKey",
          "type": "bytes"
        }
      ],
      "name": "DeactivateAuthKey",
      "type": "event"
    },
    {
      "anonymous": false,
      "inputs": [
        {
          "indexed": false,
          "internalType": "string",
          "name": "did",
          "type": "string"
        },
        {
          "indexed": false,
          "internalType": "bytes",
          "name": "pubKey",
          "type": "bytes"
        }
      ],
      "name": "DeactivateKey",
      "type": "event"
    },
    {
      "anonymous": false,
      "inputs": [
        {
          "indexed": false,
          "internalType": "string",
          "name": "did",
          "type": "string"
        },
        {
          "indexed": false,
          "internalType": "string",
          "name": "context",
          "type": "string"
        }
      ],
      "name": "RemoveContext",
      "type": "event"
    },
    {
      "anonymous": false,
      "inputs": [
        {
          "indexed": false,
          "internalType": "string",
          "name": "did",
          "type": "string"
        },
        {
          "indexed": false,
          "internalType": "string",
          "name": "controller",
          "type": "string"
        }
      ],
      "name": "RemoveController",
      "type": "event"
    },
    {
      "anonymous": false,
      "inputs": [
        {
          "indexed": false,
          "internalType": "string",
          "name": "did",
          "type": "string"
        },
        {
          "indexed": false,
          "internalType": "string",
          "name": "serviceId",
          "type": "string"
        }
      ],
      "name": "RemoveService",
      "type": "event"
    },
    {
      "anonymous": false,
      "inputs": [
        {
          "indexed": false,
          "internalType": "string",
          "name": "did",
          "type": "string"
        },
        {
          "indexed": false,
          "internalType": "address",
          "name": "addr",
          "type": "address"
        }
      ],
      "name": "SetAuthAddr",
      "type": "event"
    },
    {
      "anonymous": false,
      "inputs": [
        {
          "indexed": false,
          "internalType": "string",
          "name": "did",
          "type": "string"
        },
        {
          "indexed": false,
          "internalType": "bytes",
          "name": "pubKey",
          "type": "bytes"
        }
      ],
      "name": "SetAuthKey",
      "type": "event"
    },
    {
      "anonymous": false,
      "inputs": [
        {
          "indexed": false,
          "internalType": "string",
          "name": "did",
          "type": "string"
        },
        {
          "indexed": false,
          "internalType": "string",
          "name": "serviceId",
          "type": "string"
        },
        {
          "indexed": false,
          "internalType": "string",
          "name": "serviceType",
          "type": "string"
        },
        {
          "indexed": false,
          "internalType": "string",
          "name": "serviceEndpoint",
          "type": "string"
        }
      ],
      "name": "UpdateService",
      "type": "event"
    },
    {
      "inputs": [
        {
          "internalType": "string",
          "name": "did",
          "type": "string"
        },
        {
          "internalType": "address",
          "name": "addr",
          "type": "address"
        },
        {
          "internalType": "string[]",
          "name": "controller",
          "type": "string[]"
        },
        {
          "internalType": "bytes",
          "name": "singer",
          "type": "bytes"
        }
      ],
      "name": "addAddr",
      "outputs": [],
      "stateMutability": "nonpayable",
      "type": "function"
    },
    {
      "inputs": [
        {
          "internalType": "string",
          "name": "did",
          "type": "string"
        },
        {
          "internalType": "string[]",
          "name": "contexts",
          "type": "string[]"
        },
        {
          "internalType": "bytes",
          "name": "singer",
          "type": "bytes"
        }
      ],
      "name": "addContext",
      "outputs": [],
      "stateMutability": "nonpayable",
      "type": "function"
    },
    {
      "inputs": [
        {
          "internalType": "string",
          "name": "did",
          "type": "string"
        },
        {
          "internalType": "string",
          "name": "controller",
          "type": "string"
        },
        {
          "internalType": "bytes",
          "name": "singer",
          "type": "bytes"
        }
      ],
      "name": "addController",
      "outputs": [],
      "stateMutability": "nonpayable",
      "type": "function"
    },
    {
      "inputs": [
        {
          "internalType": "string",
          "name": "did",
          "type": "string"
        },
        {
          "internalType": "bytes",
          "name": "newPubKey",
          "type": "bytes"
        },
        {
          "internalType": "string[]",
          "name": "controller",
          "type": "string[]"
        },
        {
          "internalType": "bytes",
          "name": "singer",
          "type": "bytes"
        }
      ],
      "name": "addKey",
      "outputs": [],
      "stateMutability": "nonpayable",
      "type": "function"
    },
    {
      "inputs": [
        {
          "internalType": "string",
          "name": "did",
          "type": "string"
        },
        {
          "internalType": "address",
          "name": "addr",
          "type": "address"
        },
        {
          "internalType": "string[]",
          "name": "controller",
          "type": "string[]"
        },
        {
          "internalType": "bytes",
          "name": "singer",
          "type": "bytes"
        }
      ],
      "name": "addNewAuthAddr",
      "outputs": [],
      "stateMutability": "nonpayable",
      "type": "function"
    },
    {
      "inputs": [
        {
          "internalType": "string",
          "name": "did",
          "type": "string"
        },
        {
          "internalType": "address",
          "name": "addr",
          "type": "address"
        },
        {
          "internalType": "string[]",
          "name": "controller",
          "type": "string[]"
        },
        {
          "internalType": "string",
          "name": "controllerSigner",
          "type": "string"
        },
        {
          "internalType": "bytes",
          "name": "singer",
          "type": "bytes"
        }
      ],
      "name": "addNewAuthAddrByController",
      "outputs": [],
      "stateMutability": "nonpayable",
      "type": "function"
    },
    {
      "inputs": [
        {
          "internalType": "string",
          "name": "did",
          "type": "string"
        },
        {
          "internalType": "bytes",
          "name": "pubKey",
          "type": "bytes"
        },
        {
          "internalType": "string[]",
          "name": "controller",
          "type": "string[]"
        },
        {
          "internalType": "bytes",
          "name": "singer",
          "type": "bytes"
        }
      ],
      "name": "addNewAuthKey",
      "outputs": [],
      "stateMutability": "nonpayable",
      "type": "function"
    },
    {
      "inputs": [
        {
          "internalType": "string",
          "name": "did",
          "type": "string"
        },
        {
          "internalType": "bytes",
          "name": "pubKey",
          "type": "bytes"
        },
        {
          "internalType": "string[]",
          "name": "controller",
          "type": "string[]"
        },
        {
          "internalType": "string",
          "name": "controllerSigner",
          "type": "string"
        },
        {
          "internalType": "bytes",
          "name": "singer",
          "type": "bytes"
        }
      ],
      "name": "addNewAuthKeyByController",
      "outputs": [],
      "stateMutability": "nonpayable",
      "type": "function"
    },
    {
      "inputs": [
        {
          "internalType": "string",
          "name": "did",
          "type": "string"
        },
        {
          "internalType": "string",
          "name": "serviceId",
          "type": "string"
        },
        {
          "internalType": "string",
          "name": "serviceType",
          "type": "string"
        },
        {
          "internalType": "string",
          "name": "serviceEndpoint",
          "type": "string"
        },
        {
          "internalType": "bytes",
          "name": "singer",
          "type": "bytes"
        }
      ],
      "name": "addService",
      "outputs": [],
      "stateMutability": "nonpayable",
      "type": "function"
    },
    {
      "inputs": [
        {
          "internalType": "string",
          "name": "",
          "type": "string"
        }
      ],
      "name": "data",
      "outputs": [
        {
          "internalType": "uint256",
          "name": "size",
          "type": "uint256"
        }
      ],
      "stateMutability": "view",
      "type": "function"
    },
    {
      "inputs": [
        {
          "internalType": "string",
          "name": "did",
          "type": "string"
        },
        {
          "internalType": "address",
          "name": "addr",
          "type": "address"
        },
        {
          "internalType": "bytes",
          "name": "singer",
          "type": "bytes"
        }
      ],
      "name": "deactivateAddr",
      "outputs": [],
      "stateMutability": "nonpayable",
      "type": "function"
    },
    {
      "inputs": [
        {
          "internalType": "string",
          "name": "did",
          "type": "string"
        },
        {
          "internalType": "address",
          "name": "addr",
          "type": "address"
        },
        {
          "internalType": "bytes",
          "name": "singer",
          "type": "bytes"
        }
      ],
      "name": "deactivateAuthAddr",
      "outputs": [],
      "stateMutability": "nonpayable",
      "type": "function"
    },
    {
      "inputs": [
        {
          "internalType": "string",
          "name": "did",
          "type": "string"
        },
        {
          "internalType": "address",
          "name": "addr",
          "type": "address"
        },
        {
          "internalType": "string",
          "name": "controller",
          "type": "string"
        },
        {
          "internalType": "bytes",
          "name": "singer",
          "type": "bytes"
        }
      ],
      "name": "deactivateAuthAddrByController",
      "outputs": [],
      "stateMutability": "nonpayable",
      "type": "function"
    },
    {
      "inputs": [
        {
          "internalType": "string",
          "name": "did",
          "type": "string"
        },
        {
          "internalType": "bytes",
          "name": "pubKey",
          "type": "bytes"
        },
        {
          "internalType": "bytes",
          "name": "singer",
          "type": "bytes"
        }
      ],
      "name": "deactivateAuthKey",
      "outputs": [],
      "stateMutability": "nonpayable",
      "type": "function"
    },
    {
      "inputs": [
        {
          "internalType": "string",
          "name": "did",
          "type": "string"
        },
        {
          "internalType": "bytes",
          "name": "pubKey",
          "type": "bytes"
        },
        {
          "internalType": "string",
          "name": "controller",
          "type": "string"
        },
        {
          "internalType": "bytes",
          "name": "singer",
          "type": "bytes"
        }
      ],
      "name": "deactivateAuthKeyByController",
      "outputs": [],
      "stateMutability": "nonpayable",
      "type": "function"
    },
    {
      "inputs": [
        {
          "internalType": "string",
          "name": "did",
          "type": "string"
        },
        {
          "internalType": "bytes",
          "name": "singer",
          "type": "bytes"
        }
      ],
      "name": "deactivateID",
      "outputs": [],
      "stateMutability": "nonpayable",
      "type": "function"
    },
    {
      "inputs": [
        {
          "internalType": "string",
          "name": "did",
          "type": "string"
        },
        {
          "internalType": "bytes",
          "name": "pubKey",
          "type": "bytes"
        },
        {
          "internalType": "bytes",
          "name": "singer",
          "type": "bytes"
        }
      ],
      "name": "deactivateKey",
      "outputs": [],
      "stateMutability": "nonpayable",
      "type": "function"
    },
    {
      "inputs": [
        {
          "internalType": "string",
          "name": "",
          "type": "string"
        }
      ],
      "name": "didStatus",
      "outputs": [
        {
          "internalType": "bool",
          "name": "deactivated",
          "type": "bool"
        },
        {
          "internalType": "uint256",
          "name": "authListLen",
          "type": "uint256"
        }
      ],
      "stateMutability": "view",
      "type": "function"
    },
    {
      "inputs": [
        {
          "internalType": "string",
          "name": "did",
          "type": "string"
        }
      ],
      "name": "getAllAuthKey",
      "outputs": [
        {
          "components": [
            {
              "internalType": "string",
              "name": "id",
              "type": "string"
            },
            {
              "internalType": "string",
              "name": "keyType",
              "type": "string"
            },
            {
              "internalType": "string[]",
              "name": "controller",
              "type": "string[]"
            },
            {
              "internalType": "bytes",
              "name": "pubKeyData",
              "type": "bytes"
            },
            {
              "internalType": "bool",
              "name": "deactivated",
              "type": "bool"
            },
            {
              "internalType": "bool",
              "name": "isPubKey",
              "type": "bool"
            },
            {
              "internalType": "uint256",
              "name": "authIndex",
              "type": "uint256"
            }
          ],
          "internalType": "struct StorageUtils.PublicKey[]",
          "name": "",
          "type": "tuple[]"
        }
      ],
      "stateMutability": "view",
      "type": "function"
    },
    {
      "inputs": [
        {
          "internalType": "string",
          "name": "did",
          "type": "string"
        }
      ],
      "name": "getAllController",
      "outputs": [
        {
          "internalType": "string[]",
          "name": "",
          "type": "string[]"
        }
      ],
      "stateMutability": "view",
      "type": "function"
    },
    {
      "inputs": [
        {
          "internalType": "string",
          "name": "did",
          "type": "string"
        }
      ],
      "name": "getAllPubKey",
      "outputs": [
        {
          "components": [
            {
              "internalType": "string",
              "name": "id",
              "type": "string"
            },
            {
              "internalType": "string",
              "name": "keyType",
              "type": "string"
            },
            {
              "internalType": "string[]",
              "name": "controller",
              "type": "string[]"
            },
            {
              "internalType": "bytes",
              "name": "pubKeyData",
              "type": "bytes"
            },
            {
              "internalType": "bool",
              "name": "deactivated",
              "type": "bool"
            },
            {
              "internalType": "bool",
              "name": "isPubKey",
              "type": "bool"
            },
            {
              "internalType": "uint256",
              "name": "authIndex",
              "type": "uint256"
            }
          ],
          "internalType": "struct StorageUtils.PublicKey[]",
          "name": "",
          "type": "tuple[]"
        }
      ],
      "stateMutability": "view",
      "type": "function"
    },
    {
      "inputs": [
        {
          "internalType": "string",
          "name": "did",
          "type": "string"
        }
      ],
      "name": "getAllService",
      "outputs": [
        {
          "components": [
            {
              "internalType": "string",
              "name": "serviceId",
              "type": "string"
            },
            {
              "internalType": "string",
              "name": "serviceType",
              "type": "string"
            },
            {
              "internalType": "string",
              "name": "serviceEndpoint",
              "type": "string"
            }
          ],
          "internalType": "struct StorageUtils.Service[]",
          "name": "",
          "type": "tuple[]"
        }
      ],
      "stateMutability": "view",
      "type": "function"
    },
    {
      "inputs": [
        {
          "internalType": "string",
          "name": "did",
          "type": "string"
        }
      ],
      "name": "getContext",
      "outputs": [
        {
          "internalType": "string[]",
          "name": "",
          "type": "string[]"
        }
      ],
      "stateMutability": "view",
      "type": "function"
    },
    {
      "inputs": [
        {
          "internalType": "string",
          "name": "did",
          "type": "string"
        }
      ],
      "name": "getDocument",
      "outputs": [
        {
          "components": [
            {
              "internalType": "string[]",
              "name": "context",
              "type": "string[]"
            },
            {
              "internalType": "string",
              "name": "id",
              "type": "string"
            },
            {
              "components": [
                {
                  "internalType": "string",
                  "name": "id",
                  "type": "string"
                },
                {
                  "internalType": "string",
                  "name": "keyType",
                  "type": "string"
                },
                {
                  "internalType": "string[]",
                  "name": "controller",
                  "type": "string[]"
                },
                {
                  "internalType": "bytes",
                  "name": "pubKeyData",
                  "type": "bytes"
                },
                {
                  "internalType": "bool",
                  "name": "deactivated",
                  "type": "bool"
                },
                {
                  "internalType": "bool",
                  "name": "isPubKey",
                  "type": "bool"
                },
                {
                  "internalType": "uint256",
                  "name": "authIndex",
                  "type": "uint256"
                }
              ],
              "internalType": "struct StorageUtils.PublicKey[]",
              "name": "publicKey",
              "type": "tuple[]"
            },
            {
              "components": [
                {
                  "internalType": "string",
                  "name": "id",
                  "type": "string"
                },
                {
                  "internalType": "string",
                  "name": "keyType",
                  "type": "string"
                },
                {
                  "internalType": "string[]",
                  "name": "controller",
                  "type": "string[]"
                },
                {
                  "internalType": "bytes",
                  "name": "pubKeyData",
                  "type": "bytes"
                },
                {
                  "internalType": "bool",
                  "name": "deactivated",
                  "type": "bool"
                },
                {
                  "internalType": "bool",
                  "name": "isPubKey",
                  "type": "bool"
                },
                {
                  "internalType": "uint256",
                  "name": "authIndex",
                  "type": "uint256"
                }
              ],
              "internalType": "struct StorageUtils.PublicKey[]",
              "name": "authentication",
              "type": "tuple[]"
            },
            {
              "internalType": "string[]",
              "name": "controller",
              "type": "string[]"
            },
            {
              "components": [
                {
                  "internalType": "string",
                  "name": "serviceId",
                  "type": "string"
                },
                {
                  "internalType": "string",
                  "name": "serviceType",
                  "type": "string"
                },
                {
                  "internalType": "string",
                  "name": "serviceEndpoint",
                  "type": "string"
                }
              ],
              "internalType": "struct StorageUtils.Service[]",
              "name": "service",
              "type": "tuple[]"
            },
            {
              "internalType": "uint256",
              "name": "updated",
              "type": "uint256"
            }
          ],
          "internalType": "struct StorageUtils.DIDDocument",
          "name": "",
          "type": "tuple"
        }
      ],
      "stateMutability": "view",
      "type": "function"
    },
    {
      "inputs": [
        {
          "internalType": "string",
          "name": "did",
          "type": "string"
        }
      ],
      "name": "getUpdatedTime",
      "outputs": [
        {
          "internalType": "uint256",
          "name": "",
          "type": "uint256"
        }
      ],
      "stateMutability": "view",
      "type": "function"
    },
    {
      "inputs": [
        {
          "internalType": "string",
          "name": "did",
          "type": "string"
        },
        {
          "internalType": "string[]",
          "name": "contexts",
          "type": "string[]"
        },
        {
          "internalType": "bytes",
          "name": "singer",
          "type": "bytes"
        }
      ],
      "name": "removeContext",
      "outputs": [],
      "stateMutability": "nonpayable",
      "type": "function"
    },
    {
      "inputs": [
        {
          "internalType": "string",
          "name": "did",
          "type": "string"
        },
        {
          "internalType": "string",
          "name": "controller",
          "type": "string"
        },
        {
          "internalType": "bytes",
          "name": "singer",
          "type": "bytes"
        }
      ],
      "name": "removeController",
      "outputs": [],
      "stateMutability": "nonpayable",
      "type": "function"
    },
    {
      "inputs": [
        {
          "internalType": "string",
          "name": "did",
          "type": "string"
        },
        {
          "internalType": "string",
          "name": "serviceId",
          "type": "string"
        },
        {
          "internalType": "bytes",
          "name": "singer",
          "type": "bytes"
        }
      ],
      "name": "removeService",
      "outputs": [],
      "stateMutability": "nonpayable",
      "type": "function"
    },
    {
      "inputs": [
        {
          "internalType": "string",
          "name": "did",
          "type": "string"
        },
        {
          "internalType": "address",
          "name": "addr",
          "type": "address"
        },
        {
          "internalType": "bytes",
          "name": "singer",
          "type": "bytes"
        }
      ],
      "name": "setAuthAddr",
      "outputs": [],
      "stateMutability": "nonpayable",
      "type": "function"
    },
    {
      "inputs": [
        {
          "internalType": "string",
          "name": "did",
          "type": "string"
        },
        {
          "internalType": "address",
          "name": "addr",
          "type": "address"
        },
        {
          "internalType": "string",
          "name": "controller",
          "type": "string"
        },
        {
          "internalType": "bytes",
          "name": "singer",
          "type": "bytes"
        }
      ],
      "name": "setAuthAddrByController",
      "outputs": [],
      "stateMutability": "nonpayable",
      "type": "function"
    },
    {
      "inputs": [
        {
          "internalType": "string",
          "name": "did",
          "type": "string"
        },
        {
          "internalType": "bytes",
          "name": "pubKey",
          "type": "bytes"
        },
        {
          "internalType": "bytes",
          "name": "singer",
          "type": "bytes"
        }
      ],
      "name": "setAuthKey",
      "outputs": [],
      "stateMutability": "nonpayable",
      "type": "function"
    },
    {
      "inputs": [
        {
          "internalType": "string",
          "name": "did",
          "type": "string"
        },
        {
          "internalType": "bytes",
          "name": "pubKey",
          "type": "bytes"
        },
        {
          "internalType": "string",
          "name": "controller",
          "type": "string"
        },
        {
          "internalType": "bytes",
          "name": "singer",
          "type": "bytes"
        }
      ],
      "name": "setAuthKeyByController",
      "outputs": [],
      "stateMutability": "nonpayable",
      "type": "function"
    },
    {
      "inputs": [
        {
          "internalType": "string",
          "name": "did",
          "type": "string"
        },
        {
          "internalType": "string",
          "name": "serviceId",
          "type": "string"
        },
        {
          "internalType": "string",
          "name": "serviceType",
          "type": "string"
        },
        {
          "internalType": "string",
          "name": "serviceEndpoint",
          "type": "string"
        },
        {
          "internalType": "bytes",
          "name": "singer",
          "type": "bytes"
        }
      ],
      "name": "updateService",
      "outputs": [],
      "stateMutability": "nonpayable",
      "type": "function"
    },
    {
      "inputs": [
        {
          "internalType": "string",
          "name": "did",
          "type": "string"
        },
        {
          "internalType": "string",
          "name": "controller",
          "type": "string"
        },
        {
          "internalType": "bytes",
          "name": "singer",
          "type": "bytes"
        }
      ],
      "name": "verifyController",
      "outputs": [
        {
          "internalType": "bool",
          "name": "",
          "type": "bool"
        }
      ],
      "stateMutability": "view",
      "type": "function"
    },
    {
      "inputs": [
        {
          "internalType": "string",
          "name": "did",
          "type": "string"
        },
        {
          "internalType": "bytes",
          "name": "singer",
          "type": "bytes"
        }
      ],
      "name": "verifySignature",
      "outputs": [
        {
          "internalType": "bool",
          "name": "",
          "type": "bool"
        }
      ],
      "stateMutability": "view",
      "type": "function"
    }
  ],
  "bytecode": "0x608060405234801561001057600080fd5b506153f3806100206000396000f3fe608060405234801561001057600080fd5b50600436106102105760003560e01c80637ccb6a6411610125578063af4e1238116100ad578063d558cdea1161007c578063d558cdea146104a9578063db7d1f04146104bc578063ec02a3b5146104cf578063f8d8f4ad146104e2578063fa1bac721461050257610210565b8063af4e12381461044f578063b0abb19914610470578063ba96428114610483578063d22eafd91461049657610210565b80638ba6652c116100f45780638ba6652c146103f05780638da5588c146104035780639033d99a146104165780639053ad0314610429578063958607b81461043c57610210565b80637ccb6a64146103975780637d1c754f146103b75780638095627f146103ca57806388209cf3146103dd57610210565b8063398a85ec116101a857806365cbf7c31161017757806365cbf7c314610338578063667f5fa31461034b5780636747e9bc1461035e5780636e5f318314610371578063793f66c91461038457610210565b8063398a85ec146102ec57806352c07c56146102ff578063538645031461031257806353949d4f1461032557610210565b8063244d9153116101e4578063244d9153146102865780632e35d7ca146102995780632e97b8d4146102b95780633634791e146102cc57610210565b80622b4c821461021557806304f6748c1461022a5780630ec0865b146102535780631f7c7a9d14610266575b600080fd5b61022861022336600461465a565b610515565b005b61023d61023836600461432a565b61058d565b60405161024a9190615147565b60405180910390f35b610228610261366004614736565b6105ad565b61027961027436600461432a565b610773565b60405161024a9190614b64565b610228610294366004614736565b610989565b6102ac6102a736600461432a565b610b33565b60405161024a9190614b51565b6102286102c7366004614736565b610c6d565b6102df6102da3660046145fa565b610e02565b60405161024a9190614b8a565b6102286102fa3660046144b0565b610e1a565b61022861030d36600461465a565b610e80565b61022861032036600461435c565b610eea565b6102ac61033336600461432a565b610f6a565b61022861034636600461458e565b611120565b6102286103593660046147fa565b6112dd565b61022861036c3660046144b0565b61153f565b61022861037f366004614524565b611598565b610228610392366004614736565b6115f2565b6103aa6103a536600461432a565b61163b565b60405161024a9190615028565b6102286103c53660046147fa565b6116c8565b6102286103d836600461458e565b611917565b6102286103eb366004614524565b611ac4565b6102df6103fe366004614736565b611b1e565b61022861041136600461435c565b611b38565b61022861042436600461478d565b611bb7565b61022861043736600461478d565b611c01565b61022861044a366004614736565b611c4b565b61046261045d36600461432a565b611c94565b60405161024a929190614b95565b61022861047e3660046143f4565b611cc0565b61023d61049136600461432a565b611d4f565b6102796104a436600461432a565b611f46565b6102286104b73660046144b0565b61214c565b6102286104ca3660046146c7565b6121a5565b6102286104dd3660046145fa565b612210565b6104f56104f036600461432a565b612679565b60405161024a9190614b77565b610228610510366004614736565b6127b3565b6105208482846127fc565b935061054c8484600060405180606001604052806021815260200161537d6021913986600060016128db565b7fb22d64a17a74dc192d537930ccfefdcc25c0e279b7595081c4f42e7613f01cf884848460405161057f93929190614cce565b60405180910390a150505050565b805160208183018101805160008252928201919093012091526002015481565b6105b78382612ac4565b9250606073__$d895092408b28263ee57beab52231763ab$__631eae56fe856040518263ffffffff1660e01b81526004016105f29190614ba5565b60006040518083038186803b15801561060a57600080fd5b505af415801561061e573d6000803e3d6000fd5b505050506040513d6000823e601f3d908101601f1916820160405261064691908101906142f8565b9050600073__$d895092408b28263ee57beab52231763ab$__63f4d9407f856040518263ffffffff1660e01b81526004016106819190614ba5565b60206040518083038186803b15801561069957600080fd5b505af41580156106ad573d6000803e3d6000fd5b505050506040513d601f19601f820116820180604052508101906106d191906142e0565b9050600061070082866000866040516106ea9190614abd565b9081526040519081900360200190209190612af5565b905080156107295760405162461bcd60e51b815260040161072090614e8d565b60405180910390fd5b61073286612b7d565b7f158049e5f97a0923906423a422819a72f859b99834ab1471ec73c7e5d8c2221d8686604051610763929190614ca9565b60405180910390a1505050505050565b604051639416b42360e01b815260609073__$ad5f1105ae2e107008b91fdda17d716fb8$__90639416b423906107ad908590600401614ba5565b60006040518083038186803b1580156107c557600080fd5b505af41580156107d9573d6000803e3d6000fd5b505050506040513d6000823e601f3d908101601f1916820160405261080191908101906142f8565b91506001826040516108139190614abd565b9081526040519081900360200190205460ff16156108435760405162461bcd60e51b815260040161072090614f7d565b6040516305c2e49560e21b815260609073__$d895092408b28263ee57beab52231763ab$__9063170b92549061087d908690600401614ba5565b60006040518083038186803b15801561089557600080fd5b505af41580156108a9573d6000803e3d6000fd5b505050506040513d6000823e601f3d908101601f191682016040526108d191908101906142f8565b9050600080826040516108e49190614abd565b908152604051908190036020018120632c7f2e4b60e01b8252915073__$5db7214be5932887d9b1c5075d6310aecd$__90632c7f2e4b9061092b9087908590600401614d5f565b60006040518083038186803b15801561094357600080fd5b505af4158015610957573d6000803e3d6000fd5b505050506040513d6000823e601f3d908101601f1916820160405261097f919081019061412e565b925050505b919050565b6109938382612ac4565b9250606073__$d895092408b28263ee57beab52231763ab$__631eae56fe856040518263ffffffff1660e01b81526004016109ce9190614ba5565b60006040518083038186803b1580156109e657600080fd5b505af41580156109fa573d6000803e3d6000fd5b505050506040513d6000823e601f3d908101601f19168201604052610a2291908101906142f8565b9050600073__$d895092408b28263ee57beab52231763ab$__63f4d9407f856040518263ffffffff1660e01b8152600401610a5d9190614ba5565b60206040518083038186803b158015610a7557600080fd5b505af4158015610a89573d6000803e3d6000fd5b505050506040513d601f19601f82011682018060405250810190610aad91906142e0565b90506000610ada82600085604051610ac59190614abd565b90815260405190819003602001902090612caa565b905080610af95760405162461bcd60e51b815260040161072090614fa6565b610b0286612b7d565b7f60b2df265d895cbd29c118ef04311b5ccf506bbc063740f4ed3eb7a60448afe78686604051610763929190614ca9565b60608073__$d895092408b28263ee57beab52231763ab$__631eae56fe846040518263ffffffff1660e01b8152600401610b6d9190614ba5565b60006040518083038186803b158015610b8557600080fd5b505af4158015610b99573d6000803e3d6000fd5b505050506040513d6000823e601f3d908101601f19168201604052610bc191908101906142f8565b905060008082604051610bd49190614abd565b90815260405190819003602001812063637529db60e01b8252915073__$5db7214be5932887d9b1c5075d6310aecd$__9063637529db90610c19908490600401615147565b60006040518083038186803b158015610c3157600080fd5b505af4158015610c45573d6000803e3d6000fd5b505050506040513d6000823e601f3d908101601f1916820160405261097f91908101906140fc565b610c778382612ac4565b9250606073__$d895092408b28263ee57beab52231763ab$__63eb824844856040518263ffffffff1660e01b8152600401610cb29190614ba5565b60006040518083038186803b158015610cca57600080fd5b505af4158015610cde573d6000803e3d6000fd5b505050506040513d6000823e601f3d908101601f19168201604052610d0691908101906142f8565b9050600073__$d895092408b28263ee57beab52231763ab$__634acf2705856040518263ffffffff1660e01b8152600401610d419190614ba5565b60206040518083038186803b158015610d5957600080fd5b505af4158015610d6d573d6000803e3d6000fd5b505050506040513d601f19601f82011682018060405250810190610d9191906142e0565b90506000610da982600085604051610ac59190614abd565b905080610dc85760405162461bcd60e51b815260040161072090614fd4565b610dd186612b7d565b7fab8833e166d8cbd16f823a1e7c05653d3f78d9c3498ebdf0b2393c16e3fe94878686604051610763929190614ca9565b600080610e0f8484612d36565b509150505b92915050565b610e248382612ac4565b604080516000815260208101909152909350610e429084908461335c565b7f605a8562b3e375915ae30d3f6a56e766cc11be0a6c592b68704f048f5ac9d8678383604051610e73929190614c41565b60405180910390a1505050565b610e8b8482846127fc565b9350610eb78484600060405180606001604052806021815260200161537d6021913986600160006128db565b7f0f649d2ebae9f0c1584c133d91aaae79f84b2580c33e7c2480a4bd0e27a2910984848460405161057f93929190614cce565b610ef58482846127fc565b604080516000808252606082018352602080830190815260008051602061539e83398151915293830193909352929650610f37928792879187906001906128db565b7fa9f8cf46beb11b19df1f3f276b45158a279eff65c1fb27bb4f3b91e1a894f0dd84848460405161057f93929190614c6b565b604051639416b42360e01b815260609073__$ad5f1105ae2e107008b91fdda17d716fb8$__90639416b42390610fa4908590600401614ba5565b60006040518083038186803b158015610fbc57600080fd5b505af4158015610fd0573d6000803e3d6000fd5b505050506040513d6000823e601f3d908101601f19168201604052610ff891908101906142f8565b915060018260405161100a9190614abd565b9081526040519081900360200190205460ff161561103a5760405162461bcd60e51b815260040161072090614f7d565b604051630dd6e46f60e11b815260609073__$d895092408b28263ee57beab52231763ab$__90631badc8de90611074908690600401614ba5565b60006040518083038186803b15801561108c57600080fd5b505af41580156110a0573d6000803e3d6000fd5b505050506040513d6000823e601f3d908101601f191682016040526110c891908101906142f8565b9050600080826040516110db9190614abd565b908152604051908190036020018120638c78953160e01b8252915073__$5db7214be5932887d9b1c5075d6310aecd$__90638c78953190610c19908490600401615150565b61112a8382612ac4565b9250606073__$d895092408b28263ee57beab52231763ab$__631badc8de856040518263ffffffff1660e01b81526004016111659190614ba5565b60006040518083038186803b15801561117d57600080fd5b505af4158015611191573d6000803e3d6000fd5b505050506040513d6000823e601f3d908101601f191682016040526111b991908101906142f8565b905060005b83518110156112cd5760608482815181106111d557fe5b60200260200101519050600073__$d895092408b28263ee57beab52231763ab$__63229cbc87836040518263ffffffff1660e01b81526004016112189190614ba5565b60206040518083038186803b15801561123057600080fd5b505af4158015611244573d6000803e3d6000fd5b505050506040513d601f19601f8201168201806040525081019061126891906142e0565b9050600061128182846000886040516106ea9190614abd565b9050806112c2577fab878ced0a294d7dde0c095c50e69cd0c400119ef2d9545bda4cc63d281148c588846040516112b9929190614ca9565b60405180910390a15b5050506001016111be565b506112d784612b7d565b50505050565b6112e78582612ac4565b9450606073__$d895092408b28263ee57beab52231763ab$__63eb824844876040518263ffffffff1660e01b81526004016113229190614ba5565b60006040518083038186803b15801561133a57600080fd5b505af415801561134e573d6000803e3d6000fd5b505050506040513d6000823e601f3d908101601f1916820160405261137691908101906142f8565b9050600073__$d895092408b28263ee57beab52231763ab$__634acf2705876040518263ffffffff1660e01b81526004016113b19190614ba5565b60206040518083038186803b1580156113c957600080fd5b505af41580156113dd573d6000803e3d6000fd5b505050506040513d601f19601f8201168201806040525081019061140191906142e0565b905061140b613cd3565b6040518060600160405280888152602001878152602001868152509050606073__$5db7214be5932887d9b1c5075d6310aecd$__63711f2cd4836040518263ffffffff1660e01b815260040161146191906150ef565b60006040518083038186803b15801561147957600080fd5b505af415801561148d573d6000803e3d6000fd5b505050506040513d6000823e601f3d908101601f191682016040526114b591908101906142f8565b905060006114ce84836000886040516106ea9190614abd565b9050806114ed5760405162461bcd60e51b815260040161072090614fd4565b6114f68a612b7d565b7fce02a40ad64d07c09428e43775774b9c09a2fb4050cb2133feffdaf82e7c201f8a8a8a8a60405161152b9493929190614d07565b60405180910390a150505050505050505050565b6115498382612ac4565b6040805160008152602081019091529093506115679084908461348e565b7f5b4ad0c78947966b48caff8e1256800d9ecc297743953b6ba78776d0e81d327f8383604051610e73929190614c41565b6115a384838361357d565b6040805160008152602081019091529094506115c19085908561335c565b7f605a8562b3e375915ae30d3f6a56e766cc11be0a6c592b68704f048f5ac9d867848460405161057f929190614c41565b6115fc8382612ac4565b925061160a838360006135b8565b7fc2613a8fbe2f84ee12626ff6451fe839595edd92aa6d8fd95e62e587b42a0e158383604051610e73929190614ca9565b611643613cf4565b606061164e83610f6a565b9050606061165b84610773565b9050606061166885611f46565b9050606061167586610b33565b9050606061168287612679565b9050600061168f88611d4f565b6040805160e081018252978852602088018a9052870195909552506060850192909252608084015260a083015260c08201529050919050565b6116d28582612ac4565b9450606073__$d895092408b28263ee57beab52231763ab$__63eb824844876040518263ffffffff1660e01b815260040161170d9190614ba5565b60006040518083038186803b15801561172557600080fd5b505af4158015611739573d6000803e3d6000fd5b505050506040513d6000823e601f3d908101601f1916820160405261176191908101906142f8565b9050600073__$d895092408b28263ee57beab52231763ab$__634acf2705876040518263ffffffff1660e01b815260040161179c9190614ba5565b60206040518083038186803b1580156117b457600080fd5b505af41580156117c8573d6000803e3d6000fd5b505050506040513d601f19601f820116820180604052508101906117ec91906142e0565b90506117f6613cd3565b6040518060600160405280888152602001878152602001868152509050606073__$5db7214be5932887d9b1c5075d6310aecd$__63711f2cd4836040518263ffffffff1660e01b815260040161184c91906150ef565b60006040518083038186803b15801561186457600080fd5b505af4158015611878573d6000803e3d6000fd5b505050506040513d6000823e601f3d908101601f191682016040526118a091908101906142f8565b905060006118b984836000886040516106ea9190614abd565b905080156118d95760405162461bcd60e51b815260040161072090614fff565b6118e28a612b7d565b7f8e2e47c852a8c05bbd1bc96df47294a54af338a51f99884924137ab38278860f8a8a8a8a60405161152b9493929190614d07565b6119218382612ac4565b9250606073__$d895092408b28263ee57beab52231763ab$__631badc8de856040518263ffffffff1660e01b815260040161195c9190614ba5565b60006040518083038186803b15801561197457600080fd5b505af4158015611988573d6000803e3d6000fd5b505050506040513d6000823e601f3d908101601f191682016040526119b091908101906142f8565b905060005b83518110156112cd5760608482815181106119cc57fe5b60200260200101519050600073__$d895092408b28263ee57beab52231763ab$__63229cbc87836040518263ffffffff1660e01b8152600401611a0f9190614ba5565b60206040518083038186803b158015611a2757600080fd5b505af4158015611a3b573d6000803e3d6000fd5b505050506040513d601f19601f82011682018060405250810190611a5f91906142e0565b90506000611a7782600087604051610ac59190614abd565b90508015611ab9577f58055c159e081c2caccfa4852d9a4285566a460de7ba910919b0ff75271d877f8884604051611ab0929190614ca9565b60405180910390a15b5050506001016119b5565b611acf84838361357d565b604080516000815260208101909152909450611aed9085908561348e565b7f5b4ad0c78947966b48caff8e1256800d9ecc297743953b6ba78776d0e81d327f848460405161057f929190614c41565b600080611b2c858585613672565b509150505b9392505050565b611b438482846127fc565b604080516000808252606082018352602080830190815260008051602061539e83398151915293830193909352929650611b849287928791879060016128db565b7fe2bd3ac8e89e6fc034167d63de32d1247aa49f6802f2264875d0a00fd645da5484848460405161057f93929190614c6b565b611bc284838361357d565b9350611bd08484600061335c565b7f40f36fc5010e18c1e871f706915909d1fcf1215d949a2c4d72350380162b1bd5848460405161057f929190614ca9565b611c0c84838361357d565b9350611c1a8484600061348e565b7f2b5997c0533b1b213e90a8955d60e56efed753c769a096d6e30f68b8fe955d06848460405161057f929190614ca9565b611c558382612ac4565b9250611c638383600061348e565b7f2b5997c0533b1b213e90a8955d60e56efed753c769a096d6e30f68b8fe955d068383604051610e73929190614ca9565b805160208183018101805160018083529383019290940191909120929052815491015460ff9091169082565b611ccc8582848661392c565b604080516000808252606082018352602080830190815260008051602061539e83398151915293830193909352929750611d0d9288928891889060016128db565b7fe2bd3ac8e89e6fc034167d63de32d1247aa49f6802f2264875d0a00fd645da54858585604051611d4093929190614c6b565b60405180910390a15050505050565b6000606073__$d895092408b28263ee57beab52231763ab$__639eee0a89846040518263ffffffff1660e01b8152600401611d8a9190614ba5565b60006040518083038186803b158015611da257600080fd5b505af4158015611db6573d6000803e3d6000fd5b505050506040513d6000823e601f3d908101601f19168201604052611dde91908101906142f8565b9050600073__$d895092408b28263ee57beab52231763ab$__63e97b8b906040518163ffffffff1660e01b815260040160206040518083038186803b158015611e2657600080fd5b505af4158015611e3a573d6000803e3d6000fd5b505050506040513d601f19601f82011682018060405250810190611e5e91906142e0565b90506060600083604051611e729190614abd565b908152604080516020928190038301812060008681529084528290206001908101805460029281161561010002600019011691909104601f81018590048502830185019093528282529092909190830182828015611f115780601f10611ee657610100808354040283529160200191611f11565b820191906000526020600020905b815481529060010190602001808311611ef457829003601f168201915b50505050509050805160001415611f2e5760009350505050610984565b6000611f3b826000613a04565b509695505050505050565b604051639416b42360e01b815260609073__$ad5f1105ae2e107008b91fdda17d716fb8$__90639416b42390611f80908590600401614ba5565b60006040518083038186803b158015611f9857600080fd5b505af4158015611fac573d6000803e3d6000fd5b505050506040513d6000823e601f3d908101601f19168201604052611fd491908101906142f8565b9150600182604051611fe69190614abd565b9081526040519081900360200190205460ff16156120165760405162461bcd60e51b815260040161072090614f7d565b60008073__$d895092408b28263ee57beab52231763ab$__63170b9254856040518263ffffffff1660e01b81526004016120509190614ba5565b60006040518083038186803b15801561206857600080fd5b505af415801561207c573d6000803e3d6000fd5b505050506040513d6000823e601f3d908101601f191682016040526120a491908101906142f8565b6040516120b19190614abd565b90815260405190819003602001812063211d8c5360e11b8252915073__$5db7214be5932887d9b1c5075d6310aecd$__9063423b18a6906120f89086908590600401614d5f565b60006040518083038186803b15801561211057600080fd5b505af4158015612124573d6000803e3d6000fd5b505050506040513d6000823e601f3d908101601f19168201604052611b31919081019061412e565b6121568382612ac4565b604080516000815260208101909152909350612174908490846135b8565b7f3364de2ecbd53e405faf989044be284732af4a4d2f29f9db04df4bcf1d753b518383604051610e73929190614c41565b6121b18582848661392c565b94506121dd8585600060405180606001604052806021815260200161537d6021913987600060016128db565b7fb22d64a17a74dc192d537930ccfefdcc25c0e279b7595081c4f42e7613f01cf8858585604051611d4093929190614cce565b61221a8282612ac4565b9150600073__$d895092408b28263ee57beab52231763ab$__631badc8de846040518263ffffffff1660e01b81526004016122559190614ba5565b60006040518083038186803b15801561226d57600080fd5b505af4158015612281573d6000803e3d6000fd5b505050506040513d6000823e601f3d908101601f191682016040526122a991908101906142f8565b6040516122b69190614abd565b90815260405190819003602001902060006122d46001830182613d31565b5060006002919091018190556040516305c2e49560e21b815273__$d895092408b28263ee57beab52231763ab$__9063170b925490612317908690600401614ba5565b60006040518083038186803b15801561232f57600080fd5b505af4158015612343573d6000803e3d6000fd5b505050506040513d6000823e601f3d908101601f1916820160405261236b91908101906142f8565b6040516123789190614abd565b90815260405190819003602001902060006123966001830182613d31565b506000600291909101819055604051630f572b7f60e11b815273__$d895092408b28263ee57beab52231763ab$__90631eae56fe906123d9908690600401614ba5565b60006040518083038186803b1580156123f157600080fd5b505af4158015612405573d6000803e3d6000fd5b505050506040513d6000823e601f3d908101601f1916820160405261242d91908101906142f8565b60405161243a9190614abd565b90815260405190819003602001902060006124586001830182613d31565b506000600291909101819055604051633ae0921160e21b815273__$d895092408b28263ee57beab52231763ab$__9063eb8248449061249b908690600401614ba5565b60006040518083038186803b1580156124b357600080fd5b505af41580156124c7573d6000803e3d6000fd5b505050506040513d6000823e601f3d908101601f191682016040526124ef91908101906142f8565b6040516124fc9190614abd565b908152604051908190036020019020600061251a6001830182613d31565b506000600291909101819055604051639eee0a8960e01b815273__$d895092408b28263ee57beab52231763ab$__90639eee0a899061255d908690600401614ba5565b60006040518083038186803b15801561257557600080fd5b505af4158015612589573d6000803e3d6000fd5b505050506040513d6000823e601f3d908101601f191682016040526125b191908101906142f8565b6040516125be9190614abd565b90815260405190819003602001902060006125dc6001830182613d31565b60028201600090555050600180836040516125f79190614abd565b908152604051908190036020018120805492151560ff1990931692909217909155600090600190612629908590614abd565b9081526020016040518091039020600101819055507fe0d447dee36c113fb0b5edf3262a72a06d967bd571d810cfaa2b7df89749f7ca8260405161266d9190614ba5565b60405180910390a15050565b60608073__$d895092408b28263ee57beab52231763ab$__63eb824844846040518263ffffffff1660e01b81526004016126b39190614ba5565b60006040518083038186803b1580156126cb57600080fd5b505af41580156126df573d6000803e3d6000fd5b505050506040513d6000823e601f3d908101601f1916820160405261270791908101906142f8565b90506000808260405161271a9190614abd565b90815260405190819003602001812063833667e160e01b8252915073__$5db7214be5932887d9b1c5075d6310aecd$__9063833667e19061275f908490600401615147565b60006040518083038186803b15801561277757600080fd5b505af415801561278b573d6000803e3d6000fd5b505050506040513d6000823e601f3d908101601f1916820160405261097f91908101906141b6565b6127bd8382612ac4565b92506127cb8383600061335c565b7f40f36fc5010e18c1e871f706915909d1fcf1215d949a2c4d72350380162b1bd58383604051610e73929190614ca9565b606060005b82518110156128c85773__$af086eb72a71a83a951685455470ad2da6$__63f925113284838151811061283057fe5b60200260200101516040518263ffffffff1660e01b81526004016128549190614ba5565b60206040518083038186803b15801561286c57600080fd5b505af4158015612880573d6000803e3d6000fd5b505050506040513d601f19601f820116820180604052508101906128a491906142c0565b6128c05760405162461bcd60e51b815260040161072090614f51565b600101612801565b506128d38484612ac4565b949350505050565b6001835110156128fd5760405162461bcd60e51b815260040161072090614eb9565b60008073__$d895092408b28263ee57beab52231763ab$__63170b92548a6040518263ffffffff1660e01b81526004016129379190614ba5565b60006040518083038186803b15801561294f57600080fd5b505af4158015612963573d6000803e3d6000fd5b505050506040513d6000823e601f3d908101601f1916820160405261298b91908101906142f8565b6040516129989190614abd565b90815260405190819003602001902060018101549091506002016060896129be83613a9f565b6040516020016129cf929190614b10565b604051602081830303815290604052905060606129ec8a8a613b76565b90506129f6613d55565b6040518060e001604052808481526020018a8152602001898152602001838152602001600015158152602001881515815260200187612a36576000612a3f565b612a3f8e613bd6565b90526040516337aebcf760e01b815290915073__$5db7214be5932887d9b1c5075d6310aecd$__906337aebcf790612a7d908890859060040161518e565b60006040518083038186803b158015612a9557600080fd5b505af4158015612aa9573d6000803e3d6000fd5b50505050612ab68c612b7d565b505050505050505050505050565b606060006060612ad48585612d36565b91509150816128d35760405162461bcd60e51b815260040161072090614e63565b6000828152602084815260408220805484519092612b1a926001019190860190613d96565b508015612b2b576001915050611b31565b5060018085018054918201808255600086815260208890526040902081905585919083908110612b5757fe5b60009182526020822060029182020192909255908601805460010190559150611b319050565b604051639eee0a8960e01b815260609073__$d895092408b28263ee57beab52231763ab$__90639eee0a8990612bb7908590600401614ba5565b60006040518083038186803b158015612bcf57600080fd5b505af4158015612be3573d6000803e3d6000fd5b505050506040513d6000823e601f3d908101601f19168201604052612c0b91908101906142f8565b9050600073__$d895092408b28263ee57beab52231763ab$__63e97b8b906040518163ffffffff1660e01b815260040160206040518083038186803b158015612c5357600080fd5b505af4158015612c67573d6000803e3d6000fd5b505050506040513d601f19601f82011682018060405250810190612c8b91906142e0565b90506112d781612c9a42613c2b565b6000856040516106ea9190614abd565b60008181526020839052604081205480612cc8576000915050610e14565b600083815260208590526040812081815590612ce76001830182613e14565b50506001846001016001830381548110612cfd57fe5b600091825260209091206002918202016001908101805460ff191693151593909317909255949094018054600019019055509192915050565b6000606073__$ad5f1105ae2e107008b91fdda17d716fb8$__639416b423856040518263ffffffff1660e01b8152600401612d719190614ba5565b60006040518083038186803b158015612d8957600080fd5b505af4158015612d9d573d6000803e3d6000fd5b505050506040513d6000823e601f3d908101601f19168201604052612dc591908101906142f8565b604051637c92889960e11b815290945073__$af086eb72a71a83a951685455470ad2da6$__9063f925113290612dff908790600401614ba5565b60206040518083038186803b158015612e1757600080fd5b505af4158015612e2b573d6000803e3d6000fd5b505050506040513d601f19601f82011682018060405250810190612e4f91906142c0565b612e5e57506000905082613355565b600184604051612e6e9190614abd565b9081526040519081900360200190205460ff1615612e9157506000905082613355565b60405163635c70d160e11b815260009073__$af086eb72a71a83a951685455470ad2da6$__9063c6b8e1a290612ecb908890600401614ba5565b60206040518083038186803b158015612ee357600080fd5b505af4158015612ef7573d6000803e3d6000fd5b505050506040513d601f19601f82011682018060405250810190612f1b91906140e0565b9050835160001415612f51576001600160a01b038116331480612f4657506001600160a01b03811632145b859250925050613355565b60008085516014141561301257612f6786613c93565b60408051600081526020810190915290925073__$d895092408b28263ee57beab52231763ab$__9063b726099b90612f9f9085613b76565b6040518263ffffffff1660e01b8152600401612fbb9190614ba5565b60206040518083038186803b158015612fd357600080fd5b505af4158015612fe7573d6000803e3d6000fd5b505050506040513d601f19601f8201168201806040525081019061300b91906142e0565b905061312f565b6040516319866dfb60e21b815273__$af086eb72a71a83a951685455470ad2da6$__90636619b7ec90613049908990600401614ba5565b60206040518083038186803b15801561306157600080fd5b505af4158015613075573d6000803e3d6000fd5b505050506040513d601f19601f8201168201806040525081019061309991906140e0565b915073__$d895092408b28263ee57beab52231763ab$__63b726099b6130c0886000613b76565b6040518263ffffffff1660e01b81526004016130dc9190614ba5565b60206040518083038186803b1580156130f457600080fd5b505af4158015613108573d6000803e3d6000fd5b505050506040513d601f19601f8201168201806040525081019061312c91906142e0565b90505b6001600160a01b038216331480159061315157506001600160a01b0382163214155b156131655760008794509450505050613355565b826001600160a01b0316826001600160a01b0316141561318e5760018794509450505050613355565b6040516305c2e49560e21b815260609073__$d895092408b28263ee57beab52231763ab$__9063170b9254906131c8908b90600401614ba5565b60006040518083038186803b1580156131e057600080fd5b505af41580156131f4573d6000803e3d6000fd5b505050506040513d6000823e601f3d908101601f1916820160405261321c91908101906142f8565b9050613247826000836040516132329190614abd565b90815260405190819003602001902090613cbe565b61325b576000889550955050505050613355565b613263613d55565b73__$5db7214be5932887d9b1c5075d6310aecd$__63bbed643e60008460405161328d9190614abd565b90815260408051918290036020908101832060008981529152206001600160e01b031960e084901b1682526132ca91600190910190600401614bb8565b60006040518083038186803b1580156132e257600080fd5b505af41580156132f6573d6000803e3d6000fd5b505050506040513d6000823e601f3d908101601f1916820160405261331e9190810190614875565b9050806080015180613332575060c0810151155b1561334857600089965096505050505050613355565b6001899650965050505050505b9250929050565b6040516305c2e49560e21b815260609073__$d895092408b28263ee57beab52231763ab$__9063170b925490613396908790600401614ba5565b60006040518083038186803b1580156133ae57600080fd5b505af41580156133c2573d6000803e3d6000fd5b505050506040513d6000823e601f3d908101601f191682016040526133ea91908101906142f8565b905073__$5db7214be5932887d9b1c5075d6310aecd$__636265a1d36000836040516134169190614abd565b908152602001604051809103902061342e8686613b76565b61343788613bd6565b6040518463ffffffff1660e01b81526004016134559392919061529e565b60006040518083038186803b15801561346d57600080fd5b505af4158015613481573d6000803e3d6000fd5b505050506112d784612b7d565b6040516305c2e49560e21b815260609073__$d895092408b28263ee57beab52231763ab$__9063170b9254906134c8908790600401614ba5565b60006040518083038186803b1580156134e057600080fd5b505af41580156134f4573d6000803e3d6000fd5b505050506040513d6000823e601f3d908101601f1916820160405261351c91908101906142f8565b905073__$5db7214be5932887d9b1c5075d6310aecd$__638e5506cb6000836040516135489190614abd565b90815260200160405180910390206135608686613b76565b6040518363ffffffff1660e01b8152600401613455929190615285565b60606000606061358e868686613672565b91509150816135af5760405162461bcd60e51b815260040161072090614da6565b95945050505050565b6040516305c2e49560e21b815260609073__$d895092408b28263ee57beab52231763ab$__9063170b9254906135f2908790600401614ba5565b60006040518083038186803b15801561360a57600080fd5b505af415801561361e573d6000803e3d6000fd5b505050506040513d6000823e601f3d908101601f1916820160405261364691908101906142f8565b905073__$5db7214be5932887d9b1c5075d6310aecd$__636550a4706000836040516135489190614abd565b6000606073__$ad5f1105ae2e107008b91fdda17d716fb8$__639416b423866040518263ffffffff1660e01b81526004016136ad9190614ba5565b60006040518083038186803b1580156136c557600080fd5b505af41580156136d9573d6000803e3d6000fd5b505050506040513d6000823e601f3d908101601f1916820160405261370191908101906142f8565b604051637c92889960e11b815290955073__$af086eb72a71a83a951685455470ad2da6$__9063f92511329061373b908890600401614ba5565b60206040518083038186803b15801561375357600080fd5b505af4158015613767573d6000803e3d6000fd5b505050506040513d601f19601f8201168201806040525081019061378b91906142c0565b61379a57506000905083613924565b6001856040516137aa9190614abd565b9081526040519081900360200190205460ff16156137cd57506000905083613924565b604051630f572b7f60e11b815260609073__$d895092408b28263ee57beab52231763ab$__90631eae56fe90613807908990600401614ba5565b60006040518083038186803b15801561381f57600080fd5b505af4158015613833573d6000803e3d6000fd5b505050506040513d6000823e601f3d908101601f1916820160405261385b91908101906142f8565b9050600073__$d895092408b28263ee57beab52231763ab$__63f4d9407f876040518263ffffffff1660e01b81526004016138969190614ba5565b60206040518083038186803b1580156138ae57600080fd5b505af41580156138c2573d6000803e3d6000fd5b505050506040513d601f19601f820116820180604052508101906138e691906142e0565b90506138fc816000846040516132329190614abd565b61390e57600087935093505050613924565b600061391a8787612d36565b5094508793505050505b935093915050565b606060005b82518110156139f85773__$af086eb72a71a83a951685455470ad2da6$__63f925113284838151811061396057fe5b60200260200101516040518263ffffffff1660e01b81526004016139849190614ba5565b60206040518083038186803b15801561399c57600080fd5b505af41580156139b0573d6000803e3d6000fd5b505050506040513d601f19601f820116820180604052508101906139d491906142c0565b6139f05760405162461bcd60e51b815260040161072090614f51565b600101613931565b506135af85848661357d565b6000808351836020011115613a2b5760405162461bcd60e51b815260040161072090614ddd565b600060405160206000600182038760208a0101515b83831015613a605780821a83860153600183019250600182039150613a40565b50505081016040525190506001600160ff1b03811115613a925760405162461bcd60e51b815260040161072090614ee3565b9460209390930193505050565b606081613ac457506040805180820190915260018152600360fc1b6020820152610984565b8160005b8115613adc57600101600a82049150613ac8565b6060816001600160401b0381118015613af457600080fd5b506040519080825280601f01601f191660200182016040528015613b1f576020820181803683370190505b50905060001982015b8515613b6d57600a860660300160f81b82828060019003935081518110613b4b57fe5b60200101906001600160f81b031916908160001a905350600a86049550613b28565b50949350505050565b60608083604051602001613b8a9190614abd565b60408051601f1981840301815291905290506001600160a01b03831615611b31578083604051602001613bbe929190614ad9565b60405160208183030381529060405290509392505050565b600080600183604051613be99190614abd565b908152602001604051809103902060010154600201905080600184604051613c119190614abd565b908152604051908190036020019020600101559050919050565b60606001600160ff1b03821115613c545760405162461bcd60e51b815260040161072090614f1a565b60405160208082526000601f5b82821015613c835785811a826020860101536001919091019060001901613c61565b5050506040818101905292915050565b60008151601414613cb65760405162461bcd60e51b815260040161072090614e20565b506014015190565b60009081526020919091526040902054151590565b60405180606001604052806060815260200160608152602001606081525090565b6040518060e00160405280606081526020016060815260200160608152602001606081526020016060815260200160608152602001600081525090565b5080546000825560020290600052602060002090810190613d529190613e58565b50565b6040518060e0016040528060608152602001606081526020016060815260200160608152602001600015158152602001600015158152602001600081525090565b828054600181600116156101000203166002900490600052602060002090601f016020900481019282601f10613dd757805160ff1916838001178555613e04565b82800160010185558215613e04579182015b82811115613e04578251825591602001919060010190613de9565b50613e10929150613e79565b5090565b50805460018160011615610100020316600290046000825580601f10613e3a5750613d52565b601f016020900490600052602060002090810190613d529190613e79565b5b80821115613e10576000815560018101805460ff19169055600201613e59565b5b80821115613e105760008155600101613e7a565b600082601f830112613e9e578081fd5b8135613eb1613eac826152ed565b6152c7565b818152915060208083019084810160005b84811015613eeb57613ed9888484358a0101613f5e565b84529282019290820190600101613ec2565b505050505092915050565b600082601f830112613f06578081fd5b8151613f14613eac826152ed565b818152915060208083019084810160005b84811015613eeb57613f3c888484518a0101613fac565b84529282019290820190600101613f25565b80518015158114610e1457600080fd5b600082601f830112613f6e578081fd5b8135613f7c613eac8261530c565b9150808252836020828501011115613f9357600080fd5b8060208401602084013760009082016020015292915050565b600082601f830112613fbc578081fd5b8151613fca613eac8261530c565b9150808252836020828501011115613fe157600080fd5b613ff281602084016020860161533b565b5092915050565b600060e0828403121561400a578081fd5b61401460e06152c7565b905081516001600160401b038082111561402d57600080fd5b61403985838601613fac565b8352602084015191508082111561404f57600080fd5b61405b85838601613fac565b6020840152604084015191508082111561407457600080fd5b61408085838601613ef6565b6040840152606084015191508082111561409957600080fd5b506140a684828501613fac565b6060830152506140b98360808401613f4e565b60808201526140cb8360a08401613f4e565b60a082015260c082015160c082015292915050565b6000602082840312156140f1578081fd5b8151611b3181615367565b60006020828403121561410d578081fd5b81516001600160401b03811115614122578182fd5b6128d384828501613ef6565b60006020808385031215614140578182fd5b82516001600160401b03811115614155578283fd5b8301601f81018513614165578283fd5b8051614173613eac826152ed565b81815283810190838501865b848110156141a8576141968a888451890101613ff9565b8452928601929086019060010161417f565b509098975050505050505050565b600060208083850312156141c8578182fd5b82516001600160401b03808211156141de578384fd5b818501915085601f8301126141f1578384fd5b81516141ff613eac826152ed565b81815284810190848601875b848110156142b15781518701606080601f19838f0301121561422b578a8bfd5b614234816152c7565b8a83015189811115614244578c8dfd5b6142528f8d83870101613fac565b825250604083015189811115614266578c8dfd5b6142748f8d83870101613fac565b828d01525090820151908882111561428a578b8cfd5b6142988e8c84860101613fac565b604082015286525050928701929087019060010161420b565b50909998505050505050505050565b6000602082840312156142d1578081fd5b81518015158114611b31578182fd5b6000602082840312156142f1578081fd5b5051919050565b600060208284031215614309578081fd5b81516001600160401b0381111561431e578182fd5b6128d384828501613fac565b60006020828403121561433b578081fd5b81356001600160401b03811115614350578182fd5b6128d384828501613f5e565b60008060008060808587031215614371578283fd5b84356001600160401b0380821115614387578485fd5b61439388838901613f5e565b9550602087013591506143a582615367565b909350604086013590808211156143ba578384fd5b6143c688838901613e8e565b935060608701359150808211156143db578283fd5b506143e887828801613f5e565b91505092959194509250565b600080600080600060a0868803121561440b578283fd5b85356001600160401b0380821115614421578485fd5b61442d89838a01613f5e565b96506020880135915061443f82615367565b90945060408701359080821115614454578485fd5b61446089838a01613e8e565b94506060880135915080821115614475578283fd5b61448189838a01613f5e565b93506080880135915080821115614496578283fd5b506144a388828901613f5e565b9150509295509295909350565b6000806000606084860312156144c4578081fd5b83356001600160401b03808211156144da578283fd5b6144e687838801613f5e565b9450602086013591506144f882615367565b9092506040850135908082111561450d578283fd5b5061451a86828701613f5e565b9150509250925092565b60008060008060808587031215614539578182fd5b84356001600160401b038082111561454f578384fd5b61455b88838901613f5e565b95506020870135915061456d82615367565b90935060408601359080821115614582578384fd5b6143c688838901613f5e565b6000806000606084860312156145a2578081fd5b83356001600160401b03808211156145b8578283fd5b6145c487838801613f5e565b945060208601359150808211156145d9578283fd5b6145e587838801613e8e565b9350604086013591508082111561450d578283fd5b6000806040838503121561460c578182fd5b82356001600160401b0380821115614622578384fd5b61462e86838701613f5e565b93506020850135915080821115614643578283fd5b5061465085828601613f5e565b9150509250929050565b6000806000806080858703121561466f578182fd5b84356001600160401b0380821115614685578384fd5b61469188838901613f5e565b955060208701359150808211156146a6578384fd5b6146b288838901613f5e565b945060408701359150808211156143ba578384fd5b600080600080600060a086880312156146de578283fd5b85356001600160401b03808211156146f4578485fd5b61470089838a01613f5e565b96506020880135915080821115614715578485fd5b61472189838a01613f5e565b95506040880135915080821115614454578485fd5b60008060006060848603121561474a578081fd5b83356001600160401b0380821115614760578283fd5b61476c87838801613f5e565b94506020860135915080821115614781578283fd5b6145e587838801613f5e565b600080600080608085870312156147a2578182fd5b84356001600160401b03808211156147b8578384fd5b6147c488838901613f5e565b955060208701359150808211156147d9578384fd5b6147e588838901613f5e565b94506040870135915080821115614582578384fd5b600080600080600060a08688031215614811578283fd5b85356001600160401b0380821115614827578485fd5b61483389838a01613f5e565b96506020880135915080821115614848578485fd5b61485489838a01613f5e565b95506040880135915080821115614869578485fd5b61446089838a01613f5e565b600060208284031215614886578081fd5b81516001600160401b0381111561489b578182fd5b6128d384828501613ff9565b6000815180845260208085018081965082840281019150828601855b858110156148ed5782840389526148db848351614a91565b988501989350908401906001016148c3565b5091979650505050505050565b6000815180845260208085018081965082840281019150828601855b858110156148ed57828403895261492e848351614a91565b98850198935090840190600101614916565b6000815180845260208085018081965082840281019150828601855b858110156148ed578284038952815160e0815181875261497e82880182614a91565b91505086820151868203888801526149968282614a91565b915050604080830151878303828901526149b083826148a7565b92505050606080830151878303828901526149cb8382614a91565b6080858101511515908a015260a0808601511515908a015260c0948501519490980193909352505050978401979084019060010161495c565b6000815180845260208085018081965082840281019150828601855b858110156148ed578284038952815160608151818752614a4282880182614a91565b9150508682015186820388880152614a5a8282614a91565b91505060408083015192508682038188015250614a778183614a91565b9a87019a9550505090840190600101614a20565b15159052565b60008151808452614aa981602086016020860161533b565b601f01601f19169290920160200192915050565b60008251614acf81846020870161533b565b9190910192915050565b60008351614aeb81846020880161533b565b60609390931b6bffffffffffffffffffffffff19169190920190815260140192915050565b60008351614b2281846020880161533b565b65236b6579732d60d01b9083019081528351614b4581600684016020880161533b565b01600601949350505050565b600060208252611b3160208301846148fa565b600060208252611b316020830184614940565b600060208252611b316020830184614a04565b901515815260200190565b9115158252602082015260400190565b600060208252611b316020830184614a91565b60006020808301818452828554600180821660008114614bdf5760018114614bfd576148ed565b60028304607f16855260ff19831660408901526060880193506148ed565b60028304808652614c0d8a61532f565b885b82811015614c2b5781548b820160400152908401908801614c0f565b8a01604001955050505091979650505050505050565b600060408252614c546040830185614a91565b905060018060a01b03831660208301529392505050565b600060608252614c7e6060830186614a91565b6001600160a01b03851660208401528281036040840152614c9f81856148fa565b9695505050505050565b600060408252614cbc6040830185614a91565b82810360208401526135af8185614a91565b600060608252614ce16060830186614a91565b8281036020840152614cf38186614a91565b90508281036040840152614c9f81856148fa565b600060808252614d1a6080830187614a91565b8281036020840152614d2c8187614a91565b90508281036040840152614d408186614a91565b90508281036060840152614d548185614a91565b979650505050505050565b600060608252614d726060830185614a91565b82810360208401526020815260008051602061539e8339815191526020820152604081019150508260408301529392505050565b60208082526017908201527f636865636b20636f6e74726f6c6c6572206661696c6564000000000000000000604082015260600190565b60208082526023908201527f4e65787455696e743235352c206f66667365742065786365656473206d6178696040820152626d756d60e81b606082015260800190565b60208082526023908201527f6279746573206c656e67746820646f6573206e6f74206d61746368206164647260408201526265737360e81b606082015260800190565b60208082526010908201526f18da1958dac81cda59c819985a5b195960821b604082015260600190565b60208082526012908201527118dbdb9d1c9bdb1b195c88195e1a5cdd195960721b604082015260600190565b60208082526010908201526f636f6e74726f6c6c657220656d70747960801b604082015260600190565b60208082526017908201527f56616c75652065786365656473207468652072616e6765000000000000000000604082015260600190565b6020808252601b908201527f56616c756520657863656564732075696e743235352072616e67650000000000604082015260600190565b60208082526012908201527134b63632b3b0b61031b7b73a3937b63632b960711b604082015260600190565b6020808252600f908201526e191a590819195858dd1a5d985d1959608a1b604082015260600190565b60208082526014908201527318dbdb9d1c9bdb1b195c881b9bdd08195e1a5cdd60621b604082015260600190565b6020808252601190820152701cd95c9d9a58d9481b9bdd08195e1a5cdd607a1b604082015260600190565b6020808252600f908201526e1cd95c9d9a58d948195e1a5cdd1959608a1b604082015260600190565b600060208252825160e060208401526150456101008401826148a7565b90506020840151601f19808584030160408601526150638383614a91565b925060408601519150808584030160608601526150808383614940565b9250606086015191508085840301608086015261509d8383614940565b925060808601519150808584030160a08601526150ba83836148a7565b925060a08601519150808584030160c0860152506150d88282614a04565b91505060c084015160e08401528091505092915050565b60006020825282516060602084015261510b6080840182614a91565b90506020840151601f19808584030160408601526151298383614a91565b92506040860151915080858403016060860152506135af8282614a91565b90815260200190565b908152604060208201819052601c908201527f68747470733a2f2f7777772e77332e6f72672f6e732f6469642f763100000000606082015260800190565b60008382526020604081840152835160e060408501526151b2610120850182614a91565b905081850151603f19808684030160608701526151cf8383614a91565b6040880151878203830160808901528051808352919450850192508484019085810285018601875b8281101561522557601f19878303018452615213828751614a91565b958801959388019391506001016151f7565b5060608a01519650838982030160a08a01526152418188614a91565b9650505050505050608084015161525b60c0850182614a8b565b5060a084015161526e60e0850182614a8b565b5060c0840151610100840152809150509392505050565b6000838252604060208301526128d36040830184614a91565b6000848252606060208301526152b76060830185614a91565b9050826040830152949350505050565b6040518181016001600160401b03811182821017156152e557600080fd5b604052919050565b60006001600160401b03821115615302578081fd5b5060209081020190565b60006001600160401b03821115615321578081fd5b50601f01601f191660200190565b60009081526020902090565b60005b8381101561535657818101518382015260200161533e565b838111156112d75750506000910152565b6001600160a01b0381168114613d5257600080fdfe4563647361536563703235366b31566572696669636174696f6e4b6579323031394563647361536563703235366b315265636f766572794d6574686f6432303230a264697066735822122021017516da2425d60967365a4ec7f8f574bd33f2b0c931642afe275420b572bb64736f6c634300060c0033",
  "linkReferences": {
    "contracts/BytesUtils.sol": {
      "BytesUtils": [
        {
          "length": 20,
          "start": 1957
        },
        {
          "length": 20,
          "start": 3996
        },
        {
          "length": 20,
          "start": 8056
        },
        {
          "length": 20,
          "start": 11612
        },
        {
          "length": 20,
          "start": 13976
        }
      ]
    },
    "contracts/DidUtils.sol": {
      "DidUtils": [
        {
          "length": 20,
          "start": 10284
        },
        {
          "length": 20,
          "start": 11767
        },
        {
          "length": 20,
          "start": 11971
        },
        {
          "length": 20,
          "start": 12353
        },
        {
          "length": 20,
          "start": 14131
        },
        {
          "length": 20,
          "start": 14684
        }
      ]
    },
    "contracts/KeyUtils.sol": {
      "KeyUtils": [
        {
          "length": 20,
          "start": 1501
        },
        {
          "length": 20,
          "start": 1644
        },
        {
          "length": 20,
          "start": 2165
        },
        {
          "length": 20,
          "start": 2489
        },
        {
          "length": 20,
          "start": 2632
        },
        {
          "length": 20,
          "start": 2904
        },
        {
          "length": 20,
          "start": 3229
        },
        {
          "length": 20,
          "start": 3372
        },
        {
          "length": 20,
          "start": 4204
        },
        {
          "length": 20,
          "start": 4432
        },
        {
          "length": 20,
          "start": 4611
        },
        {
          "length": 20,
          "start": 4877
        },
        {
          "length": 20,
          "start": 5020
        },
        {
          "length": 20,
          "start": 5880
        },
        {
          "length": 20,
          "start": 6023
        },
        {
          "length": 20,
          "start": 6471
        },
        {
          "length": 20,
          "start": 6650
        },
        {
          "length": 20,
          "start": 7541
        },
        {
          "length": 20,
          "start": 7684
        },
        {
          "length": 20,
          "start": 8251
        },
        {
          "length": 20,
          "start": 8768
        },
        {
          "length": 20,
          "start": 8975
        },
        {
          "length": 20,
          "start": 9169
        },
        {
          "length": 20,
          "start": 9363
        },
        {
          "length": 20,
          "start": 9557
        },
        {
          "length": 20,
          "start": 9886
        },
        {
          "length": 20,
          "start": 10530
        },
        {
          "length": 20,
          "start": 11183
        },
        {
          "length": 20,
          "start": 11313
        },
        {
          "length": 20,
          "start": 12187
        },
        {
          "length": 20,
          "start": 12477
        },
        {
          "length": 20,
          "start": 12736
        },
        {
          "length": 20,
          "start": 13198
        },
        {
          "length": 20,
          "start": 13504
        },
        {
          "length": 20,
          "start": 13802
        },
        {
          "length": 20,
          "start": 14335
        },
        {
          "length": 20,
          "start": 14465
        }
      ]
    },
    "contracts/StorageUtils.sol": {
      "StorageUtils": [
        {
          "length": 20,
          "start": 2337
        },
        {
          "length": 20,
          "start": 3089
        },
        {
          "length": 20,
          "start": 4376
        },
        {
          "length": 20,
          "start": 5196
        },
        {
          "length": 20,
          "start": 6199
        },
        {
          "length": 20,
          "start": 8430
        },
        {
          "length": 20,
          "start": 10071
        },
        {
          "length": 20,
          "start": 10867
        },
        {
          "length": 20,
          "start": 12933
        },
        {
          "length": 20,
          "start": 13326
        },
        {
          "length": 20,
          "start": 13632
        },
        {
          "length": 20,
          "start": 13930
        }
      ]
    }
  },
  "deployedLinkReferences": {
    "contracts/BytesUtils.sol": {
      "BytesUtils": [
        {
          "length": 20,
          "start": 1925
        },
        {
          "length": 20,
          "start": 3964
        },
        {
          "length": 20,
          "start": 8024
        },
        {
          "length": 20,
          "start": 11580
        },
        {
          "length": 20,
          "start": 13944
        }
      ]
    },
    "contracts/DidUtils.sol": {
      "DidUtils": [
        {
          "length": 20,
          "start": 10252
        },
        {
          "length": 20,
          "start": 11735
        },
        {
          "length": 20,
          "start": 11939
        },
        {
          "length": 20,
          "start": 12321
        },
        {
          "length": 20,
          "start": 14099
        },
        {
          "length": 20,
          "start": 14652
        }
      ]
    },
    "contracts/KeyUtils.sol": {
      "KeyUtils": [
        {
          "length": 20,
          "start": 1469
        },
        {
          "length": 20,
          "start": 1612
        },
        {
          "length": 20,
          "start": 2133
        },
        {
          "length": 20,
          "start": 2457
        },
        {
          "length": 20,
          "start": 2600
        },
        {
          "length": 20,
          "start": 2872
        },
        {
          "length": 20,
          "start": 3197
        },
        {
          "length": 20,
          "start": 3340
        },
        {
          "length": 20,
          "start": 4172
        },
        {
          "length": 20,
          "start": 4400
        },
        {
          "length": 20,
          "start": 4579
        },
        {
          "length": 20,
          "start": 4845
        },
        {
          "length": 20,
          "start": 4988
        },
        {
          "length": 20,
          "start": 5848
        },
        {
          "length": 20,
          "start": 5991
        },
        {
          "length": 20,
          "start": 6439
        },
        {
          "length": 20,
          "start": 6618
        },
        {
          "length": 20,
          "start": 7509
        },
        {
          "length": 20,
          "start": 7652
        },
        {
          "length": 20,
          "start": 8219
        },
        {
          "length": 20,
          "start": 8736
        },
        {
          "length": 20,
          "start": 8943
        },
        {
          "length": 20,
          "start": 9137
        },
        {
          "length": 20,
          "start": 9331
        },
        {
          "length": 20,
          "start": 9525
        },
        {
          "length": 20,
          "start": 9854
        },
        {
          "length": 20,
          "start": 10498
        },
        {
          "length": 20,
          "start": 11151
        },
        {
          "length": 20,
          "start": 11281
        },
        {
          "length": 20,
          "start": 12155
        },
        {
          "length": 20,
          "start": 12445
        },
        {
          "length": 20,
          "start": 12704
        },
        {
          "length": 20,
          "start": 13166
        },
        {
          "length": 20,
          "start": 13472
        },
        {
          "length": 20,
          "start": 13770
        },
        {
          "length": 20,
          "start": 14303
        },
        {
          "length": 20,
          "start": 14433
        }
      ]
    },
    "contracts/StorageUtils.sol": {
      "StorageUtils": [
        {
          "length": 20,
          "start": 2305
        },
        {
          "length": 20,
          "start": 3057
        },
        {
          "length": 20,
          "start": 4344
        },
        {
          "length": 20,
          "start": 5164
        },
        {
          "length": 20,
          "start": 6167
        },
        {
          "length": 20,
          "start": 8398
        },
        {
          "length": 20,
          "start": 10039
        },
        {
          "length": 20,
          "start": 10835
        },
        {
          "length": 20,
          "start": 12901
        },
        {
          "length": 20,
          "start": 13294
        },
        {
          "length": 20,
          "start": 13600
        },
        {
          "length": 20,
          "start": 13898
        }
      ]
    }
  }
}