{
  "_format": "hh-sol-artifact-1",
  "contractName": "StorageUtils",
  "sourceName": "contracts/StorageUtils.sol",
  "abi": [
    {
      "inputs": [
        {
          "internalType": "bytes",
          "name": "data",
          "type": "bytes"
        }
      ],
      "name": "deserializePubKey",
      "outputs": [
        {
          "components": [
            {
              "internalType": "string",
              "name": "id",
              "type": "string"
            },
            {
              "internalType": "string",
              "name": "keyType",
              "type": "string"
            },
            {
              "internalType": "string[]",
              "name": "controller",
              "type": "string[]"
            },
            {
              "internalType": "bytes",
              "name": "pubKeyData",
              "type": "bytes"
            },
            {
              "internalType": "bool",
              "name": "deactivated",
              "type": "bool"
            },
            {
              "internalType": "bool",
              "name": "isPubKey",
              "type": "bool"
            },
            {
              "internalType": "uint256",
              "name": "authIndex",
              "type": "uint256"
            }
          ],
          "internalType": "struct StorageUtils.PublicKey",
          "name": "",
          "type": "tuple"
        }
      ],
      "stateMutability": "pure",
      "type": "function"
    },
    {
      "inputs": [
        {
          "internalType": "bytes",
          "name": "serviceBytes",
          "type": "bytes"
        }
      ],
      "name": "deserializeService",
      "outputs": [
        {
          "components": [
            {
              "internalType": "string",
              "name": "serviceId",
              "type": "string"
            },
            {
              "internalType": "string",
              "name": "serviceType",
              "type": "string"
            },
            {
              "internalType": "string",
              "name": "serviceEndpoint",
              "type": "string"
            }
          ],
          "internalType": "struct StorageUtils.Service",
          "name": "",
          "type": "tuple"
        }
      ],
      "stateMutability": "pure",
      "type": "function"
    },
    {
      "inputs": [
        {
          "internalType": "string",
          "name": "did",
          "type": "string"
        },
        {
          "internalType": "string",
          "name": "keyType",
          "type": "string"
        }
      ],
      "name": "genPublicKeyFromDID",
      "outputs": [
        {
          "components": [
            {
              "internalType": "string",
              "name": "id",
              "type": "string"
            },
            {
              "internalType": "string",
              "name": "keyType",
              "type": "string"
            },
            {
              "internalType": "string[]",
              "name": "controller",
              "type": "string[]"
            },
            {
              "internalType": "bytes",
              "name": "pubKeyData",
              "type": "bytes"
            },
            {
              "internalType": "bool",
              "name": "deactivated",
              "type": "bool"
            },
            {
              "internalType": "bool",
              "name": "isPubKey",
              "type": "bool"
            },
            {
              "internalType": "uint256",
              "name": "authIndex",
              "type": "uint256"
            }
          ],
          "internalType": "struct StorageUtils.PublicKey",
          "name": "",
          "type": "tuple"
        }
      ],
      "stateMutability": "pure",
      "type": "function"
    },
    {
      "inputs": [
        {
          "components": [
            {
              "internalType": "string",
              "name": "id",
              "type": "string"
            },
            {
              "internalType": "string",
              "name": "keyType",
              "type": "string"
            },
            {
              "internalType": "string[]",
              "name": "controller",
              "type": "string[]"
            },
            {
              "internalType": "bytes",
              "name": "pubKeyData",
              "type": "bytes"
            },
            {
              "internalType": "bool",
              "name": "deactivated",
              "type": "bool"
            },
            {
              "internalType": "bool",
              "name": "isPubKey",
              "type": "bool"
            },
            {
              "internalType": "uint256",
              "name": "authIndex",
              "type": "uint256"
            }
          ],
          "internalType": "struct StorageUtils.PublicKey",
          "name": "publicKey",
          "type": "tuple"
        }
      ],
      "name": "serializePubKey",
      "outputs": [
        {
          "internalType": "bytes",
          "name": "",
          "type": "bytes"
        }
      ],
      "stateMutability": "pure",
      "type": "function"
    },
    {
      "inputs": [
        {
          "components": [
            {
              "internalType": "string",
              "name": "serviceId",
              "type": "string"
            },
            {
              "internalType": "string",
              "name": "serviceType",
              "type": "string"
            },
            {
              "internalType": "string",
              "name": "serviceEndpoint",
              "type": "string"
            }
          ],
          "internalType": "struct StorageUtils.Service",
          "name": "service",
          "type": "tuple"
        }
      ],
      "name": "serializeService",
      "outputs": [
        {
          "internalType": "bytes",
          "name": "",
          "type": "bytes"
        }
      ],
      "stateMutability": "pure",
      "type": "function"
    }
  ],
  "bytecode": "0x6129dd610026600b82828239805160001a60731461001957fe5b30600052607381538281f3fe73000000000000000000000000000000000000000030146080604052600436106100f45760003560e01c80636550a470116100965780638c789531116100705780638c7895311461022a5780638e5506cb1461023d578063bbed643e1461025d578063ceb6b7061461027d576100f4565b80636550a470146101d7578063711f2cd4146101f7578063833667e11461020a576100f4565b80633ba513e9116100d25780633ba513e914610164578063423b18a6146101845780636265a1d314610197578063637529db146101b7576100f4565b80632c7f2e4b146100f957806337aebcf7146101225780633ac9ad5e14610144575b600080fd5b61010c610107366004612007565b610290565b6040516101199190612559565b60405180910390f35b81801561012e57600080fd5b5061014261013d3660046121e0565b6104a8565b005b610157610152366004612070565b610581565b60405161011991906125ff565b610177610172366004611f6d565b6106c9565b604051610119919061293e565b61010c610192366004612007565b610743565b8180156101a357600080fd5b506101426101b23660046121a4565b6109d2565b6101ca6101c5366004612152565b610ba0565b60405161011991906124f9565b8180156101e357600080fd5b506101426101f236600461216a565b610c5a565b6101576102053660046120a2565b610e13565b61021d610218366004612152565b610e78565b60405161011991906125ac565b6101ca61023836600461216a565b610f37565b81801561024957600080fd5b5061014261025836600461216a565b611011565b61027061026b366004611f6d565b6111ca565b604051610119919061292b565b61027061028b366004611fa7565b611311565b60606000606083600201546001600160401b03811180156102b057600080fd5b506040519080825280602002602001820160405280156102ea57816020015b6102d7611c64565b8152602001906001900390816102cf5790505b5090506000806102f98661146b565b90505b6103068682611479565b156103975760606103178783611484565b915050610323816111ca565b84848151811061032f57fe5b602002602001018190525083838151811061034657fe5b602002602001015160800151158015610373575083838151811061036657fe5b602002602001015160a001515b1561037f576001909401935b506001909101906103908682611545565b90506102fc565b506060836001016001600160401b03811180156103b357600080fd5b506040519080825280602002602001820160405280156103ed57816020015b6103da611c64565b8152602001906001900390816103d25790505b5090506103fa8888611311565b8160008151811061040757fe5b60200260200101819052506001915060005b835181101561049a5783818151811061042e57fe5b60200260200101516080015115801561045b575083818151811061044e57fe5b602002602001015160a001515b156104925783818151811061046c57fe5b602002602001015182848151811061048057fe5b60209081029190910101526001909201915b600101610419565b5093505050505b9392505050565b606081015160405163b726099b60e01b815260009173__$d895092408b28263ee57beab52231763ab$__9163b726099b916104e5916004016125ff565b60206040518083038186803b1580156104fd57600080fd5b505af4158015610511573d6000803e3d6000fd5b505050506040513d601f19601f820116820180604052508101906105359190611f55565b9050606061054283610581565b90506000610551858484611596565b9050801561057a5760405162461bcd60e51b815260040161057190612810565b60405180910390fd5b5050505050565b606080610591836000015161161e565b905060606105a2846020015161161e565b905060606105b4856040015151611655565b604080516000808252602082019092529192505b86604001515181101561062157816105f6886040015183815181106105e957fe5b602002602001015161161e565b60405160200161060792919061239a565b60408051601f1981840301815291905291506001016105c8565b506060610631876060015161161e565b9050606061064288608001516116bd565b905060606106538960a001516116bd565b905060606106648a60c00151611655565b905060608888888888604051602001610681959493929190612463565b6040516020818303038152906040529050808484846040516020016106a9949392919061240c565b60405160208183030381529060405299505050505050505050505b919050565b6106d1611ca5565b606060006106e08460006116f8565b60408051600081526020810190915291935091506106fe85836116f8565b60408051600081526020810190915290935090915061071d86846116f8565b506040805160608101825295865260208601939093529184019190915250909392505050565b60606000606083600201546001600160401b038111801561076357600080fd5b5060405190808252806020026020018201604052801561079d57816020015b61078a611c64565b8152602001906001900390816107825790505b5090506000806107ac8661146b565b90505b6107b98682611479565b1561084d5760606107ca8783611484565b9150506107d6816111ca565b8484815181106107e257fe5b60200260200101819052508383815181106107f957fe5b6020026020010151608001511580156108295750600084848151811061081b57fe5b602002602001015160c00151115b15610835576001909401935b506001909101906108468682611545565b90506107af565b5060005b825181101561091257600181015b83518110156109095783818151811061087457fe5b602002602001015160c0015184838151811061088c57fe5b602002602001015160c001511115610901576108a6611c64565b8483815181106108b257fe5b602002602001015190508482815181106108c857fe5b60200260200101518584815181106108dc57fe5b6020026020010181905250808583815181106108f457fe5b6020026020010181905250505b60010161085f565b50600101610851565b506060836001016001600160401b038111801561092e57600080fd5b5060405190808252806020026020018201604052801561096857816020015b610955611c64565b81526020019060019003908161094d5790505b5090506109758888611311565b8160008151811061098257fe5b602002602001018190525060005b8481101561049a57838186850301815181106109a857fe5b60200260200101518282600101815181106109bf57fe5b6020908102919091010152600101610990565b60405163b726099b60e01b815260009073__$d895092408b28263ee57beab52231763ab$__9063b726099b90610a0c9086906004016125ff565b60206040518083038186803b158015610a2457600080fd5b505af4158015610a38573d6000803e3d6000fd5b505050506040513d601f19601f82011682018060405250810190610a5c9190611f55565b60008181526020868152604091829020600190810180548451600293821615610100026000190190911692909204601f810184900484028301840190945283825293945060609390929091830182828015610af85780601f10610acd57610100808354040283529160200191610af8565b820191906000526020600020905b815481529060010190602001808311610adb57829003601f168201915b505050505090506000815111610b205760405162461bcd60e51b8152600401610571906126a9565b610b28611c64565b610b31826111ca565b9050806080015115610b555760405162461bcd60e51b815260040161057190612680565b60c081015115610b775760405162461bcd60e51b815260040161057190612655565b60c081018490526060610b8982610581565b9050610b96878583611596565b5050505050505050565b60608082600201546001600160401b0381118015610bbd57600080fd5b50604051908082528060200260200182016040528015610bf157816020015b6060815260200190600190039081610bdc5790505b509050600080610c008561146b565b90505b610c0d8582611479565b15610c51576060610c1e8683611484565b91505080848481518110610c2e57fe5b602090810291909101015250600190910190610c4a8582611545565b9050610c03565b50909392505050565b60405163b726099b60e01b815260009073__$d895092408b28263ee57beab52231763ab$__9063b726099b90610c949085906004016125ff565b60206040518083038186803b158015610cac57600080fd5b505af4158015610cc0573d6000803e3d6000fd5b505050506040513d601f19601f82011682018060405250810190610ce49190611f55565b60008181526020858152604091829020600190810180548451600293821615610100026000190190911692909204601f810184900484028301840190945283825293945060609390929091830182828015610d805780601f10610d5557610100808354040283529160200191610d80565b820191906000526020600020905b815481529060010190602001808311610d6357829003601f168201915b505050505090506000815111610da85760405162461bcd60e51b8152600401610571906126a9565b610db0611c64565b610db9826111ca565b9050806080015115610ddd5760405162461bcd60e51b815260040161057190612680565b600060a082018190526001608083015260c08201526060610dfd82610581565b9050610e0a868583611596565b50505050505050565b606080610e23836000015161161e565b90506060610e34846020015161161e565b90506060610e45856040015161161e565b90506060838383604051602001610e5e939291906123c9565b60408051808303601f190181529190529695505050505050565b60608082600201546001600160401b0381118015610e9557600080fd5b50604051908082528060200260200182016040528015610ecf57816020015b610ebc611ca5565b815260200190600190039081610eb45790505b509050600080610ede8561146b565b90505b610eeb8582611479565b15610c51576060610efc8683611484565b915050610f08816106c9565b848481518110610f1457fe5b602090810291909101015250600190910190610f308582611545565b9050610ee1565b60608083600201546001016001600160401b0381118015610f5757600080fd5b50604051908082528060200260200182016040528015610f8b57816020015b6060815260200190600190039081610f765790505b5090508281600081518110610f9c57fe5b602090810291909101015260016000610fb48661146b565b90505b610fc18682611479565b15611005576060610fd28783611484565b91505080848481518110610fe257fe5b602090810291909101015250600190910190610ffe8682611545565b9050610fb7565b50909150505b92915050565b60405163b726099b60e01b815260009073__$d895092408b28263ee57beab52231763ab$__9063b726099b9061104b9085906004016125ff565b60206040518083038186803b15801561106357600080fd5b505af4158015611077573d6000803e3d6000fd5b505050506040513d601f19601f8201168201806040525081019061109b9190611f55565b60008181526020858152604091829020600190810180548451600293821615610100026000190190911692909204601f8101849004840283018401909452838252939450606093909290918301828280156111375780601f1061110c57610100808354040283529160200191611137565b820191906000526020600020905b81548152906001019060200180831161111a57829003601f168201915b50505050509050600081511161115f5760405162461bcd60e51b8152600401610571906126a9565b611167611c64565b611170826111ca565b90508060800151156111945760405162461bcd60e51b815260040161057190612680565b60008160c00151116111b85760405162461bcd60e51b8152600401610571906127a1565b600060c08201526060610dfd82610581565b6111d2611c64565b606060006111e18460006116f8565b9150915060606111f185836116f8565b92509050600061120186846117a4565b935090506060816001600160401b038111801561121d57600080fd5b5060405190808252806020026020018201604052801561125157816020015b606081526020019060019003908161123c5790505b50905060005b8281101561129457606061126b89876116f8565b80975081925050508083838151811061128057fe5b602090810291909101015250600101611257565b5060606112a188866116f8565b955090506000806112b28a8861183f565b975091506112c08a8861183f565b9750905060006112d08b896117a4565b506040805160e0810182529a8b5260208b019890985296890194909452606088019290925215156080870152151560a0860152505060c08301525092915050565b611319611c64565b60405163635c70d160e11b815260009073__$af086eb72a71a83a951685455470ad2da6$__9063c6b8e1a2906113539087906004016125ff565b60206040518083038186803b15801561136b57600080fd5b505af415801561137f573d6000803e3d6000fd5b505050506040513d601f19601f820116820180604052508101906113a39190611f2e565b90506060846040516020016113b891906124ce565b60408051808303601f190181526001808452838301909252925060609190816020015b60608152602001906001900390816113db579050509050858160008151811061140057fe5b60200260200101819052506040518060e0016040528083815260200186815260200182815260200184604051602001611439919061237d565b60408051808303601f190181529181529082526000602083015260019082018190526060909101529695505050505050565b600061100b82600019611545565b600191909101541190565b6000606083600101838154811061149757fe5b60009182526020808320600292830201548084528782526040938490206001908101805486519281161561010002600019011694909404601f810184900484028201840190955284815290955092908301828280156115375780601f1061150c57610100808354040283529160200191611537565b820191906000526020600020905b81548152906001019060200180831161151a57829003601f168201915b505050505090509250929050565b60010160005b600183015482108015611580575082600101828154811061156857fe5b600091825260209091206001600290920201015460ff165b156115905760019091019061154b565b50919050565b60008281526020848152604082208054845190926115bb926001019190860190611cc6565b5080156115cc5760019150506104a1565b50600180850180549182018082556000868152602088905260409020819055859190839081106115f857fe5b600091825260208220600291820201929092559086018054600101905591506104a19050565b805160609061162c816118ca565b8360405160200161163e92919061239a565b604051602081830303815290604052915050919050565b60606001600160ff1b0382111561167e5760405162461bcd60e51b81526004016105719061276a565b60405160208082526000601f5b828210156116ad5785811a82602086010153600191909101906000190161168b565b5050506040818101905292915050565b6060806040519050600181528215600181146116e257600160f81b60208301526116ea565b600060208301525b506040818101905292915050565b60606000806117078585611981565b865190955090915081850111156117305760405162461bcd60e51b8152600401610571906128e7565b60608115801561174b57604051915060208201604052611795565b6040519150601f8316801560200281840101848101888315602002848c0101015b8183101561178457805183526020928301920161176c565b5050848452601f01601f1916604052505b509250830190505b9250929050565b60008083518360200111156117cb5760405162461bcd60e51b815260040161057190612612565b600060405160206000600182038760208a0101515b838310156118005780821a838601536001830192506001820391506117e0565b50505081016040525190506001600160ff1b038111156118325760405162461bcd60e51b8152600401610571906126d0565b9460209390930193505050565b60008083518360010111156118665760405162461bcd60e51b815260040161057190612835565b838301602001516000600160f81b6001600160f81b03198316141561188d575060016118bc565b6001600160f81b031982166118a4575060006118bc565b60405162461bcd60e51b815260040161057190612707565b956001949094019450505050565b606060fd826001600160401b031610156118ee576118e782611a37565b90506106c4565b61ffff826001600160401b03161161193d5761190d60fd60f81b611a52565b61191683611a60565b60405160200161192792919061239a565b60405160208183030381529060405290506106c4565b63ffffffff826001600160401b0316116119675761195e607f60f91b611a52565b61191683611a89565b6119786001600160f81b0319611a52565b61191683611ab2565b60008060006119908585611adb565b9450905060fd60f81b6001600160f81b0319821614156119c5576119b48585611b16565b8161ffff169150925092505061179d565b607f60f91b6001600160f81b0319821614156119f8576119e58585611b72565b8163ffffffff169150925092505061179d565b6001600160f81b03198082161415611a2a57611a148585611beb565b816001600160401b03169150925092505061179d565b60f81c915082905061179d565b604080516001815260f89290921b6020830152818101905290565b606061100b8260f81c611a37565b6040516002808252606091906000601f60ff86166020850153600191909101906000190161168b565b6040516004808252606091906000601f60ff86166020850153600191909101906000190161168b565b6040516008808252606091906000601f60ff86166020850153600191909101906000190161168b565b6000808351836001011115611b025760405162461bcd60e51b815260040161057190612735565b505081810160200151600182019250929050565b6000808351836002011115611b3d5760405162461bcd60e51b8152600401610571906127ce565b6000604051846020870101518060011a82538060001a6001830153506002818101604052601d19909101519694019450505050565b6000808351836004011115611b995760405162461bcd60e51b8152600401610571906128a5565b600060405160046000600182038760208a0101515b83831015611bce5780821a83860153600183019250600182039150611bae565b505050808201604052602003900351956004949094019450505050565b6000808351836008011115611c125760405162461bcd60e51b815260040161057190612863565b600060405160086000600182038760208a0101515b83831015611c475780821a83860153600183019250600182039150611c27565b505050808201604052602003900351956008949094019450505050565b6040518060e0016040528060608152602001606081526020016060815260200160608152602001600015158152602001600015158152602001600081525090565b60405180606001604052806060815260200160608152602001606081525090565b828054600181600116156101000203166002900490600052602060002090601f016020900481019282601f10611d0757805160ff1916838001178555611d34565b82800160010185558215611d34579182015b82811115611d34578251825591602001919060010190611d19565b50611d40929150611d44565b5090565b5b80821115611d405760008155600101611d45565b600082601f830112611d69578081fd5b81356001600160401b03811115611d7e578182fd5b6020611d8d8182840201612951565b828152925080830184820160005b84811015611dc457611db2888584358a0101611ddf565b83529183019190830190600101611d9b565b505050505092915050565b8035801515811461100b57600080fd5b600082601f830112611def578081fd5b81356001600160401b03811115611e04578182fd5b611e17601f8201601f1916602001612951565b9150808252836020828501011115611e2e57600080fd5b8060208401602084013760009082016020015292915050565b600060e08284031215611e58578081fd5b611e6260e0612951565b905081356001600160401b0380821115611e7b57600080fd5b611e8785838601611ddf565b83526020840135915080821115611e9d57600080fd5b611ea985838601611ddf565b60208401526040840135915080821115611ec257600080fd5b611ece85838601611d59565b60408401526060840135915080821115611ee757600080fd5b50611ef484828501611ddf565b606083015250611f078360808401611dcf565b6080820152611f198360a08401611dcf565b60a082015260c082013560c082015292915050565b600060208284031215611f3f578081fd5b81516001600160a01b03811681146104a1578182fd5b600060208284031215611f66578081fd5b5051919050565b600060208284031215611f7e578081fd5b81356001600160401b03811115611f93578182fd5b611f9f84828501611ddf565b949350505050565b60008060408385031215611fb9578081fd5b82356001600160401b0380821115611fcf578283fd5b611fdb86838701611ddf565b93506020850135915080821115611ff0578283fd5b50611ffd85828601611ddf565b9150509250929050565b60008060006060848603121561201b578081fd5b83356001600160401b0380821115612031578283fd5b61203d87838801611ddf565b94506020860135915080821115612052578283fd5b5061205f86828701611ddf565b925050604084013590509250925092565b600060208284031215612081578081fd5b81356001600160401b03811115612096578182fd5b611f9f84828501611e47565b6000602082840312156120b3578081fd5b81356001600160401b03808211156120c9578283fd5b90830190606082860312156120dc578283fd5b6120e66060612951565b8235828111156120f4578485fd5b61210087828601611ddf565b825250602083013582811115612114578485fd5b61212087828601611ddf565b602083015250604083013582811115612137578485fd5b61214387828601611ddf565b60408301525095945050505050565b600060208284031215612163578081fd5b5035919050565b6000806040838503121561217c578182fd5b8235915060208301356001600160401b03811115612198578182fd5b611ffd85828601611ddf565b6000806000606084860312156121b8578283fd5b8335925060208401356001600160401b038111156121d4578283fd5b61205f86828701611ddf565b600080604083850312156121f2578182fd5b8235915060208301356001600160401b0381111561220e578182fd5b611ffd85828601611e47565b15159052565b60008151808452612238816020860160208601612977565b601f01601f19169290920160200192915050565b6000815160e0845261226160e0850182612220565b90506020808401518583038287015261227a8382612220565b925050604084015185830360408701528281518085528385019150838482028601018484019350865b828110156122d157601f198783030184526122bf828651612220565b948601949386019391506001016122a3565b506060880151955088810360608a01526122eb8187612220565b955050505050506080830151612304608086018261221a565b5060a083015161231760a086018261221a565b5060c083015160c08501528091505092915050565b60008151606084526123416060850182612220565b90506020830151848203602086015261235a8282612220565b915050604083015184820360408601526123748282612220565b95945050505050565b60609190911b6bffffffffffffffffffffffff1916815260140190565b600083516123ac818460208801612977565b8351908301906123c0818360208801612977565b01949350505050565b600084516123db818460208901612977565b8451908301906123ef818360208901612977565b8451910190612402818360208801612977565b0195945050505050565b6000855161241e818460208a01612977565b855190830190612432818360208a01612977565b8551910190612445818360208901612977565b8451910190612458818360208801612977565b019695505050505050565b60008651612475818460208b01612977565b865190830190612489818360208b01612977565b865191019061249c818360208a01612977565b85519101906124af818360208901612977565b84519101906124c2818360208801612977565b01979650505050505050565b600082516124e0818460208701612977565b66236b6579732d3160c81b920191825250600701919050565b6000602080830181845280855180835260408601915060408482028701019250838701855b8281101561254c57603f1988860301845261253a858351612220565b9450928501929085019060010161251e565b5092979650505050505050565b6000602080830181845280855180835260408601915060408482028701019250838701855b8281101561254c57603f1988860301845261259a85835161224c565b9450928501929085019060010161257e565b6000602080830181845280855180835260408601915060408482028701019250838701855b8281101561254c57603f198886030184526125ed85835161232c565b945092850192908501906001016125d1565b6000602082526104a16020830184612220565b60208082526023908201527f4e65787455696e743235352c206f66667365742065786365656473206d6178696040820152626d756d60e81b606082015260800190565b6020808252601190820152701ad95e48185d5d1a195b9d1a58d85d1959607a1b604082015260600190565b6020808252600f908201526e1ad95e4819195858dd1a5d985d1959608a1b604082015260600190565b6020808252600d908201526c1ad95e481b9bdd08195e1a5cdd609a1b604082015260600190565b60208082526017908201527f56616c75652065786365656473207468652072616e6765000000000000000000604082015260600190565b6020808252601490820152732732bc3a2137b7b6103b30b63ab29032b93937b960611b604082015260600190565b6020808252818101527f4e657874427974652c204f66667365742065786365656473206d6178696d756d604082015260600190565b6020808252601b908201527f56616c756520657863656564732075696e743235352072616e67650000000000604082015260600190565b6020808252601390820152721ad95e481d5b985d5d1a195b9d1a58d85d1959606a1b604082015260600190565b60208082526022908201527f4e65787455696e7431362c206f66667365742065786365656473206d6178696d604082015261756d60f01b606082015260800190565b6020808252600b908201526a1ad95e48195e1a5cdd195960aa1b604082015260600190565b60208082526014908201527313d9999cd95d08195e18d959591cc81b1a5b5a5d60621b604082015260600190565b60208082526022908201527f4e65787455696e7436342c206f66667365742065786365656473206d6178696d604082015261756d60f01b606082015260800190565b60208082526022908201527f4e65787455696e7433322c206f66667365742065786365656473206d6178696d604082015261756d60f01b606082015260800190565b60208082526024908201527f4e65787456617242797465732c206f66667365742065786365656473206d6178604082015263696d756d60e01b606082015260800190565b6000602082526104a1602083018461224c565b6000602082526104a1602083018461232c565b6040518181016001600160401b038111828210171561296f57600080fd5b604052919050565b60005b8381101561299257818101518382015260200161297a565b838111156129a1576000848401525b5050505056fea26469706673582212201b96cc3853cb9250956837d1aa06638701e01b6b89ece5013c42787592af194b64736f6c634300060c0033",
  "linkReferences": {
    "contracts/DidUtils.sol": {
      "DidUtils": [
        {
          "length": 20,
          "start": 4945
        }
      ]
    },
    "contracts/KeyUtils.sol": {
      "KeyUtils": [
        {
          "length": 20,
          "start": 1253
        },
        {
          "length": 20,
          "start": 2570
        },
        {
          "length": 20,
          "start": 3218
        },
        {
          "length": 20,
          "start": 4169
        }
      ]
    }
  },
  "deployedLinkReferences": {
    "contracts/DidUtils.sol": {
      "DidUtils": [
        {
          "length": 20,
          "start": 4907
        }
      ]
    },
    "contracts/KeyUtils.sol": {
      "KeyUtils": [
        {
          "length": 20,
          "start": 1215
        },
        {
          "length": 20,
          "start": 2532
        },
        {
          "length": 20,
          "start": 3180
        },
        {
          "length": 20,
          "start": 4131
        }
      ]
    }
  }
}