{
  "_format": "hh-sol-artifact-1",
  "contractName": "MintableERC20",
  "sourceName": "contracts/MintableERC20.sol",
  "abi": [
    {
      "inputs": [
        {
          "internalType": "address",
          "name": "initialOwner",
          "type": "address"
        }
      ],
      "stateMutability": "nonpayable",
      "type": "constructor"
    },
    {
      "inputs": [
        {
          "internalType": "address",
          "name": "spender",
          "type": "address"
        },
        {
          "internalType": "uint256",
          "name": "allowance",
          "type": "uint256"
        },
        {
          "internalType": "uint256",
          "name": "needed",
          "type": "uint256"
        }
      ],
      "name": "ERC20InsufficientAllowance",
      "type": "error"
    },
    {
      "inputs": [
        {
          "internalType": "address",
          "name": "sender",
          "type": "address"
        },
        {
          "internalType": "uint256",
          "name": "balance",
          "type": "uint256"
        },
        {
          "internalType": "uint256",
          "name": "needed",
          "type": "uint256"
        }
      ],
      "name": "ERC20InsufficientBalance",
      "type": "error"
    },
    {
      "inputs": [
        {
          "internalType": "address",
          "name": "approver",
          "type": "address"
        }
      ],
      "name": "ERC20InvalidApprover",
      "type": "error"
    },
    {
      "inputs": [
        {
          "internalType": "address",
          "name": "receiver",
          "type": "address"
        }
      ],
      "name": "ERC20InvalidReceiver",
      "type": "error"
    },
    {
      "inputs": [
        {
          "internalType": "address",
          "name": "sender",
          "type": "address"
        }
      ],
      "name": "ERC20InvalidSender",
      "type": "error"
    },
    {
      "inputs": [
        {
          "internalType": "address",
          "name": "spender",
          "type": "address"
        }
      ],
      "name": "ERC20InvalidSpender",
      "type": "error"
    },
    {
      "inputs": [],
      "name": "FailedToSendEtherToOwner",
      "type": "error"
    },
    {
      "inputs": [],
      "name": "MintRequestOverMax",
      "type": "error"
    },
    {
      "inputs": [],
      "name": "MustMintOverZero",
      "type": "error"
    },
    {
      "inputs": [
        {
          "internalType": "address",
          "name": "owner",
          "type": "address"
        }
      ],
      "name": "OwnableInvalidOwner",
      "type": "error"
    },
    {
      "inputs": [
        {
          "internalType": "address",
          "name": "account",
          "type": "address"
        }
      ],
      "name": "OwnableUnauthorizedAccount",
      "type": "error"
    },
    {
      "anonymous": false,
      "inputs": [
        {
          "indexed": true,
          "internalType": "address",
          "name": "owner",
          "type": "address"
        },
        {
          "indexed": true,
          "internalType": "address",
          "name": "spender",
          "type": "address"
        },
        {
          "indexed": false,
          "internalType": "uint256",
          "name": "value",
          "type": "uint256"
        }
      ],
      "name": "Approval",
      "type": "event"
    },
    {
      "anonymous": false,
      "inputs": [
        {
          "indexed": true,
          "internalType": "address",
          "name": "previousOwner",
          "type": "address"
        },
        {
          "indexed": true,
          "internalType": "address",
          "name": "newOwner",
          "type": "address"
        }
      ],
      "name": "OwnershipTransferred",
      "type": "event"
    },
    {
      "anonymous": false,
      "inputs": [
        {
          "indexed": false,
          "internalType": "address",
          "name": "minter",
          "type": "address"
        },
        {
          "indexed": false,
          "internalType": "uint256",
          "name": "amount",
          "type": "uint256"
        }
      ],
      "name": "PurchaseOccurred",
      "type": "event"
    },
    {
      "anonymous": false,
      "inputs": [
        {
          "indexed": true,
          "internalType": "address",
          "name": "from",
          "type": "address"
        },
        {
          "indexed": true,
          "internalType": "address",
          "name": "to",
          "type": "address"
        },
        {
          "indexed": false,
          "internalType": "uint256",
          "name": "value",
          "type": "uint256"
        }
      ],
      "name": "Transfer",
      "type": "event"
    },
    {
      "inputs": [],
      "name": "MAX_TO_MINT",
      "outputs": [
        {
          "internalType": "uint256",
          "name": "",
          "type": "uint256"
        }
      ],
      "stateMutability": "view",
      "type": "function"
    },
    {
      "inputs": [
        {
          "internalType": "address",
          "name": "owner",
          "type": "address"
        },
        {
          "internalType": "address",
          "name": "spender",
          "type": "address"
        }
      ],
      "name": "allowance",
      "outputs": [
        {
          "internalType": "uint256",
          "name": "",
          "type": "uint256"
        }
      ],
      "stateMutability": "view",
      "type": "function"
    },
    {
      "inputs": [
        {
          "internalType": "address",
          "name": "spender",
          "type": "address"
        },
        {
          "internalType": "uint256",
          "name": "value",
          "type": "uint256"
        }
      ],
      "name": "approve",
      "outputs": [
        {
          "internalType": "bool",
          "name": "",
          "type": "bool"
        }
      ],
      "stateMutability": "nonpayable",
      "type": "function"
    },
    {
      "inputs": [
        {
          "internalType": "address",
          "name": "account",
          "type": "address"
        }
      ],
      "name": "balanceOf",
      "outputs": [
        {
          "internalType": "uint256",
          "name": "",
          "type": "uint256"
        }
      ],
      "stateMutability": "view",
      "type": "function"
    },
    {
      "inputs": [],
      "name": "decimals",
      "outputs": [
        {
          "internalType": "uint8",
          "name": "",
          "type": "uint8"
        }
      ],
      "stateMutability": "view",
      "type": "function"
    },
    {
      "inputs": [],
      "name": "name",
      "outputs": [
        {
          "internalType": "string",
          "name": "",
          "type": "string"
        }
      ],
      "stateMutability": "view",
      "type": "function"
    },
    {
      "inputs": [],
      "name": "owner",
      "outputs": [
        {
          "internalType": "address",
          "name": "",
          "type": "address"
        }
      ],
      "stateMutability": "view",
      "type": "function"
    },
    {
      "inputs": [],
      "name": "purchaseMint",
      "outputs": [],
      "stateMutability": "payable",
      "type": "function"
    },
    {
      "inputs": [],
      "name": "renounceOwnership",
      "outputs": [],
      "stateMutability": "nonpayable",
      "type": "function"
    },
    {
      "inputs": [],
      "name": "symbol",
      "outputs": [
        {
          "internalType": "string",
          "name": "",
          "type": "string"
        }
      ],
      "stateMutability": "view",
      "type": "function"
    },
    {
      "inputs": [],
      "name": "totalSupply",
      "outputs": [
        {
          "internalType": "uint256",
          "name": "",
          "type": "uint256"
        }
      ],
      "stateMutability": "view",
      "type": "function"
    },
    {
      "inputs": [
        {
          "internalType": "address",
          "name": "to",
          "type": "address"
        },
        {
          "internalType": "uint256",
          "name": "value",
          "type": "uint256"
        }
      ],
      "name": "transfer",
      "outputs": [
        {
          "internalType": "bool",
          "name": "",
          "type": "bool"
        }
      ],
      "stateMutability": "nonpayable",
      "type": "function"
    },
    {
      "inputs": [
        {
          "internalType": "address",
          "name": "from",
          "type": "address"
        },
        {
          "internalType": "address",
          "name": "to",
          "type": "address"
        },
        {
          "internalType": "uint256",
          "name": "value",
          "type": "uint256"
        }
      ],
      "name": "transferFrom",
      "outputs": [
        {
          "internalType": "bool",
          "name": "",
          "type": "bool"
        }
      ],
      "stateMutability": "nonpayable",
      "type": "function"
    },
    {
      "inputs": [
        {
          "internalType": "address",
          "name": "newOwner",
          "type": "address"
        }
      ],
      "name": "transferOwnership",
      "outputs": [],
      "stateMutability": "nonpayable",
      "type": "function"
    }
  ],
  "bytecode": "0x60806040523480156200001157600080fd5b5060405162000d8038038062000d80833981016040819052620000349162000131565b806040518060400160405280600f81526020016e04d696e7461626c652045524320323608c1b815250604051806040016040528060048152602001634d45524360e01b81525081600390816200008b91906200020a565b5060046200009a82826200020a565b5050506001600160a01b038116620000cc57604051631e4fbdf760e01b81526000600482015260240160405180910390fd5b620000d781620000df565b5050620002d6565b600580546001600160a01b038381166001600160a01b0319831681179093556040519116919082907f8be0079c531659141344cd1fd0a4f28419497f9722a3daafe3b4186f6b6457e090600090a35050565b6000602082840312156200014457600080fd5b81516001600160a01b03811681146200015c57600080fd5b9392505050565b634e487b7160e01b600052604160045260246000fd5b600181811c908216806200018e57607f821691505b602082108103620001af57634e487b7160e01b600052602260045260246000fd5b50919050565b601f82111562000205576000816000526020600020601f850160051c81016020861015620001e05750805b601f850160051c820191505b818110156200020157828155600101620001ec565b5050505b505050565b81516001600160401b0381111562000226576200022662000163565b6200023e8162000237845462000179565b84620001b5565b602080601f8311600181146200027657600084156200025d5750858301515b600019600386901b1c1916600185901b17855562000201565b600085815260208120601f198616915b82811015620002a75788860151825594840194600190910190840162000286565b5085821015620002c65787850151600019600388901b60f8161c191681555b5050505050600190811b01905550565b610a9a80620002e66000396000f3fe6080604052600436106100dd5760003560e01c8063715018a61161007f578063a9059cbb11610059578063a9059cbb1461022a578063c66677ac1461024a578063dd62ed3e14610267578063f2fde38b146102ad57600080fd5b8063715018a6146101d85780638da5cb5b146101ed57806395d89b411461021557600080fd5b806323b872dd116100bb57806323b872dd1461015c578063313ce5671461017c5780633ac8ab391461019857806370a08231146101a257600080fd5b806306fdde03146100e2578063095ea7b31461010d57806318160ddd1461013d575b600080fd5b3480156100ee57600080fd5b506100f76102cd565b60405161010491906108e3565b60405180910390f35b34801561011957600080fd5b5061012d61012836600461094e565b61035f565b6040519015158152602001610104565b34801561014957600080fd5b506002545b604051908152602001610104565b34801561016857600080fd5b5061012d610177366004610978565b610379565b34801561018857600080fd5b5060405160128152602001610104565b6101a061039d565b005b3480156101ae57600080fd5b5061014e6101bd3660046109b4565b6001600160a01b031660009081526020819052604090205490565b3480156101e457600080fd5b506101a06104c8565b3480156101f957600080fd5b506005546040516001600160a01b039091168152602001610104565b34801561022157600080fd5b506100f76104dc565b34801561023657600080fd5b5061012d61024536600461094e565b6104eb565b34801561025657600080fd5b5061014e683635c9adc5dea0000081565b34801561027357600080fd5b5061014e6102823660046109d6565b6001600160a01b03918216600090815260016020908152604080832093909416825291909152205490565b3480156102b957600080fd5b506101a06102c83660046109b4565b6104f9565b6060600380546102dc90610a09565b80601f016020809104026020016040519081016040528092919081815260200182805461030890610a09565b80156103555780601f1061032a57610100808354040283529160200191610355565b820191906000526020600020905b81548152906001019060200180831161033857829003601f168201915b5050505050905090565b60003361036d81858561053c565b60019150505b92915050565b60003361038785828561054e565b6103928585856105cc565b506001949350505050565b3460008190036103c05760405163d33fcd9d60e01b815260040160405180910390fd5b683635c9adc5dea000006103d360025490565b6103dd9083610a43565b11156103fc5760405163c0e58fc960e01b815260040160405180910390fd5b60006104106005546001600160a01b031690565b6001600160a01b03163460405160006040518083038185875af1925050503d806000811461045a576040519150601f19603f3d011682016040523d82523d6000602084013e61045f565b606091505b50509050806104815760405163dc72795560e01b815260040160405180910390fd5b61048b338361062b565b60408051338152602081018490527fe58e8ce99e24c881da3e8d5b2cc2894e7a79e5b9a4d9ba7c9475fe49201ae40e910160405180910390a15050565b6104d0610665565b6104da6000610692565b565b6060600480546102dc90610a09565b60003361036d8185856105cc565b610501610665565b6001600160a01b03811661053057604051631e4fbdf760e01b8152600060048201526024015b60405180910390fd5b61053981610692565b50565b61054983838360016106e4565b505050565b6001600160a01b0383811660009081526001602090815260408083209386168352929052205460001981146105c657818110156105b757604051637dc7a0d960e11b81526001600160a01b03841660048201526024810182905260448101839052606401610527565b6105c6848484840360006106e4565b50505050565b6001600160a01b0383166105f657604051634b637e8f60e11b815260006004820152602401610527565b6001600160a01b0382166106205760405163ec442f0560e01b815260006004820152602401610527565b6105498383836107b9565b6001600160a01b0382166106555760405163ec442f0560e01b815260006004820152602401610527565b610661600083836107b9565b5050565b6005546001600160a01b031633146104da5760405163118cdaa760e01b8152336004820152602401610527565b600580546001600160a01b038381166001600160a01b0319831681179093556040519116919082907f8be0079c531659141344cd1fd0a4f28419497f9722a3daafe3b4186f6b6457e090600090a35050565b6001600160a01b03841661070e5760405163e602df0560e01b815260006004820152602401610527565b6001600160a01b03831661073857604051634a1406b160e11b815260006004820152602401610527565b6001600160a01b03808516600090815260016020908152604080832093871683529290522082905580156105c657826001600160a01b0316846001600160a01b03167f8c5be1e5ebec7d5bd14f71427d1e84f3dd0314c0f7b2291e5b200ac8c7c3b925846040516107ab91815260200190565b60405180910390a350505050565b6001600160a01b0383166107e45780600260008282546107d99190610a43565b909155506108569050565b6001600160a01b038316600090815260208190526040902054818110156108375760405163391434e360e21b81526001600160a01b03851660048201526024810182905260448101839052606401610527565b6001600160a01b03841660009081526020819052604090209082900390555b6001600160a01b03821661087257600280548290039055610891565b6001600160a01b03821660009081526020819052604090208054820190555b816001600160a01b0316836001600160a01b03167fddf252ad1be2c89b69c2b068fc378daa952ba7f163c4a11628f55a4df523b3ef836040516108d691815260200190565b60405180910390a3505050565b60006020808352835180602085015260005b81811015610911578581018301518582016040015282016108f5565b506000604082860101526040601f19601f8301168501019250505092915050565b80356001600160a01b038116811461094957600080fd5b919050565b6000806040838503121561096157600080fd5b61096a83610932565b946020939093013593505050565b60008060006060848603121561098d57600080fd5b61099684610932565b92506109a460208501610932565b9150604084013590509250925092565b6000602082840312156109c657600080fd5b6109cf82610932565b9392505050565b600080604083850312156109e957600080fd5b6109f283610932565b9150610a0060208401610932565b90509250929050565b600181811c90821680610a1d57607f821691505b602082108103610a3d57634e487b7160e01b600052602260045260246000fd5b50919050565b8082018082111561037357634e487b7160e01b600052601160045260246000fdfea26469706673582212208c4b7b7a9a466a56e1423b7aa051c53db15249563f14c20b41bec0bdbf230dbc64736f6c63430008180033",
  "linkReferences": {},
  "deployedLinkReferences": {}
}