{
  "contractName": "DecentralizedDataMarketplace",
  "abi": [
    {
      "inputs": [
        {
          "internalType": "bytes32",
          "name": "_merkleRoot",
          "type": "bytes32"
        },
        {
          "internalType": "address",
          "name": "_cgdxTokenAddress",
          "type": "address"
        }
      ],
      "stateMutability": "nonpayable",
      "type": "constructor"
    },
    {
      "anonymous": false,
      "inputs": [
        {
          "indexed": true,
          "internalType": "address",
          "name": "buyer",
          "type": "address"
        },
        {
          "indexed": false,
          "internalType": "string",
          "name": "dataPoolId",
          "type": "string"
        },
        {
          "indexed": false,
          "internalType": "uint256",
          "name": "price",
          "type": "uint256"
        }
      ],
      "name": "DataSetPurchased",
      "type": "event"
    },
    {
      "anonymous": false,
      "inputs": [
        {
          "indexed": false,
          "internalType": "string",
          "name": "dataPoolId",
          "type": "string"
        },
        {
          "indexed": false,
          "internalType": "uint256",
          "name": "numUploads",
          "type": "uint256"
        }
      ],
      "name": "DataUploadCompleted",
      "type": "event"
    },
    {
      "anonymous": false,
      "inputs": [
        {
          "indexed": false,
          "internalType": "bytes32[]",
          "name": "uploadHashes",
          "type": "bytes32[]"
        },
        {
          "indexed": false,
          "internalType": "uint256",
          "name": "dataQuality",
          "type": "uint256"
        },
        {
          "indexed": false,
          "internalType": "string",
          "name": "dataPoolId",
          "type": "string"
        },
        {
          "indexed": false,
          "internalType": "address",
          "name": "userAddress",
          "type": "address"
        }
      ],
      "name": "DataUploadsPurchased",
      "type": "event"
    },
    {
      "anonymous": false,
      "inputs": [
        {
          "indexed": true,
          "internalType": "address",
          "name": "owner",
          "type": "address"
        },
        {
          "indexed": false,
          "internalType": "address",
          "name": "spender",
          "type": "address"
        },
        {
          "indexed": false,
          "internalType": "uint256",
          "name": "value",
          "type": "uint256"
        }
      ],
      "name": "LogApproval",
      "type": "event"
    },
    {
      "anonymous": false,
      "inputs": [
        {
          "indexed": false,
          "internalType": "bytes32",
          "name": "newRoot",
          "type": "bytes32"
        }
      ],
      "name": "LogMerkleRootUpdated",
      "type": "event"
    },
    {
      "anonymous": false,
      "inputs": [
        {
          "indexed": true,
          "internalType": "address",
          "name": "userAddress",
          "type": "address"
        },
        {
          "indexed": false,
          "internalType": "uint256",
          "name": "tokenReward",
          "type": "uint256"
        }
      ],
      "name": "LogTokenTransfer",
      "type": "event"
    },
    {
      "inputs": [],
      "name": "DataUploadmerkleRoot",
      "outputs": [
        {
          "internalType": "bytes32",
          "name": "",
          "type": "bytes32"
        }
      ],
      "stateMutability": "view",
      "type": "function",
      "constant": true
    },
    {
      "inputs": [],
      "name": "cgdxToken",
      "outputs": [
        {
          "internalType": "contract IERC20",
          "name": "",
          "type": "address"
        }
      ],
      "stateMutability": "view",
      "type": "function",
      "constant": true
    },
    {
      "inputs": [
        {
          "internalType": "string",
          "name": "",
          "type": "string"
        }
      ],
      "name": "dataPools",
      "outputs": [
        {
          "internalType": "address",
          "name": "data_pool_owner",
          "type": "address"
        },
        {
          "internalType": "string",
          "name": "data_pool_id",
          "type": "string"
        },
        {
          "internalType": "uint256",
          "name": "max_incentive",
          "type": "uint256"
        },
        {
          "internalType": "uint256",
          "name": "num_uploads",
          "type": "uint256"
        },
        {
          "internalType": "bool",
          "name": "availableForPurchase",
          "type": "bool"
        },
        {
          "internalType": "uint256",
          "name": "price_per_upload",
          "type": "uint256"
        }
      ],
      "stateMutability": "view",
      "type": "function",
      "constant": true
    },
    {
      "inputs": [],
      "name": "owner",
      "outputs": [
        {
          "internalType": "address",
          "name": "",
          "type": "address"
        }
      ],
      "stateMutability": "view",
      "type": "function",
      "constant": true
    },
    {
      "inputs": [
        {
          "internalType": "address",
          "name": "spender",
          "type": "address"
        }
      ],
      "name": "getAllowance",
      "outputs": [
        {
          "internalType": "uint256",
          "name": "",
          "type": "uint256"
        }
      ],
      "stateMutability": "view",
      "type": "function",
      "constant": true
    },
    {
      "inputs": [
        {
          "internalType": "bytes32",
          "name": "newRoot",
          "type": "bytes32"
        }
      ],
      "name": "updateDataUploadMerkleRoot",
      "outputs": [],
      "stateMutability": "nonpayable",
      "type": "function"
    },
    {
      "inputs": [],
      "name": "getDataUploadMerkleRoot",
      "outputs": [
        {
          "internalType": "bytes32",
          "name": "",
          "type": "bytes32"
        }
      ],
      "stateMutability": "view",
      "type": "function",
      "constant": true
    },
    {
      "inputs": [
        {
          "internalType": "bytes32",
          "name": "uploadHash",
          "type": "bytes32"
        },
        {
          "internalType": "bytes32[]",
          "name": "proof",
          "type": "bytes32[]"
        },
        {
          "internalType": "uint256",
          "name": "dataQuality",
          "type": "uint256"
        },
        {
          "internalType": "uint256",
          "name": "index",
          "type": "uint256"
        },
        {
          "internalType": "string",
          "name": "dataPoolId",
          "type": "string"
        },
        {
          "internalType": "bytes32",
          "name": "newMerkleRoot",
          "type": "bytes32"
        },
        {
          "internalType": "address",
          "name": "userAddress",
          "type": "address"
        }
      ],
      "name": "uploadIncentive",
      "outputs": [],
      "stateMutability": "nonpayable",
      "type": "function"
    },
    {
      "inputs": [
        {
          "internalType": "string",
          "name": "dataPoolId",
          "type": "string"
        },
        {
          "internalType": "bytes32[]",
          "name": "uploadHashes",
          "type": "bytes32[]"
        },
        {
          "internalType": "uint256[]",
          "name": "dataQualities",
          "type": "uint256[]"
        }
      ],
      "name": "purchaseUploads",
      "outputs": [],
      "stateMutability": "nonpayable",
      "type": "function"
    },
    {
      "inputs": [
        {
          "internalType": "bytes32",
          "name": "_root",
          "type": "bytes32"
        },
        {
          "internalType": "bytes32[]",
          "name": "_proof",
          "type": "bytes32[]"
        },
        {
          "internalType": "bytes32",
          "name": "_leaf",
          "type": "bytes32"
        },
        {
          "internalType": "uint256",
          "name": "index",
          "type": "uint256"
        }
      ],
      "name": "verifyMerkleProof",
      "outputs": [
        {
          "internalType": "bool",
          "name": "",
          "type": "bool"
        }
      ],
      "stateMutability": "pure",
      "type": "function",
      "constant": true
    },
    {
      "inputs": [
        {
          "internalType": "string",
          "name": "poolId",
          "type": "string"
        },
        {
          "internalType": "uint256",
          "name": "maxIncentive",
          "type": "uint256"
        },
        {
          "internalType": "uint256",
          "name": "price_per_upload",
          "type": "uint256"
        },
        {
          "internalType": "bool",
          "name": "availableForPurchase",
          "type": "bool"
        },
        {
          "internalType": "address",
          "name": "dataPoolOwner",
          "type": "address"
        }
      ],
      "name": "addDataPool",
      "outputs": [],
      "stateMutability": "nonpayable",
      "type": "function"
    },
    {
      "inputs": [
        {
          "internalType": "string",
          "name": "poolId",
          "type": "string"
        }
      ],
      "name": "getDataPool",
      "outputs": [
        {
          "components": [
            {
              "internalType": "address",
              "name": "data_pool_owner",
              "type": "address"
            },
            {
              "internalType": "string",
              "name": "data_pool_id",
              "type": "string"
            },
            {
              "internalType": "uint256",
              "name": "max_incentive",
              "type": "uint256"
            },
            {
              "internalType": "uint256",
              "name": "num_uploads",
              "type": "uint256"
            },
            {
              "internalType": "bool",
              "name": "availableForPurchase",
              "type": "bool"
            },
            {
              "internalType": "uint256",
              "name": "price_per_upload",
              "type": "uint256"
            }
          ],
          "internalType": "struct DecentralizedDataMarketplace.DataPool",
          "name": "",
          "type": "tuple"
        }
      ],
      "stateMutability": "view",
      "type": "function",
      "constant": true
    }
  ],
  "bytecode": "0x608060405234801562000010575f80fd5b506040516200271738038062002717833981810160405281019062000036919062000162565b3360025f6101000a81548173ffffffffffffffffffffffffffffffffffffffff021916908373ffffffffffffffffffffffffffffffffffffffff160217905550816001819055508060035f6101000a81548173ffffffffffffffffffffffffffffffffffffffff021916908373ffffffffffffffffffffffffffffffffffffffff1602179055505050620001a7565b5f80fd5b5f819050919050565b620000dd81620000c9565b8114620000e8575f80fd5b50565b5f81519050620000fb81620000d2565b92915050565b5f73ffffffffffffffffffffffffffffffffffffffff82169050919050565b5f6200012c8262000101565b9050919050565b6200013e8162000120565b811462000149575f80fd5b50565b5f815190506200015c8162000133565b92915050565b5f80604083850312156200017b576200017a620000c5565b5b5f6200018a85828601620000eb565b92505060206200019d858286016200014c565b9150509250929050565b61256280620001b55f395ff3fe608060405234801561000f575f80fd5b50600436106100b2575f3560e01c8063a5d3c2621161006f578063a5d3c2621461018f578063b02a81ce146101ab578063d9fd9373146101db578063e91874cf146101f7578063eb5a662e14610215578063f43b703714610245576100b2565b80630246720a146100b65780630491323b146100d25780635478fd001461010257806368872792146101375780637b09bd5e146101535780638da5cb5b14610171575b5f80fd5b6100d060048036038101906100cb91906112c8565b610263565b005b6100ec60048036038101906100e7919061149b565b610618565b6040516100f99190611535565b60405180910390f35b61011c6004803603810190610117919061154e565b6106e7565b60405161012e9695949392919061165d565b60405180910390f35b610151600480360381019061014c91906116c3565b6107e7565b005b61015b6108b7565b60405161016891906116fd565b60405180910390f35b6101796108bd565b6040516101869190611716565b60405180910390f35b6101a960048036038101906101a49190611783565b6108e2565b005b6101c560048036038101906101c0919061154e565b610a74565b6040516101d29190611911565b60405180910390f35b6101f560048036038101906101f09190611986565b610bc7565b005b6101ff610f8e565b60405161020c9190611abd565b60405180910390f35b61022f600480360381019061022a9190611ad6565b610fb3565b60405161023c9190611b01565b60405180910390f35b61024d611077565b60405161025a91906116fd565b60405180910390f35b5f80866040516102739190611b54565b90815260200160405180910390209050806004015f9054906101000a900460ff166102d3576040517f08c379a00000000000000000000000000000000000000000000000000000000081526004016102ca90611bb4565b60405180910390fd5b5f805f670de0b6b3a764000090505f5b888890508110156103a9575f87878381811061030257610301611bd2565b5b905060200201351180156103305750600a87878381811061032657610325611bd2565b5b9050602002013511155b61036f576040517f08c379a000000000000000000000000000000000000000000000000000000000815260040161036690611c49565b60405180910390fd5b86868281811061038257610381611bd2565b5b90506020020135846103949190611c94565b935080806103a190611cc7565b9150506102e3565b505f600a878790506103bb9190611d0e565b82856103c79190611d0e565b6103d19190611d7c565b9050888890508560050154826103e79190611d0e565b6103f19190611d0e565b92508260035f9054906101000a900473ffffffffffffffffffffffffffffffffffffffff1673ffffffffffffffffffffffffffffffffffffffff166370a08231336040518263ffffffff1660e01b815260040161044e9190611716565b602060405180830381865afa158015610469573d5f803e3d5ffd5b505050506040513d601f19601f8201168201806040525081019061048d9190611dc0565b10156104ce576040517f08c379a00000000000000000000000000000000000000000000000000000000081526004016104c590611e35565b60405180910390fd5b60035f9054906101000a900473ffffffffffffffffffffffffffffffffffffffff1673ffffffffffffffffffffffffffffffffffffffff166323b872dd33875f015f9054906101000a900473ffffffffffffffffffffffffffffffffffffffff16866040518463ffffffff1660e01b815260040161054e93929190611e53565b6020604051808303815f875af115801561056a573d5f803e3d5ffd5b505050506040513d601f19601f8201168201806040525081019061058e9190611e9c565b6105cd576040517f08c379a00000000000000000000000000000000000000000000000000000000081526004016105c490611f11565b60405180910390fd5b7f7d2c8bdefb05475ab8a23e3a3afb1734cac4ad0e1e831ab08e1e619799530dc18989838d33604051610604959493929190611fa7565b60405180910390a150505050505050505050565b5f808390505f5b85518110156106d8575f86828151811061063c5761063b611bd2565b5b602002602001015190505f6002866106549190611ffa565b0361068957828160405160200161066c92919061204a565b6040516020818303038152906040528051906020012092506106b5565b808360405160200161069c92919061204a565b6040516020818303038152906040528051906020012092505b6002856106c29190611d7c565b94505080806106d090611cc7565b91505061061f565b50858114915050949350505050565b5f818051602081018201805184825260208301602085012081835280955050505050505f91509050805f015f9054906101000a900473ffffffffffffffffffffffffffffffffffffffff1690806001018054610742906120a2565b80601f016020809104026020016040519081016040528092919081815260200182805461076e906120a2565b80156107b95780601f10610790576101008083540402835291602001916107b9565b820191905f5260205f20905b81548152906001019060200180831161079c57829003601f168201915b505050505090806002015490806003015490806004015f9054906101000a900460ff16908060050154905086565b60025f9054906101000a900473ffffffffffffffffffffffffffffffffffffffff1673ffffffffffffffffffffffffffffffffffffffff163373ffffffffffffffffffffffffffffffffffffffff1614610876576040517f08c379a000000000000000000000000000000000000000000000000000000000815260040161086d9061211c565b60405180910390fd5b806001819055507f5667398a34b961ef5a0254976b52cdd41f443aaf768f136d71f55632873df8c5816040516108ac91906116fd565b60405180910390a150565b60015481565b60025f9054906101000a900473ffffffffffffffffffffffffffffffffffffffff1681565b60025f9054906101000a900473ffffffffffffffffffffffffffffffffffffffff1673ffffffffffffffffffffffffffffffffffffffff163373ffffffffffffffffffffffffffffffffffffffff1614610971576040517f08c379a00000000000000000000000000000000000000000000000000000000081526004016109689061211c565b60405180910390fd5b6040518060c001604052808273ffffffffffffffffffffffffffffffffffffffff1681526020018681526020018581526020015f81526020018315158152602001848152505f866040516109c59190611b54565b90815260200160405180910390205f820151815f015f6101000a81548173ffffffffffffffffffffffffffffffffffffffff021916908373ffffffffffffffffffffffffffffffffffffffff1602179055506020820151816001019081610a2c91906122ce565b5060408201518160020155606082015181600301556080820151816004015f6101000a81548160ff02191690831515021790555060a082015181600501559050505050505050565b610a7c611080565b5f82604051610a8b9190611b54565b90815260200160405180910390206040518060c00160405290815f82015f9054906101000a900473ffffffffffffffffffffffffffffffffffffffff1673ffffffffffffffffffffffffffffffffffffffff1673ffffffffffffffffffffffffffffffffffffffff168152602001600182018054610b08906120a2565b80601f0160208091040260200160405190810160405280929190818152602001828054610b34906120a2565b8015610b7f5780601f10610b5657610100808354040283529160200191610b7f565b820191905f5260205f20905b815481529060010190602001808311610b6257829003601f168201915b505050505081526020016002820154815260200160038201548152602001600482015f9054906101000a900460ff161515151581526020016005820154815250509050919050565b60025f9054906101000a900473ffffffffffffffffffffffffffffffffffffffff1673ffffffffffffffffffffffffffffffffffffffff163373ffffffffffffffffffffffffffffffffffffffff1614610c56576040517f08c379a0000000000000000000000000000000000000000000000000000000008152600401610c4d9061211c565b60405180910390fd5b610ca46001548989808060200260200160405190810160405280939291908181526020018383602002808284375f81840152601f19601f820116905080830192505050505050508b88610618565b610ce3576040517f08c379a0000000000000000000000000000000000000000000000000000000008152600401610cda906123e7565b60405180910390fd5b5f86118015610cf35750600a8611155b610d32576040517f08c379a0000000000000000000000000000000000000000000000000000000008152600401610d2990611c49565b60405180910390fd5b5f808585604051610d44929190612429565b908152602001604051809103902090505f816002015411610d9a576040517f08c379a0000000000000000000000000000000000000000000000000000000008152600401610d919061248b565b60405180910390fd5b5f600a826002015489610dad9190611d0e565b610db79190611d7c565b9050816003015f815480929190610dcd90611cc7565b9190505550836001819055505f670de0b6b3a764000082610dee9190611d0e565b90505f60035f9054906101000a900473ffffffffffffffffffffffffffffffffffffffff1673ffffffffffffffffffffffffffffffffffffffff166323b872dd60025f9054906101000a900473ffffffffffffffffffffffffffffffffffffffff1687856040518463ffffffff1660e01b8152600401610e7093929190611e53565b6020604051808303815f875af1158015610e8c573d5f803e3d5ffd5b505050506040513d601f19601f82011682018060405250810190610eb09190611e9c565b905080610ef2576040517f08c379a0000000000000000000000000000000000000000000000000000000008152600401610ee990611f11565b60405180910390fd5b7fa295ef8056932e8344ef9282d741825a77a7c52dee3231a5bc79484d37b6e28888888660030154604051610f29939291906124d5565b60405180910390a18473ffffffffffffffffffffffffffffffffffffffff167f4e0174ef18b02b43bab8bfbfc7a0f07b7f162243f09235e8db08605fcc8c8a6183604051610f779190611b01565b60405180910390a250505050505050505050505050565b60035f9054906101000a900473ffffffffffffffffffffffffffffffffffffffff1681565b5f60035f9054906101000a900473ffffffffffffffffffffffffffffffffffffffff1673ffffffffffffffffffffffffffffffffffffffff1663dd62ed3e60025f9054906101000a900473ffffffffffffffffffffffffffffffffffffffff16846040518363ffffffff1660e01b8152600401611031929190612505565b602060405180830381865afa15801561104c573d5f803e3d5ffd5b505050506040513d601f19601f820116820180604052508101906110709190611dc0565b9050919050565b5f600154905090565b6040518060c001604052805f73ffffffffffffffffffffffffffffffffffffffff168152602001606081526020015f81526020015f81526020015f151581526020015f81525090565b5f604051905090565b5f80fd5b5f80fd5b5f80fd5b5f80fd5b5f601f19601f8301169050919050565b7f4e487b71000000000000000000000000000000000000000000000000000000005f52604160045260245ffd5b611128826110e2565b810181811067ffffffffffffffff82111715611147576111466110f2565b5b80604052505050565b5f6111596110c9565b9050611165828261111f565b919050565b5f67ffffffffffffffff821115611184576111836110f2565b5b61118d826110e2565b9050602081019050919050565b828183375f83830152505050565b5f6111ba6111b58461116a565b611150565b9050828152602081018484840111156111d6576111d56110de565b5b6111e184828561119a565b509392505050565b5f82601f8301126111fd576111fc6110da565b5b813561120d8482602086016111a8565b91505092915050565b5f80fd5b5f80fd5b5f8083601f840112611233576112326110da565b5b8235905067ffffffffffffffff8111156112505761124f611216565b5b60208301915083602082028301111561126c5761126b61121a565b5b9250929050565b5f8083601f840112611288576112876110da565b5b8235905067ffffffffffffffff8111156112a5576112a4611216565b5b6020830191508360208202830111156112c1576112c061121a565b5b9250929050565b5f805f805f606086880312156112e1576112e06110d2565b5b5f86013567ffffffffffffffff8111156112fe576112fd6110d6565b5b61130a888289016111e9565b955050602086013567ffffffffffffffff81111561132b5761132a6110d6565b5b6113378882890161121e565b9450945050604086013567ffffffffffffffff81111561135a576113596110d6565b5b61136688828901611273565b92509250509295509295909350565b5f819050919050565b61138781611375565b8114611391575f80fd5b50565b5f813590506113a28161137e565b92915050565b5f67ffffffffffffffff8211156113c2576113c16110f2565b5b602082029050602081019050919050565b5f6113e56113e0846113a8565b611150565b905080838252602082019050602084028301858111156114085761140761121a565b5b835b81811015611431578061141d8882611394565b84526020840193505060208101905061140a565b5050509392505050565b5f82601f83011261144f5761144e6110da565b5b813561145f8482602086016113d3565b91505092915050565b5f819050919050565b61147a81611468565b8114611484575f80fd5b50565b5f8135905061149581611471565b92915050565b5f805f80608085870312156114b3576114b26110d2565b5b5f6114c087828801611394565b945050602085013567ffffffffffffffff8111156114e1576114e06110d6565b5b6114ed8782880161143b565b93505060406114fe87828801611394565b925050606061150f87828801611487565b91505092959194509250565b5f8115159050919050565b61152f8161151b565b82525050565b5f6020820190506115485f830184611526565b92915050565b5f60208284031215611563576115626110d2565b5b5f82013567ffffffffffffffff8111156115805761157f6110d6565b5b61158c848285016111e9565b91505092915050565b5f73ffffffffffffffffffffffffffffffffffffffff82169050919050565b5f6115be82611595565b9050919050565b6115ce816115b4565b82525050565b5f81519050919050565b5f82825260208201905092915050565b5f5b8381101561160b5780820151818401526020810190506115f0565b5f8484015250505050565b5f611620826115d4565b61162a81856115de565b935061163a8185602086016115ee565b611643816110e2565b840191505092915050565b61165781611468565b82525050565b5f60c0820190506116705f8301896115c5565b81810360208301526116828188611616565b9050611691604083018761164e565b61169e606083018661164e565b6116ab6080830185611526565b6116b860a083018461164e565b979650505050505050565b5f602082840312156116d8576116d76110d2565b5b5f6116e584828501611394565b91505092915050565b6116f781611375565b82525050565b5f6020820190506117105f8301846116ee565b92915050565b5f6020820190506117295f8301846115c5565b92915050565b6117388161151b565b8114611742575f80fd5b50565b5f813590506117538161172f565b92915050565b611762816115b4565b811461176c575f80fd5b50565b5f8135905061177d81611759565b92915050565b5f805f805f60a0868803121561179c5761179b6110d2565b5b5f86013567ffffffffffffffff8111156117b9576117b86110d6565b5b6117c5888289016111e9565b95505060206117d688828901611487565b94505060406117e788828901611487565b93505060606117f888828901611745565b92505060806118098882890161176f565b9150509295509295909350565b61181f816115b4565b82525050565b5f82825260208201905092915050565b5f61183f826115d4565b6118498185611825565b93506118598185602086016115ee565b611862816110e2565b840191505092915050565b61187681611468565b82525050565b6118858161151b565b82525050565b5f60c083015f8301516118a05f860182611816565b50602083015184820360208601526118b88282611835565b91505060408301516118cd604086018261186d565b5060608301516118e0606086018261186d565b5060808301516118f3608086018261187c565b5060a083015161190660a086018261186d565b508091505092915050565b5f6020820190508181035f830152611929818461188b565b905092915050565b5f8083601f840112611946576119456110da565b5b8235905067ffffffffffffffff81111561196357611962611216565b5b60208301915083600182028301111561197f5761197e61121a565b5b9250929050565b5f805f805f805f805f60e08a8c0312156119a3576119a26110d2565b5b5f6119b08c828d01611394565b99505060208a013567ffffffffffffffff8111156119d1576119d06110d6565b5b6119dd8c828d0161121e565b985098505060406119f08c828d01611487565b9650506060611a018c828d01611487565b95505060808a013567ffffffffffffffff811115611a2257611a216110d6565b5b611a2e8c828d01611931565b945094505060a0611a418c828d01611394565b92505060c0611a528c828d0161176f565b9150509295985092959850929598565b5f819050919050565b5f611a85611a80611a7b84611595565b611a62565b611595565b9050919050565b5f611a9682611a6b565b9050919050565b5f611aa782611a8c565b9050919050565b611ab781611a9d565b82525050565b5f602082019050611ad05f830184611aae565b92915050565b5f60208284031215611aeb57611aea6110d2565b5b5f611af88482850161176f565b91505092915050565b5f602082019050611b145f83018461164e565b92915050565b5f81905092915050565b5f611b2e826115d4565b611b388185611b1a565b9350611b488185602086016115ee565b80840191505092915050565b5f611b5f8284611b24565b915081905092915050565b7f44617461736574206e6f7420666f722073616c650000000000000000000000005f82015250565b5f611b9e6014836115de565b9150611ba982611b6a565b602082019050919050565b5f6020820190508181035f830152611bcb81611b92565b9050919050565b7f4e487b71000000000000000000000000000000000000000000000000000000005f52603260045260245ffd5b7f496e76616c69642064617461207175616c6974790000000000000000000000005f82015250565b5f611c336014836115de565b9150611c3e82611bff565b602082019050919050565b5f6020820190508181035f830152611c6081611c27565b9050919050565b7f4e487b71000000000000000000000000000000000000000000000000000000005f52601160045260245ffd5b5f611c9e82611468565b9150611ca983611468565b9250828201905080821115611cc157611cc0611c67565b5b92915050565b5f611cd182611468565b91507fffffffffffffffffffffffffffffffffffffffffffffffffffffffffffffffff8203611d0357611d02611c67565b5b600182019050919050565b5f611d1882611468565b9150611d2383611468565b9250828202611d3181611468565b91508282048414831517611d4857611d47611c67565b5b5092915050565b7f4e487b71000000000000000000000000000000000000000000000000000000005f52601260045260245ffd5b5f611d8682611468565b9150611d9183611468565b925082611da157611da0611d4f565b5b828204905092915050565b5f81519050611dba81611471565b92915050565b5f60208284031215611dd557611dd46110d2565b5b5f611de284828501611dac565b91505092915050565b7f496e73756666696369656e7420434744582062616c616e6365000000000000005f82015250565b5f611e1f6019836115de565b9150611e2a82611deb565b602082019050919050565b5f6020820190508181035f830152611e4c81611e13565b9050919050565b5f606082019050611e665f8301866115c5565b611e7360208301856115c5565b611e80604083018461164e565b949350505050565b5f81519050611e968161172f565b92915050565b5f60208284031215611eb157611eb06110d2565b5b5f611ebe84828501611e88565b91505092915050565b7f546f6b656e207472616e73666572206661696c656400000000000000000000005f82015250565b5f611efb6015836115de565b9150611f0682611ec7565b602082019050919050565b5f6020820190508181035f830152611f2881611eef565b9050919050565b5f82825260208201905092915050565b5f80fd5b82818337505050565b5f611f578385611f2f565b93507f07ffffffffffffffffffffffffffffffffffffffffffffffffffffffffffffff831115611f8a57611f89611f3f565b5b602083029250611f9b838584611f43565b82840190509392505050565b5f6080820190508181035f830152611fc0818789611f4c565b9050611fcf602083018661164e565b8181036040830152611fe18185611616565b9050611ff060608301846115c5565b9695505050505050565b5f61200482611468565b915061200f83611468565b92508261201f5761201e611d4f565b5b828206905092915050565b5f819050919050565b61204461203f82611375565b61202a565b82525050565b5f6120558285612033565b6020820191506120658284612033565b6020820191508190509392505050565b7f4e487b71000000000000000000000000000000000000000000000000000000005f52602260045260245ffd5b5f60028204905060018216806120b957607f821691505b6020821081036120cc576120cb612075565b5b50919050565b7f4e6f742074686520636f6e7472616374206f776e6572000000000000000000005f82015250565b5f6121066016836115de565b9150612111826120d2565b602082019050919050565b5f6020820190508181035f830152612133816120fa565b9050919050565b5f819050815f5260205f209050919050565b5f6020601f8301049050919050565b5f82821b905092915050565b5f600883026121967fffffffffffffffffffffffffffffffffffffffffffffffffffffffffffffffff8261215b565b6121a0868361215b565b95508019841693508086168417925050509392505050565b5f6121d26121cd6121c884611468565b611a62565b611468565b9050919050565b5f819050919050565b6121eb836121b8565b6121ff6121f7826121d9565b848454612167565b825550505050565b5f90565b612213612207565b61221e8184846121e2565b505050565b5b81811015612241576122365f8261220b565b600181019050612224565b5050565b601f821115612286576122578161213a565b6122608461214c565b8101602085101561226f578190505b61228361227b8561214c565b830182612223565b50505b505050565b5f82821c905092915050565b5f6122a65f198460080261228b565b1980831691505092915050565b5f6122be8383612297565b9150826002028217905092915050565b6122d7826115d4565b67ffffffffffffffff8111156122f0576122ef6110f2565b5b6122fa82546120a2565b612305828285612245565b5f60209050601f831160018114612336575f8415612324578287015190505b61232e85826122b3565b865550612395565b601f1984166123448661213a565b5f5b8281101561236b57848901518255600182019150602085019450602081019050612346565b868310156123885784890151612384601f891682612297565b8355505b6001600288020188555050505b505050505050565b7f496e76616c6964204d65726b6c652070726f6f660000000000000000000000005f82015250565b5f6123d16014836115de565b91506123dc8261239d565b602082019050919050565b5f6020820190508181035f8301526123fe816123c5565b9050919050565b5f6124108385611b1a565b935061241d83858461119a565b82840190509392505050565b5f612435828486612405565b91508190509392505050565b7f496e76616c6964206461746120706f6f6c0000000000000000000000000000005f82015250565b5f6124756011836115de565b915061248082612441565b602082019050919050565b5f6020820190508181035f8301526124a281612469565b9050919050565b5f6124b483856115de565b93506124c183858461119a565b6124ca836110e2565b840190509392505050565b5f6040820190508181035f8301526124ee8185876124a9565b90506124fd602083018461164e565b949350505050565b5f6040820190506125185f8301856115c5565b61252560208301846115c5565b939250505056fea264697066735822122088c894b0adf59a3d8b6cd495de1d1bbbec9378c526fbccecdff7e3f4dee9ec9f64736f6c63430008150033",
  "immutableReferences": {},
  "source": "// SPDX-License-Identifier: MIT\r\npragma solidity ^0.8.0;\r\n\r\nimport \"@openzeppelin/contracts/token/ERC20/IERC20.sol\";\r\n\r\ncontract DecentralizedDataMarketplace {\r\n    struct DataPool {\r\n        address data_pool_owner;\r\n        string data_pool_id;\r\n        uint256 max_incentive;\r\n        uint256 num_uploads;\r\n        bool availableForPurchase;\r\n        uint256 price_per_upload;\r\n    }\r\n\r\n    mapping(string => DataPool) public dataPools;\r\n    bytes32 public DataUploadmerkleRoot;\r\n    address public owner;\r\n    IERC20 public cgdxToken;\r\n\r\n    event DataSetPurchased(\r\n        address indexed buyer,\r\n        string dataPoolId,\r\n        uint256 price\r\n    );\r\n    event DataUploadCompleted(string dataPoolId, uint256 numUploads);\r\n    event LogMerkleRootUpdated(bytes32 newRoot);\r\n    event LogTokenTransfer(address indexed userAddress, uint256 tokenReward);\r\n    event LogApproval(address indexed owner, address spender, uint256 value);\r\n    event DataUploadsPurchased(\r\n        bytes32[] uploadHashes,\r\n        uint256 dataQuality,\r\n        string dataPoolId,\r\n        address userAddress\r\n    );\r\n\r\n    constructor(bytes32 _merkleRoot, address _cgdxTokenAddress) {\r\n        owner = msg.sender;\r\n        DataUploadmerkleRoot = _merkleRoot;\r\n        cgdxToken = IERC20(_cgdxTokenAddress);\r\n    }\r\n\r\n    modifier onlyOwner() {\r\n        require(msg.sender == owner, \"Not the contract owner\");\r\n        _;\r\n    }\r\n\r\n    function getAllowance(address spender) public view returns (uint256) {\r\n        return cgdxToken.allowance(owner, spender);\r\n    }\r\n\r\n    function updateDataUploadMerkleRoot(bytes32 newRoot) public onlyOwner {\r\n        DataUploadmerkleRoot = newRoot;\r\n        emit LogMerkleRootUpdated(newRoot);\r\n    }\r\n\r\n    function getDataUploadMerkleRoot() external view returns (bytes32) {\r\n        return DataUploadmerkleRoot;\r\n    }\r\n\r\n    function uploadIncentive(\r\n        bytes32 uploadHash,\r\n        bytes32[] calldata proof,\r\n        uint256 dataQuality,\r\n        uint256 index,\r\n        string calldata dataPoolId,\r\n        bytes32 newMerkleRoot,\r\n        address userAddress\r\n    ) external onlyOwner {\r\n        require(\r\n            verifyMerkleProof(DataUploadmerkleRoot, proof, uploadHash, index),\r\n            \"Invalid Merkle proof\"\r\n        );\r\n        require(dataQuality > 0 && dataQuality <= 10, \"Invalid data quality\");\r\n\r\n        DataPool storage pool = dataPools[dataPoolId];\r\n        require(pool.max_incentive > 0, \"Invalid data pool\");\r\n\r\n        uint256 reward = (dataQuality * pool.max_incentive) / 10;\r\n        pool.num_uploads++;\r\n\r\n        DataUploadmerkleRoot = newMerkleRoot;\r\n        uint256 tokenReward = reward * 10 ** 18;\r\n\r\n        // Handle the transfer result properly\r\n        bool success = cgdxToken.transferFrom(owner, userAddress, tokenReward);\r\n        require(success, \"Token transfer failed\");\r\n\r\n        emit DataUploadCompleted(dataPoolId, pool.num_uploads);\r\n        emit LogTokenTransfer(userAddress, tokenReward);\r\n    }\r\n\r\n    function purchaseUploads(\r\n        string memory dataPoolId,\r\n        bytes32[] calldata uploadHashes,\r\n        uint256[] calldata dataQualities\r\n    ) external {\r\n        DataPool storage pool = dataPools[dataPoolId];\r\n        require(pool.availableForPurchase, \"Dataset not for sale\");\r\n\r\n        uint256 total_quality = 0;\r\n        uint256 total_price_of_data = 0;\r\n        uint256 scale = 10 ** 18; // Define scale factor for fixed-point arithmetic\r\n\r\n        // Calculate total data quality\r\n        for (uint256 i = 0; i < uploadHashes.length; i++) {\r\n            require(\r\n                dataQualities[i] > 0 && dataQualities[i] <= 10,\r\n                \"Invalid data quality\"\r\n            );\r\n\r\n            total_quality += dataQualities[i];\r\n        }\r\n\r\n        // Calculate average data quality, scaled to avoid precision loss\r\n        // We multiply by `scale` first before dividing to avoid float truncation\r\n        uint256 average_quality = (total_quality * scale) /\r\n            (dataQualities.length * 10);\r\n\r\n        // Calculate total price based on average data quality and price per upload\r\n        total_price_of_data =\r\n            average_quality *\r\n            pool.price_per_upload *\r\n            uploadHashes.length;\r\n\r\n        // Check CGDX token balance\r\n        require(\r\n            cgdxToken.balanceOf(msg.sender) >= total_price_of_data,\r\n            \"Insufficient CGDX balance\"\r\n        );\r\n\r\n        // Transfer CGDX tokens to the owner\r\n        require(\r\n            cgdxToken.transferFrom(\r\n                msg.sender,\r\n                pool.data_pool_owner,\r\n                total_price_of_data\r\n            ),\r\n            \"Token transfer failed\"\r\n        );\r\n\r\n        // Emit event for data uploads purchase\r\n        emit DataUploadsPurchased(\r\n            uploadHashes,\r\n            average_quality,\r\n            dataPoolId,\r\n            msg.sender\r\n        );\r\n    }\r\n\r\n    function verifyMerkleProof(\r\n        bytes32 _root,\r\n        bytes32[] memory _proof,\r\n        bytes32 _leaf,\r\n        uint256 index\r\n    ) public pure returns (bool) {\r\n        bytes32 computedHash = _leaf;\r\n\r\n        for (uint256 i = 0; i < _proof.length; i++) {\r\n            bytes32 proofElement = _proof[i];\r\n\r\n            if (index % 2 == 0) {\r\n                computedHash = keccak256(\r\n                    abi.encodePacked(computedHash, proofElement)\r\n                );\r\n            } else {\r\n                computedHash = keccak256(\r\n                    abi.encodePacked(proofElement, computedHash)\r\n                );\r\n            }\r\n\r\n            index /= 2;\r\n        }\r\n\r\n        return computedHash == _root;\r\n    }\r\n\r\n    function addDataPool(\r\n        string memory poolId,\r\n        uint256 maxIncentive,\r\n        uint256 price_per_upload,\r\n        bool availableForPurchase,\r\n        address dataPoolOwner\r\n    ) external onlyOwner {\r\n        dataPools[poolId] = DataPool(\r\n            dataPoolOwner,\r\n            poolId,\r\n            maxIncentive,\r\n            0,\r\n            availableForPurchase,\r\n            price_per_upload\r\n        );\r\n    }\r\n\r\n    function getDataPool(\r\n        string memory poolId\r\n    ) external view returns (DataPool memory) {\r\n        return dataPools[poolId];\r\n    }\r\n}\r\n",
  "sourcePath": "/home/tjy/cognidex/moonbeam-smart-contracts/contracts/DecentralizedDataMarketplace.sol",
  "compiler": {
    "name": "solc",
    "version": "0.8.21+commit.d9974bed.Emscripten.clang"
  },
  "schemaVersion": "3.4.16",
  "updatedAt": "2024-10-17T07:55:13.998Z",
  "networkType": "ethereum",
  "devdoc": {
    "kind": "dev",
    "methods": {},
    "version": 1
  },
  "userdoc": {
    "kind": "user",
    "methods": {},
    "version": 1
  }
}